{
  "_format": "hh-sol-artifact-1",
  "contractName": "NftBridgeEth",
  "sourceName": "contracts/NftBridgeEth.sol",
  "abi": [
    {
      "inputs": [],
      "stateMutability": "nonpayable",
      "type": "constructor"
    },
    {
      "anonymous": false,
      "inputs": [
        {
          "indexed": true,
          "internalType": "address",
          "name": "owner",
          "type": "address"
        },
        {
          "indexed": true,
          "internalType": "address",
          "name": "approved",
          "type": "address"
        },
        {
          "indexed": true,
          "internalType": "uint256",
          "name": "tokenId",
          "type": "uint256"
        }
      ],
      "name": "Approval",
      "type": "event"
    },
    {
      "anonymous": false,
      "inputs": [
        {
          "indexed": true,
          "internalType": "address",
          "name": "owner",
          "type": "address"
        },
        {
          "indexed": true,
          "internalType": "address",
          "name": "operator",
          "type": "address"
        },
        {
          "indexed": false,
          "internalType": "bool",
          "name": "approved",
          "type": "bool"
        }
      ],
      "name": "ApprovalForAll",
      "type": "event"
    },
    {
      "anonymous": false,
      "inputs": [
        {
          "indexed": false,
          "internalType": "address",
          "name": "_from",
          "type": "address"
        },
        {
          "indexed": false,
          "internalType": "string",
          "name": "_uri",
          "type": "string"
        },
        {
          "indexed": false,
          "internalType": "uint256",
          "name": "_tokenId",
          "type": "uint256"
        },
        {
          "indexed": false,
          "internalType": "enum NftBridgeEth.SourceChain",
          "name": "_sourceChain",
          "type": "uint8"
        },
        {
          "indexed": false,
          "internalType": "enum NftBridgeEth.DestinationChain",
          "name": "_destinationChain",
          "type": "uint8"
        }
      ],
      "name": "LockedNft",
      "type": "event"
    },
    {
      "anonymous": false,
      "inputs": [
        {
          "indexed": false,
          "internalType": "address",
          "name": "_to",
          "type": "address"
        },
        {
          "indexed": true,
          "internalType": "uint256",
          "name": "_tokenId",
          "type": "uint256"
        },
        {
          "indexed": false,
          "internalType": "string",
          "name": "_uri",
          "type": "string"
        }
      ],
      "name": "NftTransferedToDestinationChain",
      "type": "event"
    },
    {
      "anonymous": false,
      "inputs": [
        {
          "indexed": true,
          "internalType": "address",
          "name": "previousOwner",
          "type": "address"
        },
        {
          "indexed": true,
          "internalType": "address",
          "name": "newOwner",
          "type": "address"
        }
      ],
      "name": "OwnershipTransferred",
      "type": "event"
    },
    {
      "anonymous": false,
      "inputs": [
        {
          "indexed": true,
          "internalType": "address",
          "name": "from",
          "type": "address"
        },
        {
          "indexed": true,
          "internalType": "address",
          "name": "to",
          "type": "address"
        },
        {
          "indexed": true,
          "internalType": "uint256",
          "name": "tokenId",
          "type": "uint256"
        }
      ],
      "name": "Transfer",
      "type": "event"
    },
    {
      "inputs": [
        {
          "internalType": "address",
          "name": "to",
          "type": "address"
        },
        {
          "internalType": "uint256",
          "name": "tokenId",
          "type": "uint256"
        }
      ],
      "name": "approve",
      "outputs": [],
      "stateMutability": "nonpayable",
      "type": "function"
    },
    {
      "inputs": [
        {
          "internalType": "address",
          "name": "owner",
          "type": "address"
        }
      ],
      "name": "balanceOf",
      "outputs": [
        {
          "internalType": "uint256",
          "name": "",
          "type": "uint256"
        }
      ],
      "stateMutability": "view",
      "type": "function"
    },
    {
      "inputs": [
        {
          "internalType": "uint256",
          "name": "tokenId",
          "type": "uint256"
        }
      ],
      "name": "getApproved",
      "outputs": [
        {
          "internalType": "address",
          "name": "",
          "type": "address"
        }
      ],
      "stateMutability": "view",
      "type": "function"
    },
    {
      "inputs": [
        {
          "internalType": "address",
          "name": "owner",
          "type": "address"
        },
        {
          "internalType": "address",
          "name": "operator",
          "type": "address"
        }
      ],
      "name": "isApprovedForAll",
      "outputs": [
        {
          "internalType": "bool",
          "name": "",
          "type": "bool"
        }
      ],
      "stateMutability": "view",
      "type": "function"
    },
    {
      "inputs": [
        {
          "internalType": "enum NftBridgeEth.SourceChain",
          "name": "sourceChain",
          "type": "uint8"
        },
        {
          "internalType": "enum NftBridgeEth.DestinationChain",
          "name": "destinationChain",
          "type": "uint8"
        },
        {
          "internalType": "uint256",
          "name": "tokenId",
          "type": "uint256"
        },
        {
          "internalType": "string",
          "name": "uri",
          "type": "string"
        },
        {
          "internalType": "bytes32",
          "name": "hash",
          "type": "bytes32"
        },
        {
          "internalType": "bytes",
          "name": "signature",
          "type": "bytes"
        }
      ],
      "name": "lockNft",
      "outputs": [],
      "stateMutability": "nonpayable",
      "type": "function"
    },
    {
      "inputs": [],
      "name": "name",
      "outputs": [
        {
          "internalType": "string",
          "name": "",
          "type": "string"
        }
      ],
      "stateMutability": "view",
      "type": "function"
    },
    {
      "inputs": [],
      "name": "owner",
      "outputs": [
        {
          "internalType": "address",
          "name": "",
          "type": "address"
        }
      ],
      "stateMutability": "view",
      "type": "function"
    },
    {
      "inputs": [
        {
          "internalType": "uint256",
          "name": "tokenId",
          "type": "uint256"
        }
      ],
      "name": "ownerOf",
      "outputs": [
        {
          "internalType": "address",
          "name": "",
          "type": "address"
        }
      ],
      "stateMutability": "view",
      "type": "function"
    },
    {
      "inputs": [],
      "name": "renounceOwnership",
      "outputs": [],
      "stateMutability": "nonpayable",
      "type": "function"
    },
    {
      "inputs": [
        {
          "internalType": "address",
          "name": "from",
          "type": "address"
        },
        {
          "internalType": "address",
          "name": "to",
          "type": "address"
        },
        {
          "internalType": "uint256",
          "name": "tokenId",
          "type": "uint256"
        }
      ],
      "name": "safeTransferFrom",
      "outputs": [],
      "stateMutability": "nonpayable",
      "type": "function"
    },
    {
      "inputs": [
        {
          "internalType": "address",
          "name": "from",
          "type": "address"
        },
        {
          "internalType": "address",
          "name": "to",
          "type": "address"
        },
        {
          "internalType": "uint256",
          "name": "tokenId",
          "type": "uint256"
        },
        {
          "internalType": "bytes",
          "name": "data",
          "type": "bytes"
        }
      ],
      "name": "safeTransferFrom",
      "outputs": [],
      "stateMutability": "nonpayable",
      "type": "function"
    },
    {
      "inputs": [
        {
          "internalType": "address",
          "name": "operator",
          "type": "address"
        },
        {
          "internalType": "bool",
          "name": "approved",
          "type": "bool"
        }
      ],
      "name": "setApprovalForAll",
      "outputs": [],
      "stateMutability": "nonpayable",
      "type": "function"
    },
    {
      "inputs": [
        {
          "internalType": "bytes4",
          "name": "interfaceId",
          "type": "bytes4"
        }
      ],
      "name": "supportsInterface",
      "outputs": [
        {
          "internalType": "bool",
          "name": "",
          "type": "bool"
        }
      ],
      "stateMutability": "view",
      "type": "function"
    },
    {
      "inputs": [],
      "name": "symbol",
      "outputs": [
        {
          "internalType": "string",
          "name": "",
          "type": "string"
        }
      ],
      "stateMutability": "view",
      "type": "function"
    },
    {
      "inputs": [
        {
          "internalType": "uint256",
          "name": "tokenId",
          "type": "uint256"
        }
      ],
      "name": "tokenURI",
      "outputs": [
        {
          "internalType": "string",
          "name": "",
          "type": "string"
        }
      ],
      "stateMutability": "view",
      "type": "function"
    },
    {
      "inputs": [
        {
          "internalType": "address",
          "name": "from",
          "type": "address"
        },
        {
          "internalType": "address",
          "name": "to",
          "type": "address"
        },
        {
          "internalType": "uint256",
          "name": "tokenId",
          "type": "uint256"
        }
      ],
      "name": "transferFrom",
      "outputs": [],
      "stateMutability": "nonpayable",
      "type": "function"
    },
    {
      "inputs": [
        {
          "internalType": "address",
          "name": "recipient",
          "type": "address"
        },
        {
          "internalType": "string",
          "name": "uri",
          "type": "string"
        },
        {
          "internalType": "uint256",
          "name": "tokenId",
          "type": "uint256"
        }
      ],
      "name": "transferNft",
      "outputs": [],
      "stateMutability": "nonpayable",
      "type": "function"
    },
    {
      "inputs": [
        {
          "internalType": "address",
          "name": "newOwner",
          "type": "address"
        }
      ],
      "name": "transferOwnership",
      "outputs": [],
      "stateMutability": "nonpayable",
      "type": "function"
    }
  ],
  "bytecode": "0x60806040523480156200001157600080fd5b506040518060400160405280600c81526020017f4e667442726964676545746800000000000000000000000000000000000000008152506040518060400160405280600581526020017f4e424554480000000000000000000000000000000000000000000000000000008152506200009e62000092620000df60201b60201c565b620000e760201b60201c565b600180819055508160029080519060200190620000bd929190620001ab565b508060039080519060200190620000d6929190620001ab565b505050620002c0565b600033905090565b60008060009054906101000a900473ffffffffffffffffffffffffffffffffffffffff169050816000806101000a81548173ffffffffffffffffffffffffffffffffffffffff021916908373ffffffffffffffffffffffffffffffffffffffff1602179055508173ffffffffffffffffffffffffffffffffffffffff168173ffffffffffffffffffffffffffffffffffffffff167f8be0079c531659141344cd1fd0a4f28419497f9722a3daafe3b4186f6b6457e060405160405180910390a35050565b828054620001b9906200025b565b90600052602060002090601f016020900481019282620001dd576000855562000229565b82601f10620001f857805160ff191683800117855562000229565b8280016001018555821562000229579182015b82811115620002285782518255916020019190600101906200020b565b5b5090506200023891906200023c565b5090565b5b80821115620002575760008160009055506001016200023d565b5090565b600060028204905060018216806200027457607f821691505b602082108114156200028b576200028a62000291565b5b50919050565b7f4e487b7100000000000000000000000000000000000000000000000000000000600052602260045260246000fd5b613eb880620002d06000396000f3fe608060405234801561001057600080fd5b50600436106101165760003560e01c8063715018a6116100a2578063b88d4fde11610071578063b88d4fde146102cb578063c87b56dd146102e7578063d4f2c28514610317578063e985e9c514610333578063f2fde38b1461036357610116565b8063715018a6146102695780638da5cb5b1461027357806395d89b4114610291578063a22cb465146102af57610116565b806323b872dd116100e957806323b872dd146101b55780633e6caa7b146101d157806342842e0e146101ed5780636352211e1461020957806370a082311461023957610116565b806301ffc9a71461011b57806306fdde031461014b578063081812fc14610169578063095ea7b314610199575b600080fd5b610135600480360381019061013091906129c9565b61037f565b6040516101429190613103565b60405180910390f35b610153610461565b6040516101609190613163565b60405180910390f35b610183600480360381019061017e9190612ae8565b6104f3565b6040516101909190613012565b60405180910390f35b6101b360048036038101906101ae9190612989565b610539565b005b6101cf60048036038101906101ca9190612804565b610651565b005b6101eb60048036038101906101e6919061291a565b6106b1565b005b61020760048036038101906102029190612804565b6107cc565b005b610223600480360381019061021e9190612ae8565b6107ec565b6040516102309190613012565b60405180910390f35b610253600480360381019061024e9190612797565b610873565b6040516102609190613465565b60405180910390f35b61027161092b565b005b61027b61093f565b6040516102889190613012565b60405180910390f35b610299610968565b6040516102a69190613163565b60405180910390f35b6102c960048036038101906102c491906128da565b6109fa565b005b6102e560048036038101906102e09190612857565b610a10565b005b61030160048036038101906102fc9190612ae8565b610a72565b60405161030e9190613163565b60405180910390f35b610331600480360381019061032c9190612a23565b610a84565b005b61034d600480360381019061034891906127c4565b610cb0565b60405161035a9190613103565b60405180910390f35b61037d60048036038101906103789190612797565b610d44565b005b60007f80ac58cd000000000000000000000000000000000000000000000000000000007bffffffffffffffffffffffffffffffffffffffffffffffffffffffff1916827bffffffffffffffffffffffffffffffffffffffffffffffffffffffff1916148061044a57507f5b5e139f000000000000000000000000000000000000000000000000000000007bffffffffffffffffffffffffffffffffffffffffffffffffffffffff1916827bffffffffffffffffffffffffffffffffffffffffffffffffffffffff1916145b8061045a575061045982610dc8565b5b9050919050565b606060028054610470906136f6565b80601f016020809104026020016040519081016040528092919081815260200182805461049c906136f6565b80156104e95780601f106104be576101008083540402835291602001916104e9565b820191906000526020600020905b8154815290600101906020018083116104cc57829003601f168201915b5050505050905090565b60006104fe82610e32565b6006600083815260200190815260200160002060009054906101000a900473ffffffffffffffffffffffffffffffffffffffff169050919050565b6000610544826107ec565b90508073ffffffffffffffffffffffffffffffffffffffff168373ffffffffffffffffffffffffffffffffffffffff1614156105b5576040517f08c379a00000000000000000000000000000000000000000000000000000000081526004016105ac906133c5565b60405180910390fd5b8073ffffffffffffffffffffffffffffffffffffffff166105d4610e7d565b73ffffffffffffffffffffffffffffffffffffffff1614806106035750610602816105fd610e7d565b610cb0565b5b610642576040517f08c379a0000000000000000000000000000000000000000000000000000000008152600401610639906133e5565b60405180910390fd5b61064c8383610e85565b505050565b61066261065c610e7d565b82610f3e565b6106a1576040517f08c379a0000000000000000000000000000000000000000000000000000000008152600401610698906131a5565b60405180910390fd5b6106ac838383610fd3565b505050565b6106b96112cd565b6106c161134b565b600073ffffffffffffffffffffffffffffffffffffffff168373ffffffffffffffffffffffffffffffffffffffff161415610731576040517f08c379a000000000000000000000000000000000000000000000000000000000815260040161072890613385565b60405180910390fd5b61073a8161139b565b1561077a576040517f08c379a000000000000000000000000000000000000000000000000000000000815260040161077190613405565b60405180910390fd5b807f3de8cbbb2b0c7e856c104db60ab7521788a58cb7210352d1dbf5f8a55b99fe0a84846040516107ac929190613079565b60405180910390a26107bf8382846113dc565b6107c76113f5565b505050565b6107e783838360405180602001604052806000815250610a10565b505050565b6000806107f8836113fe565b9050600073ffffffffffffffffffffffffffffffffffffffff168173ffffffffffffffffffffffffffffffffffffffff16141561086a576040517f08c379a0000000000000000000000000000000000000000000000000000000008152600401610861906133a5565b60405180910390fd5b80915050919050565b60008073ffffffffffffffffffffffffffffffffffffffff168273ffffffffffffffffffffffffffffffffffffffff1614156108e4576040517f08c379a00000000000000000000000000000000000000000000000000000000081526004016108db90613305565b60405180910390fd5b600560008373ffffffffffffffffffffffffffffffffffffffff1673ffffffffffffffffffffffffffffffffffffffff168152602001908152602001600020549050919050565b6109336112cd565b61093d600061143b565b565b60008060009054906101000a900473ffffffffffffffffffffffffffffffffffffffff16905090565b606060038054610977906136f6565b80601f01602080910402602001604051908101604052809291908181526020018280546109a3906136f6565b80156109f05780601f106109c5576101008083540402835291602001916109f0565b820191906000526020600020905b8154815290600101906020018083116109d357829003601f168201915b5050505050905090565b610a0c610a05610e7d565b83836114ff565b5050565b610a21610a1b610e7d565b83610f3e565b610a60576040517f08c379a0000000000000000000000000000000000000000000000000000000008152600401610a57906131a5565b60405180910390fd5b610a6c8484848461166c565b50505050565b6060610a7d826116c8565b9050919050565b610a8c61134b565b60006002811115610aa057610a9f6137c1565b5b866002811115610ab357610ab26137c1565b5b148015610ae5575060006002811115610acf57610ace6137c1565b5b856002811115610ae257610ae16137c1565b5b14155b610b24576040517f08c379a0000000000000000000000000000000000000000000000000000000008152600401610b1b906132c5565b60405180910390fd5b610b2c61093f565b73ffffffffffffffffffffffffffffffffffffffff16610b4c83836117db565b73ffffffffffffffffffffffffffffffffffffffff1614610ba2576040517f08c379a0000000000000000000000000000000000000000000000000000000008152600401610b9990613265565b60405180910390fd5b600981604051610bb29190612fb1565b908152602001604051809103902060009054906101000a900460ff1615610c0e576040517f08c379a0000000000000000000000000000000000000000000000000000000008152600401610c0590613425565b60405180910390fd5b610c193385856113dc565b7f6350129c18d9141f730c1a62c58c009ac10d4fb98d1333727efdf48ac0e6231933610c4486610a72565b868989604051610c589594939291906130a9565b60405180910390a1610c698461181a565b6001600982604051610c7b9190612fb1565b908152602001604051809103902060006101000a81548160ff021916908315150217905550610ca86113f5565b505050505050565b6000600760008473ffffffffffffffffffffffffffffffffffffffff1673ffffffffffffffffffffffffffffffffffffffff16815260200190815260200160002060008373ffffffffffffffffffffffffffffffffffffffff1673ffffffffffffffffffffffffffffffffffffffff16815260200190815260200160002060009054906101000a900460ff16905092915050565b610d4c6112cd565b600073ffffffffffffffffffffffffffffffffffffffff168173ffffffffffffffffffffffffffffffffffffffff161415610dbc576040517f08c379a0000000000000000000000000000000000000000000000000000000008152600401610db390613205565b60405180910390fd5b610dc58161143b565b50565b60007f01ffc9a7000000000000000000000000000000000000000000000000000000007bffffffffffffffffffffffffffffffffffffffffffffffffffffffff1916827bffffffffffffffffffffffffffffffffffffffffffffffffffffffff1916149050919050565b610e3b8161139b565b610e7a576040517f08c379a0000000000000000000000000000000000000000000000000000000008152600401610e71906133a5565b60405180910390fd5b50565b600033905090565b816006600083815260200190815260200160002060006101000a81548173ffffffffffffffffffffffffffffffffffffffff021916908373ffffffffffffffffffffffffffffffffffffffff160217905550808273ffffffffffffffffffffffffffffffffffffffff16610ef8836107ec565b73ffffffffffffffffffffffffffffffffffffffff167f8c5be1e5ebec7d5bd14f71427d1e84f3dd0314c0f7b2291e5b200ac8c7c3b92560405160405180910390a45050565b600080610f4a836107ec565b90508073ffffffffffffffffffffffffffffffffffffffff168473ffffffffffffffffffffffffffffffffffffffff161480610f8c5750610f8b8185610cb0565b5b80610fca57508373ffffffffffffffffffffffffffffffffffffffff16610fb2846104f3565b73ffffffffffffffffffffffffffffffffffffffff16145b91505092915050565b8273ffffffffffffffffffffffffffffffffffffffff16610ff3826107ec565b73ffffffffffffffffffffffffffffffffffffffff1614611049576040517f08c379a000000000000000000000000000000000000000000000000000000000815260040161104090613225565b60405180910390fd5b600073ffffffffffffffffffffffffffffffffffffffff168273ffffffffffffffffffffffffffffffffffffffff1614156110b9576040517f08c379a00000000000000000000000000000000000000000000000000000000081526004016110b090613285565b60405180910390fd5b6110c68383836001611826565b8273ffffffffffffffffffffffffffffffffffffffff166110e6826107ec565b73ffffffffffffffffffffffffffffffffffffffff161461113c576040517f08c379a000000000000000000000000000000000000000000000000000000000815260040161113390613225565b60405180910390fd5b6006600082815260200190815260200160002060006101000a81549073ffffffffffffffffffffffffffffffffffffffff02191690556001600560008573ffffffffffffffffffffffffffffffffffffffff1673ffffffffffffffffffffffffffffffffffffffff168152602001908152602001600020600082825403925050819055506001600560008473ffffffffffffffffffffffffffffffffffffffff1673ffffffffffffffffffffffffffffffffffffffff16815260200190815260200160002060008282540192505081905550816004600083815260200190815260200160002060006101000a81548173ffffffffffffffffffffffffffffffffffffffff021916908373ffffffffffffffffffffffffffffffffffffffff160217905550808273ffffffffffffffffffffffffffffffffffffffff168473ffffffffffffffffffffffffffffffffffffffff167fddf252ad1be2c89b69c2b068fc378daa952ba7f163c4a11628f55a4df523b3ef60405160405180910390a46112c8838383600161194c565b505050565b6112d5610e7d565b73ffffffffffffffffffffffffffffffffffffffff166112f361093f565b73ffffffffffffffffffffffffffffffffffffffff1614611349576040517f08c379a000000000000000000000000000000000000000000000000000000000815260040161134090613365565b60405180910390fd5b565b60026001541415611391576040517f08c379a000000000000000000000000000000000000000000000000000000000815260040161138890613445565b60405180910390fd5b6002600181905550565b60008073ffffffffffffffffffffffffffffffffffffffff166113bd836113fe565b73ffffffffffffffffffffffffffffffffffffffff1614159050919050565b6113e68383611952565b6113f08282611970565b505050565b60018081905550565b60006004600083815260200190815260200160002060009054906101000a900473ffffffffffffffffffffffffffffffffffffffff169050919050565b60008060009054906101000a900473ffffffffffffffffffffffffffffffffffffffff169050816000806101000a81548173ffffffffffffffffffffffffffffffffffffffff021916908373ffffffffffffffffffffffffffffffffffffffff1602179055508173ffffffffffffffffffffffffffffffffffffffff168173ffffffffffffffffffffffffffffffffffffffff167f8be0079c531659141344cd1fd0a4f28419497f9722a3daafe3b4186f6b6457e060405160405180910390a35050565b8173ffffffffffffffffffffffffffffffffffffffff168373ffffffffffffffffffffffffffffffffffffffff16141561156e576040517f08c379a0000000000000000000000000000000000000000000000000000000008152600401611565906132a5565b60405180910390fd5b80600760008573ffffffffffffffffffffffffffffffffffffffff1673ffffffffffffffffffffffffffffffffffffffff16815260200190815260200160002060008473ffffffffffffffffffffffffffffffffffffffff1673ffffffffffffffffffffffffffffffffffffffff16815260200190815260200160002060006101000a81548160ff0219169083151502179055508173ffffffffffffffffffffffffffffffffffffffff168373ffffffffffffffffffffffffffffffffffffffff167f17307eab39ab6107e8899845ad3d59bd9653f200f220920489ca2b5937696c318360405161165f9190613103565b60405180910390a3505050565b611677848484610fd3565b611683848484846119e4565b6116c2576040517f08c379a00000000000000000000000000000000000000000000000000000000081526004016116b9906131e5565b60405180910390fd5b50505050565b60606116d382610e32565b60006008600084815260200190815260200160002080546116f3906136f6565b80601f016020809104026020016040519081016040528092919081815260200182805461171f906136f6565b801561176c5780601f106117415761010080835404028352916020019161176c565b820191906000526020600020905b81548152906001019060200180831161174f57829003601f168201915b50505050509050600061177d611b7b565b90506000815114156117935781925050506117d6565b6000825111156117c85780826040516020016117b0929190612fc8565b604051602081830303815290604052925050506117d6565b6117d184611b92565b925050505b919050565b600080836040516020016117ef9190612fec565b6040516020818303038152906040528051906020012090506118118184611bfa565b91505092915050565b61182381611c21565b50565b600181111561194657600073ffffffffffffffffffffffffffffffffffffffff168473ffffffffffffffffffffffffffffffffffffffff16146118ba5780600560008673ffffffffffffffffffffffffffffffffffffffff1673ffffffffffffffffffffffffffffffffffffffff16815260200190815260200160002060008282546118b291906135ab565b925050819055505b600073ffffffffffffffffffffffffffffffffffffffff168373ffffffffffffffffffffffffffffffffffffffff16146119455780600560008573ffffffffffffffffffffffffffffffffffffffff1673ffffffffffffffffffffffffffffffffffffffff168152602001908152602001600020600082825461193d9190613555565b925050819055505b5b50505050565b50505050565b61196c828260405180602001604052806000815250611c74565b5050565b6119798261139b565b6119b8576040517f08c379a00000000000000000000000000000000000000000000000000000000081526004016119af90613325565b60405180910390fd5b806008600084815260200190815260200160002090805190602001906119df92919061252c565b505050565b6000611a058473ffffffffffffffffffffffffffffffffffffffff16611ccf565b15611b6e578373ffffffffffffffffffffffffffffffffffffffff1663150b7a02611a2e610e7d565b8786866040518563ffffffff1660e01b8152600401611a50949392919061302d565b602060405180830381600087803b158015611a6a57600080fd5b505af1925050508015611a9b57506040513d601f19601f82011682018060405250810190611a9891906129f6565b60015b611b1e573d8060008114611acb576040519150601f19603f3d011682016040523d82523d6000602084013e611ad0565b606091505b50600081511415611b16576040517f08c379a0000000000000000000000000000000000000000000000000000000008152600401611b0d906131e5565b60405180910390fd5b805181602001fd5b63150b7a0260e01b7bffffffffffffffffffffffffffffffffffffffffffffffffffffffff1916817bffffffffffffffffffffffffffffffffffffffffffffffffffffffff191614915050611b73565b600190505b949350505050565b606060405180602001604052806000815250905090565b6060611b9d82610e32565b6000611ba7611b7b565b90506000815111611bc75760405180602001604052806000815250611bf2565b80611bd184611cf2565b604051602001611be2929190612fc8565b6040516020818303038152906040525b915050919050565b6000806000611c098585611dca565b91509150611c1681611e1c565b819250505092915050565b611c2a81611f8a565b6000600860008381526020019081526020016000208054611c4a906136f6565b905014611c7157600860008281526020019081526020016000206000611c7091906125b2565b5b50565b611c7e83836120d8565b611c8b60008484846119e4565b611cca576040517f08c379a0000000000000000000000000000000000000000000000000000000008152600401611cc1906131e5565b60405180910390fd5b505050565b6000808273ffffffffffffffffffffffffffffffffffffffff163b119050919050565b606060006001611d01846122f6565b01905060008167ffffffffffffffff811115611d2057611d1f61381f565b5b6040519080825280601f01601f191660200182016040528015611d525781602001600182028036833780820191505090505b509050600082602001820190505b600115611dbf578080600190039150507f3031323334353637383961626364656600000000000000000000000000000000600a86061a8153600a8581611da957611da8613792565b5b0494506000851415611dba57611dbf565b611d60565b819350505050919050565b600080604183511415611e0c5760008060006020860151925060408601519150606086015160001a9050611e0087828585612449565b94509450505050611e15565b60006002915091505b9250929050565b60006004811115611e3057611e2f6137c1565b5b816004811115611e4357611e426137c1565b5b1415611e4e57611f87565b60016004811115611e6257611e616137c1565b5b816004811115611e7557611e746137c1565b5b1415611eb6576040517f08c379a0000000000000000000000000000000000000000000000000000000008152600401611ead90613185565b60405180910390fd5b60026004811115611eca57611ec96137c1565b5b816004811115611edd57611edc6137c1565b5b1415611f1e576040517f08c379a0000000000000000000000000000000000000000000000000000000008152600401611f15906131c5565b60405180910390fd5b60036004811115611f3257611f316137c1565b5b816004811115611f4557611f446137c1565b5b1415611f86576040517f08c379a0000000000000000000000000000000000000000000000000000000008152600401611f7d906132e5565b60405180910390fd5b5b50565b6000611f95826107ec565b9050611fa5816000846001611826565b611fae826107ec565b90506006600083815260200190815260200160002060006101000a81549073ffffffffffffffffffffffffffffffffffffffff02191690556001600560008373ffffffffffffffffffffffffffffffffffffffff1673ffffffffffffffffffffffffffffffffffffffff168152602001908152602001600020600082825403925050819055506004600083815260200190815260200160002060006101000a81549073ffffffffffffffffffffffffffffffffffffffff021916905581600073ffffffffffffffffffffffffffffffffffffffff168273ffffffffffffffffffffffffffffffffffffffff167fddf252ad1be2c89b69c2b068fc378daa952ba7f163c4a11628f55a4df523b3ef60405160405180910390a46120d481600084600161194c565b5050565b600073ffffffffffffffffffffffffffffffffffffffff168273ffffffffffffffffffffffffffffffffffffffff161415612148576040517f08c379a000000000000000000000000000000000000000000000000000000000815260040161213f90613345565b60405180910390fd5b6121518161139b565b15612191576040517f08c379a000000000000000000000000000000000000000000000000000000000815260040161218890613245565b60405180910390fd5b61219f600083836001611826565b6121a88161139b565b156121e8576040517f08c379a00000000000000000000000000000000000000000000000000000000081526004016121df90613245565b60405180910390fd5b6001600560008473ffffffffffffffffffffffffffffffffffffffff1673ffffffffffffffffffffffffffffffffffffffff16815260200190815260200160002060008282540192505081905550816004600083815260200190815260200160002060006101000a81548173ffffffffffffffffffffffffffffffffffffffff021916908373ffffffffffffffffffffffffffffffffffffffff160217905550808273ffffffffffffffffffffffffffffffffffffffff16600073ffffffffffffffffffffffffffffffffffffffff167fddf252ad1be2c89b69c2b068fc378daa952ba7f163c4a11628f55a4df523b3ef60405160405180910390a46122f260008383600161194c565b5050565b600080600090507a184f03e93ff9f4daa797ed6e38ed64bf6a1f0100000000000000008310612354577a184f03e93ff9f4daa797ed6e38ed64bf6a1f010000000000000000838161234a57612349613792565b5b0492506040810190505b6d04ee2d6d415b85acef81000000008310612391576d04ee2d6d415b85acef8100000000838161238757612386613792565b5b0492506020810190505b662386f26fc1000083106123c057662386f26fc1000083816123b6576123b5613792565b5b0492506010810190505b6305f5e10083106123e9576305f5e10083816123df576123de613792565b5b0492506008810190505b612710831061240e57612710838161240457612403613792565b5b0492506004810190505b60648310612431576064838161242757612426613792565b5b0492506002810190505b600a8310612440576001810190505b80915050919050565b6000807f7fffffffffffffffffffffffffffffff5d576e7357a4501ddfe92f46681b20a08360001c1115612484576000600391509150612523565b6000600187878787604051600081526020016040526040516124a9949392919061311e565b6020604051602081039080840390855afa1580156124cb573d6000803e3d6000fd5b505050602060405103519050600073ffffffffffffffffffffffffffffffffffffffff168173ffffffffffffffffffffffffffffffffffffffff16141561251a57600060019250925050612523565b80600092509250505b94509492505050565b828054612538906136f6565b90600052602060002090601f01602090048101928261255a57600085556125a1565b82601f1061257357805160ff19168380011785556125a1565b828001600101855582156125a1579182015b828111156125a0578251825591602001919060010190612585565b5b5090506125ae91906125f2565b5090565b5080546125be906136f6565b6000825580601f106125d057506125ef565b601f0160209004906000526020600020908101906125ee91906125f2565b5b50565b5b8082111561260b5760008160009055506001016125f3565b5090565b600061262261261d846134a5565b613480565b90508281526020810184848401111561263e5761263d613853565b5b6126498482856136b4565b509392505050565b600061266461265f846134d6565b613480565b9050828152602081018484840111156126805761267f613853565b5b61268b8482856136b4565b509392505050565b6000813590506126a281613def565b92915050565b6000813590506126b781613e06565b92915050565b6000813590506126cc81613e1d565b92915050565b6000813590506126e181613e34565b92915050565b6000815190506126f681613e34565b92915050565b600082601f8301126127115761271061384e565b5b813561272184826020860161260f565b91505092915050565b60008135905061273981613e4b565b92915050565b60008135905061274e81613e5b565b92915050565b600082601f8301126127695761276861384e565b5b8135612779848260208601612651565b91505092915050565b60008135905061279181613e6b565b92915050565b6000602082840312156127ad576127ac61385d565b5b60006127bb84828501612693565b91505092915050565b600080604083850312156127db576127da61385d565b5b60006127e985828601612693565b92505060206127fa85828601612693565b9150509250929050565b60008060006060848603121561281d5761281c61385d565b5b600061282b86828701612693565b935050602061283c86828701612693565b925050604061284d86828701612782565b9150509250925092565b600080600080608085870312156128715761287061385d565b5b600061287f87828801612693565b945050602061289087828801612693565b93505060406128a187828801612782565b925050606085013567ffffffffffffffff8111156128c2576128c1613858565b5b6128ce878288016126fc565b91505092959194509250565b600080604083850312156128f1576128f061385d565b5b60006128ff85828601612693565b9250506020612910858286016126a8565b9150509250929050565b6000806000606084860312156129335761293261385d565b5b600061294186828701612693565b935050602084013567ffffffffffffffff81111561296257612961613858565b5b61296e86828701612754565b925050604061297f86828701612782565b9150509250925092565b600080604083850312156129a05761299f61385d565b5b60006129ae85828601612693565b92505060206129bf85828601612782565b9150509250929050565b6000602082840312156129df576129de61385d565b5b60006129ed848285016126d2565b91505092915050565b600060208284031215612a0c57612a0b61385d565b5b6000612a1a848285016126e7565b91505092915050565b60008060008060008060c08789031215612a4057612a3f61385d565b5b6000612a4e89828a0161273f565b9650506020612a5f89828a0161272a565b9550506040612a7089828a01612782565b945050606087013567ffffffffffffffff811115612a9157612a90613858565b5b612a9d89828a01612754565b9350506080612aae89828a016126bd565b92505060a087013567ffffffffffffffff811115612acf57612ace613858565b5b612adb89828a016126fc565b9150509295509295509295565b600060208284031215612afe57612afd61385d565b5b6000612b0c84828501612782565b91505092915050565b612b1e816135df565b82525050565b612b2d816135f1565b82525050565b612b3c816135fd565b82525050565b612b53612b4e826135fd565b613759565b82525050565b6000612b6482613507565b612b6e818561351d565b9350612b7e8185602086016136c3565b612b8781613862565b840191505092915050565b6000612b9d82613507565b612ba7818561352e565b9350612bb78185602086016136c3565b80840191505092915050565b612bcc81613690565b82525050565b612bdb816136a2565b82525050565b6000612bec82613512565b612bf68185613539565b9350612c068185602086016136c3565b612c0f81613862565b840191505092915050565b6000612c2582613512565b612c2f818561354a565b9350612c3f8185602086016136c3565b80840191505092915050565b6000612c58601883613539565b9150612c6382613873565b602082019050919050565b6000612c7b602d83613539565b9150612c868261389c565b604082019050919050565b6000612c9e601f83613539565b9150612ca9826138eb565b602082019050919050565b6000612cc1601c8361354a565b9150612ccc82613914565b601c82019050919050565b6000612ce4603283613539565b9150612cef8261393d565b604082019050919050565b6000612d07602683613539565b9150612d128261398c565b604082019050919050565b6000612d2a602583613539565b9150612d35826139db565b604082019050919050565b6000612d4d601c83613539565b9150612d5882613a2a565b602082019050919050565b6000612d70601983613539565b9150612d7b82613a53565b602082019050919050565b6000612d93602483613539565b9150612d9e82613a7c565b604082019050919050565b6000612db6601983613539565b9150612dc182613acb565b602082019050919050565b6000612dd9600d83613539565b9150612de482613af4565b602082019050919050565b6000612dfc602283613539565b9150612e0782613b1d565b604082019050919050565b6000612e1f602983613539565b9150612e2a82613b6c565b604082019050919050565b6000612e42602e83613539565b9150612e4d82613bbb565b604082019050919050565b6000612e65602083613539565b9150612e7082613c0a565b602082019050919050565b6000612e88602083613539565b9150612e9382613c33565b602082019050919050565b6000612eab601383613539565b9150612eb682613c5c565b602082019050919050565b6000612ece601883613539565b9150612ed982613c85565b602082019050919050565b6000612ef1602183613539565b9150612efc82613cae565b604082019050919050565b6000612f14603d83613539565b9150612f1f82613cfd565b604082019050919050565b6000612f37601283613539565b9150612f4282613d4c565b602082019050919050565b6000612f5a601683613539565b9150612f6582613d75565b602082019050919050565b6000612f7d601f83613539565b9150612f8882613d9e565b602082019050919050565b612f9c81613679565b82525050565b612fab81613683565b82525050565b6000612fbd8284612b92565b915081905092915050565b6000612fd48285612c1a565b9150612fe08284612c1a565b91508190509392505050565b6000612ff782612cb4565b91506130038284612b42565b60208201915081905092915050565b60006020820190506130276000830184612b15565b92915050565b60006080820190506130426000830187612b15565b61304f6020830186612b15565b61305c6040830185612f93565b818103606083015261306e8184612b59565b905095945050505050565b600060408201905061308e6000830185612b15565b81810360208301526130a08184612be1565b90509392505050565b600060a0820190506130be6000830188612b15565b81810360208301526130d08187612be1565b90506130df6040830186612f93565b6130ec6060830185612bd2565b6130f96080830184612bc3565b9695505050505050565b60006020820190506131186000830184612b24565b92915050565b60006080820190506131336000830187612b33565b6131406020830186612fa2565b61314d6040830185612b33565b61315a6060830184612b33565b95945050505050565b6000602082019050818103600083015261317d8184612be1565b905092915050565b6000602082019050818103600083015261319e81612c4b565b9050919050565b600060208201905081810360008301526131be81612c6e565b9050919050565b600060208201905081810360008301526131de81612c91565b9050919050565b600060208201905081810360008301526131fe81612cd7565b9050919050565b6000602082019050818103600083015261321e81612cfa565b9050919050565b6000602082019050818103600083015261323e81612d1d565b9050919050565b6000602082019050818103600083015261325e81612d40565b9050919050565b6000602082019050818103600083015261327e81612d63565b9050919050565b6000602082019050818103600083015261329e81612d86565b9050919050565b600060208201905081810360008301526132be81612da9565b9050919050565b600060208201905081810360008301526132de81612dcc565b9050919050565b600060208201905081810360008301526132fe81612def565b9050919050565b6000602082019050818103600083015261331e81612e12565b9050919050565b6000602082019050818103600083015261333e81612e35565b9050919050565b6000602082019050818103600083015261335e81612e58565b9050919050565b6000602082019050818103600083015261337e81612e7b565b9050919050565b6000602082019050818103600083015261339e81612e9e565b9050919050565b600060208201905081810360008301526133be81612ec1565b9050919050565b600060208201905081810360008301526133de81612ee4565b9050919050565b600060208201905081810360008301526133fe81612f07565b9050919050565b6000602082019050818103600083015261341e81612f2a565b9050919050565b6000602082019050818103600083015261343e81612f4d565b9050919050565b6000602082019050818103600083015261345e81612f70565b9050919050565b600060208201905061347a6000830184612f93565b92915050565b600061348a61349b565b90506134968282613728565b919050565b6000604051905090565b600067ffffffffffffffff8211156134c0576134bf61381f565b5b6134c982613862565b9050602081019050919050565b600067ffffffffffffffff8211156134f1576134f061381f565b5b6134fa82613862565b9050602081019050919050565b600081519050919050565b600081519050919050565b600082825260208201905092915050565b600081905092915050565b600082825260208201905092915050565b600081905092915050565b600061356082613679565b915061356b83613679565b9250827fffffffffffffffffffffffffffffffffffffffffffffffffffffffffffffffff038211156135a05761359f613763565b5b828201905092915050565b60006135b682613679565b91506135c183613679565b9250828210156135d4576135d3613763565b5b828203905092915050565b60006135ea82613659565b9050919050565b60008115159050919050565b6000819050919050565b60007fffffffff0000000000000000000000000000000000000000000000000000000082169050919050565b600081905061364182613dc7565b919050565b600081905061365482613ddb565b919050565b600073ffffffffffffffffffffffffffffffffffffffff82169050919050565b6000819050919050565b600060ff82169050919050565b600061369b82613633565b9050919050565b60006136ad82613646565b9050919050565b82818337600083830152505050565b60005b838110156136e15780820151818401526020810190506136c6565b838111156136f0576000848401525b50505050565b6000600282049050600182168061370e57607f821691505b60208210811415613722576137216137f0565b5b50919050565b61373182613862565b810181811067ffffffffffffffff821117156137505761374f61381f565b5b80604052505050565b6000819050919050565b7f4e487b7100000000000000000000000000000000000000000000000000000000600052601160045260246000fd5b7f4e487b7100000000000000000000000000000000000000000000000000000000600052601260045260246000fd5b7f4e487b7100000000000000000000000000000000000000000000000000000000600052602160045260246000fd5b7f4e487b7100000000000000000000000000000000000000000000000000000000600052602260045260246000fd5b7f4e487b7100000000000000000000000000000000000000000000000000000000600052604160045260246000fd5b600080fd5b600080fd5b600080fd5b600080fd5b6000601f19601f8301169050919050565b7f45434453413a20696e76616c6964207369676e61747572650000000000000000600082015250565b7f4552433732313a2063616c6c6572206973206e6f7420746f6b656e206f776e6560008201527f72206f7220617070726f76656400000000000000000000000000000000000000602082015250565b7f45434453413a20696e76616c6964207369676e6174757265206c656e67746800600082015250565b7f19457468657265756d205369676e6564204d6573736167653a0a333200000000600082015250565b7f4552433732313a207472616e7366657220746f206e6f6e20455243373231526560008201527f63656976657220696d706c656d656e7465720000000000000000000000000000602082015250565b7f4f776e61626c653a206e6577206f776e657220697320746865207a65726f206160008201527f6464726573730000000000000000000000000000000000000000000000000000602082015250565b7f4552433732313a207472616e736665722066726f6d20696e636f72726563742060008201527f6f776e6572000000000000000000000000000000000000000000000000000000602082015250565b7f4552433732313a20746f6b656e20616c7265616479206d696e74656400000000600082015250565b7f41646472657373206973206e6f7420617574686f72697a656400000000000000600082015250565b7f4552433732313a207472616e7366657220746f20746865207a65726f2061646460008201527f7265737300000000000000000000000000000000000000000000000000000000602082015250565b7f4552433732313a20617070726f766520746f2063616c6c657200000000000000600082015250565b7f496e76616c696420636861696e00000000000000000000000000000000000000600082015250565b7f45434453413a20696e76616c6964207369676e6174757265202773272076616c60008201527f7565000000000000000000000000000000000000000000000000000000000000602082015250565b7f4552433732313a2061646472657373207a65726f206973206e6f74206120766160008201527f6c6964206f776e65720000000000000000000000000000000000000000000000602082015250565b7f45524337323155524953746f726167653a2055524920736574206f66206e6f6e60008201527f6578697374656e7420746f6b656e000000000000000000000000000000000000602082015250565b7f4552433732313a206d696e7420746f20746865207a65726f2061646472657373600082015250565b7f4f776e61626c653a2063616c6c6572206973206e6f7420746865206f776e6572600082015250565b7f416464726573732063616e6e6f74206265203000000000000000000000000000600082015250565b7f4552433732313a20696e76616c696420746f6b656e2049440000000000000000600082015250565b7f4552433732313a20617070726f76616c20746f2063757272656e74206f776e6560008201527f7200000000000000000000000000000000000000000000000000000000000000602082015250565b7f4552433732313a20617070726f76652063616c6c6572206973206e6f7420746f60008201527f6b656e206f776e6572206f7220617070726f76656420666f7220616c6c000000602082015250565b7f4e667420616c7265616479206578697374730000000000000000000000000000600082015250565b7f416c7265616479207369676e6174757265207573656400000000000000000000600082015250565b7f5265656e7472616e637947756172643a207265656e7472616e742063616c6c00600082015250565b60038110613dd857613dd76137c1565b5b50565b60038110613dec57613deb6137c1565b5b50565b613df8816135df565b8114613e0357600080fd5b50565b613e0f816135f1565b8114613e1a57600080fd5b50565b613e26816135fd565b8114613e3157600080fd5b50565b613e3d81613607565b8114613e4857600080fd5b50565b60038110613e5857600080fd5b50565b60038110613e6857600080fd5b50565b613e7481613679565b8114613e7f57600080fd5b5056fea2646970667358221220aa40c30d33e2fcde266687407b5fc244748d8f918623844d5b04024c6edb3f1764736f6c63430008070033",
  "linkReferences": {},
  "deployedLinkReferences": {}
}