{
  "_format": "hh-sol-artifact-1",
  "contractName": "NftBridgeEth",
  "sourceName": "contracts/NftBridgeEth.sol",
  "abi": [
    {
      "inputs": [],
      "stateMutability": "nonpayable",
      "type": "constructor"
    },
    {
      "anonymous": false,
      "inputs": [
        {
          "indexed": true,
          "internalType": "address",
          "name": "owner",
          "type": "address"
        },
        {
          "indexed": true,
          "internalType": "address",
          "name": "approved",
          "type": "address"
        },
        {
          "indexed": true,
          "internalType": "uint256",
          "name": "tokenId",
          "type": "uint256"
        }
      ],
      "name": "Approval",
      "type": "event"
    },
    {
      "anonymous": false,
      "inputs": [
        {
          "indexed": true,
          "internalType": "address",
          "name": "owner",
          "type": "address"
        },
        {
          "indexed": true,
          "internalType": "address",
          "name": "operator",
          "type": "address"
        },
        {
          "indexed": false,
          "internalType": "bool",
          "name": "approved",
          "type": "bool"
        }
      ],
      "name": "ApprovalForAll",
      "type": "event"
    },
    {
      "anonymous": false,
      "inputs": [
        {
          "indexed": false,
          "internalType": "address",
          "name": "_from",
          "type": "address"
        },
        {
          "indexed": false,
          "internalType": "address",
          "name": "_to",
          "type": "address"
        },
        {
          "indexed": false,
          "internalType": "string",
          "name": "_uri",
          "type": "string"
        },
        {
          "indexed": false,
          "internalType": "uint256",
          "name": "_tokenId",
          "type": "uint256"
        },
        {
          "indexed": false,
          "internalType": "uint256",
          "name": "_value",
          "type": "uint256"
        },
        {
          "indexed": false,
          "internalType": "enum NftBridgeEth.SourceChain",
          "name": "_sourceChain",
          "type": "uint8"
        },
        {
          "indexed": false,
          "internalType": "enum NftBridgeEth.DestinationChain",
          "name": "_destinationChain",
          "type": "uint8"
        }
      ],
      "name": "LockedNft",
      "type": "event"
    },
    {
      "anonymous": false,
      "inputs": [
        {
          "indexed": false,
          "internalType": "address",
          "name": "_to",
          "type": "address"
        },
        {
          "indexed": false,
          "internalType": "string",
          "name": "_uri",
          "type": "string"
        }
      ],
      "name": "NftTransferedToDestinationChain",
      "type": "event"
    },
    {
      "anonymous": false,
      "inputs": [
        {
          "indexed": true,
          "internalType": "address",
          "name": "previousOwner",
          "type": "address"
        },
        {
          "indexed": true,
          "internalType": "address",
          "name": "newOwner",
          "type": "address"
        }
      ],
      "name": "OwnershipTransferred",
      "type": "event"
    },
    {
      "anonymous": false,
      "inputs": [
        {
          "indexed": true,
          "internalType": "address",
          "name": "from",
          "type": "address"
        },
        {
          "indexed": true,
          "internalType": "address",
          "name": "to",
          "type": "address"
        },
        {
          "indexed": true,
          "internalType": "uint256",
          "name": "tokenId",
          "type": "uint256"
        }
      ],
      "name": "Transfer",
      "type": "event"
    },
    {
      "inputs": [
        {
          "internalType": "address",
          "name": "to",
          "type": "address"
        },
        {
          "internalType": "uint256",
          "name": "tokenId",
          "type": "uint256"
        }
      ],
      "name": "approve",
      "outputs": [],
      "stateMutability": "nonpayable",
      "type": "function"
    },
    {
      "inputs": [
        {
          "internalType": "address",
          "name": "owner",
          "type": "address"
        }
      ],
      "name": "balanceOf",
      "outputs": [
        {
          "internalType": "uint256",
          "name": "",
          "type": "uint256"
        }
      ],
      "stateMutability": "view",
      "type": "function"
    },
    {
      "inputs": [
        {
          "internalType": "uint256",
          "name": "newSmartContractFees",
          "type": "uint256"
        }
      ],
      "name": "changeSmartContractFees",
      "outputs": [
        {
          "internalType": "uint256",
          "name": "",
          "type": "uint256"
        }
      ],
      "stateMutability": "nonpayable",
      "type": "function"
    },
    {
      "inputs": [
        {
          "internalType": "uint256",
          "name": "tokenId",
          "type": "uint256"
        }
      ],
      "name": "getApproved",
      "outputs": [
        {
          "internalType": "address",
          "name": "",
          "type": "address"
        }
      ],
      "stateMutability": "view",
      "type": "function"
    },
    {
      "inputs": [],
      "name": "getSmartContractFees",
      "outputs": [
        {
          "internalType": "uint256",
          "name": "",
          "type": "uint256"
        }
      ],
      "stateMutability": "view",
      "type": "function"
    },
    {
      "inputs": [
        {
          "internalType": "address",
          "name": "owner",
          "type": "address"
        },
        {
          "internalType": "address",
          "name": "operator",
          "type": "address"
        }
      ],
      "name": "isApprovedForAll",
      "outputs": [
        {
          "internalType": "bool",
          "name": "",
          "type": "bool"
        }
      ],
      "stateMutability": "view",
      "type": "function"
    },
    {
      "inputs": [
        {
          "internalType": "enum NftBridgeEth.SourceChain",
          "name": "sourceChain",
          "type": "uint8"
        },
        {
          "internalType": "enum NftBridgeEth.DestinationChain",
          "name": "destinationChain",
          "type": "uint8"
        },
        {
          "internalType": "uint256",
          "name": "tokenId",
          "type": "uint256"
        },
        {
          "internalType": "address",
          "name": "tokenAddress",
          "type": "address"
        },
        {
          "internalType": "bytes32",
          "name": "hash",
          "type": "bytes32"
        },
        {
          "internalType": "bytes",
          "name": "signature",
          "type": "bytes"
        }
      ],
      "name": "lockNft",
      "outputs": [],
      "stateMutability": "payable",
      "type": "function"
    },
    {
      "inputs": [],
      "name": "name",
      "outputs": [
        {
          "internalType": "string",
          "name": "",
          "type": "string"
        }
      ],
      "stateMutability": "view",
      "type": "function"
    },
    {
      "inputs": [],
      "name": "owner",
      "outputs": [
        {
          "internalType": "address",
          "name": "",
          "type": "address"
        }
      ],
      "stateMutability": "view",
      "type": "function"
    },
    {
      "inputs": [
        {
          "internalType": "uint256",
          "name": "tokenId",
          "type": "uint256"
        }
      ],
      "name": "ownerOf",
      "outputs": [
        {
          "internalType": "address",
          "name": "",
          "type": "address"
        }
      ],
      "stateMutability": "view",
      "type": "function"
    },
    {
      "inputs": [],
      "name": "renounceOwnership",
      "outputs": [],
      "stateMutability": "nonpayable",
      "type": "function"
    },
    {
      "inputs": [
        {
          "internalType": "address",
          "name": "from",
          "type": "address"
        },
        {
          "internalType": "address",
          "name": "to",
          "type": "address"
        },
        {
          "internalType": "uint256",
          "name": "tokenId",
          "type": "uint256"
        }
      ],
      "name": "safeTransferFrom",
      "outputs": [],
      "stateMutability": "nonpayable",
      "type": "function"
    },
    {
      "inputs": [
        {
          "internalType": "address",
          "name": "from",
          "type": "address"
        },
        {
          "internalType": "address",
          "name": "to",
          "type": "address"
        },
        {
          "internalType": "uint256",
          "name": "tokenId",
          "type": "uint256"
        },
        {
          "internalType": "bytes",
          "name": "data",
          "type": "bytes"
        }
      ],
      "name": "safeTransferFrom",
      "outputs": [],
      "stateMutability": "nonpayable",
      "type": "function"
    },
    {
      "inputs": [
        {
          "internalType": "address",
          "name": "operator",
          "type": "address"
        },
        {
          "internalType": "bool",
          "name": "approved",
          "type": "bool"
        }
      ],
      "name": "setApprovalForAll",
      "outputs": [],
      "stateMutability": "nonpayable",
      "type": "function"
    },
    {
      "inputs": [
        {
          "internalType": "bytes4",
          "name": "interfaceId",
          "type": "bytes4"
        }
      ],
      "name": "supportsInterface",
      "outputs": [
        {
          "internalType": "bool",
          "name": "",
          "type": "bool"
        }
      ],
      "stateMutability": "view",
      "type": "function"
    },
    {
      "inputs": [],
      "name": "symbol",
      "outputs": [
        {
          "internalType": "string",
          "name": "",
          "type": "string"
        }
      ],
      "stateMutability": "view",
      "type": "function"
    },
    {
      "inputs": [
        {
          "internalType": "uint256",
          "name": "tokenId",
          "type": "uint256"
        }
      ],
      "name": "tokenURI",
      "outputs": [
        {
          "internalType": "string",
          "name": "",
          "type": "string"
        }
      ],
      "stateMutability": "view",
      "type": "function"
    },
    {
      "inputs": [
        {
          "internalType": "address",
          "name": "from",
          "type": "address"
        },
        {
          "internalType": "address",
          "name": "to",
          "type": "address"
        },
        {
          "internalType": "uint256",
          "name": "tokenId",
          "type": "uint256"
        }
      ],
      "name": "transferFrom",
      "outputs": [],
      "stateMutability": "nonpayable",
      "type": "function"
    },
    {
      "inputs": [
        {
          "internalType": "address",
          "name": "recipient",
          "type": "address"
        },
        {
          "internalType": "string",
          "name": "uri",
          "type": "string"
        }
      ],
      "name": "transferNft",
      "outputs": [],
      "stateMutability": "nonpayable",
      "type": "function"
    },
    {
      "inputs": [
        {
          "internalType": "address",
          "name": "newOwner",
          "type": "address"
        }
      ],
      "name": "transferOwnership",
      "outputs": [],
      "stateMutability": "nonpayable",
      "type": "function"
    },
    {
      "inputs": [
        {
          "internalType": "address payable",
          "name": "recipient",
          "type": "address"
        }
      ],
      "name": "withdraw",
      "outputs": [],
      "stateMutability": "nonpayable",
      "type": "function"
    }
  ],
  "bytecode": "0x60806040526103e8600a553480156200001757600080fd5b506040518060400160405280600c81526020017f4e667442726964676545746800000000000000000000000000000000000000008152506040518060400160405280600581526020017f4e42455448000000000000000000000000000000000000000000000000000000815250620000a462000098620000e560201b60201c565b620000ed60201b60201c565b600180819055508160029080519060200190620000c3929190620001b1565b508060039080519060200190620000dc929190620001b1565b505050620002c6565b600033905090565b60008060009054906101000a900473ffffffffffffffffffffffffffffffffffffffff169050816000806101000a81548173ffffffffffffffffffffffffffffffffffffffff021916908373ffffffffffffffffffffffffffffffffffffffff1602179055508173ffffffffffffffffffffffffffffffffffffffff168173ffffffffffffffffffffffffffffffffffffffff167f8be0079c531659141344cd1fd0a4f28419497f9722a3daafe3b4186f6b6457e060405160405180910390a35050565b828054620001bf9062000261565b90600052602060002090601f016020900481019282620001e357600085556200022f565b82601f10620001fe57805160ff19168380011785556200022f565b828001600101855582156200022f579182015b828111156200022e57825182559160200191906001019062000211565b5b5090506200023e919062000242565b5090565b5b808211156200025d57600081600090555060010162000243565b5090565b600060028204905060018216806200027a57607f821691505b6020821081141562000291576200029062000297565b5b50919050565b7f4e487b7100000000000000000000000000000000000000000000000000000000600052602260045260246000fd5b61451380620002d66000396000f3fe60806040526004361061012a5760003560e01c8063715018a6116100ab578063ae12e7341161006f578063ae12e734146103dc578063b88d4fde146103f8578063c87b56dd14610421578063e985e9c51461045e578063f2fde38b1461049b578063f656eece146104c45761012a565b8063715018a61461031b5780638da5cb5b1461033257806395d89b411461035d5780639a3488b614610388578063a22cb465146103b35761012a565b806323b872dd116100f257806323b872dd1461022657806342842e0e1461024f57806351cff8d9146102785780636352211e146102a157806370a08231146102de5761012a565b806301ffc9a71461012f57806306fdde031461016c578063081812fc14610197578063095ea7b3146101d45780630fe74b25146101fd575b600080fd5b34801561013b57600080fd5b5061015660048036038101906101519190612dcb565b610501565b6040516101639190613611565b60405180910390f35b34801561017857600080fd5b506101816105e3565b60405161018e9190613671565b60405180910390f35b3480156101a357600080fd5b506101be60048036038101906101b99190612f17565b610675565b6040516101cb91906134cd565b60405180910390f35b3480156101e057600080fd5b506101fb60048036038101906101f69190612d8b565b6106bb565b005b34801561020957600080fd5b50610224600480360381019061021f9190612d2f565b6107d3565b005b34801561023257600080fd5b5061024d60048036038101906102489190612c19565b6108a2565b005b34801561025b57600080fd5b5061027660048036038101906102719190612c19565b610902565b005b34801561028457600080fd5b5061029f600480360381019061029a9190612bac565b610922565b005b3480156102ad57600080fd5b506102c860048036038101906102c39190612f17565b6109e4565b6040516102d591906134cd565b60405180910390f35b3480156102ea57600080fd5b5061030560048036038101906103009190612b52565b610a6b565b60405161031291906139f3565b60405180910390f35b34801561032757600080fd5b50610330610b23565b005b34801561033e57600080fd5b50610347610b37565b60405161035491906134cd565b60405180910390f35b34801561036957600080fd5b50610372610b60565b60405161037f9190613671565b60405180910390f35b34801561039457600080fd5b5061039d610bf2565b6040516103aa91906139f3565b60405180910390f35b3480156103bf57600080fd5b506103da60048036038101906103d59190612cef565b610bfc565b005b6103f660048036038101906103f19190612e25565b610c12565b005b34801561040457600080fd5b5061041f600480360381019061041a9190612c6c565b6110a6565b005b34801561042d57600080fd5b5061044860048036038101906104439190612f17565b611108565b6040516104559190613671565b60405180910390f35b34801561046a57600080fd5b5061048560048036038101906104809190612bd9565b61111a565b6040516104929190613611565b60405180910390f35b3480156104a757600080fd5b506104c260048036038101906104bd9190612b52565b6111ae565b005b3480156104d057600080fd5b506104eb60048036038101906104e69190612f17565b611232565b6040516104f891906139f3565b60405180910390f35b60007f80ac58cd000000000000000000000000000000000000000000000000000000007bffffffffffffffffffffffffffffffffffffffffffffffffffffffff1916827bffffffffffffffffffffffffffffffffffffffffffffffffffffffff191614806105cc57507f5b5e139f000000000000000000000000000000000000000000000000000000007bffffffffffffffffffffffffffffffffffffffffffffffffffffffff1916827bffffffffffffffffffffffffffffffffffffffffffffffffffffffff1916145b806105dc57506105db82611292565b5b9050919050565b6060600280546105f290613c96565b80601f016020809104026020016040519081016040528092919081815260200182805461061e90613c96565b801561066b5780601f106106405761010080835404028352916020019161066b565b820191906000526020600020905b81548152906001019060200180831161064e57829003601f168201915b5050505050905090565b6000610680826112fc565b6006600083815260200190815260200160002060009054906101000a900473ffffffffffffffffffffffffffffffffffffffff169050919050565b60006106c6826109e4565b90508073ffffffffffffffffffffffffffffffffffffffff168373ffffffffffffffffffffffffffffffffffffffff161415610737576040517f08c379a000000000000000000000000000000000000000000000000000000000815260040161072e90613953565b60405180910390fd5b8073ffffffffffffffffffffffffffffffffffffffff16610756611347565b73ffffffffffffffffffffffffffffffffffffffff16148061078557506107848161077f611347565b61111a565b5b6107c4576040517f08c379a00000000000000000000000000000000000000000000000000000000081526004016107bb90613973565b60405180910390fd5b6107ce838361134f565b505050565b6107db611408565b6107e3611486565b600073ffffffffffffffffffffffffffffffffffffffff168273ffffffffffffffffffffffffffffffffffffffff161415610853576040517f08c379a000000000000000000000000000000000000000000000000000000000815260040161084a90613913565b60405180910390fd5b7ff5e2cdb3c1806169fcc9a8e62feb5b0ed61f7825a7b228a0b2b9cdc124a3a1da82826040516108849291906135e1565b60405180910390a161089682826114d6565b61089e61150f565b5050565b6108b36108ad611347565b82611518565b6108f2576040517f08c379a00000000000000000000000000000000000000000000000000000000081526004016108e9906136b3565b60405180910390fd5b6108fd8383836115ad565b505050565b61091d838383604051806020016040528060008152506110a6565b505050565b61092a611408565b600073ffffffffffffffffffffffffffffffffffffffff168173ffffffffffffffffffffffffffffffffffffffff16141561099a576040517f08c379a000000000000000000000000000000000000000000000000000000000815260040161099190613833565b60405180910390fd5b8073ffffffffffffffffffffffffffffffffffffffff166108fc479081150290604051600060405180830381858888f193505050501580156109e0573d6000803e3d6000fd5b5050565b6000806109f0836118a7565b9050600073ffffffffffffffffffffffffffffffffffffffff168173ffffffffffffffffffffffffffffffffffffffff161415610a62576040517f08c379a0000000000000000000000000000000000000000000000000000000008152600401610a5990613933565b60405180910390fd5b80915050919050565b60008073ffffffffffffffffffffffffffffffffffffffff168273ffffffffffffffffffffffffffffffffffffffff161415610adc576040517f08c379a0000000000000000000000000000000000000000000000000000000008152600401610ad390613853565b60405180910390fd5b600560008373ffffffffffffffffffffffffffffffffffffffff1673ffffffffffffffffffffffffffffffffffffffff168152602001908152602001600020549050919050565b610b2b611408565b610b3560006118e4565b565b60008060009054906101000a900473ffffffffffffffffffffffffffffffffffffffff16905090565b606060038054610b6f90613c96565b80601f0160208091040260200160405190810160405280929190818152602001828054610b9b90613c96565b8015610be85780601f10610bbd57610100808354040283529160200191610be8565b820191906000526020600020905b815481529060010190602001808311610bcb57829003601f168201915b5050505050905090565b6000600a54905090565b610c0e610c07611347565b83836119a8565b5050565b610c1a611486565b6000341415610c5e576040517f08c379a0000000000000000000000000000000000000000000000000000000008152600401610c55906138d3565b60405180910390fd5b600a543414610ca2576040517f08c379a0000000000000000000000000000000000000000000000000000000008152600401610c9990613893565b60405180910390fd5b60006002811115610cb657610cb5613d61565b5b866002811115610cc957610cc8613d61565b5b148015610cfb575060006002811115610ce557610ce4613d61565b5b856002811115610cf857610cf7613d61565b5b14155b610d3a576040517f08c379a0000000000000000000000000000000000000000000000000000000008152600401610d31906137f3565b60405180910390fd5b610d42610b37565b73ffffffffffffffffffffffffffffffffffffffff16610d628383611b15565b73ffffffffffffffffffffffffffffffffffffffff1614610db8576040517f08c379a0000000000000000000000000000000000000000000000000000000008152600401610daf90613793565b60405180910390fd5b600b81604051610dc8919061346c565b908152602001604051809103902060009054906101000a900460ff1615610e24576040517f08c379a0000000000000000000000000000000000000000000000000000000008152600401610e1b906139b3565b60405180910390fd5b60008390503373ffffffffffffffffffffffffffffffffffffffff168173ffffffffffffffffffffffffffffffffffffffff16636352211e876040518263ffffffff1660e01b8152600401610e7991906139f3565b60206040518083038186803b158015610e9157600080fd5b505afa158015610ea5573d6000803e3d6000fd5b505050506040513d601f19601f82011682018060405250810190610ec99190612b7f565b73ffffffffffffffffffffffffffffffffffffffff1614610f1f576040517f08c379a0000000000000000000000000000000000000000000000000000000008152600401610f1690613733565b60405180910390fd5b8373ffffffffffffffffffffffffffffffffffffffff166323b872dd3330886040518463ffffffff1660e01b8152600401610f5c9392919061355e565b600060405180830381600087803b158015610f7657600080fd5b505af1158015610f8a573d6000803e3d6000fd5b505050507f077b4f649a490b65bd23bf638dec092f8438ff3e5fd0e495efcd71316f8b5f0833308373ffffffffffffffffffffffffffffffffffffffff1663c87b56dd896040518263ffffffff1660e01b8152600401610fea91906139f3565b60006040518083038186803b15801561100257600080fd5b505afa158015611016573d6000803e3d6000fd5b505050506040513d6000823e3d601f19601f8201168201806040525081019061103f9190612ece565b88348c8c60405161105697969594939291906134e8565b60405180910390a16001600b83604051611070919061346c565b908152602001604051809103902060006101000a81548160ff0219169083151502179055505061109e61150f565b505050505050565b6110b76110b1611347565b83611518565b6110f6576040517f08c379a00000000000000000000000000000000000000000000000000000000081526004016110ed906136b3565b60405180910390fd5b61110284848484611b54565b50505050565b606061111382611bb0565b9050919050565b6000600760008473ffffffffffffffffffffffffffffffffffffffff1673ffffffffffffffffffffffffffffffffffffffff16815260200190815260200160002060008373ffffffffffffffffffffffffffffffffffffffff1673ffffffffffffffffffffffffffffffffffffffff16815260200190815260200160002060009054906101000a900460ff16905092915050565b6111b6611408565b600073ffffffffffffffffffffffffffffffffffffffff168173ffffffffffffffffffffffffffffffffffffffff161415611226576040517f08c379a000000000000000000000000000000000000000000000000000000000815260040161121d90613713565b60405180910390fd5b61122f816118e4565b50565b600061123c611408565b81600a541415611281576040517f08c379a000000000000000000000000000000000000000000000000000000000815260040161127890613993565b60405180910390fd5b81600a81905550600a549050919050565b60007f01ffc9a7000000000000000000000000000000000000000000000000000000007bffffffffffffffffffffffffffffffffffffffffffffffffffffffff1916827bffffffffffffffffffffffffffffffffffffffffffffffffffffffff1916149050919050565b61130581611cc3565b611344576040517f08c379a000000000000000000000000000000000000000000000000000000000815260040161133b90613933565b60405180910390fd5b50565b600033905090565b816006600083815260200190815260200160002060006101000a81548173ffffffffffffffffffffffffffffffffffffffff021916908373ffffffffffffffffffffffffffffffffffffffff160217905550808273ffffffffffffffffffffffffffffffffffffffff166113c2836109e4565b73ffffffffffffffffffffffffffffffffffffffff167f8c5be1e5ebec7d5bd14f71427d1e84f3dd0314c0f7b2291e5b200ac8c7c3b92560405160405180910390a45050565b611410611347565b73ffffffffffffffffffffffffffffffffffffffff1661142e610b37565b73ffffffffffffffffffffffffffffffffffffffff1614611484576040517f08c379a000000000000000000000000000000000000000000000000000000000815260040161147b906138f3565b60405180910390fd5b565b600260015414156114cc576040517f08c379a00000000000000000000000000000000000000000000000000000000081526004016114c3906139d3565b60405180910390fd5b6002600181905550565b6114de611408565b60006114ea6009611d04565b90506114f66009611d12565b6115008382611d28565b61150a8183611d46565b505050565b60018081905550565b600080611524836109e4565b90508073ffffffffffffffffffffffffffffffffffffffff168473ffffffffffffffffffffffffffffffffffffffff1614806115665750611565818561111a565b5b806115a457508373ffffffffffffffffffffffffffffffffffffffff1661158c84610675565b73ffffffffffffffffffffffffffffffffffffffff16145b91505092915050565b8273ffffffffffffffffffffffffffffffffffffffff166115cd826109e4565b73ffffffffffffffffffffffffffffffffffffffff1614611623576040517f08c379a000000000000000000000000000000000000000000000000000000000815260040161161a90613753565b60405180910390fd5b600073ffffffffffffffffffffffffffffffffffffffff168273ffffffffffffffffffffffffffffffffffffffff161415611693576040517f08c379a000000000000000000000000000000000000000000000000000000000815260040161168a906137b3565b60405180910390fd5b6116a08383836001611dba565b8273ffffffffffffffffffffffffffffffffffffffff166116c0826109e4565b73ffffffffffffffffffffffffffffffffffffffff1614611716576040517f08c379a000000000000000000000000000000000000000000000000000000000815260040161170d90613753565b60405180910390fd5b6006600082815260200190815260200160002060006101000a81549073ffffffffffffffffffffffffffffffffffffffff02191690556001600560008573ffffffffffffffffffffffffffffffffffffffff1673ffffffffffffffffffffffffffffffffffffffff168152602001908152602001600020600082825403925050819055506001600560008473ffffffffffffffffffffffffffffffffffffffff1673ffffffffffffffffffffffffffffffffffffffff16815260200190815260200160002060008282540192505081905550816004600083815260200190815260200160002060006101000a81548173ffffffffffffffffffffffffffffffffffffffff021916908373ffffffffffffffffffffffffffffffffffffffff160217905550808273ffffffffffffffffffffffffffffffffffffffff168473ffffffffffffffffffffffffffffffffffffffff167fddf252ad1be2c89b69c2b068fc378daa952ba7f163c4a11628f55a4df523b3ef60405160405180910390a46118a28383836001611ee0565b505050565b60006004600083815260200190815260200160002060009054906101000a900473ffffffffffffffffffffffffffffffffffffffff169050919050565b60008060009054906101000a900473ffffffffffffffffffffffffffffffffffffffff169050816000806101000a81548173ffffffffffffffffffffffffffffffffffffffff021916908373ffffffffffffffffffffffffffffffffffffffff1602179055508173ffffffffffffffffffffffffffffffffffffffff168173ffffffffffffffffffffffffffffffffffffffff167f8be0079c531659141344cd1fd0a4f28419497f9722a3daafe3b4186f6b6457e060405160405180910390a35050565b8173ffffffffffffffffffffffffffffffffffffffff168373ffffffffffffffffffffffffffffffffffffffff161415611a17576040517f08c379a0000000000000000000000000000000000000000000000000000000008152600401611a0e906137d3565b60405180910390fd5b80600760008573ffffffffffffffffffffffffffffffffffffffff1673ffffffffffffffffffffffffffffffffffffffff16815260200190815260200160002060008473ffffffffffffffffffffffffffffffffffffffff1673ffffffffffffffffffffffffffffffffffffffff16815260200190815260200160002060006101000a81548160ff0219169083151502179055508173ffffffffffffffffffffffffffffffffffffffff168373ffffffffffffffffffffffffffffffffffffffff167f17307eab39ab6107e8899845ad3d59bd9653f200f220920489ca2b5937696c3183604051611b089190613611565b60405180910390a3505050565b60008083604051602001611b2991906134a7565b604051602081830303815290604052805190602001209050611b4b8184611ee6565b91505092915050565b611b5f8484846115ad565b611b6b84848484611f0d565b611baa576040517f08c379a0000000000000000000000000000000000000000000000000000000008152600401611ba1906136f3565b60405180910390fd5b50505050565b6060611bbb826112fc565b6000600860008481526020019081526020016000208054611bdb90613c96565b80601f0160208091040260200160405190810160405280929190818152602001828054611c0790613c96565b8015611c545780601f10611c2957610100808354040283529160200191611c54565b820191906000526020600020905b815481529060010190602001808311611c3757829003601f168201915b505050505090506000611c656120a4565b9050600081511415611c7b578192505050611cbe565b600082511115611cb0578082604051602001611c98929190613483565b60405160208183030381529060405292505050611cbe565b611cb9846120bb565b925050505b919050565b60008073ffffffffffffffffffffffffffffffffffffffff16611ce5836118a7565b73ffffffffffffffffffffffffffffffffffffffff1614159050919050565b600081600001549050919050565b6001816000016000828254019250508190555050565b611d42828260405180602001604052806000815250612123565b5050565b611d4f82611cc3565b611d8e576040517f08c379a0000000000000000000000000000000000000000000000000000000008152600401611d8590613873565b60405180910390fd5b80600860008481526020019081526020016000209080519060200190611db592919061288d565b505050565b6001811115611eda57600073ffffffffffffffffffffffffffffffffffffffff168473ffffffffffffffffffffffffffffffffffffffff1614611e4e5780600560008673ffffffffffffffffffffffffffffffffffffffff1673ffffffffffffffffffffffffffffffffffffffff1681526020019081526020016000206000828254611e469190613b39565b925050819055505b600073ffffffffffffffffffffffffffffffffffffffff168373ffffffffffffffffffffffffffffffffffffffff1614611ed95780600560008573ffffffffffffffffffffffffffffffffffffffff1673ffffffffffffffffffffffffffffffffffffffff1681526020019081526020016000206000828254611ed19190613ae3565b925050819055505b5b50505050565b50505050565b6000806000611ef5858561217e565b91509150611f02816121d0565b819250505092915050565b6000611f2e8473ffffffffffffffffffffffffffffffffffffffff1661233e565b15612097578373ffffffffffffffffffffffffffffffffffffffff1663150b7a02611f57611347565b8786866040518563ffffffff1660e01b8152600401611f799493929190613595565b602060405180830381600087803b158015611f9357600080fd5b505af1925050508015611fc457506040513d601f19601f82011682018060405250810190611fc19190612df8565b60015b612047573d8060008114611ff4576040519150601f19603f3d011682016040523d82523d6000602084013e611ff9565b606091505b5060008151141561203f576040517f08c379a0000000000000000000000000000000000000000000000000000000008152600401612036906136f3565b60405180910390fd5b805181602001fd5b63150b7a0260e01b7bffffffffffffffffffffffffffffffffffffffffffffffffffffffff1916817bffffffffffffffffffffffffffffffffffffffffffffffffffffffff19161491505061209c565b600190505b949350505050565b606060405180602001604052806000815250905090565b60606120c6826112fc565b60006120d06120a4565b905060008151116120f0576040518060200160405280600081525061211b565b806120fa84612361565b60405160200161210b929190613483565b6040516020818303038152906040525b915050919050565b61212d8383612439565b61213a6000848484611f0d565b612179576040517f08c379a0000000000000000000000000000000000000000000000000000000008152600401612170906136f3565b60405180910390fd5b505050565b6000806041835114156121c05760008060006020860151925060408601519150606086015160001a90506121b487828585612657565b945094505050506121c9565b60006002915091505b9250929050565b600060048111156121e4576121e3613d61565b5b8160048111156121f7576121f6613d61565b5b14156122025761233b565b6001600481111561221657612215613d61565b5b81600481111561222957612228613d61565b5b141561226a576040517f08c379a000000000000000000000000000000000000000000000000000000000815260040161226190613693565b60405180910390fd5b6002600481111561227e5761227d613d61565b5b81600481111561229157612290613d61565b5b14156122d2576040517f08c379a00000000000000000000000000000000000000000000000000000000081526004016122c9906136d3565b60405180910390fd5b600360048111156122e6576122e5613d61565b5b8160048111156122f9576122f8613d61565b5b141561233a576040517f08c379a000000000000000000000000000000000000000000000000000000000815260040161233190613813565b60405180910390fd5b5b50565b6000808273ffffffffffffffffffffffffffffffffffffffff163b119050919050565b6060600060016123708461273a565b01905060008167ffffffffffffffff81111561238f5761238e613dbf565b5b6040519080825280601f01601f1916602001820160405280156123c15781602001600182028036833780820191505090505b509050600082602001820190505b60011561242e578080600190039150507f3031323334353637383961626364656600000000000000000000000000000000600a86061a8153600a858161241857612417613d32565b5b04945060008514156124295761242e565b6123cf565b819350505050919050565b600073ffffffffffffffffffffffffffffffffffffffff168273ffffffffffffffffffffffffffffffffffffffff1614156124a9576040517f08c379a00000000000000000000000000000000000000000000000000000000081526004016124a0906138b3565b60405180910390fd5b6124b281611cc3565b156124f2576040517f08c379a00000000000000000000000000000000000000000000000000000000081526004016124e990613773565b60405180910390fd5b612500600083836001611dba565b61250981611cc3565b15612549576040517f08c379a000000000000000000000000000000000000000000000000000000000815260040161254090613773565b60405180910390fd5b6001600560008473ffffffffffffffffffffffffffffffffffffffff1673ffffffffffffffffffffffffffffffffffffffff16815260200190815260200160002060008282540192505081905550816004600083815260200190815260200160002060006101000a81548173ffffffffffffffffffffffffffffffffffffffff021916908373ffffffffffffffffffffffffffffffffffffffff160217905550808273ffffffffffffffffffffffffffffffffffffffff16600073ffffffffffffffffffffffffffffffffffffffff167fddf252ad1be2c89b69c2b068fc378daa952ba7f163c4a11628f55a4df523b3ef60405160405180910390a4612653600083836001611ee0565b5050565b6000807f7fffffffffffffffffffffffffffffff5d576e7357a4501ddfe92f46681b20a08360001c1115612692576000600391509150612731565b6000600187878787604051600081526020016040526040516126b7949392919061362c565b6020604051602081039080840390855afa1580156126d9573d6000803e3d6000fd5b505050602060405103519050600073ffffffffffffffffffffffffffffffffffffffff168173ffffffffffffffffffffffffffffffffffffffff16141561272857600060019250925050612731565b80600092509250505b94509492505050565b600080600090507a184f03e93ff9f4daa797ed6e38ed64bf6a1f0100000000000000008310612798577a184f03e93ff9f4daa797ed6e38ed64bf6a1f010000000000000000838161278e5761278d613d32565b5b0492506040810190505b6d04ee2d6d415b85acef810000000083106127d5576d04ee2d6d415b85acef810000000083816127cb576127ca613d32565b5b0492506020810190505b662386f26fc10000831061280457662386f26fc1000083816127fa576127f9613d32565b5b0492506010810190505b6305f5e100831061282d576305f5e100838161282357612822613d32565b5b0492506008810190505b612710831061285257612710838161284857612847613d32565b5b0492506004810190505b60648310612875576064838161286b5761286a613d32565b5b0492506002810190505b600a8310612884576001810190505b80915050919050565b82805461289990613c96565b90600052602060002090601f0160209004810192826128bb5760008555612902565b82601f106128d457805160ff1916838001178555612902565b82800160010185558215612902579182015b828111156129015782518255916020019190600101906128e6565b5b50905061290f9190612913565b5090565b5b8082111561292c576000816000905550600101612914565b5090565b600061294361293e84613a33565b613a0e565b90508281526020810184848401111561295f5761295e613df3565b5b61296a848285613c54565b509392505050565b600061298561298084613a64565b613a0e565b9050828152602081018484840111156129a1576129a0613df3565b5b6129ac848285613c54565b509392505050565b60006129c76129c284613a64565b613a0e565b9050828152602081018484840111156129e3576129e2613df3565b5b6129ee848285613c63565b509392505050565b600081359050612a0581614433565b92915050565b600081519050612a1a81614433565b92915050565b600081359050612a2f8161444a565b92915050565b600081359050612a4481614461565b92915050565b600081359050612a5981614478565b92915050565b600081359050612a6e8161448f565b92915050565b600081519050612a838161448f565b92915050565b600082601f830112612a9e57612a9d613dee565b5b8135612aae848260208601612930565b91505092915050565b600081359050612ac6816144a6565b92915050565b600081359050612adb816144b6565b92915050565b600082601f830112612af657612af5613dee565b5b8135612b06848260208601612972565b91505092915050565b600082601f830112612b2457612b23613dee565b5b8151612b348482602086016129b4565b91505092915050565b600081359050612b4c816144c6565b92915050565b600060208284031215612b6857612b67613dfd565b5b6000612b76848285016129f6565b91505092915050565b600060208284031215612b9557612b94613dfd565b5b6000612ba384828501612a0b565b91505092915050565b600060208284031215612bc257612bc1613dfd565b5b6000612bd084828501612a20565b91505092915050565b60008060408385031215612bf057612bef613dfd565b5b6000612bfe858286016129f6565b9250506020612c0f858286016129f6565b9150509250929050565b600080600060608486031215612c3257612c31613dfd565b5b6000612c40868287016129f6565b9350506020612c51868287016129f6565b9250506040612c6286828701612b3d565b9150509250925092565b60008060008060808587031215612c8657612c85613dfd565b5b6000612c94878288016129f6565b9450506020612ca5878288016129f6565b9350506040612cb687828801612b3d565b925050606085013567ffffffffffffffff811115612cd757612cd6613df8565b5b612ce387828801612a89565b91505092959194509250565b60008060408385031215612d0657612d05613dfd565b5b6000612d14858286016129f6565b9250506020612d2585828601612a35565b9150509250929050565b60008060408385031215612d4657612d45613dfd565b5b6000612d54858286016129f6565b925050602083013567ffffffffffffffff811115612d7557612d74613df8565b5b612d8185828601612ae1565b9150509250929050565b60008060408385031215612da257612da1613dfd565b5b6000612db0858286016129f6565b9250506020612dc185828601612b3d565b9150509250929050565b600060208284031215612de157612de0613dfd565b5b6000612def84828501612a5f565b91505092915050565b600060208284031215612e0e57612e0d613dfd565b5b6000612e1c84828501612a74565b91505092915050565b60008060008060008060c08789031215612e4257612e41613dfd565b5b6000612e5089828a01612acc565b9650506020612e6189828a01612ab7565b9550506040612e7289828a01612b3d565b9450506060612e8389828a016129f6565b9350506080612e9489828a01612a4a565b92505060a087013567ffffffffffffffff811115612eb557612eb4613df8565b5b612ec189828a01612a89565b9150509295509295509295565b600060208284031215612ee457612ee3613dfd565b5b600082015167ffffffffffffffff811115612f0257612f01613df8565b5b612f0e84828501612b0f565b91505092915050565b600060208284031215612f2d57612f2c613dfd565b5b6000612f3b84828501612b3d565b91505092915050565b612f4d81613b6d565b82525050565b612f5c81613b91565b82525050565b612f6b81613b9d565b82525050565b612f82612f7d82613b9d565b613cf9565b82525050565b6000612f9382613a95565b612f9d8185613aab565b9350612fad818560208601613c63565b612fb681613e02565b840191505092915050565b6000612fcc82613a95565b612fd68185613abc565b9350612fe6818560208601613c63565b80840191505092915050565b612ffb81613c30565b82525050565b61300a81613c42565b82525050565b600061301b82613aa0565b6130258185613ac7565b9350613035818560208601613c63565b61303e81613e02565b840191505092915050565b600061305482613aa0565b61305e8185613ad8565b935061306e818560208601613c63565b80840191505092915050565b6000613087601883613ac7565b915061309282613e13565b602082019050919050565b60006130aa602d83613ac7565b91506130b582613e3c565b604082019050919050565b60006130cd601f83613ac7565b91506130d882613e8b565b602082019050919050565b60006130f0601c83613ad8565b91506130fb82613eb4565b601c82019050919050565b6000613113603283613ac7565b915061311e82613edd565b604082019050919050565b6000613136602683613ac7565b915061314182613f2c565b604082019050919050565b6000613159601f83613ac7565b915061316482613f7b565b602082019050919050565b600061317c602583613ac7565b915061318782613fa4565b604082019050919050565b600061319f601c83613ac7565b91506131aa82613ff3565b602082019050919050565b60006131c2601983613ac7565b91506131cd8261401c565b602082019050919050565b60006131e5602483613ac7565b91506131f082614045565b604082019050919050565b6000613208601983613ac7565b915061321382614094565b602082019050919050565b600061322b600d83613ac7565b9150613236826140bd565b602082019050919050565b600061324e602283613ac7565b9150613259826140e6565b604082019050919050565b6000613271601683613ac7565b915061327c82614135565b602082019050919050565b6000613294602983613ac7565b915061329f8261415e565b604082019050919050565b60006132b7602e83613ac7565b91506132c2826141ad565b604082019050919050565b60006132da601483613ac7565b91506132e5826141fc565b602082019050919050565b60006132fd602083613ac7565b915061330882614225565b602082019050919050565b6000613320601583613ac7565b915061332b8261424e565b602082019050919050565b6000613343602083613ac7565b915061334e82614277565b602082019050919050565b6000613366601383613ac7565b9150613371826142a0565b602082019050919050565b6000613389601883613ac7565b9150613394826142c9565b602082019050919050565b60006133ac602183613ac7565b91506133b7826142f2565b604082019050919050565b60006133cf603d83613ac7565b91506133da82614341565b604082019050919050565b60006133f2601483613ac7565b91506133fd82614390565b602082019050919050565b6000613415601683613ac7565b9150613420826143b9565b602082019050919050565b6000613438601f83613ac7565b9150613443826143e2565b602082019050919050565b61345781613c19565b82525050565b61346681613c23565b82525050565b60006134788284612fc1565b915081905092915050565b600061348f8285613049565b915061349b8284613049565b91508190509392505050565b60006134b2826130e3565b91506134be8284612f71565b60208201915081905092915050565b60006020820190506134e26000830184612f44565b92915050565b600060e0820190506134fd600083018a612f44565b61350a6020830189612f44565b818103604083015261351c8188613010565b905061352b606083018761344e565b613538608083018661344e565b61354560a0830185613001565b61355260c0830184612ff2565b98975050505050505050565b60006060820190506135736000830186612f44565b6135806020830185612f44565b61358d604083018461344e565b949350505050565b60006080820190506135aa6000830187612f44565b6135b76020830186612f44565b6135c4604083018561344e565b81810360608301526135d68184612f88565b905095945050505050565b60006040820190506135f66000830185612f44565b81810360208301526136088184613010565b90509392505050565b60006020820190506136266000830184612f53565b92915050565b60006080820190506136416000830187612f62565b61364e602083018661345d565b61365b6040830185612f62565b6136686060830184612f62565b95945050505050565b6000602082019050818103600083015261368b8184613010565b905092915050565b600060208201905081810360008301526136ac8161307a565b9050919050565b600060208201905081810360008301526136cc8161309d565b9050919050565b600060208201905081810360008301526136ec816130c0565b9050919050565b6000602082019050818103600083015261370c81613106565b9050919050565b6000602082019050818103600083015261372c81613129565b9050919050565b6000602082019050818103600083015261374c8161314c565b9050919050565b6000602082019050818103600083015261376c8161316f565b9050919050565b6000602082019050818103600083015261378c81613192565b9050919050565b600060208201905081810360008301526137ac816131b5565b9050919050565b600060208201905081810360008301526137cc816131d8565b9050919050565b600060208201905081810360008301526137ec816131fb565b9050919050565b6000602082019050818103600083015261380c8161321e565b9050919050565b6000602082019050818103600083015261382c81613241565b9050919050565b6000602082019050818103600083015261384c81613264565b9050919050565b6000602082019050818103600083015261386c81613287565b9050919050565b6000602082019050818103600083015261388c816132aa565b9050919050565b600060208201905081810360008301526138ac816132cd565b9050919050565b600060208201905081810360008301526138cc816132f0565b9050919050565b600060208201905081810360008301526138ec81613313565b9050919050565b6000602082019050818103600083015261390c81613336565b9050919050565b6000602082019050818103600083015261392c81613359565b9050919050565b6000602082019050818103600083015261394c8161337c565b9050919050565b6000602082019050818103600083015261396c8161339f565b9050919050565b6000602082019050818103600083015261398c816133c2565b9050919050565b600060208201905081810360008301526139ac816133e5565b9050919050565b600060208201905081810360008301526139cc81613408565b9050919050565b600060208201905081810360008301526139ec8161342b565b9050919050565b6000602082019050613a08600083018461344e565b92915050565b6000613a18613a29565b9050613a248282613cc8565b919050565b6000604051905090565b600067ffffffffffffffff821115613a4e57613a4d613dbf565b5b613a5782613e02565b9050602081019050919050565b600067ffffffffffffffff821115613a7f57613a7e613dbf565b5b613a8882613e02565b9050602081019050919050565b600081519050919050565b600081519050919050565b600082825260208201905092915050565b600081905092915050565b600082825260208201905092915050565b600081905092915050565b6000613aee82613c19565b9150613af983613c19565b9250827fffffffffffffffffffffffffffffffffffffffffffffffffffffffffffffffff03821115613b2e57613b2d613d03565b5b828201905092915050565b6000613b4482613c19565b9150613b4f83613c19565b925082821015613b6257613b61613d03565b5b828203905092915050565b6000613b7882613bf9565b9050919050565b6000613b8a82613bf9565b9050919050565b60008115159050919050565b6000819050919050565b60007fffffffff0000000000000000000000000000000000000000000000000000000082169050919050565b6000819050613be18261440b565b919050565b6000819050613bf48261441f565b919050565b600073ffffffffffffffffffffffffffffffffffffffff82169050919050565b6000819050919050565b600060ff82169050919050565b6000613c3b82613bd3565b9050919050565b6000613c4d82613be6565b9050919050565b82818337600083830152505050565b60005b83811015613c81578082015181840152602081019050613c66565b83811115613c90576000848401525b50505050565b60006002820490506001821680613cae57607f821691505b60208210811415613cc257613cc1613d90565b5b50919050565b613cd182613e02565b810181811067ffffffffffffffff82111715613cf057613cef613dbf565b5b80604052505050565b6000819050919050565b7f4e487b7100000000000000000000000000000000000000000000000000000000600052601160045260246000fd5b7f4e487b7100000000000000000000000000000000000000000000000000000000600052601260045260246000fd5b7f4e487b7100000000000000000000000000000000000000000000000000000000600052602160045260246000fd5b7f4e487b7100000000000000000000000000000000000000000000000000000000600052602260045260246000fd5b7f4e487b7100000000000000000000000000000000000000000000000000000000600052604160045260246000fd5b600080fd5b600080fd5b600080fd5b600080fd5b6000601f19601f8301169050919050565b7f45434453413a20696e76616c6964207369676e61747572650000000000000000600082015250565b7f4552433732313a2063616c6c6572206973206e6f7420746f6b656e206f776e6560008201527f72206f7220617070726f76656400000000000000000000000000000000000000602082015250565b7f45434453413a20696e76616c6964207369676e6174757265206c656e67746800600082015250565b7f19457468657265756d205369676e6564204d6573736167653a0a333200000000600082015250565b7f4552433732313a207472616e7366657220746f206e6f6e20455243373231526560008201527f63656976657220696d706c656d656e7465720000000000000000000000000000602082015250565b7f4f776e61626c653a206e6577206f776e657220697320746865207a65726f206160008201527f6464726573730000000000000000000000000000000000000000000000000000602082015250565b7f4f6e6c7920746865206f776e65722063616e206c6f636b20746865204e465400600082015250565b7f4552433732313a207472616e736665722066726f6d20696e636f72726563742060008201527f6f776e6572000000000000000000000000000000000000000000000000000000602082015250565b7f4552433732313a20746f6b656e20616c7265616479206d696e74656400000000600082015250565b7f41646472657373206973206e6f7420617574686f72697a656400000000000000600082015250565b7f4552433732313a207472616e7366657220746f20746865207a65726f2061646460008201527f7265737300000000000000000000000000000000000000000000000000000000602082015250565b7f4552433732313a20617070726f766520746f2063616c6c657200000000000000600082015250565b7f496e76616c696420636861696e00000000000000000000000000000000000000600082015250565b7f45434453413a20696e76616c6964207369676e6174757265202773272076616c60008201527f7565000000000000000000000000000000000000000000000000000000000000602082015250565b7f416464726573732063616e6e6f74206265207a65726f00000000000000000000600082015250565b7f4552433732313a2061646472657373207a65726f206973206e6f74206120766160008201527f6c6964206f776e65720000000000000000000000000000000000000000000000602082015250565b7f45524337323155524953746f726167653a2055524920736574206f66206e6f6e60008201527f6578697374656e7420746f6b656e000000000000000000000000000000000000602082015250565b7f466565732073686f756c6420626520657175616c000000000000000000000000600082015250565b7f4552433732313a206d696e7420746f20746865207a65726f2061646472657373600082015250565b7f56616c75652073686f756c64206e6f7420626520300000000000000000000000600082015250565b7f4f776e61626c653a2063616c6c6572206973206e6f7420746865206f776e6572600082015250565b7f416464726573732063616e6e6f74206265203000000000000000000000000000600082015250565b7f4552433732313a20696e76616c696420746f6b656e2049440000000000000000600082015250565b7f4552433732313a20617070726f76616c20746f2063757272656e74206f776e6560008201527f7200000000000000000000000000000000000000000000000000000000000000602082015250565b7f4552433732313a20617070726f76652063616c6c6572206973206e6f7420746f60008201527f6b656e206f776e6572206f7220617070726f76656420666f7220616c6c000000602082015250565b7f4665657320697320616c72656164792073616d65000000000000000000000000600082015250565b7f416c7265616479207369676e6174757265207573656400000000000000000000600082015250565b7f5265656e7472616e637947756172643a207265656e7472616e742063616c6c00600082015250565b6003811061441c5761441b613d61565b5b50565b600381106144305761442f613d61565b5b50565b61443c81613b6d565b811461444757600080fd5b50565b61445381613b7f565b811461445e57600080fd5b50565b61446a81613b91565b811461447557600080fd5b50565b61448181613b9d565b811461448c57600080fd5b50565b61449881613ba7565b81146144a357600080fd5b50565b600381106144b357600080fd5b50565b600381106144c357600080fd5b50565b6144cf81613c19565b81146144da57600080fd5b5056fea2646970667358221220e4bfe16e70da9025e984df5996bff1bd146a940ec9c1bf45821f120d790dfd9f64736f6c63430008070033",
  "linkReferences": {},
  "deployedLinkReferences": {}
}