{
  "_format": "hh-sol-artifact-1",
  "contractName": "NftBridgeEth",
  "sourceName": "contracts/NftBridgeEth.sol",
  "abi": [
    {
      "inputs": [],
      "stateMutability": "nonpayable",
      "type": "constructor"
    },
    {
      "anonymous": false,
      "inputs": [
        {
          "indexed": true,
          "internalType": "address",
          "name": "owner",
          "type": "address"
        },
        {
          "indexed": true,
          "internalType": "address",
          "name": "approved",
          "type": "address"
        },
        {
          "indexed": true,
          "internalType": "uint256",
          "name": "tokenId",
          "type": "uint256"
        }
      ],
      "name": "Approval",
      "type": "event"
    },
    {
      "anonymous": false,
      "inputs": [
        {
          "indexed": true,
          "internalType": "address",
          "name": "owner",
          "type": "address"
        },
        {
          "indexed": true,
          "internalType": "address",
          "name": "operator",
          "type": "address"
        },
        {
          "indexed": false,
          "internalType": "bool",
          "name": "approved",
          "type": "bool"
        }
      ],
      "name": "ApprovalForAll",
      "type": "event"
    },
    {
      "anonymous": false,
      "inputs": [
        {
          "indexed": false,
          "internalType": "address",
          "name": "_from",
          "type": "address"
        },
        {
          "indexed": false,
          "internalType": "address",
          "name": "_to",
          "type": "address"
        },
        {
          "indexed": false,
          "internalType": "string",
          "name": "_uri",
          "type": "string"
        },
        {
          "indexed": false,
          "internalType": "uint256",
          "name": "_tokenId",
          "type": "uint256"
        },
        {
          "indexed": false,
          "internalType": "uint256",
          "name": "_value",
          "type": "uint256"
        },
        {
          "indexed": false,
          "internalType": "enum NftBridgeEth.SourceChain",
          "name": "_sourceChain",
          "type": "uint8"
        },
        {
          "indexed": false,
          "internalType": "enum NftBridgeEth.DestinationChain",
          "name": "_destinationChain",
          "type": "uint8"
        }
      ],
      "name": "LockedNft",
      "type": "event"
    },
    {
      "anonymous": false,
      "inputs": [
        {
          "indexed": false,
          "internalType": "address",
          "name": "_to",
          "type": "address"
        },
        {
          "indexed": false,
          "internalType": "string",
          "name": "_uri",
          "type": "string"
        }
      ],
      "name": "NftTransferedToDestinationChain",
      "type": "event"
    },
    {
      "anonymous": false,
      "inputs": [
        {
          "indexed": true,
          "internalType": "address",
          "name": "previousOwner",
          "type": "address"
        },
        {
          "indexed": true,
          "internalType": "address",
          "name": "newOwner",
          "type": "address"
        }
      ],
      "name": "OwnershipTransferred",
      "type": "event"
    },
    {
      "anonymous": false,
      "inputs": [
        {
          "indexed": true,
          "internalType": "address",
          "name": "from",
          "type": "address"
        },
        {
          "indexed": true,
          "internalType": "address",
          "name": "to",
          "type": "address"
        },
        {
          "indexed": true,
          "internalType": "uint256",
          "name": "tokenId",
          "type": "uint256"
        }
      ],
      "name": "Transfer",
      "type": "event"
    },
    {
      "inputs": [
        {
          "internalType": "address",
          "name": "to",
          "type": "address"
        },
        {
          "internalType": "uint256",
          "name": "tokenId",
          "type": "uint256"
        }
      ],
      "name": "approve",
      "outputs": [],
      "stateMutability": "nonpayable",
      "type": "function"
    },
    {
      "inputs": [
        {
          "internalType": "address",
          "name": "owner",
          "type": "address"
        }
      ],
      "name": "balanceOf",
      "outputs": [
        {
          "internalType": "uint256",
          "name": "",
          "type": "uint256"
        }
      ],
      "stateMutability": "view",
      "type": "function"
    },
    {
      "inputs": [
        {
          "internalType": "uint256",
          "name": "newSmartContractFees",
          "type": "uint256"
        }
      ],
      "name": "changeSmartContractFees",
      "outputs": [
        {
          "internalType": "uint256",
          "name": "",
          "type": "uint256"
        }
      ],
      "stateMutability": "nonpayable",
      "type": "function"
    },
    {
      "inputs": [
        {
          "internalType": "uint256",
          "name": "tokenId",
          "type": "uint256"
        }
      ],
      "name": "getApproved",
      "outputs": [
        {
          "internalType": "address",
          "name": "",
          "type": "address"
        }
      ],
      "stateMutability": "view",
      "type": "function"
    },
    {
      "inputs": [],
      "name": "getSmartContractFees",
      "outputs": [
        {
          "internalType": "uint256",
          "name": "",
          "type": "uint256"
        }
      ],
      "stateMutability": "view",
      "type": "function"
    },
    {
      "inputs": [
        {
          "internalType": "address",
          "name": "owner",
          "type": "address"
        },
        {
          "internalType": "address",
          "name": "operator",
          "type": "address"
        }
      ],
      "name": "isApprovedForAll",
      "outputs": [
        {
          "internalType": "bool",
          "name": "",
          "type": "bool"
        }
      ],
      "stateMutability": "view",
      "type": "function"
    },
    {
      "inputs": [
        {
          "internalType": "enum NftBridgeEth.SourceChain",
          "name": "sourceChain",
          "type": "uint8"
        },
        {
          "internalType": "enum NftBridgeEth.DestinationChain",
          "name": "destinationChain",
          "type": "uint8"
        },
        {
          "internalType": "uint256",
          "name": "tokenId",
          "type": "uint256"
        },
        {
          "internalType": "address",
          "name": "tokenAddress",
          "type": "address"
        },
        {
          "internalType": "bytes32",
          "name": "hash",
          "type": "bytes32"
        },
        {
          "internalType": "bytes",
          "name": "signature",
          "type": "bytes"
        }
      ],
      "name": "lockNft",
      "outputs": [],
      "stateMutability": "payable",
      "type": "function"
    },
    {
      "inputs": [],
      "name": "name",
      "outputs": [
        {
          "internalType": "string",
          "name": "",
          "type": "string"
        }
      ],
      "stateMutability": "view",
      "type": "function"
    },
    {
      "inputs": [],
      "name": "owner",
      "outputs": [
        {
          "internalType": "address",
          "name": "",
          "type": "address"
        }
      ],
      "stateMutability": "view",
      "type": "function"
    },
    {
      "inputs": [
        {
          "internalType": "uint256",
          "name": "tokenId",
          "type": "uint256"
        }
      ],
      "name": "ownerOf",
      "outputs": [
        {
          "internalType": "address",
          "name": "",
          "type": "address"
        }
      ],
      "stateMutability": "view",
      "type": "function"
    },
    {
      "inputs": [],
      "name": "renounceOwnership",
      "outputs": [],
      "stateMutability": "nonpayable",
      "type": "function"
    },
    {
      "inputs": [
        {
          "internalType": "address",
          "name": "from",
          "type": "address"
        },
        {
          "internalType": "address",
          "name": "to",
          "type": "address"
        },
        {
          "internalType": "uint256",
          "name": "tokenId",
          "type": "uint256"
        }
      ],
      "name": "safeTransferFrom",
      "outputs": [],
      "stateMutability": "nonpayable",
      "type": "function"
    },
    {
      "inputs": [
        {
          "internalType": "address",
          "name": "from",
          "type": "address"
        },
        {
          "internalType": "address",
          "name": "to",
          "type": "address"
        },
        {
          "internalType": "uint256",
          "name": "tokenId",
          "type": "uint256"
        },
        {
          "internalType": "bytes",
          "name": "data",
          "type": "bytes"
        }
      ],
      "name": "safeTransferFrom",
      "outputs": [],
      "stateMutability": "nonpayable",
      "type": "function"
    },
    {
      "inputs": [
        {
          "internalType": "address",
          "name": "operator",
          "type": "address"
        },
        {
          "internalType": "bool",
          "name": "approved",
          "type": "bool"
        }
      ],
      "name": "setApprovalForAll",
      "outputs": [],
      "stateMutability": "nonpayable",
      "type": "function"
    },
    {
      "inputs": [
        {
          "internalType": "bytes4",
          "name": "interfaceId",
          "type": "bytes4"
        }
      ],
      "name": "supportsInterface",
      "outputs": [
        {
          "internalType": "bool",
          "name": "",
          "type": "bool"
        }
      ],
      "stateMutability": "view",
      "type": "function"
    },
    {
      "inputs": [],
      "name": "symbol",
      "outputs": [
        {
          "internalType": "string",
          "name": "",
          "type": "string"
        }
      ],
      "stateMutability": "view",
      "type": "function"
    },
    {
      "inputs": [
        {
          "internalType": "uint256",
          "name": "tokenId",
          "type": "uint256"
        }
      ],
      "name": "tokenURI",
      "outputs": [
        {
          "internalType": "string",
          "name": "",
          "type": "string"
        }
      ],
      "stateMutability": "view",
      "type": "function"
    },
    {
      "inputs": [
        {
          "internalType": "address",
          "name": "from",
          "type": "address"
        },
        {
          "internalType": "address",
          "name": "to",
          "type": "address"
        },
        {
          "internalType": "uint256",
          "name": "tokenId",
          "type": "uint256"
        }
      ],
      "name": "transferFrom",
      "outputs": [],
      "stateMutability": "nonpayable",
      "type": "function"
    },
    {
      "inputs": [
        {
          "internalType": "address",
          "name": "recipient",
          "type": "address"
        },
        {
          "internalType": "string",
          "name": "uri",
          "type": "string"
        }
      ],
      "name": "transferNft",
      "outputs": [],
      "stateMutability": "nonpayable",
      "type": "function"
    },
    {
      "inputs": [
        {
          "internalType": "uint256",
          "name": "tokenId",
          "type": "uint256"
        },
        {
          "internalType": "address",
          "name": "recipient",
          "type": "address"
        },
        {
          "internalType": "address",
          "name": "tokenAddress",
          "type": "address"
        }
      ],
      "name": "transferNftBackToUser",
      "outputs": [],
      "stateMutability": "nonpayable",
      "type": "function"
    },
    {
      "inputs": [
        {
          "internalType": "address",
          "name": "newOwner",
          "type": "address"
        }
      ],
      "name": "transferOwnership",
      "outputs": [],
      "stateMutability": "nonpayable",
      "type": "function"
    },
    {
      "inputs": [
        {
          "internalType": "address payable",
          "name": "recipient",
          "type": "address"
        }
      ],
      "name": "withdraw",
      "outputs": [],
      "stateMutability": "nonpayable",
      "type": "function"
    }
  ],
  "bytecode": "0x60806040526103e8600a553480156200001757600080fd5b506040518060400160405280600c81526020017f4e667442726964676545746800000000000000000000000000000000000000008152506040518060400160405280600581526020017f4e42455448000000000000000000000000000000000000000000000000000000815250620000a462000098620000e560201b60201c565b620000ed60201b60201c565b600180819055508160029080519060200190620000c3929190620001b1565b508060039080519060200190620000dc929190620001b1565b505050620002c6565b600033905090565b60008060009054906101000a900473ffffffffffffffffffffffffffffffffffffffff169050816000806101000a81548173ffffffffffffffffffffffffffffffffffffffff021916908373ffffffffffffffffffffffffffffffffffffffff1602179055508173ffffffffffffffffffffffffffffffffffffffff168173ffffffffffffffffffffffffffffffffffffffff167f8be0079c531659141344cd1fd0a4f28419497f9722a3daafe3b4186f6b6457e060405160405180910390a35050565b828054620001bf9062000261565b90600052602060002090601f016020900481019282620001e357600085556200022f565b82601f10620001fe57805160ff19168380011785556200022f565b828001600101855582156200022f579182015b828111156200022e57825182559160200191906001019062000211565b5b5090506200023e919062000242565b5090565b5b808211156200025d57600081600090555060010162000243565b5090565b600060028204905060018216806200027a57607f821691505b6020821081141562000291576200029062000297565b5b50919050565b7f4e487b7100000000000000000000000000000000000000000000000000000000600052602260045260246000fd5b61478e80620002d66000396000f3fe6080604052600436106101355760003560e01c8063715018a6116100ab578063ae12e7341161006f578063ae12e73414610410578063b88d4fde1461042c578063c87b56dd14610455578063e985e9c514610492578063f2fde38b146104cf578063f656eece146104f857610135565b8063715018a61461034f5780638da5cb5b1461036657806395d89b41146103915780639a3488b6146103bc578063a22cb465146103e757610135565b806323b872dd116100fd57806323b872dd1461023157806340f9b9471461025a57806342842e0e1461028357806351cff8d9146102ac5780636352211e146102d557806370a082311461031257610135565b806301ffc9a71461013a57806306fdde0314610177578063081812fc146101a2578063095ea7b3146101df5780630fe74b2514610208575b600080fd5b34801561014657600080fd5b50610161600480360381019061015c9190612f87565b610535565b60405161016e9190613843565b60405180910390f35b34801561018357600080fd5b5061018c610617565b60405161019991906138a3565b60405180910390f35b3480156101ae57600080fd5b506101c960048036038101906101c491906130d3565b6106a9565b6040516101d691906136ff565b60405180910390f35b3480156101eb57600080fd5b5061020660048036038101906102019190612f47565b6106ef565b005b34801561021457600080fd5b5061022f600480360381019061022a9190612eeb565b610807565b005b34801561023d57600080fd5b5061025860048036038101906102539190612dd5565b6108d6565b005b34801561026657600080fd5b50610281600480360381019061027c9190613100565b610936565b005b34801561028f57600080fd5b506102aa60048036038101906102a59190612dd5565b610abe565b005b3480156102b857600080fd5b506102d360048036038101906102ce9190612d68565b610ade565b005b3480156102e157600080fd5b506102fc60048036038101906102f791906130d3565b610ba0565b60405161030991906136ff565b60405180910390f35b34801561031e57600080fd5b5061033960048036038101906103349190612d0e565b610c27565b6040516103469190613c45565b60405180910390f35b34801561035b57600080fd5b50610364610cdf565b005b34801561037257600080fd5b5061037b610cf3565b60405161038891906136ff565b60405180910390f35b34801561039d57600080fd5b506103a6610d1c565b6040516103b391906138a3565b60405180910390f35b3480156103c857600080fd5b506103d1610dae565b6040516103de9190613c45565b60405180910390f35b3480156103f357600080fd5b5061040e60048036038101906104099190612eab565b610db8565b005b61042a60048036038101906104259190612fe1565b610dce565b005b34801561043857600080fd5b50610453600480360381019061044e9190612e28565b611262565b005b34801561046157600080fd5b5061047c600480360381019061047791906130d3565b6112c4565b60405161048991906138a3565b60405180910390f35b34801561049e57600080fd5b506104b960048036038101906104b49190612d95565b6112d6565b6040516104c69190613843565b60405180910390f35b3480156104db57600080fd5b506104f660048036038101906104f19190612d0e565b61136a565b005b34801561050457600080fd5b5061051f600480360381019061051a91906130d3565b6113ee565b60405161052c9190613c45565b60405180910390f35b60007f80ac58cd000000000000000000000000000000000000000000000000000000007bffffffffffffffffffffffffffffffffffffffffffffffffffffffff1916827bffffffffffffffffffffffffffffffffffffffffffffffffffffffff1916148061060057507f5b5e139f000000000000000000000000000000000000000000000000000000007bffffffffffffffffffffffffffffffffffffffffffffffffffffffff1916827bffffffffffffffffffffffffffffffffffffffffffffffffffffffff1916145b80610610575061060f8261144e565b5b9050919050565b60606002805461062690613ee8565b80601f016020809104026020016040519081016040528092919081815260200182805461065290613ee8565b801561069f5780601f106106745761010080835404028352916020019161069f565b820191906000526020600020905b81548152906001019060200180831161068257829003601f168201915b5050505050905090565b60006106b4826114b8565b6006600083815260200190815260200160002060009054906101000a900473ffffffffffffffffffffffffffffffffffffffff169050919050565b60006106fa82610ba0565b90508073ffffffffffffffffffffffffffffffffffffffff168373ffffffffffffffffffffffffffffffffffffffff16141561076b576040517f08c379a000000000000000000000000000000000000000000000000000000000815260040161076290613ba5565b60405180910390fd5b8073ffffffffffffffffffffffffffffffffffffffff1661078a611503565b73ffffffffffffffffffffffffffffffffffffffff1614806107b957506107b8816107b3611503565b6112d6565b5b6107f8576040517f08c379a00000000000000000000000000000000000000000000000000000000081526004016107ef90613bc5565b60405180910390fd5b610802838361150b565b505050565b61080f6115c4565b610817611642565b600073ffffffffffffffffffffffffffffffffffffffff168273ffffffffffffffffffffffffffffffffffffffff161415610887576040517f08c379a000000000000000000000000000000000000000000000000000000000815260040161087e90613b65565b60405180910390fd5b7ff5e2cdb3c1806169fcc9a8e62feb5b0ed61f7825a7b228a0b2b9cdc124a3a1da82826040516108b8929190613813565b60405180910390a16108ca8282611692565b6108d26116cb565b5050565b6108e76108e1611503565b826116d4565b610926576040517f08c379a000000000000000000000000000000000000000000000000000000000815260040161091d906138e5565b60405180910390fd5b610931838383611769565b505050565b61093e6115c4565b610946611642565b60008190503073ffffffffffffffffffffffffffffffffffffffff168173ffffffffffffffffffffffffffffffffffffffff16636352211e866040518263ffffffff1660e01b815260040161099b9190613c45565b60206040518083038186803b1580156109b357600080fd5b505afa1580156109c7573d6000803e3d6000fd5b505050506040513d601f19601f820116820180604052508101906109eb9190612d3b565b73ffffffffffffffffffffffffffffffffffffffff1614610a41576040517f08c379a0000000000000000000000000000000000000000000000000000000008152600401610a3890613b25565b60405180910390fd5b8173ffffffffffffffffffffffffffffffffffffffff166323b872dd3085876040518463ffffffff1660e01b8152600401610a7e93929190613790565b600060405180830381600087803b158015610a9857600080fd5b505af1158015610aac573d6000803e3d6000fd5b5050505050610ab96116cb565b505050565b610ad983838360405180602001604052806000815250611262565b505050565b610ae66115c4565b600073ffffffffffffffffffffffffffffffffffffffff168173ffffffffffffffffffffffffffffffffffffffff161415610b56576040517f08c379a0000000000000000000000000000000000000000000000000000000008152600401610b4d90613a65565b60405180910390fd5b8073ffffffffffffffffffffffffffffffffffffffff166108fc479081150290604051600060405180830381858888f19350505050158015610b9c573d6000803e3d6000fd5b5050565b600080610bac83611a63565b9050600073ffffffffffffffffffffffffffffffffffffffff168173ffffffffffffffffffffffffffffffffffffffff161415610c1e576040517f08c379a0000000000000000000000000000000000000000000000000000000008152600401610c1590613b85565b60405180910390fd5b80915050919050565b60008073ffffffffffffffffffffffffffffffffffffffff168273ffffffffffffffffffffffffffffffffffffffff161415610c98576040517f08c379a0000000000000000000000000000000000000000000000000000000008152600401610c8f90613a85565b60405180910390fd5b600560008373ffffffffffffffffffffffffffffffffffffffff1673ffffffffffffffffffffffffffffffffffffffff168152602001908152602001600020549050919050565b610ce76115c4565b610cf16000611aa0565b565b60008060009054906101000a900473ffffffffffffffffffffffffffffffffffffffff16905090565b606060038054610d2b90613ee8565b80601f0160208091040260200160405190810160405280929190818152602001828054610d5790613ee8565b8015610da45780601f10610d7957610100808354040283529160200191610da4565b820191906000526020600020905b815481529060010190602001808311610d8757829003601f168201915b5050505050905090565b6000600a54905090565b610dca610dc3611503565b8383611b64565b5050565b610dd6611642565b6000341415610e1a576040517f08c379a0000000000000000000000000000000000000000000000000000000008152600401610e1190613b05565b60405180910390fd5b600a543414610e5e576040517f08c379a0000000000000000000000000000000000000000000000000000000008152600401610e5590613ac5565b60405180910390fd5b60006002811115610e7257610e71613fb3565b5b866002811115610e8557610e84613fb3565b5b148015610eb7575060006002811115610ea157610ea0613fb3565b5b856002811115610eb457610eb3613fb3565b5b14155b610ef6576040517f08c379a0000000000000000000000000000000000000000000000000000000008152600401610eed90613a25565b60405180910390fd5b610efe610cf3565b73ffffffffffffffffffffffffffffffffffffffff16610f1e8383611cd1565b73ffffffffffffffffffffffffffffffffffffffff1614610f74576040517f08c379a0000000000000000000000000000000000000000000000000000000008152600401610f6b906139c5565b60405180910390fd5b600b81604051610f84919061369e565b908152602001604051809103902060009054906101000a900460ff1615610fe0576040517f08c379a0000000000000000000000000000000000000000000000000000000008152600401610fd790613c05565b60405180910390fd5b60008390503373ffffffffffffffffffffffffffffffffffffffff168173ffffffffffffffffffffffffffffffffffffffff16636352211e876040518263ffffffff1660e01b81526004016110359190613c45565b60206040518083038186803b15801561104d57600080fd5b505afa158015611061573d6000803e3d6000fd5b505050506040513d601f19601f820116820180604052508101906110859190612d3b565b73ffffffffffffffffffffffffffffffffffffffff16146110db576040517f08c379a00000000000000000000000000000000000000000000000000000000081526004016110d290613965565b60405180910390fd5b8373ffffffffffffffffffffffffffffffffffffffff166323b872dd3330886040518463ffffffff1660e01b815260040161111893929190613790565b600060405180830381600087803b15801561113257600080fd5b505af1158015611146573d6000803e3d6000fd5b505050507f077b4f649a490b65bd23bf638dec092f8438ff3e5fd0e495efcd71316f8b5f0833308373ffffffffffffffffffffffffffffffffffffffff1663c87b56dd896040518263ffffffff1660e01b81526004016111a69190613c45565b60006040518083038186803b1580156111be57600080fd5b505afa1580156111d2573d6000803e3d6000fd5b505050506040513d6000823e3d601f19601f820116820180604052508101906111fb919061308a565b88348c8c604051611212979695949392919061371a565b60405180910390a16001600b8360405161122c919061369e565b908152602001604051809103902060006101000a81548160ff0219169083151502179055505061125a6116cb565b505050505050565b61127361126d611503565b836116d4565b6112b2576040517f08c379a00000000000000000000000000000000000000000000000000000000081526004016112a9906138e5565b60405180910390fd5b6112be84848484611d10565b50505050565b60606112cf82611d6c565b9050919050565b6000600760008473ffffffffffffffffffffffffffffffffffffffff1673ffffffffffffffffffffffffffffffffffffffff16815260200190815260200160002060008373ffffffffffffffffffffffffffffffffffffffff1673ffffffffffffffffffffffffffffffffffffffff16815260200190815260200160002060009054906101000a900460ff16905092915050565b6113726115c4565b600073ffffffffffffffffffffffffffffffffffffffff168173ffffffffffffffffffffffffffffffffffffffff1614156113e2576040517f08c379a00000000000000000000000000000000000000000000000000000000081526004016113d990613945565b60405180910390fd5b6113eb81611aa0565b50565b60006113f86115c4565b81600a54141561143d576040517f08c379a000000000000000000000000000000000000000000000000000000000815260040161143490613be5565b60405180910390fd5b81600a81905550600a549050919050565b60007f01ffc9a7000000000000000000000000000000000000000000000000000000007bffffffffffffffffffffffffffffffffffffffffffffffffffffffff1916827bffffffffffffffffffffffffffffffffffffffffffffffffffffffff1916149050919050565b6114c181611e7f565b611500576040517f08c379a00000000000000000000000000000000000000000000000000000000081526004016114f790613b85565b60405180910390fd5b50565b600033905090565b816006600083815260200190815260200160002060006101000a81548173ffffffffffffffffffffffffffffffffffffffff021916908373ffffffffffffffffffffffffffffffffffffffff160217905550808273ffffffffffffffffffffffffffffffffffffffff1661157e83610ba0565b73ffffffffffffffffffffffffffffffffffffffff167f8c5be1e5ebec7d5bd14f71427d1e84f3dd0314c0f7b2291e5b200ac8c7c3b92560405160405180910390a45050565b6115cc611503565b73ffffffffffffffffffffffffffffffffffffffff166115ea610cf3565b73ffffffffffffffffffffffffffffffffffffffff1614611640576040517f08c379a000000000000000000000000000000000000000000000000000000000815260040161163790613b45565b60405180910390fd5b565b60026001541415611688576040517f08c379a000000000000000000000000000000000000000000000000000000000815260040161167f90613c25565b60405180910390fd5b6002600181905550565b61169a6115c4565b60006116a66009611ec0565b90506116b26009611ece565b6116bc8382611ee4565b6116c68183611f02565b505050565b60018081905550565b6000806116e083610ba0565b90508073ffffffffffffffffffffffffffffffffffffffff168473ffffffffffffffffffffffffffffffffffffffff161480611722575061172181856112d6565b5b8061176057508373ffffffffffffffffffffffffffffffffffffffff16611748846106a9565b73ffffffffffffffffffffffffffffffffffffffff16145b91505092915050565b8273ffffffffffffffffffffffffffffffffffffffff1661178982610ba0565b73ffffffffffffffffffffffffffffffffffffffff16146117df576040517f08c379a00000000000000000000000000000000000000000000000000000000081526004016117d690613985565b60405180910390fd5b600073ffffffffffffffffffffffffffffffffffffffff168273ffffffffffffffffffffffffffffffffffffffff16141561184f576040517f08c379a0000000000000000000000000000000000000000000000000000000008152600401611846906139e5565b60405180910390fd5b61185c8383836001611f76565b8273ffffffffffffffffffffffffffffffffffffffff1661187c82610ba0565b73ffffffffffffffffffffffffffffffffffffffff16146118d2576040517f08c379a00000000000000000000000000000000000000000000000000000000081526004016118c990613985565b60405180910390fd5b6006600082815260200190815260200160002060006101000a81549073ffffffffffffffffffffffffffffffffffffffff02191690556001600560008573ffffffffffffffffffffffffffffffffffffffff1673ffffffffffffffffffffffffffffffffffffffff168152602001908152602001600020600082825403925050819055506001600560008473ffffffffffffffffffffffffffffffffffffffff1673ffffffffffffffffffffffffffffffffffffffff16815260200190815260200160002060008282540192505081905550816004600083815260200190815260200160002060006101000a81548173ffffffffffffffffffffffffffffffffffffffff021916908373ffffffffffffffffffffffffffffffffffffffff160217905550808273ffffffffffffffffffffffffffffffffffffffff168473ffffffffffffffffffffffffffffffffffffffff167fddf252ad1be2c89b69c2b068fc378daa952ba7f163c4a11628f55a4df523b3ef60405160405180910390a4611a5e838383600161209c565b505050565b60006004600083815260200190815260200160002060009054906101000a900473ffffffffffffffffffffffffffffffffffffffff169050919050565b60008060009054906101000a900473ffffffffffffffffffffffffffffffffffffffff169050816000806101000a81548173ffffffffffffffffffffffffffffffffffffffff021916908373ffffffffffffffffffffffffffffffffffffffff1602179055508173ffffffffffffffffffffffffffffffffffffffff168173ffffffffffffffffffffffffffffffffffffffff167f8be0079c531659141344cd1fd0a4f28419497f9722a3daafe3b4186f6b6457e060405160405180910390a35050565b8173ffffffffffffffffffffffffffffffffffffffff168373ffffffffffffffffffffffffffffffffffffffff161415611bd3576040517f08c379a0000000000000000000000000000000000000000000000000000000008152600401611bca90613a05565b60405180910390fd5b80600760008573ffffffffffffffffffffffffffffffffffffffff1673ffffffffffffffffffffffffffffffffffffffff16815260200190815260200160002060008473ffffffffffffffffffffffffffffffffffffffff1673ffffffffffffffffffffffffffffffffffffffff16815260200190815260200160002060006101000a81548160ff0219169083151502179055508173ffffffffffffffffffffffffffffffffffffffff168373ffffffffffffffffffffffffffffffffffffffff167f17307eab39ab6107e8899845ad3d59bd9653f200f220920489ca2b5937696c3183604051611cc49190613843565b60405180910390a3505050565b60008083604051602001611ce591906136d9565b604051602081830303815290604052805190602001209050611d0781846120a2565b91505092915050565b611d1b848484611769565b611d27848484846120c9565b611d66576040517f08c379a0000000000000000000000000000000000000000000000000000000008152600401611d5d90613925565b60405180910390fd5b50505050565b6060611d77826114b8565b6000600860008481526020019081526020016000208054611d9790613ee8565b80601f0160208091040260200160405190810160405280929190818152602001828054611dc390613ee8565b8015611e105780601f10611de557610100808354040283529160200191611e10565b820191906000526020600020905b815481529060010190602001808311611df357829003601f168201915b505050505090506000611e21612260565b9050600081511415611e37578192505050611e7a565b600082511115611e6c578082604051602001611e549291906136b5565b60405160208183030381529060405292505050611e7a565b611e7584612277565b925050505b919050565b60008073ffffffffffffffffffffffffffffffffffffffff16611ea183611a63565b73ffffffffffffffffffffffffffffffffffffffff1614159050919050565b600081600001549050919050565b6001816000016000828254019250508190555050565b611efe8282604051806020016040528060008152506122df565b5050565b611f0b82611e7f565b611f4a576040517f08c379a0000000000000000000000000000000000000000000000000000000008152600401611f4190613aa5565b60405180910390fd5b80600860008481526020019081526020016000209080519060200190611f71929190612a49565b505050565b600181111561209657600073ffffffffffffffffffffffffffffffffffffffff168473ffffffffffffffffffffffffffffffffffffffff161461200a5780600560008673ffffffffffffffffffffffffffffffffffffffff1673ffffffffffffffffffffffffffffffffffffffff16815260200190815260200160002060008282546120029190613d8b565b925050819055505b600073ffffffffffffffffffffffffffffffffffffffff168373ffffffffffffffffffffffffffffffffffffffff16146120955780600560008573ffffffffffffffffffffffffffffffffffffffff1673ffffffffffffffffffffffffffffffffffffffff168152602001908152602001600020600082825461208d9190613d35565b925050819055505b5b50505050565b50505050565b60008060006120b1858561233a565b915091506120be8161238c565b819250505092915050565b60006120ea8473ffffffffffffffffffffffffffffffffffffffff166124fa565b15612253578373ffffffffffffffffffffffffffffffffffffffff1663150b7a02612113611503565b8786866040518563ffffffff1660e01b815260040161213594939291906137c7565b602060405180830381600087803b15801561214f57600080fd5b505af192505050801561218057506040513d601f19601f8201168201806040525081019061217d9190612fb4565b60015b612203573d80600081146121b0576040519150601f19603f3d011682016040523d82523d6000602084013e6121b5565b606091505b506000815114156121fb576040517f08c379a00000000000000000000000000000000000000000000000000000000081526004016121f290613925565b60405180910390fd5b805181602001fd5b63150b7a0260e01b7bffffffffffffffffffffffffffffffffffffffffffffffffffffffff1916817bffffffffffffffffffffffffffffffffffffffffffffffffffffffff191614915050612258565b600190505b949350505050565b606060405180602001604052806000815250905090565b6060612282826114b8565b600061228c612260565b905060008151116122ac57604051806020016040528060008152506122d7565b806122b68461251d565b6040516020016122c79291906136b5565b6040516020818303038152906040525b915050919050565b6122e983836125f5565b6122f660008484846120c9565b612335576040517f08c379a000000000000000000000000000000000000000000000000000000000815260040161232c90613925565b60405180910390fd5b505050565b60008060418351141561237c5760008060006020860151925060408601519150606086015160001a905061237087828585612813565b94509450505050612385565b60006002915091505b9250929050565b600060048111156123a05761239f613fb3565b5b8160048111156123b3576123b2613fb3565b5b14156123be576124f7565b600160048111156123d2576123d1613fb3565b5b8160048111156123e5576123e4613fb3565b5b1415612426576040517f08c379a000000000000000000000000000000000000000000000000000000000815260040161241d906138c5565b60405180910390fd5b6002600481111561243a57612439613fb3565b5b81600481111561244d5761244c613fb3565b5b141561248e576040517f08c379a000000000000000000000000000000000000000000000000000000000815260040161248590613905565b60405180910390fd5b600360048111156124a2576124a1613fb3565b5b8160048111156124b5576124b4613fb3565b5b14156124f6576040517f08c379a00000000000000000000000000000000000000000000000000000000081526004016124ed90613a45565b60405180910390fd5b5b50565b6000808273ffffffffffffffffffffffffffffffffffffffff163b119050919050565b60606000600161252c846128f6565b01905060008167ffffffffffffffff81111561254b5761254a614011565b5b6040519080825280601f01601f19166020018201604052801561257d5781602001600182028036833780820191505090505b509050600082602001820190505b6001156125ea578080600190039150507f3031323334353637383961626364656600000000000000000000000000000000600a86061a8153600a85816125d4576125d3613f84565b5b04945060008514156125e5576125ea565b61258b565b819350505050919050565b600073ffffffffffffffffffffffffffffffffffffffff168273ffffffffffffffffffffffffffffffffffffffff161415612665576040517f08c379a000000000000000000000000000000000000000000000000000000000815260040161265c90613ae5565b60405180910390fd5b61266e81611e7f565b156126ae576040517f08c379a00000000000000000000000000000000000000000000000000000000081526004016126a5906139a5565b60405180910390fd5b6126bc600083836001611f76565b6126c581611e7f565b15612705576040517f08c379a00000000000000000000000000000000000000000000000000000000081526004016126fc906139a5565b60405180910390fd5b6001600560008473ffffffffffffffffffffffffffffffffffffffff1673ffffffffffffffffffffffffffffffffffffffff16815260200190815260200160002060008282540192505081905550816004600083815260200190815260200160002060006101000a81548173ffffffffffffffffffffffffffffffffffffffff021916908373ffffffffffffffffffffffffffffffffffffffff160217905550808273ffffffffffffffffffffffffffffffffffffffff16600073ffffffffffffffffffffffffffffffffffffffff167fddf252ad1be2c89b69c2b068fc378daa952ba7f163c4a11628f55a4df523b3ef60405160405180910390a461280f60008383600161209c565b5050565b6000807f7fffffffffffffffffffffffffffffff5d576e7357a4501ddfe92f46681b20a08360001c111561284e5760006003915091506128ed565b600060018787878760405160008152602001604052604051612873949392919061385e565b6020604051602081039080840390855afa158015612895573d6000803e3d6000fd5b505050602060405103519050600073ffffffffffffffffffffffffffffffffffffffff168173ffffffffffffffffffffffffffffffffffffffff1614156128e4576000600192509250506128ed565b80600092509250505b94509492505050565b600080600090507a184f03e93ff9f4daa797ed6e38ed64bf6a1f0100000000000000008310612954577a184f03e93ff9f4daa797ed6e38ed64bf6a1f010000000000000000838161294a57612949613f84565b5b0492506040810190505b6d04ee2d6d415b85acef81000000008310612991576d04ee2d6d415b85acef8100000000838161298757612986613f84565b5b0492506020810190505b662386f26fc1000083106129c057662386f26fc1000083816129b6576129b5613f84565b5b0492506010810190505b6305f5e10083106129e9576305f5e10083816129df576129de613f84565b5b0492506008810190505b6127108310612a0e576127108381612a0457612a03613f84565b5b0492506004810190505b60648310612a315760648381612a2757612a26613f84565b5b0492506002810190505b600a8310612a40576001810190505b80915050919050565b828054612a5590613ee8565b90600052602060002090601f016020900481019282612a775760008555612abe565b82601f10612a9057805160ff1916838001178555612abe565b82800160010185558215612abe579182015b82811115612abd578251825591602001919060010190612aa2565b5b509050612acb9190612acf565b5090565b5b80821115612ae8576000816000905550600101612ad0565b5090565b6000612aff612afa84613c85565b613c60565b905082815260208101848484011115612b1b57612b1a614045565b5b612b26848285613ea6565b509392505050565b6000612b41612b3c84613cb6565b613c60565b905082815260208101848484011115612b5d57612b5c614045565b5b612b68848285613ea6565b509392505050565b6000612b83612b7e84613cb6565b613c60565b905082815260208101848484011115612b9f57612b9e614045565b5b612baa848285613eb5565b509392505050565b600081359050612bc1816146ae565b92915050565b600081519050612bd6816146ae565b92915050565b600081359050612beb816146c5565b92915050565b600081359050612c00816146dc565b92915050565b600081359050612c15816146f3565b92915050565b600081359050612c2a8161470a565b92915050565b600081519050612c3f8161470a565b92915050565b600082601f830112612c5a57612c59614040565b5b8135612c6a848260208601612aec565b91505092915050565b600081359050612c8281614721565b92915050565b600081359050612c9781614731565b92915050565b600082601f830112612cb257612cb1614040565b5b8135612cc2848260208601612b2e565b91505092915050565b600082601f830112612ce057612cdf614040565b5b8151612cf0848260208601612b70565b91505092915050565b600081359050612d0881614741565b92915050565b600060208284031215612d2457612d2361404f565b5b6000612d3284828501612bb2565b91505092915050565b600060208284031215612d5157612d5061404f565b5b6000612d5f84828501612bc7565b91505092915050565b600060208284031215612d7e57612d7d61404f565b5b6000612d8c84828501612bdc565b91505092915050565b60008060408385031215612dac57612dab61404f565b5b6000612dba85828601612bb2565b9250506020612dcb85828601612bb2565b9150509250929050565b600080600060608486031215612dee57612ded61404f565b5b6000612dfc86828701612bb2565b9350506020612e0d86828701612bb2565b9250506040612e1e86828701612cf9565b9150509250925092565b60008060008060808587031215612e4257612e4161404f565b5b6000612e5087828801612bb2565b9450506020612e6187828801612bb2565b9350506040612e7287828801612cf9565b925050606085013567ffffffffffffffff811115612e9357612e9261404a565b5b612e9f87828801612c45565b91505092959194509250565b60008060408385031215612ec257612ec161404f565b5b6000612ed085828601612bb2565b9250506020612ee185828601612bf1565b9150509250929050565b60008060408385031215612f0257612f0161404f565b5b6000612f1085828601612bb2565b925050602083013567ffffffffffffffff811115612f3157612f3061404a565b5b612f3d85828601612c9d565b9150509250929050565b60008060408385031215612f5e57612f5d61404f565b5b6000612f6c85828601612bb2565b9250506020612f7d85828601612cf9565b9150509250929050565b600060208284031215612f9d57612f9c61404f565b5b6000612fab84828501612c1b565b91505092915050565b600060208284031215612fca57612fc961404f565b5b6000612fd884828501612c30565b91505092915050565b60008060008060008060c08789031215612ffe57612ffd61404f565b5b600061300c89828a01612c88565b965050602061301d89828a01612c73565b955050604061302e89828a01612cf9565b945050606061303f89828a01612bb2565b935050608061305089828a01612c06565b92505060a087013567ffffffffffffffff8111156130715761307061404a565b5b61307d89828a01612c45565b9150509295509295509295565b6000602082840312156130a05761309f61404f565b5b600082015167ffffffffffffffff8111156130be576130bd61404a565b5b6130ca84828501612ccb565b91505092915050565b6000602082840312156130e9576130e861404f565b5b60006130f784828501612cf9565b91505092915050565b6000806000606084860312156131195761311861404f565b5b600061312786828701612cf9565b935050602061313886828701612bb2565b925050604061314986828701612bb2565b9150509250925092565b61315c81613dbf565b82525050565b61316b81613de3565b82525050565b61317a81613def565b82525050565b61319161318c82613def565b613f4b565b82525050565b60006131a282613ce7565b6131ac8185613cfd565b93506131bc818560208601613eb5565b6131c581614054565b840191505092915050565b60006131db82613ce7565b6131e58185613d0e565b93506131f5818560208601613eb5565b80840191505092915050565b61320a81613e82565b82525050565b61321981613e94565b82525050565b600061322a82613cf2565b6132348185613d19565b9350613244818560208601613eb5565b61324d81614054565b840191505092915050565b600061326382613cf2565b61326d8185613d2a565b935061327d818560208601613eb5565b80840191505092915050565b6000613296601883613d19565b91506132a182614065565b602082019050919050565b60006132b9602d83613d19565b91506132c48261408e565b604082019050919050565b60006132dc601f83613d19565b91506132e7826140dd565b602082019050919050565b60006132ff601c83613d2a565b915061330a82614106565b601c82019050919050565b6000613322603283613d19565b915061332d8261412f565b604082019050919050565b6000613345602683613d19565b91506133508261417e565b604082019050919050565b6000613368601f83613d19565b9150613373826141cd565b602082019050919050565b600061338b602583613d19565b9150613396826141f6565b604082019050919050565b60006133ae601c83613d19565b91506133b982614245565b602082019050919050565b60006133d1601983613d19565b91506133dc8261426e565b602082019050919050565b60006133f4602483613d19565b91506133ff82614297565b604082019050919050565b6000613417601983613d19565b9150613422826142e6565b602082019050919050565b600061343a600d83613d19565b91506134458261430f565b602082019050919050565b600061345d602283613d19565b915061346882614338565b604082019050919050565b6000613480601683613d19565b915061348b82614387565b602082019050919050565b60006134a3602983613d19565b91506134ae826143b0565b604082019050919050565b60006134c6602e83613d19565b91506134d1826143ff565b604082019050919050565b60006134e9601483613d19565b91506134f48261444e565b602082019050919050565b600061350c602083613d19565b915061351782614477565b602082019050919050565b600061352f601583613d19565b915061353a826144a0565b602082019050919050565b6000613552601f83613d19565b915061355d826144c9565b602082019050919050565b6000613575602083613d19565b9150613580826144f2565b602082019050919050565b6000613598601383613d19565b91506135a38261451b565b602082019050919050565b60006135bb601883613d19565b91506135c682614544565b602082019050919050565b60006135de602183613d19565b91506135e98261456d565b604082019050919050565b6000613601603d83613d19565b915061360c826145bc565b604082019050919050565b6000613624601483613d19565b915061362f8261460b565b602082019050919050565b6000613647601683613d19565b915061365282614634565b602082019050919050565b600061366a601f83613d19565b91506136758261465d565b602082019050919050565b61368981613e6b565b82525050565b61369881613e75565b82525050565b60006136aa82846131d0565b915081905092915050565b60006136c18285613258565b91506136cd8284613258565b91508190509392505050565b60006136e4826132f2565b91506136f08284613180565b60208201915081905092915050565b60006020820190506137146000830184613153565b92915050565b600060e08201905061372f600083018a613153565b61373c6020830189613153565b818103604083015261374e818861321f565b905061375d6060830187613680565b61376a6080830186613680565b61377760a0830185613210565b61378460c0830184613201565b98975050505050505050565b60006060820190506137a56000830186613153565b6137b26020830185613153565b6137bf6040830184613680565b949350505050565b60006080820190506137dc6000830187613153565b6137e96020830186613153565b6137f66040830185613680565b81810360608301526138088184613197565b905095945050505050565b60006040820190506138286000830185613153565b818103602083015261383a818461321f565b90509392505050565b60006020820190506138586000830184613162565b92915050565b60006080820190506138736000830187613171565b613880602083018661368f565b61388d6040830185613171565b61389a6060830184613171565b95945050505050565b600060208201905081810360008301526138bd818461321f565b905092915050565b600060208201905081810360008301526138de81613289565b9050919050565b600060208201905081810360008301526138fe816132ac565b9050919050565b6000602082019050818103600083015261391e816132cf565b9050919050565b6000602082019050818103600083015261393e81613315565b9050919050565b6000602082019050818103600083015261395e81613338565b9050919050565b6000602082019050818103600083015261397e8161335b565b9050919050565b6000602082019050818103600083015261399e8161337e565b9050919050565b600060208201905081810360008301526139be816133a1565b9050919050565b600060208201905081810360008301526139de816133c4565b9050919050565b600060208201905081810360008301526139fe816133e7565b9050919050565b60006020820190508181036000830152613a1e8161340a565b9050919050565b60006020820190508181036000830152613a3e8161342d565b9050919050565b60006020820190508181036000830152613a5e81613450565b9050919050565b60006020820190508181036000830152613a7e81613473565b9050919050565b60006020820190508181036000830152613a9e81613496565b9050919050565b60006020820190508181036000830152613abe816134b9565b9050919050565b60006020820190508181036000830152613ade816134dc565b9050919050565b60006020820190508181036000830152613afe816134ff565b9050919050565b60006020820190508181036000830152613b1e81613522565b9050919050565b60006020820190508181036000830152613b3e81613545565b9050919050565b60006020820190508181036000830152613b5e81613568565b9050919050565b60006020820190508181036000830152613b7e8161358b565b9050919050565b60006020820190508181036000830152613b9e816135ae565b9050919050565b60006020820190508181036000830152613bbe816135d1565b9050919050565b60006020820190508181036000830152613bde816135f4565b9050919050565b60006020820190508181036000830152613bfe81613617565b9050919050565b60006020820190508181036000830152613c1e8161363a565b9050919050565b60006020820190508181036000830152613c3e8161365d565b9050919050565b6000602082019050613c5a6000830184613680565b92915050565b6000613c6a613c7b565b9050613c768282613f1a565b919050565b6000604051905090565b600067ffffffffffffffff821115613ca057613c9f614011565b5b613ca982614054565b9050602081019050919050565b600067ffffffffffffffff821115613cd157613cd0614011565b5b613cda82614054565b9050602081019050919050565b600081519050919050565b600081519050919050565b600082825260208201905092915050565b600081905092915050565b600082825260208201905092915050565b600081905092915050565b6000613d4082613e6b565b9150613d4b83613e6b565b9250827fffffffffffffffffffffffffffffffffffffffffffffffffffffffffffffffff03821115613d8057613d7f613f55565b5b828201905092915050565b6000613d9682613e6b565b9150613da183613e6b565b925082821015613db457613db3613f55565b5b828203905092915050565b6000613dca82613e4b565b9050919050565b6000613ddc82613e4b565b9050919050565b60008115159050919050565b6000819050919050565b60007fffffffff0000000000000000000000000000000000000000000000000000000082169050919050565b6000819050613e3382614686565b919050565b6000819050613e468261469a565b919050565b600073ffffffffffffffffffffffffffffffffffffffff82169050919050565b6000819050919050565b600060ff82169050919050565b6000613e8d82613e25565b9050919050565b6000613e9f82613e38565b9050919050565b82818337600083830152505050565b60005b83811015613ed3578082015181840152602081019050613eb8565b83811115613ee2576000848401525b50505050565b60006002820490506001821680613f0057607f821691505b60208210811415613f1457613f13613fe2565b5b50919050565b613f2382614054565b810181811067ffffffffffffffff82111715613f4257613f41614011565b5b80604052505050565b6000819050919050565b7f4e487b7100000000000000000000000000000000000000000000000000000000600052601160045260246000fd5b7f4e487b7100000000000000000000000000000000000000000000000000000000600052601260045260246000fd5b7f4e487b7100000000000000000000000000000000000000000000000000000000600052602160045260246000fd5b7f4e487b7100000000000000000000000000000000000000000000000000000000600052602260045260246000fd5b7f4e487b7100000000000000000000000000000000000000000000000000000000600052604160045260246000fd5b600080fd5b600080fd5b600080fd5b600080fd5b6000601f19601f8301169050919050565b7f45434453413a20696e76616c6964207369676e61747572650000000000000000600082015250565b7f4552433732313a2063616c6c6572206973206e6f7420746f6b656e206f776e6560008201527f72206f7220617070726f76656400000000000000000000000000000000000000602082015250565b7f45434453413a20696e76616c6964207369676e6174757265206c656e67746800600082015250565b7f19457468657265756d205369676e6564204d6573736167653a0a333200000000600082015250565b7f4552433732313a207472616e7366657220746f206e6f6e20455243373231526560008201527f63656976657220696d706c656d656e7465720000000000000000000000000000602082015250565b7f4f776e61626c653a206e6577206f776e657220697320746865207a65726f206160008201527f6464726573730000000000000000000000000000000000000000000000000000602082015250565b7f4f6e6c7920746865206f776e65722063616e206c6f636b20746865204e465400600082015250565b7f4552433732313a207472616e736665722066726f6d20696e636f72726563742060008201527f6f776e6572000000000000000000000000000000000000000000000000000000602082015250565b7f4552433732313a20746f6b656e20616c7265616479206d696e74656400000000600082015250565b7f41646472657373206973206e6f7420617574686f72697a656400000000000000600082015250565b7f4552433732313a207472616e7366657220746f20746865207a65726f2061646460008201527f7265737300000000000000000000000000000000000000000000000000000000602082015250565b7f4552433732313a20617070726f766520746f2063616c6c657200000000000000600082015250565b7f496e76616c696420636861696e00000000000000000000000000000000000000600082015250565b7f45434453413a20696e76616c6964207369676e6174757265202773272076616c60008201527f7565000000000000000000000000000000000000000000000000000000000000602082015250565b7f416464726573732063616e6e6f74206265207a65726f00000000000000000000600082015250565b7f4552433732313a2061646472657373207a65726f206973206e6f74206120766160008201527f6c6964206f776e65720000000000000000000000000000000000000000000000602082015250565b7f45524337323155524953746f726167653a2055524920736574206f66206e6f6e60008201527f6578697374656e7420746f6b656e000000000000000000000000000000000000602082015250565b7f466565732073686f756c6420626520657175616c000000000000000000000000600082015250565b7f4552433732313a206d696e7420746f20746865207a65726f2061646472657373600082015250565b7f56616c75652073686f756c64206e6f7420626520300000000000000000000000600082015250565b7f4f6e6c7920746865206f776e6572207472616e7366657220746865204e465400600082015250565b7f4f776e61626c653a2063616c6c6572206973206e6f7420746865206f776e6572600082015250565b7f416464726573732063616e6e6f74206265203000000000000000000000000000600082015250565b7f4552433732313a20696e76616c696420746f6b656e2049440000000000000000600082015250565b7f4552433732313a20617070726f76616c20746f2063757272656e74206f776e6560008201527f7200000000000000000000000000000000000000000000000000000000000000602082015250565b7f4552433732313a20617070726f76652063616c6c6572206973206e6f7420746f60008201527f6b656e206f776e6572206f7220617070726f76656420666f7220616c6c000000602082015250565b7f4665657320697320616c72656164792073616d65000000000000000000000000600082015250565b7f416c7265616479207369676e6174757265207573656400000000000000000000600082015250565b7f5265656e7472616e637947756172643a207265656e7472616e742063616c6c00600082015250565b6003811061469757614696613fb3565b5b50565b600381106146ab576146aa613fb3565b5b50565b6146b781613dbf565b81146146c257600080fd5b50565b6146ce81613dd1565b81146146d957600080fd5b50565b6146e581613de3565b81146146f057600080fd5b50565b6146fc81613def565b811461470757600080fd5b50565b61471381613df9565b811461471e57600080fd5b50565b6003811061472e57600080fd5b50565b6003811061473e57600080fd5b50565b61474a81613e6b565b811461475557600080fd5b5056fea2646970667358221220d12fd2f17d24def3f8b4c76a7b0e63b475317d0364950ff0a0964e804ef18fca64736f6c63430008070033",
  "linkReferences": {},
  "deployedLinkReferences": {}
}