{
  "_format": "hh-sol-artifact-1",
  "contractName": "BridgeBsc",
  "sourceName": "contracts/BridgeBsc.sol",
  "abi": [
    {
      "anonymous": false,
      "inputs": [
        {
          "indexed": false,
          "internalType": "address",
          "name": "_from",
          "type": "address"
        },
        {
          "indexed": false,
          "internalType": "address",
          "name": "_to",
          "type": "address"
        },
        {
          "indexed": true,
          "internalType": "uint256",
          "name": "_value",
          "type": "uint256"
        }
      ],
      "name": "BnbTransferedToDestinationChain",
      "type": "event"
    },
    {
      "anonymous": false,
      "inputs": [
        {
          "indexed": false,
          "internalType": "address",
          "name": "_from",
          "type": "address"
        },
        {
          "indexed": false,
          "internalType": "address",
          "name": "_to",
          "type": "address"
        },
        {
          "indexed": false,
          "internalType": "enum BridgeBsc.SourceChain",
          "name": "_sourceChain",
          "type": "uint8"
        },
        {
          "indexed": false,
          "internalType": "enum BridgeBsc.DestinationChain",
          "name": "_destinationChain",
          "type": "uint8"
        },
        {
          "indexed": false,
          "internalType": "enum BridgeBsc.SourceChainTokensAvailable",
          "name": "_tokensAvailableFromSourceChain",
          "type": "uint8"
        },
        {
          "indexed": false,
          "internalType": "enum BridgeBsc.DestinationChainTokensAvailable",
          "name": "_tokensAvailableFromDestinationChain",
          "type": "uint8"
        },
        {
          "indexed": true,
          "internalType": "uint256",
          "name": "_value",
          "type": "uint256"
        }
      ],
      "name": "LockedBnb",
      "type": "event"
    },
    {
      "anonymous": false,
      "inputs": [
        {
          "indexed": false,
          "internalType": "address",
          "name": "_token",
          "type": "address"
        },
        {
          "indexed": false,
          "internalType": "address",
          "name": "_from",
          "type": "address"
        },
        {
          "indexed": false,
          "internalType": "address",
          "name": "_to",
          "type": "address"
        },
        {
          "indexed": false,
          "internalType": "enum BridgeBsc.SourceChain",
          "name": "_sourceChain",
          "type": "uint8"
        },
        {
          "indexed": false,
          "internalType": "enum BridgeBsc.DestinationChain",
          "name": "_destinationChain",
          "type": "uint8"
        },
        {
          "indexed": false,
          "internalType": "enum BridgeBsc.SourceChainTokensAvailable",
          "name": "_tokensAvailableFromSourceChain",
          "type": "uint8"
        },
        {
          "indexed": false,
          "internalType": "enum BridgeBsc.DestinationChainTokensAvailable",
          "name": "_tokensAvailableFromDestinationChain",
          "type": "uint8"
        },
        {
          "indexed": true,
          "internalType": "uint256",
          "name": "_amount",
          "type": "uint256"
        }
      ],
      "name": "LockedToken",
      "type": "event"
    },
    {
      "anonymous": false,
      "inputs": [
        {
          "indexed": true,
          "internalType": "address",
          "name": "previousOwner",
          "type": "address"
        },
        {
          "indexed": true,
          "internalType": "address",
          "name": "newOwner",
          "type": "address"
        }
      ],
      "name": "OwnershipTransferred",
      "type": "event"
    },
    {
      "anonymous": false,
      "inputs": [
        {
          "indexed": false,
          "internalType": "address",
          "name": "account",
          "type": "address"
        }
      ],
      "name": "Paused",
      "type": "event"
    },
    {
      "anonymous": false,
      "inputs": [
        {
          "indexed": false,
          "internalType": "address",
          "name": "_token",
          "type": "address"
        },
        {
          "indexed": false,
          "internalType": "address",
          "name": "_from",
          "type": "address"
        },
        {
          "indexed": false,
          "internalType": "address",
          "name": "_to",
          "type": "address"
        },
        {
          "indexed": true,
          "internalType": "uint256",
          "name": "_amount",
          "type": "uint256"
        }
      ],
      "name": "TokenTransferedToDestinationChain",
      "type": "event"
    },
    {
      "anonymous": false,
      "inputs": [
        {
          "indexed": false,
          "internalType": "address",
          "name": "account",
          "type": "address"
        }
      ],
      "name": "Unpaused",
      "type": "event"
    },
    {
      "inputs": [
        {
          "internalType": "uint256",
          "name": "newSmartContractFees",
          "type": "uint256"
        }
      ],
      "name": "changeSmartContractFees",
      "outputs": [
        {
          "internalType": "uint256",
          "name": "",
          "type": "uint256"
        }
      ],
      "stateMutability": "nonpayable",
      "type": "function"
    },
    {
      "inputs": [],
      "name": "getSmartContractFees",
      "outputs": [
        {
          "internalType": "uint256",
          "name": "",
          "type": "uint256"
        }
      ],
      "stateMutability": "view",
      "type": "function"
    },
    {
      "inputs": [
        {
          "internalType": "address",
          "name": "tokenAddress",
          "type": "address"
        },
        {
          "internalType": "address",
          "name": "recipient",
          "type": "address"
        }
      ],
      "name": "getTokenBalance",
      "outputs": [
        {
          "internalType": "uint256",
          "name": "",
          "type": "uint256"
        }
      ],
      "stateMutability": "view",
      "type": "function"
    },
    {
      "inputs": [
        {
          "internalType": "enum BridgeBsc.SourceChain",
          "name": "sourceChain",
          "type": "uint8"
        },
        {
          "internalType": "enum BridgeBsc.DestinationChain",
          "name": "destinationChain",
          "type": "uint8"
        },
        {
          "internalType": "enum BridgeBsc.SourceChainTokensAvailable",
          "name": "tokensAvailableFromSourceChain",
          "type": "uint8"
        },
        {
          "internalType": "enum BridgeBsc.DestinationChainTokensAvailable",
          "name": "tokensAvailableFromDestinationChain",
          "type": "uint8"
        },
        {
          "internalType": "uint256",
          "name": "value",
          "type": "uint256"
        },
        {
          "internalType": "bytes32",
          "name": "hash",
          "type": "bytes32"
        },
        {
          "internalType": "bytes",
          "name": "signature",
          "type": "bytes"
        }
      ],
      "name": "lockBnb",
      "outputs": [],
      "stateMutability": "payable",
      "type": "function"
    },
    {
      "inputs": [
        {
          "internalType": "uint256",
          "name": "value",
          "type": "uint256"
        }
      ],
      "name": "lockBnbToContract",
      "outputs": [],
      "stateMutability": "payable",
      "type": "function"
    },
    {
      "inputs": [
        {
          "internalType": "enum BridgeBsc.SourceChain",
          "name": "sourceChain",
          "type": "uint8"
        },
        {
          "internalType": "enum BridgeBsc.DestinationChain",
          "name": "destinationChain",
          "type": "uint8"
        },
        {
          "internalType": "enum BridgeBsc.SourceChainTokensAvailable",
          "name": "tokensAvailableFromSourceChain",
          "type": "uint8"
        },
        {
          "internalType": "enum BridgeBsc.DestinationChainTokensAvailable",
          "name": "tokensAvailableFromDestinationChain",
          "type": "uint8"
        },
        {
          "internalType": "address",
          "name": "tokenAddress",
          "type": "address"
        },
        {
          "internalType": "uint256",
          "name": "amount",
          "type": "uint256"
        },
        {
          "internalType": "bytes32",
          "name": "hash",
          "type": "bytes32"
        },
        {
          "internalType": "bytes",
          "name": "signature",
          "type": "bytes"
        }
      ],
      "name": "lockToken",
      "outputs": [],
      "stateMutability": "nonpayable",
      "type": "function"
    },
    {
      "inputs": [
        {
          "internalType": "address",
          "name": "tokenAddress",
          "type": "address"
        },
        {
          "internalType": "uint256",
          "name": "amount",
          "type": "uint256"
        }
      ],
      "name": "lockTokenToContract",
      "outputs": [],
      "stateMutability": "nonpayable",
      "type": "function"
    },
    {
      "inputs": [],
      "name": "owner",
      "outputs": [
        {
          "internalType": "address",
          "name": "",
          "type": "address"
        }
      ],
      "stateMutability": "view",
      "type": "function"
    },
    {
      "inputs": [],
      "name": "pause",
      "outputs": [],
      "stateMutability": "nonpayable",
      "type": "function"
    },
    {
      "inputs": [],
      "name": "paused",
      "outputs": [
        {
          "internalType": "bool",
          "name": "",
          "type": "bool"
        }
      ],
      "stateMutability": "view",
      "type": "function"
    },
    {
      "inputs": [],
      "name": "renounceOwnership",
      "outputs": [],
      "stateMutability": "nonpayable",
      "type": "function"
    },
    {
      "inputs": [
        {
          "internalType": "address",
          "name": "recipient",
          "type": "address"
        },
        {
          "internalType": "uint256",
          "name": "value",
          "type": "uint256"
        }
      ],
      "name": "transferBnb",
      "outputs": [],
      "stateMutability": "nonpayable",
      "type": "function"
    },
    {
      "inputs": [
        {
          "internalType": "address",
          "name": "recipient",
          "type": "address"
        },
        {
          "internalType": "uint256",
          "name": "value",
          "type": "uint256"
        }
      ],
      "name": "transferBscBackToUser",
      "outputs": [],
      "stateMutability": "nonpayable",
      "type": "function"
    },
    {
      "inputs": [
        {
          "internalType": "address",
          "name": "newOwner",
          "type": "address"
        }
      ],
      "name": "transferOwnership",
      "outputs": [],
      "stateMutability": "nonpayable",
      "type": "function"
    },
    {
      "inputs": [
        {
          "internalType": "address",
          "name": "tokenAddress",
          "type": "address"
        },
        {
          "internalType": "address",
          "name": "recipient",
          "type": "address"
        },
        {
          "internalType": "uint256",
          "name": "amount",
          "type": "uint256"
        }
      ],
      "name": "transferToken",
      "outputs": [],
      "stateMutability": "nonpayable",
      "type": "function"
    },
    {
      "inputs": [
        {
          "internalType": "address",
          "name": "tokenAddress",
          "type": "address"
        },
        {
          "internalType": "address",
          "name": "recipient",
          "type": "address"
        },
        {
          "internalType": "uint256",
          "name": "amount",
          "type": "uint256"
        }
      ],
      "name": "transferTokenBackToUser",
      "outputs": [],
      "stateMutability": "nonpayable",
      "type": "function"
    },
    {
      "inputs": [],
      "name": "unpause",
      "outputs": [],
      "stateMutability": "nonpayable",
      "type": "function"
    },
    {
      "inputs": [
        {
          "internalType": "address payable",
          "name": "recipient",
          "type": "address"
        }
      ],
      "name": "withdraw",
      "outputs": [],
      "stateMutability": "nonpayable",
      "type": "function"
    },
    {
      "inputs": [
        {
          "internalType": "address",
          "name": "tokenAddress",
          "type": "address"
        },
        {
          "internalType": "address",
          "name": "recipient",
          "type": "address"
        }
      ],
      "name": "withdrawToken",
      "outputs": [],
      "stateMutability": "nonpayable",
      "type": "function"
    }
  ],
  "bytecode": "0x608060405260026003553480156200001657600080fd5b50620000376200002b6200005e60201b60201c565b6200006660201b60201c565b60008060146101000a81548160ff021916908315150217905550600180819055506200012a565b600033905090565b60008060009054906101000a900473ffffffffffffffffffffffffffffffffffffffff169050816000806101000a81548173ffffffffffffffffffffffffffffffffffffffff021916908373ffffffffffffffffffffffffffffffffffffffff1602179055508173ffffffffffffffffffffffffffffffffffffffff168173ffffffffffffffffffffffffffffffffffffffff167f8be0079c531659141344cd1fd0a4f28419497f9722a3daafe3b4186f6b6457e060405160405180910390a35050565b6139b3806200013a6000396000f3fe6080604052600436106101145760003560e01c80638456cb59116100a0578063e392825b11610064578063e392825b14610321578063f1597e771461034a578063f2fde38b14610373578063f5537ede1461039c578063f656eece146103c557610114565b80638456cb591461024e5780638da5cb5b146102655780639a3488b614610290578063c489744b146102bb578063e1828c11146102f857610114565b80636c6a037a116100e75780636c6a037a146101ad5780636f55232a146101d6578063715018a6146101f257806372d862941461020957806374c9f8dd1461022557610114565b80633aeac4e1146101195780633f4ba83a1461014257806351cff8d9146101595780635c975abb14610182575b600080fd5b34801561012557600080fd5b50610140600480360381019061013b9190612319565b610402565b005b34801561014e57600080fd5b506101576105d3565b005b34801561016557600080fd5b50610180600480360381019061017b9190612397565b6105e5565b005b34801561018e57600080fd5b506101976106b6565b6040516101a491906123df565b60405180910390f35b3480156101b957600080fd5b506101d460048036038101906101cf9190612430565b6106cc565b005b6101f060048036038101906101eb9190612470565b6107e1565b005b3480156101fe57600080fd5b50610207610889565b005b610223600480360381019061021e91906126ad565b61089d565b005b34801561023157600080fd5b5061024c60048036038101906102479190612430565b610c08565b005b34801561025a57600080fd5b50610263610d94565b005b34801561027157600080fd5b5061027a610da6565b604051610287919061277a565b60405180910390f35b34801561029c57600080fd5b506102a5610dcf565b6040516102b291906127a4565b60405180910390f35b3480156102c757600080fd5b506102e260048036038101906102dd9190612319565b610dd9565b6040516102ef91906127a4565b60405180910390f35b34801561030457600080fd5b5061031f600480360381019061031a91906127bf565b610f49565b005b34801561032d57600080fd5b5061034860048036038101906103439190612891565b6113b4565b005b34801561035657600080fd5b50610371600480360381019061036c9190612430565b611494565b005b34801561037f57600080fd5b5061039a600480360381019061039591906128e4565b6115f1565b005b3480156103a857600080fd5b506103c360048036038101906103be9190612891565b611674565b005b3480156103d157600080fd5b506103ec60048036038101906103e79190612470565b6118b0565b6040516103f991906127a4565b60405180910390f35b61040a61190b565b610412611989565b600073ffffffffffffffffffffffffffffffffffffffff168173ffffffffffffffffffffffffffffffffffffffff1603610481576040517f08c379a00000000000000000000000000000000000000000000000000000000081526004016104789061296e565b60405180910390fd5b600082905060008173ffffffffffffffffffffffffffffffffffffffff166370a08231306040518263ffffffff1660e01b81526004016104c1919061277a565b602060405180830381865afa1580156104de573d6000803e3d6000fd5b505050506040513d601f19601f8201168201806040525081019061050291906129a3565b11610542576040517f08c379a000000000000000000000000000000000000000000000000000000000815260040161053990612a1c565b60405180910390fd5b6105c681838373ffffffffffffffffffffffffffffffffffffffff166370a08231306040518263ffffffff1660e01b8152600401610580919061277a565b602060405180830381865afa15801561059d573d6000803e3d6000fd5b505050506040513d601f19601f820116820180604052508101906105c191906129a3565b6119d8565b506105cf611a5e565b5050565b6105db61190b565b6105e3611a67565b565b6105ed61190b565b6105f5611989565b600073ffffffffffffffffffffffffffffffffffffffff168173ffffffffffffffffffffffffffffffffffffffff1603610664576040517f08c379a000000000000000000000000000000000000000000000000000000000815260040161065b9061296e565b60405180910390fd5b8073ffffffffffffffffffffffffffffffffffffffff166108fc479081150290604051600060405180830381858888f193505050501580156106aa573d6000803e3d6000fd5b506106b3611a5e565b50565b60008060149054906101000a900460ff16905090565b6106d461190b565b6106dc611989565b600073ffffffffffffffffffffffffffffffffffffffff168273ffffffffffffffffffffffffffffffffffffffff160361074b576040517f08c379a00000000000000000000000000000000000000000000000000000000081526004016107429061296e565b60405180910390fd5b6000810361078e576040517f08c379a000000000000000000000000000000000000000000000000000000000815260040161078590612a88565b60405180910390fd5b8173ffffffffffffffffffffffffffffffffffffffff166108fc829081150290604051600060405180830381858888f193505050501580156107d4573d6000803e3d6000fd5b506107dd611a5e565b5050565b6107e961190b565b6107f1611ac9565b6107f9611989565b6000340361083c576040517f08c379a000000000000000000000000000000000000000000000000000000000815260040161083390612a88565b60405180910390fd5b80341461087e576040517f08c379a000000000000000000000000000000000000000000000000000000000815260040161087590612af4565b60405180910390fd5b610886611a5e565b50565b61089161190b565b61089b6000611b13565b565b6108a5611ac9565b6108ad611989565b600034036108f0576040517f08c379a00000000000000000000000000000000000000000000000000000000081526004016108e790612a88565b60405180910390fd5b6001600281111561090457610903612b14565b5b87600281111561091757610916612b14565b5b14801561094957506001600281111561093357610932612b14565b5b86600281111561094657610945612b14565b5b14155b610988576040517f08c379a000000000000000000000000000000000000000000000000000000000815260040161097f90612b8f565b60405180910390fd5b6002600381111561099c5761099b612b14565b5b8560038111156109af576109ae612b14565b5b141580156109e25750600060038111156109cc576109cb612b14565b5b8560038111156109df576109de612b14565b5b14155b8015610a135750600160038111156109fd576109fc612b14565b5b846003811115610a1057610a0f612b14565b5b14155b610a52576040517f08c379a0000000000000000000000000000000000000000000000000000000008152600401610a4990612bfb565b60405180910390fd5b823414610a94576040517f08c379a0000000000000000000000000000000000000000000000000000000008152600401610a8b90612af4565b60405180910390fd5b610a9c610da6565b73ffffffffffffffffffffffffffffffffffffffff16610abc8383611bd7565b73ffffffffffffffffffffffffffffffffffffffff1614610b12576040517f08c379a0000000000000000000000000000000000000000000000000000000008152600401610b0990612c67565b60405180910390fd5b600481604051610b229190612cf8565b908152602001604051809103902060009054906101000a900460ff1615610b7e576040517f08c379a0000000000000000000000000000000000000000000000000000000008152600401610b7590612d5b565b60405180910390fd5b347fb2c6b3a83e5f28a43a25a807de780d5fd5366a6d831b7965f513d7f2436b207133308a8a8a8a604051610bb896959493929190612e9b565b60405180910390a26001600482604051610bd29190612cf8565b908152602001604051809103902060006101000a81548160ff021916908315150217905550610bff611a5e565b50505050505050565b610c1061190b565b610c18611ac9565b610c20611989565b600073ffffffffffffffffffffffffffffffffffffffff168273ffffffffffffffffffffffffffffffffffffffff1603610c8f576040517f08c379a0000000000000000000000000000000000000000000000000000000008152600401610c8690612f48565b60405180910390fd5b60008103610cd2576040517f08c379a0000000000000000000000000000000000000000000000000000000008152600401610cc990612a88565b60405180910390fd5b6000606460035483610ce49190612f97565b610cee9190613008565b90508082610cfc9190613039565b7faa957e36669fd820bec269a79cd80edf63fac17c5c00c829dfa6edec3f6acdac3085604051610d2d92919061306d565b60405180910390a28273ffffffffffffffffffffffffffffffffffffffff166108fc8284610d5b9190613039565b9081150290604051600060405180830381858888f19350505050158015610d86573d6000803e3d6000fd5b5050610d90611a5e565b5050565b610d9c61190b565b610da4611c16565b565b60008060009054906101000a900473ffffffffffffffffffffffffffffffffffffffff16905090565b6000600354905090565b6000610de361190b565b600073ffffffffffffffffffffffffffffffffffffffff168373ffffffffffffffffffffffffffffffffffffffff1603610e52576040517f08c379a0000000000000000000000000000000000000000000000000000000008152600401610e499061296e565b60405180910390fd5b600073ffffffffffffffffffffffffffffffffffffffff168273ffffffffffffffffffffffffffffffffffffffff1603610ec1576040517f08c379a0000000000000000000000000000000000000000000000000000000008152600401610eb89061296e565b60405180910390fd5b60008390508073ffffffffffffffffffffffffffffffffffffffff166370a08231846040518263ffffffff1660e01b8152600401610eff919061277a565b602060405180830381865afa158015610f1c573d6000803e3d6000fd5b505050506040513d601f19601f82011682018060405250810190610f4091906129a3565b91505092915050565b610f51611ac9565b610f59611989565b60008303610f9c576040517f08c379a0000000000000000000000000000000000000000000000000000000008152600401610f9390612a88565b60405180910390fd5b60016002811115610fb057610faf612b14565b5b886002811115610fc357610fc2612b14565b5b148015610ff5575060016002811115610fdf57610fde612b14565b5b876002811115610ff257610ff1612b14565b5b14155b611034576040517f08c379a000000000000000000000000000000000000000000000000000000000815260040161102b90612b8f565b60405180910390fd5b6000600381111561104857611047612b14565b5b86600381111561105b5761105a612b14565b5b1415801561108e57506001600381111561107857611077612b14565b5b86600381111561108b5761108a612b14565b5b14155b80156110bf5750600060038111156110a9576110a8612b14565b5b8560038111156110bc576110bb612b14565b5b14155b6110fe576040517f08c379a00000000000000000000000000000000000000000000000000000000081526004016110f590612bfb565b60405180910390fd5b600073ffffffffffffffffffffffffffffffffffffffff168473ffffffffffffffffffffffffffffffffffffffff160361116d576040517f08c379a00000000000000000000000000000000000000000000000000000000081526004016111649061296e565b60405180910390fd5b611175610da6565b73ffffffffffffffffffffffffffffffffffffffff166111958383611bd7565b73ffffffffffffffffffffffffffffffffffffffff16146111eb576040517f08c379a00000000000000000000000000000000000000000000000000000000081526004016111e290612c67565b60405180910390fd5b6004816040516111fb9190612cf8565b908152602001604051809103902060009054906101000a900460ff1615611257576040517f08c379a000000000000000000000000000000000000000000000000000000000815260040161124e90612d5b565b60405180910390fd5b6000849050838173ffffffffffffffffffffffffffffffffffffffff1663dd62ed3e33306040518363ffffffff1660e01b815260040161129892919061306d565b602060405180830381865afa1580156112b5573d6000803e3d6000fd5b505050506040513d601f19601f820116820180604052508101906112d991906129a3565b101561131a576040517f08c379a0000000000000000000000000000000000000000000000000000000008152600401611311906130e2565b60405180910390fd5b837f4472c72d0bcf5053f9b751e4fab2043d10268d0bb56b8bc379a6743d297ec4bf8633308d8d8d8d6040516113569796959493929190613102565b60405180910390a261136a81333087611c79565b600160048360405161137c9190612cf8565b908152602001604051809103902060006101000a81548160ff021916908315150217905550506113aa611a5e565b5050505050505050565b6113bc61190b565b6113c4611989565b60008103611407576040517f08c379a00000000000000000000000000000000000000000000000000000000081526004016113fe90612a88565b60405180910390fd5b600073ffffffffffffffffffffffffffffffffffffffff168373ffffffffffffffffffffffffffffffffffffffff1603611476576040517f08c379a000000000000000000000000000000000000000000000000000000000815260040161146d9061296e565b60405180910390fd5b60008390506114868184846119d8565b5061148f611a5e565b505050565b61149c61190b565b6114a4611ac9565b6114ac611989565b6000829050600073ffffffffffffffffffffffffffffffffffffffff168373ffffffffffffffffffffffffffffffffffffffff1603611520576040517f08c379a00000000000000000000000000000000000000000000000000000000081526004016115179061296e565b60405180910390fd5b60008203611563576040517f08c379a000000000000000000000000000000000000000000000000000000000815260040161155a90612a88565b60405180910390fd5b8073ffffffffffffffffffffffffffffffffffffffff166323b872dd3330856040518463ffffffff1660e01b81526004016115a093929190613171565b6020604051808303816000875af11580156115bf573d6000803e3d6000fd5b505050506040513d601f19601f820116820180604052508101906115e391906131d4565b50506115ed611a5e565b5050565b6115f961190b565b600073ffffffffffffffffffffffffffffffffffffffff168173ffffffffffffffffffffffffffffffffffffffff1603611668576040517f08c379a000000000000000000000000000000000000000000000000000000000815260040161165f90613273565b60405180910390fd5b61167181611b13565b50565b61167c61190b565b611684611ac9565b61168c611989565b6000839050600073ffffffffffffffffffffffffffffffffffffffff168473ffffffffffffffffffffffffffffffffffffffff1603611700576040517f08c379a00000000000000000000000000000000000000000000000000000000081526004016116f79061296e565b60405180910390fd5b600073ffffffffffffffffffffffffffffffffffffffff168373ffffffffffffffffffffffffffffffffffffffff160361176f576040517f08c379a000000000000000000000000000000000000000000000000000000000815260040161176690612f48565b60405180910390fd5b600082036117b2576040517f08c379a00000000000000000000000000000000000000000000000000000000081526004016117a990612a88565b60405180910390fd5b60006064600354846117c49190612f97565b6117ce9190613008565b905080836117dc9190613039565b7f85647f12ef10ce387990d62d699fab79560d0e6165ced3af12f4ada543a2c74886308760405161180f93929190613293565b60405180910390a28173ffffffffffffffffffffffffffffffffffffffff1663a9059cbb8583866118409190613039565b6040518363ffffffff1660e01b815260040161185d9291906132ca565b6020604051808303816000875af115801561187c573d6000803e3d6000fd5b505050506040513d601f19601f820116820180604052508101906118a091906131d4565b5050506118ab611a5e565b505050565b60006118ba61190b565b81600354036118fe576040517f08c379a00000000000000000000000000000000000000000000000000000000081526004016118f59061333f565b60405180910390fd5b8160038190559050919050565b611913611d02565b73ffffffffffffffffffffffffffffffffffffffff16611931610da6565b73ffffffffffffffffffffffffffffffffffffffff1614611987576040517f08c379a000000000000000000000000000000000000000000000000000000000815260040161197e906133ab565b60405180910390fd5b565b6002600154036119ce576040517f08c379a00000000000000000000000000000000000000000000000000000000081526004016119c590613417565b60405180910390fd5b6002600181905550565b611a598363a9059cbb60e01b84846040516024016119f79291906132ca565b604051602081830303815290604052907bffffffffffffffffffffffffffffffffffffffffffffffffffffffff19166020820180517bffffffffffffffffffffffffffffffffffffffffffffffffffffffff8381831617835250505050611d0a565b505050565b60018081905550565b611a6f611dd1565b60008060146101000a81548160ff0219169083151502179055507f5db9ee0a495bf2e6ff9c91a7834c1ba4fdd244a5e8aa4e537bd38aeae4b073aa611ab2611d02565b604051611abf919061277a565b60405180910390a1565b611ad16106b6565b15611b11576040517f08c379a0000000000000000000000000000000000000000000000000000000008152600401611b0890613483565b60405180910390fd5b565b60008060009054906101000a900473ffffffffffffffffffffffffffffffffffffffff169050816000806101000a81548173ffffffffffffffffffffffffffffffffffffffff021916908373ffffffffffffffffffffffffffffffffffffffff1602179055508173ffffffffffffffffffffffffffffffffffffffff168173ffffffffffffffffffffffffffffffffffffffff167f8be0079c531659141344cd1fd0a4f28419497f9722a3daafe3b4186f6b6457e060405160405180910390a35050565b60008083604051602001611beb919061351b565b604051602081830303815290604052805190602001209050611c0d8184611e1a565b91505092915050565b611c1e611ac9565b6001600060146101000a81548160ff0219169083151502179055507f62e78cea01bee320cd4e420270b5ea74000d11b0c9f74754ebdbfc544b05a258611c62611d02565b604051611c6f919061277a565b60405180910390a1565b611cfc846323b872dd60e01b858585604051602401611c9a93929190613171565b604051602081830303815290604052907bffffffffffffffffffffffffffffffffffffffffffffffffffffffff19166020820180517bffffffffffffffffffffffffffffffffffffffffffffffffffffffff8381831617835250505050611d0a565b50505050565b600033905090565b6000611d6c826040518060400160405280602081526020017f5361666545524332303a206c6f772d6c6576656c2063616c6c206661696c65648152508573ffffffffffffffffffffffffffffffffffffffff16611e419092919063ffffffff16565b9050600081511115611dcc5780806020019051810190611d8c91906131d4565b611dcb576040517f08c379a0000000000000000000000000000000000000000000000000000000008152600401611dc2906135b3565b60405180910390fd5b5b505050565b611dd96106b6565b611e18576040517f08c379a0000000000000000000000000000000000000000000000000000000008152600401611e0f9061361f565b60405180910390fd5b565b6000806000611e298585611e59565b91509150611e3681611eaa565b819250505092915050565b6060611e508484600085612010565b90509392505050565b6000806041835103611e9a5760008060006020860151925060408601519150606086015160001a9050611e8e878285856120dd565b94509450505050611ea3565b60006002915091505b9250929050565b60006004811115611ebe57611ebd612b14565b5b816004811115611ed157611ed0612b14565b5b031561200d5760016004811115611eeb57611eea612b14565b5b816004811115611efe57611efd612b14565b5b03611f3e576040517f08c379a0000000000000000000000000000000000000000000000000000000008152600401611f359061368b565b60405180910390fd5b60026004811115611f5257611f51612b14565b5b816004811115611f6557611f64612b14565b5b03611fa5576040517f08c379a0000000000000000000000000000000000000000000000000000000008152600401611f9c906136f7565b60405180910390fd5b60036004811115611fb957611fb8612b14565b5b816004811115611fcc57611fcb612b14565b5b0361200c576040517f08c379a000000000000000000000000000000000000000000000000000000000815260040161200390613789565b60405180910390fd5b5b50565b606082471015612055576040517f08c379a000000000000000000000000000000000000000000000000000000000815260040161204c9061381b565b60405180910390fd5b6000808673ffffffffffffffffffffffffffffffffffffffff16858760405161207e9190612cf8565b60006040518083038185875af1925050503d80600081146120bb576040519150601f19603f3d011682016040523d82523d6000602084013e6120c0565b606091505b50915091506120d1878383876121bf565b92505050949350505050565b6000807f7fffffffffffffffffffffffffffffff5d576e7357a4501ddfe92f46681b20a08360001c11156121185760006003915091506121b6565b60006001878787876040516000815260200160405260405161213d9493929190613866565b6020604051602081039080840390855afa15801561215f573d6000803e3d6000fd5b505050602060405103519050600073ffffffffffffffffffffffffffffffffffffffff168173ffffffffffffffffffffffffffffffffffffffff16036121ad576000600192509250506121b6565b80600092509250505b94509492505050565b60608315612221576000835103612219576121d985612234565b612218576040517f08c379a000000000000000000000000000000000000000000000000000000000815260040161220f906138f7565b60405180910390fd5b5b82905061222c565b61222b8383612257565b5b949350505050565b6000808273ffffffffffffffffffffffffffffffffffffffff163b119050919050565b60008251111561226a5781518083602001fd5b806040517f08c379a000000000000000000000000000000000000000000000000000000000815260040161229e919061395b565b60405180910390fd5b6000604051905090565b600080fd5b600080fd5b600073ffffffffffffffffffffffffffffffffffffffff82169050919050565b60006122e6826122bb565b9050919050565b6122f6816122db565b811461230157600080fd5b50565b600081359050612313816122ed565b92915050565b600080604083850312156123305761232f6122b1565b5b600061233e85828601612304565b925050602061234f85828601612304565b9150509250929050565b6000612364826122bb565b9050919050565b61237481612359565b811461237f57600080fd5b50565b6000813590506123918161236b565b92915050565b6000602082840312156123ad576123ac6122b1565b5b60006123bb84828501612382565b91505092915050565b60008115159050919050565b6123d9816123c4565b82525050565b60006020820190506123f460008301846123d0565b92915050565b6000819050919050565b61240d816123fa565b811461241857600080fd5b50565b60008135905061242a81612404565b92915050565b60008060408385031215612447576124466122b1565b5b600061245585828601612304565b92505060206124668582860161241b565b9150509250929050565b600060208284031215612486576124856122b1565b5b60006124948482850161241b565b91505092915050565b600381106124aa57600080fd5b50565b6000813590506124bc8161249d565b92915050565b600381106124cf57600080fd5b50565b6000813590506124e1816124c2565b92915050565b600481106124f457600080fd5b50565b600081359050612506816124e7565b92915050565b6004811061251957600080fd5b50565b60008135905061252b8161250c565b92915050565b6000819050919050565b61254481612531565b811461254f57600080fd5b50565b6000813590506125618161253b565b92915050565b600080fd5b600080fd5b6000601f19601f8301169050919050565b7f4e487b7100000000000000000000000000000000000000000000000000000000600052604160045260246000fd5b6125ba82612571565b810181811067ffffffffffffffff821117156125d9576125d8612582565b5b80604052505050565b60006125ec6122a7565b90506125f882826125b1565b919050565b600067ffffffffffffffff82111561261857612617612582565b5b61262182612571565b9050602081019050919050565b82818337600083830152505050565b600061265061264b846125fd565b6125e2565b90508281526020810184848401111561266c5761266b61256c565b5b61267784828561262e565b509392505050565b600082601f83011261269457612693612567565b5b81356126a484826020860161263d565b91505092915050565b600080600080600080600060e0888a0312156126cc576126cb6122b1565b5b60006126da8a828b016124ad565b97505060206126eb8a828b016124d2565b96505060406126fc8a828b016124f7565b955050606061270d8a828b0161251c565b945050608061271e8a828b0161241b565b93505060a061272f8a828b01612552565b92505060c088013567ffffffffffffffff8111156127505761274f6122b6565b5b61275c8a828b0161267f565b91505092959891949750929550565b612774816122db565b82525050565b600060208201905061278f600083018461276b565b92915050565b61279e816123fa565b82525050565b60006020820190506127b96000830184612795565b92915050565b600080600080600080600080610100898b0312156127e0576127df6122b1565b5b60006127ee8b828c016124ad565b98505060206127ff8b828c016124d2565b97505060406128108b828c016124f7565b96505060606128218b828c0161251c565b95505060806128328b828c01612304565b94505060a06128438b828c0161241b565b93505060c06128548b828c01612552565b92505060e089013567ffffffffffffffff811115612875576128746122b6565b5b6128818b828c0161267f565b9150509295985092959890939650565b6000806000606084860312156128aa576128a96122b1565b5b60006128b886828701612304565b93505060206128c986828701612304565b92505060406128da8682870161241b565b9150509250925092565b6000602082840312156128fa576128f96122b1565b5b600061290884828501612304565b91505092915050565b600082825260208201905092915050565b7f416464726573732063616e6e6f74206265207a65726f00000000000000000000600082015250565b6000612958601683612911565b915061296382612922565b602082019050919050565b600060208201905081810360008301526129878161294b565b9050919050565b60008151905061299d81612404565b92915050565b6000602082840312156129b9576129b86122b1565b5b60006129c78482850161298e565b91505092915050565b7f496e73756666696369656e742062616c616e6365000000000000000000000000600082015250565b6000612a06601483612911565b9150612a11826129d0565b602082019050919050565b60006020820190508181036000830152612a35816129f9565b9050919050565b7f496e73756666696369656e7420616d6f756e7400000000000000000000000000600082015250565b6000612a72601383612911565b9150612a7d82612a3c565b602082019050919050565b60006020820190508181036000830152612aa181612a65565b9050919050565b7f56616c75652073686f756c64206265206d617463680000000000000000000000600082015250565b6000612ade601583612911565b9150612ae982612aa8565b602082019050919050565b60006020820190508181036000830152612b0d81612ad1565b9050919050565b7f4e487b7100000000000000000000000000000000000000000000000000000000600052602160045260246000fd5b7f496e76616c696420636861696e00000000000000000000000000000000000000600082015250565b6000612b79600d83612911565b9150612b8482612b43565b602082019050919050565b60006020820190508181036000830152612ba881612b6c565b9050919050565b7f496e76616c696420746f6b656e00000000000000000000000000000000000000600082015250565b6000612be5600d83612911565b9150612bf082612baf565b602082019050919050565b60006020820190508181036000830152612c1481612bd8565b9050919050565b7f41646472657373206973206e6f7420617574686f72697a656400000000000000600082015250565b6000612c51601983612911565b9150612c5c82612c1b565b602082019050919050565b60006020820190508181036000830152612c8081612c44565b9050919050565b600081519050919050565b600081905092915050565b60005b83811015612cbb578082015181840152602081019050612ca0565b60008484015250505050565b6000612cd282612c87565b612cdc8185612c92565b9350612cec818560208601612c9d565b80840191505092915050565b6000612d048284612cc7565b915081905092915050565b7f416c7265616479207369676e6174757265207573656400000000000000000000600082015250565b6000612d45601683612911565b9150612d5082612d0f565b602082019050919050565b60006020820190508181036000830152612d7481612d38565b9050919050565b60038110612d8c57612d8b612b14565b5b50565b6000819050612d9d82612d7b565b919050565b6000612dad82612d8f565b9050919050565b612dbd81612da2565b82525050565b60038110612dd457612dd3612b14565b5b50565b6000819050612de582612dc3565b919050565b6000612df582612dd7565b9050919050565b612e0581612dea565b82525050565b60048110612e1c57612e1b612b14565b5b50565b6000819050612e2d82612e0b565b919050565b6000612e3d82612e1f565b9050919050565b612e4d81612e32565b82525050565b60048110612e6457612e63612b14565b5b50565b6000819050612e7582612e53565b919050565b6000612e8582612e67565b9050919050565b612e9581612e7a565b82525050565b600060c082019050612eb0600083018961276b565b612ebd602083018861276b565b612eca6040830187612db4565b612ed76060830186612dfc565b612ee46080830185612e44565b612ef160a0830184612e8c565b979650505050505050565b7f416464726573732063616e6e6f74206265203000000000000000000000000000600082015250565b6000612f32601383612911565b9150612f3d82612efc565b602082019050919050565b60006020820190508181036000830152612f6181612f25565b9050919050565b7f4e487b7100000000000000000000000000000000000000000000000000000000600052601160045260246000fd5b6000612fa2826123fa565b9150612fad836123fa565b9250828202612fbb816123fa565b91508282048414831517612fd257612fd1612f68565b5b5092915050565b7f4e487b7100000000000000000000000000000000000000000000000000000000600052601260045260246000fd5b6000613013826123fa565b915061301e836123fa565b92508261302e5761302d612fd9565b5b828204905092915050565b6000613044826123fa565b915061304f836123fa565b925082820390508181111561306757613066612f68565b5b92915050565b6000604082019050613082600083018561276b565b61308f602083018461276b565b9392505050565b7f436865636b2074686520746f6b656e20616c6c6f77616e636500000000000000600082015250565b60006130cc601983612911565b91506130d782613096565b602082019050919050565b600060208201905081810360008301526130fb816130bf565b9050919050565b600060e082019050613117600083018a61276b565b613124602083018961276b565b613131604083018861276b565b61313e6060830187612db4565b61314b6080830186612dfc565b61315860a0830185612e44565b61316560c0830184612e8c565b98975050505050505050565b6000606082019050613186600083018661276b565b613193602083018561276b565b6131a06040830184612795565b949350505050565b6131b1816123c4565b81146131bc57600080fd5b50565b6000815190506131ce816131a8565b92915050565b6000602082840312156131ea576131e96122b1565b5b60006131f8848285016131bf565b91505092915050565b7f4f776e61626c653a206e6577206f776e657220697320746865207a65726f206160008201527f6464726573730000000000000000000000000000000000000000000000000000602082015250565b600061325d602683612911565b915061326882613201565b604082019050919050565b6000602082019050818103600083015261328c81613250565b9050919050565b60006060820190506132a8600083018661276b565b6132b5602083018561276b565b6132c2604083018461276b565b949350505050565b60006040820190506132df600083018561276b565b6132ec6020830184612795565b9392505050565b7f53616d65206665657320616c6c6f636174656400000000000000000000000000600082015250565b6000613329601383612911565b9150613334826132f3565b602082019050919050565b600060208201905081810360008301526133588161331c565b9050919050565b7f4f776e61626c653a2063616c6c6572206973206e6f7420746865206f776e6572600082015250565b6000613395602083612911565b91506133a08261335f565b602082019050919050565b600060208201905081810360008301526133c481613388565b9050919050565b7f5265656e7472616e637947756172643a207265656e7472616e742063616c6c00600082015250565b6000613401601f83612911565b915061340c826133cb565b602082019050919050565b60006020820190508181036000830152613430816133f4565b9050919050565b7f5061757361626c653a2070617573656400000000000000000000000000000000600082015250565b600061346d601083612911565b915061347882613437565b602082019050919050565b6000602082019050818103600083015261349c81613460565b9050919050565b600081905092915050565b7f19457468657265756d205369676e6564204d6573736167653a0a333200000000600082015250565b60006134e4601c836134a3565b91506134ef826134ae565b601c82019050919050565b6000819050919050565b61351561351082612531565b6134fa565b82525050565b6000613526826134d7565b91506135328284613504565b60208201915081905092915050565b7f5361666545524332303a204552433230206f7065726174696f6e20646964206e60008201527f6f74207375636365656400000000000000000000000000000000000000000000602082015250565b600061359d602a83612911565b91506135a882613541565b604082019050919050565b600060208201905081810360008301526135cc81613590565b9050919050565b7f5061757361626c653a206e6f7420706175736564000000000000000000000000600082015250565b6000613609601483612911565b9150613614826135d3565b602082019050919050565b60006020820190508181036000830152613638816135fc565b9050919050565b7f45434453413a20696e76616c6964207369676e61747572650000000000000000600082015250565b6000613675601883612911565b91506136808261363f565b602082019050919050565b600060208201905081810360008301526136a481613668565b9050919050565b7f45434453413a20696e76616c6964207369676e6174757265206c656e67746800600082015250565b60006136e1601f83612911565b91506136ec826136ab565b602082019050919050565b60006020820190508181036000830152613710816136d4565b9050919050565b7f45434453413a20696e76616c6964207369676e6174757265202773272076616c60008201527f7565000000000000000000000000000000000000000000000000000000000000602082015250565b6000613773602283612911565b915061377e82613717565b604082019050919050565b600060208201905081810360008301526137a281613766565b9050919050565b7f416464726573733a20696e73756666696369656e742062616c616e636520666f60008201527f722063616c6c0000000000000000000000000000000000000000000000000000602082015250565b6000613805602683612911565b9150613810826137a9565b604082019050919050565b60006020820190508181036000830152613834816137f8565b9050919050565b61384481612531565b82525050565b600060ff82169050919050565b6138608161384a565b82525050565b600060808201905061387b600083018761383b565b6138886020830186613857565b613895604083018561383b565b6138a2606083018461383b565b95945050505050565b7f416464726573733a2063616c6c20746f206e6f6e2d636f6e7472616374000000600082015250565b60006138e1601d83612911565b91506138ec826138ab565b602082019050919050565b60006020820190508181036000830152613910816138d4565b9050919050565b600081519050919050565b600061392d82613917565b6139378185612911565b9350613947818560208601612c9d565b61395081612571565b840191505092915050565b600060208201905081810360008301526139758184613922565b90509291505056fea264697066735822122061d8b7ee8c7b01d48f6571af8903c38abd9b500ade93733ac3b81be7096404e164736f6c63430008110033",
  "linkReferences": {},
  "deployedLinkReferences": {}
}