{
  "_format": "hh-sol-artifact-1",
  "contractName": "BridgeBsc",
  "sourceName": "contracts/BridgeBsc.sol",
  "abi": [
    {
      "anonymous": false,
      "inputs": [
        {
          "indexed": false,
          "internalType": "address",
          "name": "_from",
          "type": "address"
        },
        {
          "indexed": false,
          "internalType": "address",
          "name": "_to",
          "type": "address"
        },
        {
          "indexed": true,
          "internalType": "uint256",
          "name": "_value",
          "type": "uint256"
        }
      ],
      "name": "BnbTransferedToDestinationChain",
      "type": "event"
    },
    {
      "anonymous": false,
      "inputs": [
        {
          "indexed": false,
          "internalType": "address",
          "name": "_from",
          "type": "address"
        },
        {
          "indexed": false,
          "internalType": "address",
          "name": "_to",
          "type": "address"
        },
        {
          "indexed": false,
          "internalType": "enum BridgeBsc.SourceChain",
          "name": "_sourceChain",
          "type": "uint8"
        },
        {
          "indexed": false,
          "internalType": "enum BridgeBsc.DestinationChain",
          "name": "_destinationChain",
          "type": "uint8"
        },
        {
          "indexed": false,
          "internalType": "enum BridgeBsc.SourceChainTokensAvailable",
          "name": "_tokensAvailableFromSourceChain",
          "type": "uint8"
        },
        {
          "indexed": false,
          "internalType": "enum BridgeBsc.DestinationChainTokensAvailable",
          "name": "_tokensAvailableFromDestinationChain",
          "type": "uint8"
        },
        {
          "indexed": true,
          "internalType": "uint256",
          "name": "_value",
          "type": "uint256"
        }
      ],
      "name": "LockedBnb",
      "type": "event"
    },
    {
      "anonymous": false,
      "inputs": [
        {
          "indexed": false,
          "internalType": "address",
          "name": "_token",
          "type": "address"
        },
        {
          "indexed": false,
          "internalType": "address",
          "name": "_from",
          "type": "address"
        },
        {
          "indexed": false,
          "internalType": "address",
          "name": "_to",
          "type": "address"
        },
        {
          "indexed": false,
          "internalType": "enum BridgeBsc.SourceChain",
          "name": "_sourceChain",
          "type": "uint8"
        },
        {
          "indexed": false,
          "internalType": "enum BridgeBsc.DestinationChain",
          "name": "_destinationChain",
          "type": "uint8"
        },
        {
          "indexed": false,
          "internalType": "enum BridgeBsc.SourceChainTokensAvailable",
          "name": "_tokensAvailableFromSourceChain",
          "type": "uint8"
        },
        {
          "indexed": false,
          "internalType": "enum BridgeBsc.DestinationChainTokensAvailable",
          "name": "_tokensAvailableFromDestinationChain",
          "type": "uint8"
        },
        {
          "indexed": true,
          "internalType": "uint256",
          "name": "_amount",
          "type": "uint256"
        }
      ],
      "name": "LockedToken",
      "type": "event"
    },
    {
      "anonymous": false,
      "inputs": [
        {
          "indexed": true,
          "internalType": "address",
          "name": "previousOwner",
          "type": "address"
        },
        {
          "indexed": true,
          "internalType": "address",
          "name": "newOwner",
          "type": "address"
        }
      ],
      "name": "OwnershipTransferred",
      "type": "event"
    },
    {
      "anonymous": false,
      "inputs": [
        {
          "indexed": false,
          "internalType": "address",
          "name": "_token",
          "type": "address"
        },
        {
          "indexed": false,
          "internalType": "address",
          "name": "_from",
          "type": "address"
        },
        {
          "indexed": false,
          "internalType": "address",
          "name": "_to",
          "type": "address"
        },
        {
          "indexed": true,
          "internalType": "uint256",
          "name": "_amount",
          "type": "uint256"
        }
      ],
      "name": "TokenTransferedToDestinationChain",
      "type": "event"
    },
    {
      "inputs": [
        {
          "internalType": "uint256",
          "name": "newSmartContractFees",
          "type": "uint256"
        }
      ],
      "name": "changeSmartContractFees",
      "outputs": [
        {
          "internalType": "uint256",
          "name": "",
          "type": "uint256"
        }
      ],
      "stateMutability": "nonpayable",
      "type": "function"
    },
    {
      "inputs": [],
      "name": "getSmartContractFees",
      "outputs": [
        {
          "internalType": "uint256",
          "name": "",
          "type": "uint256"
        }
      ],
      "stateMutability": "view",
      "type": "function"
    },
    {
      "inputs": [
        {
          "internalType": "address",
          "name": "tokenAddress",
          "type": "address"
        },
        {
          "internalType": "address",
          "name": "recipient",
          "type": "address"
        }
      ],
      "name": "getTokenBalance",
      "outputs": [
        {
          "internalType": "uint256",
          "name": "",
          "type": "uint256"
        }
      ],
      "stateMutability": "view",
      "type": "function"
    },
    {
      "inputs": [
        {
          "internalType": "enum BridgeBsc.SourceChain",
          "name": "sourceChain",
          "type": "uint8"
        },
        {
          "internalType": "enum BridgeBsc.DestinationChain",
          "name": "destinationChain",
          "type": "uint8"
        },
        {
          "internalType": "enum BridgeBsc.SourceChainTokensAvailable",
          "name": "tokensAvailableFromSourceChain",
          "type": "uint8"
        },
        {
          "internalType": "enum BridgeBsc.DestinationChainTokensAvailable",
          "name": "tokensAvailableFromDestinationChain",
          "type": "uint8"
        },
        {
          "internalType": "uint256",
          "name": "value",
          "type": "uint256"
        },
        {
          "internalType": "bytes32",
          "name": "hash",
          "type": "bytes32"
        },
        {
          "internalType": "bytes",
          "name": "signature",
          "type": "bytes"
        }
      ],
      "name": "lockBnb",
      "outputs": [],
      "stateMutability": "payable",
      "type": "function"
    },
    {
      "inputs": [
        {
          "internalType": "uint256",
          "name": "value",
          "type": "uint256"
        }
      ],
      "name": "lockBnbToContract",
      "outputs": [],
      "stateMutability": "payable",
      "type": "function"
    },
    {
      "inputs": [
        {
          "internalType": "enum BridgeBsc.SourceChain",
          "name": "sourceChain",
          "type": "uint8"
        },
        {
          "internalType": "enum BridgeBsc.DestinationChain",
          "name": "destinationChain",
          "type": "uint8"
        },
        {
          "internalType": "enum BridgeBsc.SourceChainTokensAvailable",
          "name": "tokensAvailableFromSourceChain",
          "type": "uint8"
        },
        {
          "internalType": "enum BridgeBsc.DestinationChainTokensAvailable",
          "name": "tokensAvailableFromDestinationChain",
          "type": "uint8"
        },
        {
          "internalType": "address",
          "name": "tokenAddress",
          "type": "address"
        },
        {
          "internalType": "uint256",
          "name": "amount",
          "type": "uint256"
        },
        {
          "internalType": "bytes32",
          "name": "hash",
          "type": "bytes32"
        },
        {
          "internalType": "bytes",
          "name": "signature",
          "type": "bytes"
        }
      ],
      "name": "lockToken",
      "outputs": [],
      "stateMutability": "nonpayable",
      "type": "function"
    },
    {
      "inputs": [
        {
          "internalType": "address",
          "name": "tokenAddress",
          "type": "address"
        },
        {
          "internalType": "uint256",
          "name": "amount",
          "type": "uint256"
        }
      ],
      "name": "lockTokenToContract",
      "outputs": [],
      "stateMutability": "nonpayable",
      "type": "function"
    },
    {
      "inputs": [],
      "name": "owner",
      "outputs": [
        {
          "internalType": "address",
          "name": "",
          "type": "address"
        }
      ],
      "stateMutability": "view",
      "type": "function"
    },
    {
      "inputs": [],
      "name": "renounceOwnership",
      "outputs": [],
      "stateMutability": "nonpayable",
      "type": "function"
    },
    {
      "inputs": [
        {
          "internalType": "address",
          "name": "recipient",
          "type": "address"
        },
        {
          "internalType": "uint256",
          "name": "value",
          "type": "uint256"
        }
      ],
      "name": "transferBnb",
      "outputs": [],
      "stateMutability": "nonpayable",
      "type": "function"
    },
    {
      "inputs": [
        {
          "internalType": "address",
          "name": "newOwner",
          "type": "address"
        }
      ],
      "name": "transferOwnership",
      "outputs": [],
      "stateMutability": "nonpayable",
      "type": "function"
    },
    {
      "inputs": [
        {
          "internalType": "address",
          "name": "tokenAddress",
          "type": "address"
        },
        {
          "internalType": "address",
          "name": "recipient",
          "type": "address"
        },
        {
          "internalType": "uint256",
          "name": "amount",
          "type": "uint256"
        }
      ],
      "name": "transferToken",
      "outputs": [],
      "stateMutability": "nonpayable",
      "type": "function"
    },
    {
      "inputs": [
        {
          "internalType": "address payable",
          "name": "recipient",
          "type": "address"
        }
      ],
      "name": "withdraw",
      "outputs": [],
      "stateMutability": "nonpayable",
      "type": "function"
    },
    {
      "inputs": [
        {
          "internalType": "address",
          "name": "tokenAddress",
          "type": "address"
        },
        {
          "internalType": "address",
          "name": "recipient",
          "type": "address"
        }
      ],
      "name": "withdrawToken",
      "outputs": [],
      "stateMutability": "nonpayable",
      "type": "function"
    }
  ],
  "bytecode": "0x608060405260026003553480156200001657600080fd5b50620000376200002b6200004460201b60201c565b6200004c60201b60201c565b6001808190555062000110565b600033905090565b60008060009054906101000a900473ffffffffffffffffffffffffffffffffffffffff169050816000806101000a81548173ffffffffffffffffffffffffffffffffffffffff021916908373ffffffffffffffffffffffffffffffffffffffff1602179055508173ffffffffffffffffffffffffffffffffffffffff168173ffffffffffffffffffffffffffffffffffffffff167f8be0079c531659141344cd1fd0a4f28419497f9722a3daafe3b4186f6b6457e060405160405180910390a35050565b61343480620001206000396000f3fe6080604052600436106100dd5760003560e01c80639a3488b61161007f578063f1597e7711610059578063f1597e7714610268578063f2fde38b14610291578063f5537ede146102ba578063f656eece146102e3576100dd565b80639a3488b6146101d7578063c489744b14610202578063e1828c111461023f576100dd565b8063715018a6116100bb578063715018a61461015057806372d862941461016757806374c9f8dd146101835780638da5cb5b146101ac576100dd565b80633aeac4e1146100e257806351cff8d91461010b5780636f55232a14610134575b600080fd5b3480156100ee57600080fd5b5061010960048036038101906101049190611e30565b610320565b005b34801561011757600080fd5b50610132600480360381019061012d9190611eae565b6104e1565b005b61014e60048036038101906101499190611f11565b6105a2565b005b34801561015c57600080fd5b50610165610642565b005b610181600480360381019061017c919061214e565b610656565b005b34801561018f57600080fd5b506101aa60048036038101906101a5919061220c565b6109b9565b005b3480156101b857600080fd5b506101c1610b3d565b6040516101ce919061225b565b60405180910390f35b3480156101e357600080fd5b506101ec610b66565b6040516101f99190612285565b60405180910390f35b34801561020e57600080fd5b5061022960048036038101906102249190611e30565b610b70565b6040516102369190612285565b60405180910390f35b34801561024b57600080fd5b50610266600480360381019061026191906122a0565b610ce0565b005b34801561027457600080fd5b5061028f600480360381019061028a919061220c565b611133565b005b34801561029d57600080fd5b506102b860048036038101906102b39190612372565b611278565b005b3480156102c657600080fd5b506102e160048036038101906102dc919061239f565b6112fb565b005b3480156102ef57600080fd5b5061030a60048036038101906103059190611f11565b61151f565b6040516103179190612285565b60405180910390f35b61032861157a565b600073ffffffffffffffffffffffffffffffffffffffff168173ffffffffffffffffffffffffffffffffffffffff1603610397576040517f08c379a000000000000000000000000000000000000000000000000000000000815260040161038e9061244f565b60405180910390fd5b600082905060008173ffffffffffffffffffffffffffffffffffffffff166370a08231306040518263ffffffff1660e01b81526004016103d7919061225b565b602060405180830381865afa1580156103f4573d6000803e3d6000fd5b505050506040513d601f19601f820116820180604052508101906104189190612484565b11610458576040517f08c379a000000000000000000000000000000000000000000000000000000000815260040161044f906124fd565b60405180910390fd5b6104dc81838373ffffffffffffffffffffffffffffffffffffffff166370a08231306040518263ffffffff1660e01b8152600401610496919061225b565b602060405180830381865afa1580156104b3573d6000803e3d6000fd5b505050506040513d601f19601f820116820180604052508101906104d79190612484565b6115f8565b505050565b6104e961157a565b600073ffffffffffffffffffffffffffffffffffffffff168173ffffffffffffffffffffffffffffffffffffffff1603610558576040517f08c379a000000000000000000000000000000000000000000000000000000000815260040161054f9061244f565b60405180910390fd5b8073ffffffffffffffffffffffffffffffffffffffff166108fc479081150290604051600060405180830381858888f1935050505015801561059e573d6000803e3d6000fd5b5050565b6105aa61157a565b6105b261167e565b600034036105f5576040517f08c379a00000000000000000000000000000000000000000000000000000000081526004016105ec90612569565b60405180910390fd5b803414610637576040517f08c379a000000000000000000000000000000000000000000000000000000000815260040161062e906125d5565b60405180910390fd5b61063f6116cd565b50565b61064a61157a565b61065460006116d6565b565b61065e61167e565b600034036106a1576040517f08c379a000000000000000000000000000000000000000000000000000000000815260040161069890612569565b60405180910390fd5b600160028111156106b5576106b46125f5565b5b8760028111156106c8576106c76125f5565b5b1480156106fa5750600160028111156106e4576106e36125f5565b5b8660028111156106f7576106f66125f5565b5b14155b610739576040517f08c379a000000000000000000000000000000000000000000000000000000000815260040161073090612670565b60405180910390fd5b6002600381111561074d5761074c6125f5565b5b8560038111156107605761075f6125f5565b5b1415801561079357506000600381111561077d5761077c6125f5565b5b8560038111156107905761078f6125f5565b5b14155b80156107c45750600160038111156107ae576107ad6125f5565b5b8460038111156107c1576107c06125f5565b5b14155b610803576040517f08c379a00000000000000000000000000000000000000000000000000000000081526004016107fa906126dc565b60405180910390fd5b823414610845576040517f08c379a000000000000000000000000000000000000000000000000000000000815260040161083c906125d5565b60405180910390fd5b61084d610b3d565b73ffffffffffffffffffffffffffffffffffffffff1661086d838361179a565b73ffffffffffffffffffffffffffffffffffffffff16146108c3576040517f08c379a00000000000000000000000000000000000000000000000000000000081526004016108ba90612748565b60405180910390fd5b6004816040516108d391906127d9565b908152602001604051809103902060009054906101000a900460ff161561092f576040517f08c379a00000000000000000000000000000000000000000000000000000000081526004016109269061283c565b60405180910390fd5b347fb2c6b3a83e5f28a43a25a807de780d5fd5366a6d831b7965f513d7f2436b207133308a8a8a8a6040516109699695949392919061297c565b60405180910390a2600160048260405161098391906127d9565b908152602001604051809103902060006101000a81548160ff0219169083151502179055506109b06116cd565b50505050505050565b6109c161157a565b6109c961167e565b600073ffffffffffffffffffffffffffffffffffffffff168273ffffffffffffffffffffffffffffffffffffffff1603610a38576040517f08c379a0000000000000000000000000000000000000000000000000000000008152600401610a2f90612a29565b60405180910390fd5b60008103610a7b576040517f08c379a0000000000000000000000000000000000000000000000000000000008152600401610a7290612569565b60405180910390fd5b6000606460035483610a8d9190612a78565b610a979190612ae9565b90508082610aa59190612b1a565b7faa957e36669fd820bec269a79cd80edf63fac17c5c00c829dfa6edec3f6acdac3085604051610ad6929190612b4e565b60405180910390a28273ffffffffffffffffffffffffffffffffffffffff166108fc8284610b049190612b1a565b9081150290604051600060405180830381858888f19350505050158015610b2f573d6000803e3d6000fd5b5050610b396116cd565b5050565b60008060009054906101000a900473ffffffffffffffffffffffffffffffffffffffff16905090565b6000600354905090565b6000610b7a61157a565b600073ffffffffffffffffffffffffffffffffffffffff168373ffffffffffffffffffffffffffffffffffffffff1603610be9576040517f08c379a0000000000000000000000000000000000000000000000000000000008152600401610be09061244f565b60405180910390fd5b600073ffffffffffffffffffffffffffffffffffffffff168273ffffffffffffffffffffffffffffffffffffffff1603610c58576040517f08c379a0000000000000000000000000000000000000000000000000000000008152600401610c4f9061244f565b60405180910390fd5b60008390508073ffffffffffffffffffffffffffffffffffffffff166370a08231846040518263ffffffff1660e01b8152600401610c96919061225b565b602060405180830381865afa158015610cb3573d6000803e3d6000fd5b505050506040513d601f19601f82011682018060405250810190610cd79190612484565b91505092915050565b60008303610d23576040517f08c379a0000000000000000000000000000000000000000000000000000000008152600401610d1a90612569565b60405180910390fd5b60016002811115610d3757610d366125f5565b5b886002811115610d4a57610d496125f5565b5b148015610d7c575060016002811115610d6657610d656125f5565b5b876002811115610d7957610d786125f5565b5b14155b610dbb576040517f08c379a0000000000000000000000000000000000000000000000000000000008152600401610db290612670565b60405180910390fd5b60006003811115610dcf57610dce6125f5565b5b866003811115610de257610de16125f5565b5b14158015610e15575060016003811115610dff57610dfe6125f5565b5b866003811115610e1257610e116125f5565b5b14155b8015610e46575060006003811115610e3057610e2f6125f5565b5b856003811115610e4357610e426125f5565b5b14155b610e85576040517f08c379a0000000000000000000000000000000000000000000000000000000008152600401610e7c90612bc3565b60405180910390fd5b600073ffffffffffffffffffffffffffffffffffffffff168473ffffffffffffffffffffffffffffffffffffffff1603610ef4576040517f08c379a0000000000000000000000000000000000000000000000000000000008152600401610eeb9061244f565b60405180910390fd5b610efc610b3d565b73ffffffffffffffffffffffffffffffffffffffff16610f1c838361179a565b73ffffffffffffffffffffffffffffffffffffffff1614610f72576040517f08c379a0000000000000000000000000000000000000000000000000000000008152600401610f6990612748565b60405180910390fd5b600481604051610f8291906127d9565b908152602001604051809103902060009054906101000a900460ff1615610fde576040517f08c379a0000000000000000000000000000000000000000000000000000000008152600401610fd59061283c565b60405180910390fd5b6000849050838173ffffffffffffffffffffffffffffffffffffffff1663dd62ed3e33306040518363ffffffff1660e01b815260040161101f929190612b4e565b602060405180830381865afa15801561103c573d6000803e3d6000fd5b505050506040513d601f19601f820116820180604052508101906110609190612484565b10156110a1576040517f08c379a000000000000000000000000000000000000000000000000000000000815260040161109890612c2f565b60405180910390fd5b837f4472c72d0bcf5053f9b751e4fab2043d10268d0bb56b8bc379a6743d297ec4bf8633308d8d8d8d6040516110dd9796959493929190612c4f565b60405180910390a26110f1813330876117d9565b600160048360405161110391906127d9565b908152602001604051809103902060006101000a81548160ff021916908315150217905550505050505050505050565b61113b61157a565b6000829050600073ffffffffffffffffffffffffffffffffffffffff168373ffffffffffffffffffffffffffffffffffffffff16036111af576040517f08c379a00000000000000000000000000000000000000000000000000000000081526004016111a69061244f565b60405180910390fd5b600082036111f2576040517f08c379a00000000000000000000000000000000000000000000000000000000081526004016111e990612569565b60405180910390fd5b8073ffffffffffffffffffffffffffffffffffffffff166323b872dd3330856040518463ffffffff1660e01b815260040161122f93929190612cbe565b6020604051808303816000875af115801561124e573d6000803e3d6000fd5b505050506040513d601f19601f820116820180604052508101906112729190612d2d565b50505050565b61128061157a565b600073ffffffffffffffffffffffffffffffffffffffff168173ffffffffffffffffffffffffffffffffffffffff16036112ef576040517f08c379a00000000000000000000000000000000000000000000000000000000081526004016112e690612dcc565b60405180910390fd5b6112f8816116d6565b50565b61130361157a565b6000839050600073ffffffffffffffffffffffffffffffffffffffff168473ffffffffffffffffffffffffffffffffffffffff1603611377576040517f08c379a000000000000000000000000000000000000000000000000000000000815260040161136e9061244f565b60405180910390fd5b600073ffffffffffffffffffffffffffffffffffffffff168373ffffffffffffffffffffffffffffffffffffffff16036113e6576040517f08c379a00000000000000000000000000000000000000000000000000000000081526004016113dd90612a29565b60405180910390fd5b60008203611429576040517f08c379a000000000000000000000000000000000000000000000000000000000815260040161142090612569565b60405180910390fd5b600060646003548461143b9190612a78565b6114459190612ae9565b905080836114539190612b1a565b7f85647f12ef10ce387990d62d699fab79560d0e6165ced3af12f4ada543a2c74886308760405161148693929190612dec565b60405180910390a28173ffffffffffffffffffffffffffffffffffffffff1663a9059cbb8583866114b79190612b1a565b6040518363ffffffff1660e01b81526004016114d4929190612e23565b6020604051808303816000875af11580156114f3573d6000803e3d6000fd5b505050506040513d601f19601f820116820180604052508101906115179190612d2d565b505050505050565b600061152961157a565b816003540361156d576040517f08c379a000000000000000000000000000000000000000000000000000000000815260040161156490612e98565b60405180910390fd5b8160038190559050919050565b611582611862565b73ffffffffffffffffffffffffffffffffffffffff166115a0610b3d565b73ffffffffffffffffffffffffffffffffffffffff16146115f6576040517f08c379a00000000000000000000000000000000000000000000000000000000081526004016115ed90612f04565b60405180910390fd5b565b6116798363a9059cbb60e01b8484604051602401611617929190612e23565b604051602081830303815290604052907bffffffffffffffffffffffffffffffffffffffffffffffffffffffff19166020820180517bffffffffffffffffffffffffffffffffffffffffffffffffffffffff838183161783525050505061186a565b505050565b6002600154036116c3576040517f08c379a00000000000000000000000000000000000000000000000000000000081526004016116ba90612f70565b60405180910390fd5b6002600181905550565b60018081905550565b60008060009054906101000a900473ffffffffffffffffffffffffffffffffffffffff169050816000806101000a81548173ffffffffffffffffffffffffffffffffffffffff021916908373ffffffffffffffffffffffffffffffffffffffff1602179055508173ffffffffffffffffffffffffffffffffffffffff168173ffffffffffffffffffffffffffffffffffffffff167f8be0079c531659141344cd1fd0a4f28419497f9722a3daafe3b4186f6b6457e060405160405180910390a35050565b600080836040516020016117ae9190613008565b6040516020818303038152906040528051906020012090506117d08184611931565b91505092915050565b61185c846323b872dd60e01b8585856040516024016117fa93929190612cbe565b604051602081830303815290604052907bffffffffffffffffffffffffffffffffffffffffffffffffffffffff19166020820180517bffffffffffffffffffffffffffffffffffffffffffffffffffffffff838183161783525050505061186a565b50505050565b600033905090565b60006118cc826040518060400160405280602081526020017f5361666545524332303a206c6f772d6c6576656c2063616c6c206661696c65648152508573ffffffffffffffffffffffffffffffffffffffff166119589092919063ffffffff16565b905060008151111561192c57808060200190518101906118ec9190612d2d565b61192b576040517f08c379a0000000000000000000000000000000000000000000000000000000008152600401611922906130a0565b60405180910390fd5b5b505050565b60008060006119408585611970565b9150915061194d816119c1565b819250505092915050565b60606119678484600085611b27565b90509392505050565b60008060418351036119b15760008060006020860151925060408601519150606086015160001a90506119a587828585611bf4565b945094505050506119ba565b60006002915091505b9250929050565b600060048111156119d5576119d46125f5565b5b8160048111156119e8576119e76125f5565b5b0315611b245760016004811115611a0257611a016125f5565b5b816004811115611a1557611a146125f5565b5b03611a55576040517f08c379a0000000000000000000000000000000000000000000000000000000008152600401611a4c9061310c565b60405180910390fd5b60026004811115611a6957611a686125f5565b5b816004811115611a7c57611a7b6125f5565b5b03611abc576040517f08c379a0000000000000000000000000000000000000000000000000000000008152600401611ab390613178565b60405180910390fd5b60036004811115611ad057611acf6125f5565b5b816004811115611ae357611ae26125f5565b5b03611b23576040517f08c379a0000000000000000000000000000000000000000000000000000000008152600401611b1a9061320a565b60405180910390fd5b5b50565b606082471015611b6c576040517f08c379a0000000000000000000000000000000000000000000000000000000008152600401611b639061329c565b60405180910390fd5b6000808673ffffffffffffffffffffffffffffffffffffffff168587604051611b9591906127d9565b60006040518083038185875af1925050503d8060008114611bd2576040519150601f19603f3d011682016040523d82523d6000602084013e611bd7565b606091505b5091509150611be887838387611cd6565b92505050949350505050565b6000807f7fffffffffffffffffffffffffffffff5d576e7357a4501ddfe92f46681b20a08360001c1115611c2f576000600391509150611ccd565b600060018787878760405160008152602001604052604051611c5494939291906132e7565b6020604051602081039080840390855afa158015611c76573d6000803e3d6000fd5b505050602060405103519050600073ffffffffffffffffffffffffffffffffffffffff168173ffffffffffffffffffffffffffffffffffffffff1603611cc457600060019250925050611ccd565b80600092509250505b94509492505050565b60608315611d38576000835103611d3057611cf085611d4b565b611d2f576040517f08c379a0000000000000000000000000000000000000000000000000000000008152600401611d2690613378565b60405180910390fd5b5b829050611d43565b611d428383611d6e565b5b949350505050565b6000808273ffffffffffffffffffffffffffffffffffffffff163b119050919050565b600082511115611d815781518083602001fd5b806040517f08c379a0000000000000000000000000000000000000000000000000000000008152600401611db591906133dc565b60405180910390fd5b6000604051905090565b600080fd5b600080fd5b600073ffffffffffffffffffffffffffffffffffffffff82169050919050565b6000611dfd82611dd2565b9050919050565b611e0d81611df2565b8114611e1857600080fd5b50565b600081359050611e2a81611e04565b92915050565b60008060408385031215611e4757611e46611dc8565b5b6000611e5585828601611e1b565b9250506020611e6685828601611e1b565b9150509250929050565b6000611e7b82611dd2565b9050919050565b611e8b81611e70565b8114611e9657600080fd5b50565b600081359050611ea881611e82565b92915050565b600060208284031215611ec457611ec3611dc8565b5b6000611ed284828501611e99565b91505092915050565b6000819050919050565b611eee81611edb565b8114611ef957600080fd5b50565b600081359050611f0b81611ee5565b92915050565b600060208284031215611f2757611f26611dc8565b5b6000611f3584828501611efc565b91505092915050565b60038110611f4b57600080fd5b50565b600081359050611f5d81611f3e565b92915050565b60038110611f7057600080fd5b50565b600081359050611f8281611f63565b92915050565b60048110611f9557600080fd5b50565b600081359050611fa781611f88565b92915050565b60048110611fba57600080fd5b50565b600081359050611fcc81611fad565b92915050565b6000819050919050565b611fe581611fd2565b8114611ff057600080fd5b50565b60008135905061200281611fdc565b92915050565b600080fd5b600080fd5b6000601f19601f8301169050919050565b7f4e487b7100000000000000000000000000000000000000000000000000000000600052604160045260246000fd5b61205b82612012565b810181811067ffffffffffffffff8211171561207a57612079612023565b5b80604052505050565b600061208d611dbe565b90506120998282612052565b919050565b600067ffffffffffffffff8211156120b9576120b8612023565b5b6120c282612012565b9050602081019050919050565b82818337600083830152505050565b60006120f16120ec8461209e565b612083565b90508281526020810184848401111561210d5761210c61200d565b5b6121188482856120cf565b509392505050565b600082601f83011261213557612134612008565b5b81356121458482602086016120de565b91505092915050565b600080600080600080600060e0888a03121561216d5761216c611dc8565b5b600061217b8a828b01611f4e565b975050602061218c8a828b01611f73565b965050604061219d8a828b01611f98565b95505060606121ae8a828b01611fbd565b94505060806121bf8a828b01611efc565b93505060a06121d08a828b01611ff3565b92505060c088013567ffffffffffffffff8111156121f1576121f0611dcd565b5b6121fd8a828b01612120565b91505092959891949750929550565b6000806040838503121561222357612222611dc8565b5b600061223185828601611e1b565b925050602061224285828601611efc565b9150509250929050565b61225581611df2565b82525050565b6000602082019050612270600083018461224c565b92915050565b61227f81611edb565b82525050565b600060208201905061229a6000830184612276565b92915050565b600080600080600080600080610100898b0312156122c1576122c0611dc8565b5b60006122cf8b828c01611f4e565b98505060206122e08b828c01611f73565b97505060406122f18b828c01611f98565b96505060606123028b828c01611fbd565b95505060806123138b828c01611e1b565b94505060a06123248b828c01611efc565b93505060c06123358b828c01611ff3565b92505060e089013567ffffffffffffffff81111561235657612355611dcd565b5b6123628b828c01612120565b9150509295985092959890939650565b60006020828403121561238857612387611dc8565b5b600061239684828501611e1b565b91505092915050565b6000806000606084860312156123b8576123b7611dc8565b5b60006123c686828701611e1b565b93505060206123d786828701611e1b565b92505060406123e886828701611efc565b9150509250925092565b600082825260208201905092915050565b7f416464726573732063616e6e6f74206265207a65726f00000000000000000000600082015250565b60006124396016836123f2565b915061244482612403565b602082019050919050565b600060208201905081810360008301526124688161242c565b9050919050565b60008151905061247e81611ee5565b92915050565b60006020828403121561249a57612499611dc8565b5b60006124a88482850161246f565b91505092915050565b7f496e73756666696369656e742062616c616e6365000000000000000000000000600082015250565b60006124e76014836123f2565b91506124f2826124b1565b602082019050919050565b60006020820190508181036000830152612516816124da565b9050919050565b7f496e73756666696369656e7420616d6f756e7400000000000000000000000000600082015250565b60006125536013836123f2565b915061255e8261251d565b602082019050919050565b6000602082019050818103600083015261258281612546565b9050919050565b7f56616c75652073686f756c64206265206d617463680000000000000000000000600082015250565b60006125bf6015836123f2565b91506125ca82612589565b602082019050919050565b600060208201905081810360008301526125ee816125b2565b9050919050565b7f4e487b7100000000000000000000000000000000000000000000000000000000600052602160045260246000fd5b7f496e76616c696420636861696e00000000000000000000000000000000000000600082015250565b600061265a600d836123f2565b915061266582612624565b602082019050919050565b600060208201905081810360008301526126898161264d565b9050919050565b7f496e76616c696420736f7572636520746f6b656e000000000000000000000000600082015250565b60006126c66014836123f2565b91506126d182612690565b602082019050919050565b600060208201905081810360008301526126f5816126b9565b9050919050565b7f41646472657373206973206e6f7420617574686f72697a656400000000000000600082015250565b60006127326019836123f2565b915061273d826126fc565b602082019050919050565b6000602082019050818103600083015261276181612725565b9050919050565b600081519050919050565b600081905092915050565b60005b8381101561279c578082015181840152602081019050612781565b60008484015250505050565b60006127b382612768565b6127bd8185612773565b93506127cd81856020860161277e565b80840191505092915050565b60006127e582846127a8565b915081905092915050565b7f416c7265616479207369676e6174757265207573656400000000000000000000600082015250565b60006128266016836123f2565b9150612831826127f0565b602082019050919050565b6000602082019050818103600083015261285581612819565b9050919050565b6003811061286d5761286c6125f5565b5b50565b600081905061287e8261285c565b919050565b600061288e82612870565b9050919050565b61289e81612883565b82525050565b600381106128b5576128b46125f5565b5b50565b60008190506128c6826128a4565b919050565b60006128d6826128b8565b9050919050565b6128e6816128cb565b82525050565b600481106128fd576128fc6125f5565b5b50565b600081905061290e826128ec565b919050565b600061291e82612900565b9050919050565b61292e81612913565b82525050565b60048110612945576129446125f5565b5b50565b600081905061295682612934565b919050565b600061296682612948565b9050919050565b6129768161295b565b82525050565b600060c082019050612991600083018961224c565b61299e602083018861224c565b6129ab6040830187612895565b6129b860608301866128dd565b6129c56080830185612925565b6129d260a083018461296d565b979650505050505050565b7f416464726573732063616e6e6f74206265203000000000000000000000000000600082015250565b6000612a136013836123f2565b9150612a1e826129dd565b602082019050919050565b60006020820190508181036000830152612a4281612a06565b9050919050565b7f4e487b7100000000000000000000000000000000000000000000000000000000600052601160045260246000fd5b6000612a8382611edb565b9150612a8e83611edb565b9250828202612a9c81611edb565b91508282048414831517612ab357612ab2612a49565b5b5092915050565b7f4e487b7100000000000000000000000000000000000000000000000000000000600052601260045260246000fd5b6000612af482611edb565b9150612aff83611edb565b925082612b0f57612b0e612aba565b5b828204905092915050565b6000612b2582611edb565b9150612b3083611edb565b9250828203905081811115612b4857612b47612a49565b5b92915050565b6000604082019050612b63600083018561224c565b612b70602083018461224c565b9392505050565b7f496e76616c696420746f6b656e00000000000000000000000000000000000000600082015250565b6000612bad600d836123f2565b9150612bb882612b77565b602082019050919050565b60006020820190508181036000830152612bdc81612ba0565b9050919050565b7f436865636b2074686520746f6b656e20616c6c6f77616e636500000000000000600082015250565b6000612c196019836123f2565b9150612c2482612be3565b602082019050919050565b60006020820190508181036000830152612c4881612c0c565b9050919050565b600060e082019050612c64600083018a61224c565b612c71602083018961224c565b612c7e604083018861224c565b612c8b6060830187612895565b612c9860808301866128dd565b612ca560a0830185612925565b612cb260c083018461296d565b98975050505050505050565b6000606082019050612cd3600083018661224c565b612ce0602083018561224c565b612ced6040830184612276565b949350505050565b60008115159050919050565b612d0a81612cf5565b8114612d1557600080fd5b50565b600081519050612d2781612d01565b92915050565b600060208284031215612d4357612d42611dc8565b5b6000612d5184828501612d18565b91505092915050565b7f4f776e61626c653a206e6577206f776e657220697320746865207a65726f206160008201527f6464726573730000000000000000000000000000000000000000000000000000602082015250565b6000612db66026836123f2565b9150612dc182612d5a565b604082019050919050565b60006020820190508181036000830152612de581612da9565b9050919050565b6000606082019050612e01600083018661224c565b612e0e602083018561224c565b612e1b604083018461224c565b949350505050565b6000604082019050612e38600083018561224c565b612e456020830184612276565b9392505050565b7f53616d65206665657320616c6c6f636174656400000000000000000000000000600082015250565b6000612e826013836123f2565b9150612e8d82612e4c565b602082019050919050565b60006020820190508181036000830152612eb181612e75565b9050919050565b7f4f776e61626c653a2063616c6c6572206973206e6f7420746865206f776e6572600082015250565b6000612eee6020836123f2565b9150612ef982612eb8565b602082019050919050565b60006020820190508181036000830152612f1d81612ee1565b9050919050565b7f5265656e7472616e637947756172643a207265656e7472616e742063616c6c00600082015250565b6000612f5a601f836123f2565b9150612f6582612f24565b602082019050919050565b60006020820190508181036000830152612f8981612f4d565b9050919050565b600081905092915050565b7f19457468657265756d205369676e6564204d6573736167653a0a333200000000600082015250565b6000612fd1601c83612f90565b9150612fdc82612f9b565b601c82019050919050565b6000819050919050565b613002612ffd82611fd2565b612fe7565b82525050565b600061301382612fc4565b915061301f8284612ff1565b60208201915081905092915050565b7f5361666545524332303a204552433230206f7065726174696f6e20646964206e60008201527f6f74207375636365656400000000000000000000000000000000000000000000602082015250565b600061308a602a836123f2565b91506130958261302e565b604082019050919050565b600060208201905081810360008301526130b98161307d565b9050919050565b7f45434453413a20696e76616c6964207369676e61747572650000000000000000600082015250565b60006130f66018836123f2565b9150613101826130c0565b602082019050919050565b60006020820190508181036000830152613125816130e9565b9050919050565b7f45434453413a20696e76616c6964207369676e6174757265206c656e67746800600082015250565b6000613162601f836123f2565b915061316d8261312c565b602082019050919050565b6000602082019050818103600083015261319181613155565b9050919050565b7f45434453413a20696e76616c6964207369676e6174757265202773272076616c60008201527f7565000000000000000000000000000000000000000000000000000000000000602082015250565b60006131f46022836123f2565b91506131ff82613198565b604082019050919050565b60006020820190508181036000830152613223816131e7565b9050919050565b7f416464726573733a20696e73756666696369656e742062616c616e636520666f60008201527f722063616c6c0000000000000000000000000000000000000000000000000000602082015250565b60006132866026836123f2565b91506132918261322a565b604082019050919050565b600060208201905081810360008301526132b581613279565b9050919050565b6132c581611fd2565b82525050565b600060ff82169050919050565b6132e1816132cb565b82525050565b60006080820190506132fc60008301876132bc565b61330960208301866132d8565b61331660408301856132bc565b61332360608301846132bc565b95945050505050565b7f416464726573733a2063616c6c20746f206e6f6e2d636f6e7472616374000000600082015250565b6000613362601d836123f2565b915061336d8261332c565b602082019050919050565b6000602082019050818103600083015261339181613355565b9050919050565b600081519050919050565b60006133ae82613398565b6133b881856123f2565b93506133c881856020860161277e565b6133d181612012565b840191505092915050565b600060208201905081810360008301526133f681846133a3565b90509291505056fea2646970667358221220a7697843d7c6a7a50472bb748602cb8dca1b6d70f5f29cc671da9644ffefec5764736f6c63430008110033",
  "linkReferences": {},
  "deployedLinkReferences": {}
}