{
  "_format": "hh-sol-artifact-1",
  "contractName": "NftBridgeBsc",
  "sourceName": "contracts/NftBridgeBsc.sol",
  "abi": [
    {
      "inputs": [],
      "stateMutability": "nonpayable",
      "type": "constructor"
    },
    {
      "anonymous": false,
      "inputs": [
        {
          "indexed": true,
          "internalType": "address",
          "name": "owner",
          "type": "address"
        },
        {
          "indexed": true,
          "internalType": "address",
          "name": "approved",
          "type": "address"
        },
        {
          "indexed": true,
          "internalType": "uint256",
          "name": "tokenId",
          "type": "uint256"
        }
      ],
      "name": "Approval",
      "type": "event"
    },
    {
      "anonymous": false,
      "inputs": [
        {
          "indexed": true,
          "internalType": "address",
          "name": "owner",
          "type": "address"
        },
        {
          "indexed": true,
          "internalType": "address",
          "name": "operator",
          "type": "address"
        },
        {
          "indexed": false,
          "internalType": "bool",
          "name": "approved",
          "type": "bool"
        }
      ],
      "name": "ApprovalForAll",
      "type": "event"
    },
    {
      "anonymous": false,
      "inputs": [
        {
          "indexed": false,
          "internalType": "address",
          "name": "_from",
          "type": "address"
        },
        {
          "indexed": false,
          "internalType": "address",
          "name": "_to",
          "type": "address"
        },
        {
          "indexed": false,
          "internalType": "string",
          "name": "_uri",
          "type": "string"
        },
        {
          "indexed": false,
          "internalType": "uint256",
          "name": "_tokenId",
          "type": "uint256"
        },
        {
          "indexed": false,
          "internalType": "uint256",
          "name": "_value",
          "type": "uint256"
        },
        {
          "indexed": false,
          "internalType": "enum NftBridgeBsc.SourceChain",
          "name": "_sourceChain",
          "type": "uint8"
        },
        {
          "indexed": false,
          "internalType": "enum NftBridgeBsc.DestinationChain",
          "name": "_destinationChain",
          "type": "uint8"
        }
      ],
      "name": "LockedNft",
      "type": "event"
    },
    {
      "anonymous": false,
      "inputs": [
        {
          "indexed": false,
          "internalType": "address",
          "name": "_to",
          "type": "address"
        },
        {
          "indexed": false,
          "internalType": "string",
          "name": "_uri",
          "type": "string"
        }
      ],
      "name": "NftTransferedToDestinationChain",
      "type": "event"
    },
    {
      "anonymous": false,
      "inputs": [
        {
          "indexed": true,
          "internalType": "address",
          "name": "previousOwner",
          "type": "address"
        },
        {
          "indexed": true,
          "internalType": "address",
          "name": "newOwner",
          "type": "address"
        }
      ],
      "name": "OwnershipTransferred",
      "type": "event"
    },
    {
      "anonymous": false,
      "inputs": [
        {
          "indexed": false,
          "internalType": "address",
          "name": "account",
          "type": "address"
        }
      ],
      "name": "Paused",
      "type": "event"
    },
    {
      "anonymous": false,
      "inputs": [
        {
          "indexed": true,
          "internalType": "address",
          "name": "from",
          "type": "address"
        },
        {
          "indexed": true,
          "internalType": "address",
          "name": "to",
          "type": "address"
        },
        {
          "indexed": true,
          "internalType": "uint256",
          "name": "tokenId",
          "type": "uint256"
        }
      ],
      "name": "Transfer",
      "type": "event"
    },
    {
      "anonymous": false,
      "inputs": [
        {
          "indexed": false,
          "internalType": "address",
          "name": "account",
          "type": "address"
        }
      ],
      "name": "Unpaused",
      "type": "event"
    },
    {
      "inputs": [
        {
          "internalType": "address",
          "name": "to",
          "type": "address"
        },
        {
          "internalType": "uint256",
          "name": "tokenId",
          "type": "uint256"
        }
      ],
      "name": "approve",
      "outputs": [],
      "stateMutability": "nonpayable",
      "type": "function"
    },
    {
      "inputs": [
        {
          "internalType": "address",
          "name": "owner",
          "type": "address"
        }
      ],
      "name": "balanceOf",
      "outputs": [
        {
          "internalType": "uint256",
          "name": "",
          "type": "uint256"
        }
      ],
      "stateMutability": "view",
      "type": "function"
    },
    {
      "inputs": [
        {
          "internalType": "uint256",
          "name": "newSmartContractFees",
          "type": "uint256"
        }
      ],
      "name": "changeSmartContractFees",
      "outputs": [
        {
          "internalType": "uint256",
          "name": "",
          "type": "uint256"
        }
      ],
      "stateMutability": "nonpayable",
      "type": "function"
    },
    {
      "inputs": [
        {
          "internalType": "uint256",
          "name": "tokenId",
          "type": "uint256"
        }
      ],
      "name": "getApproved",
      "outputs": [
        {
          "internalType": "address",
          "name": "",
          "type": "address"
        }
      ],
      "stateMutability": "view",
      "type": "function"
    },
    {
      "inputs": [],
      "name": "getSmartContractFees",
      "outputs": [
        {
          "internalType": "uint256",
          "name": "",
          "type": "uint256"
        }
      ],
      "stateMutability": "view",
      "type": "function"
    },
    {
      "inputs": [
        {
          "internalType": "address",
          "name": "owner",
          "type": "address"
        },
        {
          "internalType": "address",
          "name": "operator",
          "type": "address"
        }
      ],
      "name": "isApprovedForAll",
      "outputs": [
        {
          "internalType": "bool",
          "name": "",
          "type": "bool"
        }
      ],
      "stateMutability": "view",
      "type": "function"
    },
    {
      "inputs": [
        {
          "internalType": "enum NftBridgeBsc.SourceChain",
          "name": "sourceChain",
          "type": "uint8"
        },
        {
          "internalType": "enum NftBridgeBsc.DestinationChain",
          "name": "destinationChain",
          "type": "uint8"
        },
        {
          "internalType": "uint256",
          "name": "tokenId",
          "type": "uint256"
        },
        {
          "internalType": "address",
          "name": "tokenAddress",
          "type": "address"
        },
        {
          "internalType": "bytes32",
          "name": "hash",
          "type": "bytes32"
        },
        {
          "internalType": "bytes",
          "name": "signature",
          "type": "bytes"
        }
      ],
      "name": "lockNft",
      "outputs": [],
      "stateMutability": "payable",
      "type": "function"
    },
    {
      "inputs": [],
      "name": "name",
      "outputs": [
        {
          "internalType": "string",
          "name": "",
          "type": "string"
        }
      ],
      "stateMutability": "view",
      "type": "function"
    },
    {
      "inputs": [],
      "name": "owner",
      "outputs": [
        {
          "internalType": "address",
          "name": "",
          "type": "address"
        }
      ],
      "stateMutability": "view",
      "type": "function"
    },
    {
      "inputs": [
        {
          "internalType": "uint256",
          "name": "tokenId",
          "type": "uint256"
        }
      ],
      "name": "ownerOf",
      "outputs": [
        {
          "internalType": "address",
          "name": "",
          "type": "address"
        }
      ],
      "stateMutability": "view",
      "type": "function"
    },
    {
      "inputs": [],
      "name": "pause",
      "outputs": [],
      "stateMutability": "nonpayable",
      "type": "function"
    },
    {
      "inputs": [],
      "name": "paused",
      "outputs": [
        {
          "internalType": "bool",
          "name": "",
          "type": "bool"
        }
      ],
      "stateMutability": "view",
      "type": "function"
    },
    {
      "inputs": [],
      "name": "renounceOwnership",
      "outputs": [],
      "stateMutability": "nonpayable",
      "type": "function"
    },
    {
      "inputs": [
        {
          "internalType": "address",
          "name": "from",
          "type": "address"
        },
        {
          "internalType": "address",
          "name": "to",
          "type": "address"
        },
        {
          "internalType": "uint256",
          "name": "tokenId",
          "type": "uint256"
        }
      ],
      "name": "safeTransferFrom",
      "outputs": [],
      "stateMutability": "nonpayable",
      "type": "function"
    },
    {
      "inputs": [
        {
          "internalType": "address",
          "name": "from",
          "type": "address"
        },
        {
          "internalType": "address",
          "name": "to",
          "type": "address"
        },
        {
          "internalType": "uint256",
          "name": "tokenId",
          "type": "uint256"
        },
        {
          "internalType": "bytes",
          "name": "data",
          "type": "bytes"
        }
      ],
      "name": "safeTransferFrom",
      "outputs": [],
      "stateMutability": "nonpayable",
      "type": "function"
    },
    {
      "inputs": [
        {
          "internalType": "address",
          "name": "operator",
          "type": "address"
        },
        {
          "internalType": "bool",
          "name": "approved",
          "type": "bool"
        }
      ],
      "name": "setApprovalForAll",
      "outputs": [],
      "stateMutability": "nonpayable",
      "type": "function"
    },
    {
      "inputs": [
        {
          "internalType": "bytes4",
          "name": "interfaceId",
          "type": "bytes4"
        }
      ],
      "name": "supportsInterface",
      "outputs": [
        {
          "internalType": "bool",
          "name": "",
          "type": "bool"
        }
      ],
      "stateMutability": "view",
      "type": "function"
    },
    {
      "inputs": [],
      "name": "symbol",
      "outputs": [
        {
          "internalType": "string",
          "name": "",
          "type": "string"
        }
      ],
      "stateMutability": "view",
      "type": "function"
    },
    {
      "inputs": [
        {
          "internalType": "uint256",
          "name": "tokenId",
          "type": "uint256"
        }
      ],
      "name": "tokenURI",
      "outputs": [
        {
          "internalType": "string",
          "name": "",
          "type": "string"
        }
      ],
      "stateMutability": "view",
      "type": "function"
    },
    {
      "inputs": [
        {
          "internalType": "address",
          "name": "from",
          "type": "address"
        },
        {
          "internalType": "address",
          "name": "to",
          "type": "address"
        },
        {
          "internalType": "uint256",
          "name": "tokenId",
          "type": "uint256"
        }
      ],
      "name": "transferFrom",
      "outputs": [],
      "stateMutability": "nonpayable",
      "type": "function"
    },
    {
      "inputs": [
        {
          "internalType": "address",
          "name": "recipient",
          "type": "address"
        },
        {
          "internalType": "string",
          "name": "uri",
          "type": "string"
        }
      ],
      "name": "transferNft",
      "outputs": [],
      "stateMutability": "nonpayable",
      "type": "function"
    },
    {
      "inputs": [
        {
          "internalType": "uint256",
          "name": "tokenId",
          "type": "uint256"
        },
        {
          "internalType": "address",
          "name": "recipient",
          "type": "address"
        },
        {
          "internalType": "address",
          "name": "tokenAddress",
          "type": "address"
        }
      ],
      "name": "transferNftBackToUser",
      "outputs": [],
      "stateMutability": "nonpayable",
      "type": "function"
    },
    {
      "inputs": [
        {
          "internalType": "address",
          "name": "newOwner",
          "type": "address"
        }
      ],
      "name": "transferOwnership",
      "outputs": [],
      "stateMutability": "nonpayable",
      "type": "function"
    },
    {
      "inputs": [],
      "name": "unpause",
      "outputs": [],
      "stateMutability": "nonpayable",
      "type": "function"
    },
    {
      "inputs": [
        {
          "internalType": "address payable",
          "name": "recipient",
          "type": "address"
        }
      ],
      "name": "withdraw",
      "outputs": [],
      "stateMutability": "nonpayable",
      "type": "function"
    },
    {
      "inputs": [
        {
          "internalType": "uint256",
          "name": "tokenId",
          "type": "uint256"
        },
        {
          "internalType": "address",
          "name": "recipient",
          "type": "address"
        },
        {
          "internalType": "address",
          "name": "tokenAddress",
          "type": "address"
        }
      ],
      "name": "withdrawNft",
      "outputs": [],
      "stateMutability": "nonpayable",
      "type": "function"
    }
  ],
  "bytecode": "0x60806040526103e8600a553480156200001757600080fd5b506040518060400160405280600c81526020017f4e667442726964676542736300000000000000000000000000000000000000008152506040518060400160405280600581526020017f4e42425343000000000000000000000000000000000000000000000000000000815250620000a462000098620000ff60201b60201c565b6200010760201b60201c565b60008060146101000a81548160ff021916908315150217905550600180819055508160029080519060200190620000dd929190620001cb565b508060039080519060200190620000f6929190620001cb565b505050620002e0565b600033905090565b60008060009054906101000a900473ffffffffffffffffffffffffffffffffffffffff169050816000806101000a81548173ffffffffffffffffffffffffffffffffffffffff021916908373ffffffffffffffffffffffffffffffffffffffff1602179055508173ffffffffffffffffffffffffffffffffffffffff168173ffffffffffffffffffffffffffffffffffffffff167f8be0079c531659141344cd1fd0a4f28419497f9722a3daafe3b4186f6b6457e060405160405180910390a35050565b828054620001d9906200027b565b90600052602060002090601f016020900481019282620001fd576000855562000249565b82601f106200021857805160ff191683800117855562000249565b8280016001018555821562000249579182015b82811115620002485782518255916020019190600101906200022b565b5b5090506200025891906200025c565b5090565b5b80821115620002775760008160009055506001016200025d565b5090565b600060028204905060018216806200029457607f821691505b60208210811415620002ab57620002aa620002b1565b5b50919050565b7f4e487b7100000000000000000000000000000000000000000000000000000000600052602260045260246000fd5b614c6e80620002f06000396000f3fe6080604052600436106101815760003560e01c8063715018a6116100d1578063aafbb3311161008a578063c87b56dd11610064578063c87b56dd14610523578063e985e9c514610560578063f2fde38b1461059d578063f656eece146105c657610181565b8063aafbb331146104b5578063ae12e734146104de578063b88d4fde146104fa57610181565b8063715018a6146103dd5780638456cb59146103f45780638da5cb5b1461040b57806395d89b41146104365780639a3488b614610461578063a22cb4651461048c57610181565b80633f4ba83a1161013e57806351cff8d91161011857806351cff8d91461030f5780635c975abb146103385780636352211e1461036357806370a08231146103a057610181565b80633f4ba83a146102a657806340f9b947146102bd57806342842e0e146102e657610181565b806301ffc9a71461018657806306fdde03146101c3578063081812fc146101ee578063095ea7b31461022b5780630fe74b251461025457806323b872dd1461027d575b600080fd5b34801561019257600080fd5b506101ad60048036038101906101a8919061338f565b610603565b6040516101ba9190613c91565b60405180910390f35b3480156101cf57600080fd5b506101d86106e5565b6040516101e59190613cf1565b60405180910390f35b3480156101fa57600080fd5b50610215600480360381019061021091906134db565b610777565b6040516102229190613b4d565b60405180910390f35b34801561023757600080fd5b50610252600480360381019061024d919061334f565b6107bd565b005b34801561026057600080fd5b5061027b600480360381019061027691906132f3565b6108d5565b005b34801561028957600080fd5b506102a4600480360381019061029f91906131dd565b6109ac565b005b3480156102b257600080fd5b506102bb610a0c565b005b3480156102c957600080fd5b506102e460048036038101906102df9190613508565b610a1e565b005b3480156102f257600080fd5b5061030d600480360381019061030891906131dd565b610ba6565b005b34801561031b57600080fd5b5061033660048036038101906103319190613170565b610bc6565b005b34801561034457600080fd5b5061034d610c98565b60405161035a9190613c91565b60405180910390f35b34801561036f57600080fd5b5061038a600480360381019061038591906134db565b610cae565b6040516103979190613b4d565b60405180910390f35b3480156103ac57600080fd5b506103c760048036038101906103c29190613116565b610d35565b6040516103d491906140d3565b60405180910390f35b3480156103e957600080fd5b506103f2610ded565b005b34801561040057600080fd5b50610409610e01565b005b34801561041757600080fd5b50610420610e13565b60405161042d9190613b4d565b60405180910390f35b34801561044257600080fd5b5061044b610e3c565b6040516104589190613cf1565b60405180910390f35b34801561046d57600080fd5b50610476610ece565b60405161048391906140d3565b60405180910390f35b34801561049857600080fd5b506104b360048036038101906104ae91906132b3565b610ed8565b005b3480156104c157600080fd5b506104dc60048036038101906104d79190613508565b610eee565b005b6104f860048036038101906104f391906133e9565b611076565b005b34801561050657600080fd5b50610521600480360381019061051c9190613230565b611512565b005b34801561052f57600080fd5b5061054a600480360381019061054591906134db565b611574565b6040516105579190613cf1565b60405180910390f35b34801561056c57600080fd5b506105876004803603810190610582919061319d565b611586565b6040516105949190613c91565b60405180910390f35b3480156105a957600080fd5b506105c460048036038101906105bf9190613116565b61161a565b005b3480156105d257600080fd5b506105ed60048036038101906105e891906134db565b61169e565b6040516105fa91906140d3565b60405180910390f35b60007f80ac58cd000000000000000000000000000000000000000000000000000000007bffffffffffffffffffffffffffffffffffffffffffffffffffffffff1916827bffffffffffffffffffffffffffffffffffffffffffffffffffffffff191614806106ce57507f5b5e139f000000000000000000000000000000000000000000000000000000007bffffffffffffffffffffffffffffffffffffffffffffffffffffffff1916827bffffffffffffffffffffffffffffffffffffffffffffffffffffffff1916145b806106de57506106dd826116fe565b5b9050919050565b6060600280546106f490614376565b80601f016020809104026020016040519081016040528092919081815260200182805461072090614376565b801561076d5780601f106107425761010080835404028352916020019161076d565b820191906000526020600020905b81548152906001019060200180831161075057829003601f168201915b5050505050905090565b600061078282611768565b6006600083815260200190815260200160002060009054906101000a900473ffffffffffffffffffffffffffffffffffffffff169050919050565b60006107c882610cae565b90508073ffffffffffffffffffffffffffffffffffffffff168373ffffffffffffffffffffffffffffffffffffffff161415610839576040517f08c379a000000000000000000000000000000000000000000000000000000000815260040161083090614033565b60405180910390fd5b8073ffffffffffffffffffffffffffffffffffffffff166108586117b3565b73ffffffffffffffffffffffffffffffffffffffff1614806108875750610886816108816117b3565b611586565b5b6108c6576040517f08c379a00000000000000000000000000000000000000000000000000000000081526004016108bd90614053565b60405180910390fd5b6108d083836117bb565b505050565b6108dd611874565b6108e56118f2565b6108ed61193c565b600073ffffffffffffffffffffffffffffffffffffffff168273ffffffffffffffffffffffffffffffffffffffff16141561095d576040517f08c379a000000000000000000000000000000000000000000000000000000000815260040161095490613ff3565b60405180910390fd5b7ff5e2cdb3c1806169fcc9a8e62feb5b0ed61f7825a7b228a0b2b9cdc124a3a1da828260405161098e929190613c61565b60405180910390a16109a0828261198c565b6109a86119c5565b5050565b6109bd6109b76117b3565b826119ce565b6109fc576040517f08c379a00000000000000000000000000000000000000000000000000000000081526004016109f390613d53565b60405180910390fd5b610a07838383611a63565b505050565b610a14611874565b610a1c611d5d565b565b610a26611874565b610a2e61193c565b60008190503073ffffffffffffffffffffffffffffffffffffffff168173ffffffffffffffffffffffffffffffffffffffff16636352211e866040518263ffffffff1660e01b8152600401610a8391906140d3565b60206040518083038186803b158015610a9b57600080fd5b505afa158015610aaf573d6000803e3d6000fd5b505050506040513d601f19601f82011682018060405250810190610ad39190613143565b73ffffffffffffffffffffffffffffffffffffffff1614610b29576040517f08c379a0000000000000000000000000000000000000000000000000000000008152600401610b2090613fb3565b60405180910390fd5b8173ffffffffffffffffffffffffffffffffffffffff166323b872dd3085876040518463ffffffff1660e01b8152600401610b6693929190613bde565b600060405180830381600087803b158015610b8057600080fd5b505af1158015610b94573d6000803e3d6000fd5b5050505050610ba16119c5565b505050565b610bc183838360405180602001604052806000815250611512565b505050565b610bce611874565b610bd661193c565b600073ffffffffffffffffffffffffffffffffffffffff168173ffffffffffffffffffffffffffffffffffffffff161415610c46576040517f08c379a0000000000000000000000000000000000000000000000000000000008152600401610c3d90613ed3565b60405180910390fd5b8073ffffffffffffffffffffffffffffffffffffffff166108fc479081150290604051600060405180830381858888f19350505050158015610c8c573d6000803e3d6000fd5b50610c956119c5565b50565b60008060149054906101000a900460ff16905090565b600080610cba83611dbf565b9050600073ffffffffffffffffffffffffffffffffffffffff168173ffffffffffffffffffffffffffffffffffffffff161415610d2c576040517f08c379a0000000000000000000000000000000000000000000000000000000008152600401610d2390614013565b60405180910390fd5b80915050919050565b60008073ffffffffffffffffffffffffffffffffffffffff168273ffffffffffffffffffffffffffffffffffffffff161415610da6576040517f08c379a0000000000000000000000000000000000000000000000000000000008152600401610d9d90613f13565b60405180910390fd5b600560008373ffffffffffffffffffffffffffffffffffffffff1673ffffffffffffffffffffffffffffffffffffffff168152602001908152602001600020549050919050565b610df5611874565b610dff6000611dfc565b565b610e09611874565b610e11611ec0565b565b60008060009054906101000a900473ffffffffffffffffffffffffffffffffffffffff16905090565b606060038054610e4b90614376565b80601f0160208091040260200160405190810160405280929190818152602001828054610e7790614376565b8015610ec45780601f10610e9957610100808354040283529160200191610ec4565b820191906000526020600020905b815481529060010190602001808311610ea757829003601f168201915b5050505050905090565b6000600a54905090565b610eea610ee36117b3565b8383611f23565b5050565b610ef6611874565b610efe61193c565b60008190503073ffffffffffffffffffffffffffffffffffffffff168173ffffffffffffffffffffffffffffffffffffffff16636352211e866040518263ffffffff1660e01b8152600401610f5391906140d3565b60206040518083038186803b158015610f6b57600080fd5b505afa158015610f7f573d6000803e3d6000fd5b505050506040513d601f19601f82011682018060405250810190610fa39190613143565b73ffffffffffffffffffffffffffffffffffffffff1614610ff9576040517f08c379a0000000000000000000000000000000000000000000000000000000008152600401610ff090613fb3565b60405180910390fd5b8173ffffffffffffffffffffffffffffffffffffffff166323b872dd3085876040518463ffffffff1660e01b815260040161103693929190613bde565b600060405180830381600087803b15801561105057600080fd5b505af1158015611064573d6000803e3d6000fd5b50505050506110716119c5565b505050565b61107e6118f2565b61108661193c565b60003414156110ca576040517f08c379a00000000000000000000000000000000000000000000000000000000081526004016110c190613f93565b60405180910390fd5b600a54341461110e576040517f08c379a000000000000000000000000000000000000000000000000000000000815260040161110590613f53565b60405180910390fd5b6001600281111561112257611121614441565b5b86600281111561113557611134614441565b5b14801561116757506001600281111561115157611150614441565b5b85600281111561116457611163614441565b5b14155b6111a6576040517f08c379a000000000000000000000000000000000000000000000000000000000815260040161119d90613e93565b60405180910390fd5b6111ae610e13565b73ffffffffffffffffffffffffffffffffffffffff166111ce8383612090565b73ffffffffffffffffffffffffffffffffffffffff1614611224576040517f08c379a000000000000000000000000000000000000000000000000000000000815260040161121b90613e33565b60405180910390fd5b600b816040516112349190613aec565b908152602001604051809103902060009054906101000a900460ff1615611290576040517f08c379a000000000000000000000000000000000000000000000000000000000815260040161128790614093565b60405180910390fd5b60008390503373ffffffffffffffffffffffffffffffffffffffff168173ffffffffffffffffffffffffffffffffffffffff16636352211e876040518263ffffffff1660e01b81526004016112e591906140d3565b60206040518083038186803b1580156112fd57600080fd5b505afa158015611311573d6000803e3d6000fd5b505050506040513d601f19601f820116820180604052508101906113359190613143565b73ffffffffffffffffffffffffffffffffffffffff161461138b576040517f08c379a000000000000000000000000000000000000000000000000000000000815260040161138290613dd3565b60405180910390fd5b8373ffffffffffffffffffffffffffffffffffffffff166323b872dd3330886040518463ffffffff1660e01b81526004016113c893929190613bde565b600060405180830381600087803b1580156113e257600080fd5b505af11580156113f6573d6000803e3d6000fd5b505050507f077b4f649a490b65bd23bf638dec092f8438ff3e5fd0e495efcd71316f8b5f0833308373ffffffffffffffffffffffffffffffffffffffff1663c87b56dd896040518263ffffffff1660e01b815260040161145691906140d3565b60006040518083038186803b15801561146e57600080fd5b505afa158015611482573d6000803e3d6000fd5b505050506040513d6000823e3d601f19601f820116820180604052508101906114ab9190613492565b88348c8c6040516114c29796959493929190613b68565b60405180910390a16001600b836040516114dc9190613aec565b908152602001604051809103902060006101000a81548160ff0219169083151502179055505061150a6119c5565b505050505050565b61152361151d6117b3565b836119ce565b611562576040517f08c379a000000000000000000000000000000000000000000000000000000000815260040161155990613d53565b60405180910390fd5b61156e848484846120cf565b50505050565b606061157f8261212b565b9050919050565b6000600760008473ffffffffffffffffffffffffffffffffffffffff1673ffffffffffffffffffffffffffffffffffffffff16815260200190815260200160002060008373ffffffffffffffffffffffffffffffffffffffff1673ffffffffffffffffffffffffffffffffffffffff16815260200190815260200160002060009054906101000a900460ff16905092915050565b611622611874565b600073ffffffffffffffffffffffffffffffffffffffff168173ffffffffffffffffffffffffffffffffffffffff161415611692576040517f08c379a000000000000000000000000000000000000000000000000000000000815260040161168990613db3565b60405180910390fd5b61169b81611dfc565b50565b60006116a8611874565b81600a5414156116ed576040517f08c379a00000000000000000000000000000000000000000000000000000000081526004016116e490614073565b60405180910390fd5b81600a81905550600a549050919050565b60007f01ffc9a7000000000000000000000000000000000000000000000000000000007bffffffffffffffffffffffffffffffffffffffffffffffffffffffff1916827bffffffffffffffffffffffffffffffffffffffffffffffffffffffff1916149050919050565b6117718161223e565b6117b0576040517f08c379a00000000000000000000000000000000000000000000000000000000081526004016117a790614013565b60405180910390fd5b50565b600033905090565b816006600083815260200190815260200160002060006101000a81548173ffffffffffffffffffffffffffffffffffffffff021916908373ffffffffffffffffffffffffffffffffffffffff160217905550808273ffffffffffffffffffffffffffffffffffffffff1661182e83610cae565b73ffffffffffffffffffffffffffffffffffffffff167f8c5be1e5ebec7d5bd14f71427d1e84f3dd0314c0f7b2291e5b200ac8c7c3b92560405160405180910390a45050565b61187c6117b3565b73ffffffffffffffffffffffffffffffffffffffff1661189a610e13565b73ffffffffffffffffffffffffffffffffffffffff16146118f0576040517f08c379a00000000000000000000000000000000000000000000000000000000081526004016118e790613fd3565b60405180910390fd5b565b6118fa610c98565b1561193a576040517f08c379a000000000000000000000000000000000000000000000000000000000815260040161193190613ef3565b60405180910390fd5b565b60026001541415611982576040517f08c379a0000000000000000000000000000000000000000000000000000000008152600401611979906140b3565b60405180910390fd5b6002600181905550565b611994611874565b60006119a0600961227f565b90506119ac600961228d565b6119b683826122a3565b6119c081836122c1565b505050565b60018081905550565b6000806119da83610cae565b90508073ffffffffffffffffffffffffffffffffffffffff168473ffffffffffffffffffffffffffffffffffffffff161480611a1c5750611a1b8185611586565b5b80611a5a57508373ffffffffffffffffffffffffffffffffffffffff16611a4284610777565b73ffffffffffffffffffffffffffffffffffffffff16145b91505092915050565b8273ffffffffffffffffffffffffffffffffffffffff16611a8382610cae565b73ffffffffffffffffffffffffffffffffffffffff1614611ad9576040517f08c379a0000000000000000000000000000000000000000000000000000000008152600401611ad090613df3565b60405180910390fd5b600073ffffffffffffffffffffffffffffffffffffffff168273ffffffffffffffffffffffffffffffffffffffff161415611b49576040517f08c379a0000000000000000000000000000000000000000000000000000000008152600401611b4090613e53565b60405180910390fd5b611b568383836001612335565b8273ffffffffffffffffffffffffffffffffffffffff16611b7682610cae565b73ffffffffffffffffffffffffffffffffffffffff1614611bcc576040517f08c379a0000000000000000000000000000000000000000000000000000000008152600401611bc390613df3565b60405180910390fd5b6006600082815260200190815260200160002060006101000a81549073ffffffffffffffffffffffffffffffffffffffff02191690556001600560008573ffffffffffffffffffffffffffffffffffffffff1673ffffffffffffffffffffffffffffffffffffffff168152602001908152602001600020600082825403925050819055506001600560008473ffffffffffffffffffffffffffffffffffffffff1673ffffffffffffffffffffffffffffffffffffffff16815260200190815260200160002060008282540192505081905550816004600083815260200190815260200160002060006101000a81548173ffffffffffffffffffffffffffffffffffffffff021916908373ffffffffffffffffffffffffffffffffffffffff160217905550808273ffffffffffffffffffffffffffffffffffffffff168473ffffffffffffffffffffffffffffffffffffffff167fddf252ad1be2c89b69c2b068fc378daa952ba7f163c4a11628f55a4df523b3ef60405160405180910390a4611d58838383600161245b565b505050565b611d65612461565b60008060146101000a81548160ff0219169083151502179055507f5db9ee0a495bf2e6ff9c91a7834c1ba4fdd244a5e8aa4e537bd38aeae4b073aa611da86117b3565b604051611db59190613b4d565b60405180910390a1565b60006004600083815260200190815260200160002060009054906101000a900473ffffffffffffffffffffffffffffffffffffffff169050919050565b60008060009054906101000a900473ffffffffffffffffffffffffffffffffffffffff169050816000806101000a81548173ffffffffffffffffffffffffffffffffffffffff021916908373ffffffffffffffffffffffffffffffffffffffff1602179055508173ffffffffffffffffffffffffffffffffffffffff168173ffffffffffffffffffffffffffffffffffffffff167f8be0079c531659141344cd1fd0a4f28419497f9722a3daafe3b4186f6b6457e060405160405180910390a35050565b611ec86118f2565b6001600060146101000a81548160ff0219169083151502179055507f62e78cea01bee320cd4e420270b5ea74000d11b0c9f74754ebdbfc544b05a258611f0c6117b3565b604051611f199190613b4d565b60405180910390a1565b8173ffffffffffffffffffffffffffffffffffffffff168373ffffffffffffffffffffffffffffffffffffffff161415611f92576040517f08c379a0000000000000000000000000000000000000000000000000000000008152600401611f8990613e73565b60405180910390fd5b80600760008573ffffffffffffffffffffffffffffffffffffffff1673ffffffffffffffffffffffffffffffffffffffff16815260200190815260200160002060008473ffffffffffffffffffffffffffffffffffffffff1673ffffffffffffffffffffffffffffffffffffffff16815260200190815260200160002060006101000a81548160ff0219169083151502179055508173ffffffffffffffffffffffffffffffffffffffff168373ffffffffffffffffffffffffffffffffffffffff167f17307eab39ab6107e8899845ad3d59bd9653f200f220920489ca2b5937696c31836040516120839190613c91565b60405180910390a3505050565b600080836040516020016120a49190613b27565b6040516020818303038152906040528051906020012090506120c681846124aa565b91505092915050565b6120da848484611a63565b6120e6848484846124d1565b612125576040517f08c379a000000000000000000000000000000000000000000000000000000000815260040161211c90613d93565b60405180910390fd5b50505050565b606061213682611768565b600060086000848152602001908152602001600020805461215690614376565b80601f016020809104026020016040519081016040528092919081815260200182805461218290614376565b80156121cf5780601f106121a4576101008083540402835291602001916121cf565b820191906000526020600020905b8154815290600101906020018083116121b257829003601f168201915b5050505050905060006121e0612668565b90506000815114156121f6578192505050612239565b60008251111561222b578082604051602001612213929190613b03565b60405160208183030381529060405292505050612239565b6122348461267f565b925050505b919050565b60008073ffffffffffffffffffffffffffffffffffffffff1661226083611dbf565b73ffffffffffffffffffffffffffffffffffffffff1614159050919050565b600081600001549050919050565b6001816000016000828254019250508190555050565b6122bd8282604051806020016040528060008152506126e7565b5050565b6122ca8261223e565b612309576040517f08c379a000000000000000000000000000000000000000000000000000000000815260040161230090613f33565b60405180910390fd5b80600860008481526020019081526020016000209080519060200190612330929190612e51565b505050565b600181111561245557600073ffffffffffffffffffffffffffffffffffffffff168473ffffffffffffffffffffffffffffffffffffffff16146123c95780600560008673ffffffffffffffffffffffffffffffffffffffff1673ffffffffffffffffffffffffffffffffffffffff16815260200190815260200160002060008282546123c19190614219565b925050819055505b600073ffffffffffffffffffffffffffffffffffffffff168373ffffffffffffffffffffffffffffffffffffffff16146124545780600560008573ffffffffffffffffffffffffffffffffffffffff1673ffffffffffffffffffffffffffffffffffffffff168152602001908152602001600020600082825461244c91906141c3565b925050819055505b5b50505050565b50505050565b612469610c98565b6124a8576040517f08c379a000000000000000000000000000000000000000000000000000000000815260040161249f90613d33565b60405180910390fd5b565b60008060006124b98585612742565b915091506124c681612794565b819250505092915050565b60006124f28473ffffffffffffffffffffffffffffffffffffffff16612902565b1561265b578373ffffffffffffffffffffffffffffffffffffffff1663150b7a0261251b6117b3565b8786866040518563ffffffff1660e01b815260040161253d9493929190613c15565b602060405180830381600087803b15801561255757600080fd5b505af192505050801561258857506040513d601f19601f8201168201806040525081019061258591906133bc565b60015b61260b573d80600081146125b8576040519150601f19603f3d011682016040523d82523d6000602084013e6125bd565b606091505b50600081511415612603576040517f08c379a00000000000000000000000000000000000000000000000000000000081526004016125fa90613d93565b60405180910390fd5b805181602001fd5b63150b7a0260e01b7bffffffffffffffffffffffffffffffffffffffffffffffffffffffff1916817bffffffffffffffffffffffffffffffffffffffffffffffffffffffff191614915050612660565b600190505b949350505050565b606060405180602001604052806000815250905090565b606061268a82611768565b6000612694612668565b905060008151116126b457604051806020016040528060008152506126df565b806126be84612925565b6040516020016126cf929190613b03565b6040516020818303038152906040525b915050919050565b6126f183836129fd565b6126fe60008484846124d1565b61273d576040517f08c379a000000000000000000000000000000000000000000000000000000000815260040161273490613d93565b60405180910390fd5b505050565b6000806041835114156127845760008060006020860151925060408601519150606086015160001a905061277887828585612c1b565b9450945050505061278d565b60006002915091505b9250929050565b600060048111156127a8576127a7614441565b5b8160048111156127bb576127ba614441565b5b14156127c6576128ff565b600160048111156127da576127d9614441565b5b8160048111156127ed576127ec614441565b5b141561282e576040517f08c379a000000000000000000000000000000000000000000000000000000000815260040161282590613d13565b60405180910390fd5b6002600481111561284257612841614441565b5b81600481111561285557612854614441565b5b1415612896576040517f08c379a000000000000000000000000000000000000000000000000000000000815260040161288d90613d73565b60405180910390fd5b600360048111156128aa576128a9614441565b5b8160048111156128bd576128bc614441565b5b14156128fe576040517f08c379a00000000000000000000000000000000000000000000000000000000081526004016128f590613eb3565b60405180910390fd5b5b50565b6000808273ffffffffffffffffffffffffffffffffffffffff163b119050919050565b60606000600161293484612cfe565b01905060008167ffffffffffffffff8111156129535761295261449f565b5b6040519080825280601f01601f1916602001820160405280156129855781602001600182028036833780820191505090505b509050600082602001820190505b6001156129f2578080600190039150507f3031323334353637383961626364656600000000000000000000000000000000600a86061a8153600a85816129dc576129db614412565b5b04945060008514156129ed576129f2565b612993565b819350505050919050565b600073ffffffffffffffffffffffffffffffffffffffff168273ffffffffffffffffffffffffffffffffffffffff161415612a6d576040517f08c379a0000000000000000000000000000000000000000000000000000000008152600401612a6490613f73565b60405180910390fd5b612a768161223e565b15612ab6576040517f08c379a0000000000000000000000000000000000000000000000000000000008152600401612aad90613e13565b60405180910390fd5b612ac4600083836001612335565b612acd8161223e565b15612b0d576040517f08c379a0000000000000000000000000000000000000000000000000000000008152600401612b0490613e13565b60405180910390fd5b6001600560008473ffffffffffffffffffffffffffffffffffffffff1673ffffffffffffffffffffffffffffffffffffffff16815260200190815260200160002060008282540192505081905550816004600083815260200190815260200160002060006101000a81548173ffffffffffffffffffffffffffffffffffffffff021916908373ffffffffffffffffffffffffffffffffffffffff160217905550808273ffffffffffffffffffffffffffffffffffffffff16600073ffffffffffffffffffffffffffffffffffffffff167fddf252ad1be2c89b69c2b068fc378daa952ba7f163c4a11628f55a4df523b3ef60405160405180910390a4612c1760008383600161245b565b5050565b6000807f7fffffffffffffffffffffffffffffff5d576e7357a4501ddfe92f46681b20a08360001c1115612c56576000600391509150612cf5565b600060018787878760405160008152602001604052604051612c7b9493929190613cac565b6020604051602081039080840390855afa158015612c9d573d6000803e3d6000fd5b505050602060405103519050600073ffffffffffffffffffffffffffffffffffffffff168173ffffffffffffffffffffffffffffffffffffffff161415612cec57600060019250925050612cf5565b80600092509250505b94509492505050565b600080600090507a184f03e93ff9f4daa797ed6e38ed64bf6a1f0100000000000000008310612d5c577a184f03e93ff9f4daa797ed6e38ed64bf6a1f0100000000000000008381612d5257612d51614412565b5b0492506040810190505b6d04ee2d6d415b85acef81000000008310612d99576d04ee2d6d415b85acef81000000008381612d8f57612d8e614412565b5b0492506020810190505b662386f26fc100008310612dc857662386f26fc100008381612dbe57612dbd614412565b5b0492506010810190505b6305f5e1008310612df1576305f5e1008381612de757612de6614412565b5b0492506008810190505b6127108310612e16576127108381612e0c57612e0b614412565b5b0492506004810190505b60648310612e395760648381612e2f57612e2e614412565b5b0492506002810190505b600a8310612e48576001810190505b80915050919050565b828054612e5d90614376565b90600052602060002090601f016020900481019282612e7f5760008555612ec6565b82601f10612e9857805160ff1916838001178555612ec6565b82800160010185558215612ec6579182015b82811115612ec5578251825591602001919060010190612eaa565b5b509050612ed39190612ed7565b5090565b5b80821115612ef0576000816000905550600101612ed8565b5090565b6000612f07612f0284614113565b6140ee565b905082815260208101848484011115612f2357612f226144d3565b5b612f2e848285614334565b509392505050565b6000612f49612f4484614144565b6140ee565b905082815260208101848484011115612f6557612f646144d3565b5b612f70848285614334565b509392505050565b6000612f8b612f8684614144565b6140ee565b905082815260208101848484011115612fa757612fa66144d3565b5b612fb2848285614343565b509392505050565b600081359050612fc981614b8e565b92915050565b600081519050612fde81614b8e565b92915050565b600081359050612ff381614ba5565b92915050565b60008135905061300881614bbc565b92915050565b60008135905061301d81614bd3565b92915050565b60008135905061303281614bea565b92915050565b60008151905061304781614bea565b92915050565b600082601f830112613062576130616144ce565b5b8135613072848260208601612ef4565b91505092915050565b60008135905061308a81614c01565b92915050565b60008135905061309f81614c11565b92915050565b600082601f8301126130ba576130b96144ce565b5b81356130ca848260208601612f36565b91505092915050565b600082601f8301126130e8576130e76144ce565b5b81516130f8848260208601612f78565b91505092915050565b60008135905061311081614c21565b92915050565b60006020828403121561312c5761312b6144dd565b5b600061313a84828501612fba565b91505092915050565b600060208284031215613159576131586144dd565b5b600061316784828501612fcf565b91505092915050565b600060208284031215613186576131856144dd565b5b600061319484828501612fe4565b91505092915050565b600080604083850312156131b4576131b36144dd565b5b60006131c285828601612fba565b92505060206131d385828601612fba565b9150509250929050565b6000806000606084860312156131f6576131f56144dd565b5b600061320486828701612fba565b935050602061321586828701612fba565b925050604061322686828701613101565b9150509250925092565b6000806000806080858703121561324a576132496144dd565b5b600061325887828801612fba565b945050602061326987828801612fba565b935050604061327a87828801613101565b925050606085013567ffffffffffffffff81111561329b5761329a6144d8565b5b6132a78782880161304d565b91505092959194509250565b600080604083850312156132ca576132c96144dd565b5b60006132d885828601612fba565b92505060206132e985828601612ff9565b9150509250929050565b6000806040838503121561330a576133096144dd565b5b600061331885828601612fba565b925050602083013567ffffffffffffffff811115613339576133386144d8565b5b613345858286016130a5565b9150509250929050565b60008060408385031215613366576133656144dd565b5b600061337485828601612fba565b925050602061338585828601613101565b9150509250929050565b6000602082840312156133a5576133a46144dd565b5b60006133b384828501613023565b91505092915050565b6000602082840312156133d2576133d16144dd565b5b60006133e084828501613038565b91505092915050565b60008060008060008060c08789031215613406576134056144dd565b5b600061341489828a01613090565b965050602061342589828a0161307b565b955050604061343689828a01613101565b945050606061344789828a01612fba565b935050608061345889828a0161300e565b92505060a087013567ffffffffffffffff811115613479576134786144d8565b5b61348589828a0161304d565b9150509295509295509295565b6000602082840312156134a8576134a76144dd565b5b600082015167ffffffffffffffff8111156134c6576134c56144d8565b5b6134d2848285016130d3565b91505092915050565b6000602082840312156134f1576134f06144dd565b5b60006134ff84828501613101565b91505092915050565b600080600060608486031215613521576135206144dd565b5b600061352f86828701613101565b935050602061354086828701612fba565b925050604061355186828701612fba565b9150509250925092565b6135648161424d565b82525050565b61357381614271565b82525050565b6135828161427d565b82525050565b6135996135948261427d565b6143d9565b82525050565b60006135aa82614175565b6135b4818561418b565b93506135c4818560208601614343565b6135cd816144e2565b840191505092915050565b60006135e382614175565b6135ed818561419c565b93506135fd818560208601614343565b80840191505092915050565b61361281614310565b82525050565b61362181614322565b82525050565b600061363282614180565b61363c81856141a7565b935061364c818560208601614343565b613655816144e2565b840191505092915050565b600061366b82614180565b61367581856141b8565b9350613685818560208601614343565b80840191505092915050565b600061369e6018836141a7565b91506136a9826144f3565b602082019050919050565b60006136c16014836141a7565b91506136cc8261451c565b602082019050919050565b60006136e4602d836141a7565b91506136ef82614545565b604082019050919050565b6000613707601f836141a7565b915061371282614594565b602082019050919050565b600061372a601c836141b8565b9150613735826145bd565b601c82019050919050565b600061374d6032836141a7565b9150613758826145e6565b604082019050919050565b60006137706026836141a7565b915061377b82614635565b604082019050919050565b6000613793601f836141a7565b915061379e82614684565b602082019050919050565b60006137b66025836141a7565b91506137c1826146ad565b604082019050919050565b60006137d9601c836141a7565b91506137e4826146fc565b602082019050919050565b60006137fc6019836141a7565b915061380782614725565b602082019050919050565b600061381f6024836141a7565b915061382a8261474e565b604082019050919050565b60006138426019836141a7565b915061384d8261479d565b602082019050919050565b6000613865600d836141a7565b9150613870826147c6565b602082019050919050565b60006138886022836141a7565b9150613893826147ef565b604082019050919050565b60006138ab6016836141a7565b91506138b68261483e565b602082019050919050565b60006138ce6010836141a7565b91506138d982614867565b602082019050919050565b60006138f16029836141a7565b91506138fc82614890565b604082019050919050565b6000613914602e836141a7565b915061391f826148df565b604082019050919050565b60006139376014836141a7565b91506139428261492e565b602082019050919050565b600061395a6020836141a7565b915061396582614957565b602082019050919050565b600061397d6015836141a7565b915061398882614980565b602082019050919050565b60006139a0601f836141a7565b91506139ab826149a9565b602082019050919050565b60006139c36020836141a7565b91506139ce826149d2565b602082019050919050565b60006139e66013836141a7565b91506139f1826149fb565b602082019050919050565b6000613a096018836141a7565b9150613a1482614a24565b602082019050919050565b6000613a2c6021836141a7565b9150613a3782614a4d565b604082019050919050565b6000613a4f603d836141a7565b9150613a5a82614a9c565b604082019050919050565b6000613a726014836141a7565b9150613a7d82614aeb565b602082019050919050565b6000613a956016836141a7565b9150613aa082614b14565b602082019050919050565b6000613ab8601f836141a7565b9150613ac382614b3d565b602082019050919050565b613ad7816142f9565b82525050565b613ae681614303565b82525050565b6000613af882846135d8565b915081905092915050565b6000613b0f8285613660565b9150613b1b8284613660565b91508190509392505050565b6000613b328261371d565b9150613b3e8284613588565b60208201915081905092915050565b6000602082019050613b62600083018461355b565b92915050565b600060e082019050613b7d600083018a61355b565b613b8a602083018961355b565b8181036040830152613b9c8188613627565b9050613bab6060830187613ace565b613bb86080830186613ace565b613bc560a0830185613618565b613bd260c0830184613609565b98975050505050505050565b6000606082019050613bf3600083018661355b565b613c00602083018561355b565b613c0d6040830184613ace565b949350505050565b6000608082019050613c2a600083018761355b565b613c37602083018661355b565b613c446040830185613ace565b8181036060830152613c56818461359f565b905095945050505050565b6000604082019050613c76600083018561355b565b8181036020830152613c888184613627565b90509392505050565b6000602082019050613ca6600083018461356a565b92915050565b6000608082019050613cc16000830187613579565b613cce6020830186613add565b613cdb6040830185613579565b613ce86060830184613579565b95945050505050565b60006020820190508181036000830152613d0b8184613627565b905092915050565b60006020820190508181036000830152613d2c81613691565b9050919050565b60006020820190508181036000830152613d4c816136b4565b9050919050565b60006020820190508181036000830152613d6c816136d7565b9050919050565b60006020820190508181036000830152613d8c816136fa565b9050919050565b60006020820190508181036000830152613dac81613740565b9050919050565b60006020820190508181036000830152613dcc81613763565b9050919050565b60006020820190508181036000830152613dec81613786565b9050919050565b60006020820190508181036000830152613e0c816137a9565b9050919050565b60006020820190508181036000830152613e2c816137cc565b9050919050565b60006020820190508181036000830152613e4c816137ef565b9050919050565b60006020820190508181036000830152613e6c81613812565b9050919050565b60006020820190508181036000830152613e8c81613835565b9050919050565b60006020820190508181036000830152613eac81613858565b9050919050565b60006020820190508181036000830152613ecc8161387b565b9050919050565b60006020820190508181036000830152613eec8161389e565b9050919050565b60006020820190508181036000830152613f0c816138c1565b9050919050565b60006020820190508181036000830152613f2c816138e4565b9050919050565b60006020820190508181036000830152613f4c81613907565b9050919050565b60006020820190508181036000830152613f6c8161392a565b9050919050565b60006020820190508181036000830152613f8c8161394d565b9050919050565b60006020820190508181036000830152613fac81613970565b9050919050565b60006020820190508181036000830152613fcc81613993565b9050919050565b60006020820190508181036000830152613fec816139b6565b9050919050565b6000602082019050818103600083015261400c816139d9565b9050919050565b6000602082019050818103600083015261402c816139fc565b9050919050565b6000602082019050818103600083015261404c81613a1f565b9050919050565b6000602082019050818103600083015261406c81613a42565b9050919050565b6000602082019050818103600083015261408c81613a65565b9050919050565b600060208201905081810360008301526140ac81613a88565b9050919050565b600060208201905081810360008301526140cc81613aab565b9050919050565b60006020820190506140e86000830184613ace565b92915050565b60006140f8614109565b905061410482826143a8565b919050565b6000604051905090565b600067ffffffffffffffff82111561412e5761412d61449f565b5b614137826144e2565b9050602081019050919050565b600067ffffffffffffffff82111561415f5761415e61449f565b5b614168826144e2565b9050602081019050919050565b600081519050919050565b600081519050919050565b600082825260208201905092915050565b600081905092915050565b600082825260208201905092915050565b600081905092915050565b60006141ce826142f9565b91506141d9836142f9565b9250827fffffffffffffffffffffffffffffffffffffffffffffffffffffffffffffffff0382111561420e5761420d6143e3565b5b828201905092915050565b6000614224826142f9565b915061422f836142f9565b925082821015614242576142416143e3565b5b828203905092915050565b6000614258826142d9565b9050919050565b600061426a826142d9565b9050919050565b60008115159050919050565b6000819050919050565b60007fffffffff0000000000000000000000000000000000000000000000000000000082169050919050565b60008190506142c182614b66565b919050565b60008190506142d482614b7a565b919050565b600073ffffffffffffffffffffffffffffffffffffffff82169050919050565b6000819050919050565b600060ff82169050919050565b600061431b826142b3565b9050919050565b600061432d826142c6565b9050919050565b82818337600083830152505050565b60005b83811015614361578082015181840152602081019050614346565b83811115614370576000848401525b50505050565b6000600282049050600182168061438e57607f821691505b602082108114156143a2576143a1614470565b5b50919050565b6143b1826144e2565b810181811067ffffffffffffffff821117156143d0576143cf61449f565b5b80604052505050565b6000819050919050565b7f4e487b7100000000000000000000000000000000000000000000000000000000600052601160045260246000fd5b7f4e487b7100000000000000000000000000000000000000000000000000000000600052601260045260246000fd5b7f4e487b7100000000000000000000000000000000000000000000000000000000600052602160045260246000fd5b7f4e487b7100000000000000000000000000000000000000000000000000000000600052602260045260246000fd5b7f4e487b7100000000000000000000000000000000000000000000000000000000600052604160045260246000fd5b600080fd5b600080fd5b600080fd5b600080fd5b6000601f19601f8301169050919050565b7f45434453413a20696e76616c6964207369676e61747572650000000000000000600082015250565b7f5061757361626c653a206e6f7420706175736564000000000000000000000000600082015250565b7f4552433732313a2063616c6c6572206973206e6f7420746f6b656e206f776e6560008201527f72206f7220617070726f76656400000000000000000000000000000000000000602082015250565b7f45434453413a20696e76616c6964207369676e6174757265206c656e67746800600082015250565b7f19457468657265756d205369676e6564204d6573736167653a0a333200000000600082015250565b7f4552433732313a207472616e7366657220746f206e6f6e20455243373231526560008201527f63656976657220696d706c656d656e7465720000000000000000000000000000602082015250565b7f4f776e61626c653a206e6577206f776e657220697320746865207a65726f206160008201527f6464726573730000000000000000000000000000000000000000000000000000602082015250565b7f4f6e6c7920746865206f776e65722063616e206c6f636b20746865204e465400600082015250565b7f4552433732313a207472616e736665722066726f6d20696e636f72726563742060008201527f6f776e6572000000000000000000000000000000000000000000000000000000602082015250565b7f4552433732313a20746f6b656e20616c7265616479206d696e74656400000000600082015250565b7f41646472657373206973206e6f7420617574686f72697a656400000000000000600082015250565b7f4552433732313a207472616e7366657220746f20746865207a65726f2061646460008201527f7265737300000000000000000000000000000000000000000000000000000000602082015250565b7f4552433732313a20617070726f766520746f2063616c6c657200000000000000600082015250565b7f496e76616c696420636861696e00000000000000000000000000000000000000600082015250565b7f45434453413a20696e76616c6964207369676e6174757265202773272076616c60008201527f7565000000000000000000000000000000000000000000000000000000000000602082015250565b7f416464726573732063616e6e6f74206265207a65726f00000000000000000000600082015250565b7f5061757361626c653a2070617573656400000000000000000000000000000000600082015250565b7f4552433732313a2061646472657373207a65726f206973206e6f74206120766160008201527f6c6964206f776e65720000000000000000000000000000000000000000000000602082015250565b7f45524337323155524953746f726167653a2055524920736574206f66206e6f6e60008201527f6578697374656e7420746f6b656e000000000000000000000000000000000000602082015250565b7f466565732073686f756c6420626520657175616c000000000000000000000000600082015250565b7f4552433732313a206d696e7420746f20746865207a65726f2061646472657373600082015250565b7f56616c75652073686f756c64206e6f7420626520300000000000000000000000600082015250565b7f4f6e6c7920746865206f776e6572207472616e7366657220746865204e465400600082015250565b7f4f776e61626c653a2063616c6c6572206973206e6f7420746865206f776e6572600082015250565b7f416464726573732063616e6e6f74206265203000000000000000000000000000600082015250565b7f4552433732313a20696e76616c696420746f6b656e2049440000000000000000600082015250565b7f4552433732313a20617070726f76616c20746f2063757272656e74206f776e6560008201527f7200000000000000000000000000000000000000000000000000000000000000602082015250565b7f4552433732313a20617070726f76652063616c6c6572206973206e6f7420746f60008201527f6b656e206f776e6572206f7220617070726f76656420666f7220616c6c000000602082015250565b7f4665657320697320616c72656164792073616d65000000000000000000000000600082015250565b7f416c7265616479207369676e6174757265207573656400000000000000000000600082015250565b7f5265656e7472616e637947756172643a207265656e7472616e742063616c6c00600082015250565b60038110614b7757614b76614441565b5b50565b60038110614b8b57614b8a614441565b5b50565b614b978161424d565b8114614ba257600080fd5b50565b614bae8161425f565b8114614bb957600080fd5b50565b614bc581614271565b8114614bd057600080fd5b50565b614bdc8161427d565b8114614be757600080fd5b50565b614bf381614287565b8114614bfe57600080fd5b50565b60038110614c0e57600080fd5b50565b60038110614c1e57600080fd5b50565b614c2a816142f9565b8114614c3557600080fd5b5056fea264697066735822122051debcb7fc92bf708fc8dbda5acbc60055c5e71d4e723fb2cc085b264dbe6d4864736f6c63430008070033",
  "linkReferences": {},
  "deployedLinkReferences": {}
}