{
  "_format": "hh-sol-artifact-1",
  "contractName": "NftBridgeBsc",
  "sourceName": "contracts/NftBridgeBsc.sol",
  "abi": [
    {
      "inputs": [],
      "stateMutability": "nonpayable",
      "type": "constructor"
    },
    {
      "anonymous": false,
      "inputs": [
        {
          "indexed": true,
          "internalType": "address",
          "name": "owner",
          "type": "address"
        },
        {
          "indexed": true,
          "internalType": "address",
          "name": "approved",
          "type": "address"
        },
        {
          "indexed": true,
          "internalType": "uint256",
          "name": "tokenId",
          "type": "uint256"
        }
      ],
      "name": "Approval",
      "type": "event"
    },
    {
      "anonymous": false,
      "inputs": [
        {
          "indexed": true,
          "internalType": "address",
          "name": "owner",
          "type": "address"
        },
        {
          "indexed": true,
          "internalType": "address",
          "name": "operator",
          "type": "address"
        },
        {
          "indexed": false,
          "internalType": "bool",
          "name": "approved",
          "type": "bool"
        }
      ],
      "name": "ApprovalForAll",
      "type": "event"
    },
    {
      "anonymous": false,
      "inputs": [
        {
          "indexed": false,
          "internalType": "address",
          "name": "_from",
          "type": "address"
        },
        {
          "indexed": false,
          "internalType": "address",
          "name": "_to",
          "type": "address"
        },
        {
          "indexed": false,
          "internalType": "string",
          "name": "_uri",
          "type": "string"
        },
        {
          "indexed": false,
          "internalType": "uint256",
          "name": "_tokenId",
          "type": "uint256"
        },
        {
          "indexed": false,
          "internalType": "enum NftBridgeBsc.SourceChain",
          "name": "_sourceChain",
          "type": "uint8"
        },
        {
          "indexed": false,
          "internalType": "enum NftBridgeBsc.DestinationChain",
          "name": "_destinationChain",
          "type": "uint8"
        }
      ],
      "name": "LockedNft",
      "type": "event"
    },
    {
      "anonymous": false,
      "inputs": [
        {
          "indexed": false,
          "internalType": "address",
          "name": "_to",
          "type": "address"
        },
        {
          "indexed": true,
          "internalType": "uint256",
          "name": "_tokenId",
          "type": "uint256"
        },
        {
          "indexed": false,
          "internalType": "string",
          "name": "_uri",
          "type": "string"
        }
      ],
      "name": "NftTransferedToDestinationChain",
      "type": "event"
    },
    {
      "anonymous": false,
      "inputs": [
        {
          "indexed": true,
          "internalType": "address",
          "name": "previousOwner",
          "type": "address"
        },
        {
          "indexed": true,
          "internalType": "address",
          "name": "newOwner",
          "type": "address"
        }
      ],
      "name": "OwnershipTransferred",
      "type": "event"
    },
    {
      "anonymous": false,
      "inputs": [
        {
          "indexed": true,
          "internalType": "address",
          "name": "from",
          "type": "address"
        },
        {
          "indexed": true,
          "internalType": "address",
          "name": "to",
          "type": "address"
        },
        {
          "indexed": true,
          "internalType": "uint256",
          "name": "tokenId",
          "type": "uint256"
        }
      ],
      "name": "Transfer",
      "type": "event"
    },
    {
      "inputs": [
        {
          "internalType": "address",
          "name": "to",
          "type": "address"
        },
        {
          "internalType": "uint256",
          "name": "tokenId",
          "type": "uint256"
        }
      ],
      "name": "approve",
      "outputs": [],
      "stateMutability": "nonpayable",
      "type": "function"
    },
    {
      "inputs": [
        {
          "internalType": "address",
          "name": "owner",
          "type": "address"
        }
      ],
      "name": "balanceOf",
      "outputs": [
        {
          "internalType": "uint256",
          "name": "",
          "type": "uint256"
        }
      ],
      "stateMutability": "view",
      "type": "function"
    },
    {
      "inputs": [
        {
          "internalType": "uint256",
          "name": "tokenId",
          "type": "uint256"
        }
      ],
      "name": "getApproved",
      "outputs": [
        {
          "internalType": "address",
          "name": "",
          "type": "address"
        }
      ],
      "stateMutability": "view",
      "type": "function"
    },
    {
      "inputs": [
        {
          "internalType": "address",
          "name": "owner",
          "type": "address"
        },
        {
          "internalType": "address",
          "name": "operator",
          "type": "address"
        }
      ],
      "name": "isApprovedForAll",
      "outputs": [
        {
          "internalType": "bool",
          "name": "",
          "type": "bool"
        }
      ],
      "stateMutability": "view",
      "type": "function"
    },
    {
      "inputs": [
        {
          "internalType": "enum NftBridgeBsc.SourceChain",
          "name": "sourceChain",
          "type": "uint8"
        },
        {
          "internalType": "enum NftBridgeBsc.DestinationChain",
          "name": "destinationChain",
          "type": "uint8"
        },
        {
          "internalType": "uint256",
          "name": "tokenId",
          "type": "uint256"
        },
        {
          "internalType": "address",
          "name": "tokenAddress",
          "type": "address"
        },
        {
          "internalType": "bytes32",
          "name": "hash",
          "type": "bytes32"
        },
        {
          "internalType": "bytes",
          "name": "signature",
          "type": "bytes"
        }
      ],
      "name": "lockNft",
      "outputs": [],
      "stateMutability": "nonpayable",
      "type": "function"
    },
    {
      "inputs": [],
      "name": "name",
      "outputs": [
        {
          "internalType": "string",
          "name": "",
          "type": "string"
        }
      ],
      "stateMutability": "view",
      "type": "function"
    },
    {
      "inputs": [],
      "name": "owner",
      "outputs": [
        {
          "internalType": "address",
          "name": "",
          "type": "address"
        }
      ],
      "stateMutability": "view",
      "type": "function"
    },
    {
      "inputs": [
        {
          "internalType": "uint256",
          "name": "tokenId",
          "type": "uint256"
        }
      ],
      "name": "ownerOf",
      "outputs": [
        {
          "internalType": "address",
          "name": "",
          "type": "address"
        }
      ],
      "stateMutability": "view",
      "type": "function"
    },
    {
      "inputs": [],
      "name": "renounceOwnership",
      "outputs": [],
      "stateMutability": "nonpayable",
      "type": "function"
    },
    {
      "inputs": [
        {
          "internalType": "address",
          "name": "from",
          "type": "address"
        },
        {
          "internalType": "address",
          "name": "to",
          "type": "address"
        },
        {
          "internalType": "uint256",
          "name": "tokenId",
          "type": "uint256"
        }
      ],
      "name": "safeTransferFrom",
      "outputs": [],
      "stateMutability": "nonpayable",
      "type": "function"
    },
    {
      "inputs": [
        {
          "internalType": "address",
          "name": "from",
          "type": "address"
        },
        {
          "internalType": "address",
          "name": "to",
          "type": "address"
        },
        {
          "internalType": "uint256",
          "name": "tokenId",
          "type": "uint256"
        },
        {
          "internalType": "bytes",
          "name": "data",
          "type": "bytes"
        }
      ],
      "name": "safeTransferFrom",
      "outputs": [],
      "stateMutability": "nonpayable",
      "type": "function"
    },
    {
      "inputs": [
        {
          "internalType": "address",
          "name": "operator",
          "type": "address"
        },
        {
          "internalType": "bool",
          "name": "approved",
          "type": "bool"
        }
      ],
      "name": "setApprovalForAll",
      "outputs": [],
      "stateMutability": "nonpayable",
      "type": "function"
    },
    {
      "inputs": [
        {
          "internalType": "bytes4",
          "name": "interfaceId",
          "type": "bytes4"
        }
      ],
      "name": "supportsInterface",
      "outputs": [
        {
          "internalType": "bool",
          "name": "",
          "type": "bool"
        }
      ],
      "stateMutability": "view",
      "type": "function"
    },
    {
      "inputs": [],
      "name": "symbol",
      "outputs": [
        {
          "internalType": "string",
          "name": "",
          "type": "string"
        }
      ],
      "stateMutability": "view",
      "type": "function"
    },
    {
      "inputs": [
        {
          "internalType": "uint256",
          "name": "tokenId",
          "type": "uint256"
        }
      ],
      "name": "tokenURI",
      "outputs": [
        {
          "internalType": "string",
          "name": "",
          "type": "string"
        }
      ],
      "stateMutability": "view",
      "type": "function"
    },
    {
      "inputs": [
        {
          "internalType": "address",
          "name": "from",
          "type": "address"
        },
        {
          "internalType": "address",
          "name": "to",
          "type": "address"
        },
        {
          "internalType": "uint256",
          "name": "tokenId",
          "type": "uint256"
        }
      ],
      "name": "transferFrom",
      "outputs": [],
      "stateMutability": "nonpayable",
      "type": "function"
    },
    {
      "inputs": [
        {
          "internalType": "address",
          "name": "recipient",
          "type": "address"
        },
        {
          "internalType": "string",
          "name": "uri",
          "type": "string"
        },
        {
          "internalType": "uint256",
          "name": "tokenId",
          "type": "uint256"
        }
      ],
      "name": "transferNft",
      "outputs": [],
      "stateMutability": "nonpayable",
      "type": "function"
    },
    {
      "inputs": [
        {
          "internalType": "address",
          "name": "newOwner",
          "type": "address"
        }
      ],
      "name": "transferOwnership",
      "outputs": [],
      "stateMutability": "nonpayable",
      "type": "function"
    }
  ],
  "bytecode": "0x60806040523480156200001157600080fd5b506040518060400160405280600c81526020017f4e667442726964676542534300000000000000000000000000000000000000008152506040518060400160405280600581526020017f4e424253430000000000000000000000000000000000000000000000000000008152506200009e62000092620000df60201b60201c565b620000e760201b60201c565b600180819055508160029080519060200190620000bd929190620001ab565b508060039080519060200190620000d6929190620001ab565b505050620002c0565b600033905090565b60008060009054906101000a900473ffffffffffffffffffffffffffffffffffffffff169050816000806101000a81548173ffffffffffffffffffffffffffffffffffffffff021916908373ffffffffffffffffffffffffffffffffffffffff1602179055508173ffffffffffffffffffffffffffffffffffffffff168173ffffffffffffffffffffffffffffffffffffffff167f8be0079c531659141344cd1fd0a4f28419497f9722a3daafe3b4186f6b6457e060405160405180910390a35050565b828054620001b9906200025b565b90600052602060002090601f016020900481019282620001dd576000855562000229565b82601f10620001f857805160ff191683800117855562000229565b8280016001018555821562000229579182015b82811115620002285782518255916020019190600101906200020b565b5b5090506200023891906200023c565b5090565b5b80821115620002575760008160009055506001016200023d565b5090565b600060028204905060018216806200027457607f821691505b602082108114156200028b576200028a62000291565b5b50919050565b7f4e487b7100000000000000000000000000000000000000000000000000000000600052602260045260246000fd5b61403980620002d06000396000f3fe608060405234801561001057600080fd5b50600436106101165760003560e01c8063715018a6116100a2578063ae12e73411610071578063ae12e734146102cb578063b88d4fde146102e7578063c87b56dd14610303578063e985e9c514610333578063f2fde38b1461036357610116565b8063715018a6146102695780638da5cb5b1461027357806395d89b4114610291578063a22cb465146102af57610116565b806323b872dd116100e957806323b872dd146101b55780633e6caa7b146101d157806342842e0e146101ed5780636352211e1461020957806370a082311461023957610116565b806301ffc9a71461011b57806306fdde031461014b578063081812fc14610169578063095ea7b314610199575b600080fd5b61013560048036038101906101309190612a6c565b61037f565b604051610142919061323b565b60405180910390f35b610153610461565b604051610160919061329b565b60405180910390f35b610183600480360381019061017e9190612bb8565b6104f3565b6040516101909190613105565b60405180910390f35b6101b360048036038101906101ae9190612a2c565b610539565b005b6101cf60048036038101906101ca91906128a7565b610651565b005b6101eb60048036038101906101e691906129bd565b6106b1565b005b610207600480360381019061020291906128a7565b6107cc565b005b610223600480360381019061021e9190612bb8565b6107ec565b6040516102309190613105565b60405180910390f35b610253600480360381019061024e919061280d565b610873565b60405161026091906135bd565b60405180910390f35b61027161092b565b005b61027b61093f565b6040516102889190613105565b60405180910390f35b610299610968565b6040516102a6919061329b565b60405180910390f35b6102c960048036038101906102c4919061297d565b6109fa565b005b6102e560048036038101906102e09190612ac6565b610a10565b005b61030160048036038101906102fc91906128fa565b610e1a565b005b61031d60048036038101906103189190612bb8565b610e7c565b60405161032a919061329b565b60405180910390f35b61034d60048036038101906103489190612867565b610e8e565b60405161035a919061323b565b60405180910390f35b61037d6004803603810190610378919061280d565b610f22565b005b60007f80ac58cd000000000000000000000000000000000000000000000000000000007bffffffffffffffffffffffffffffffffffffffffffffffffffffffff1916827bffffffffffffffffffffffffffffffffffffffffffffffffffffffff1916148061044a57507f5b5e139f000000000000000000000000000000000000000000000000000000007bffffffffffffffffffffffffffffffffffffffffffffffffffffffff1916827bffffffffffffffffffffffffffffffffffffffffffffffffffffffff1916145b8061045a575061045982610fa6565b5b9050919050565b6060600280546104709061384e565b80601f016020809104026020016040519081016040528092919081815260200182805461049c9061384e565b80156104e95780601f106104be576101008083540402835291602001916104e9565b820191906000526020600020905b8154815290600101906020018083116104cc57829003601f168201915b5050505050905090565b60006104fe82611010565b6006600083815260200190815260200160002060009054906101000a900473ffffffffffffffffffffffffffffffffffffffff169050919050565b6000610544826107ec565b90508073ffffffffffffffffffffffffffffffffffffffff168373ffffffffffffffffffffffffffffffffffffffff1614156105b5576040517f08c379a00000000000000000000000000000000000000000000000000000000081526004016105ac9061351d565b60405180910390fd5b8073ffffffffffffffffffffffffffffffffffffffff166105d461105b565b73ffffffffffffffffffffffffffffffffffffffff1614806106035750610602816105fd61105b565b610e8e565b5b610642576040517f08c379a00000000000000000000000000000000000000000000000000000000081526004016106399061353d565b60405180910390fd5b61064c8383611063565b505050565b61066261065c61105b565b8261111c565b6106a1576040517f08c379a0000000000000000000000000000000000000000000000000000000008152600401610698906132dd565b60405180910390fd5b6106ac8383836111b1565b505050565b6106b96114ab565b6106c1611529565b600073ffffffffffffffffffffffffffffffffffffffff168373ffffffffffffffffffffffffffffffffffffffff161415610731576040517f08c379a0000000000000000000000000000000000000000000000000000000008152600401610728906134dd565b60405180910390fd5b61073a81611579565b1561077a576040517f08c379a00000000000000000000000000000000000000000000000000000000081526004016107719061355d565b60405180910390fd5b807f3de8cbbb2b0c7e856c104db60ab7521788a58cb7210352d1dbf5f8a55b99fe0a84846040516107ac92919061320b565b60405180910390a26107bf8382846115ba565b6107c76115d3565b505050565b6107e783838360405180602001604052806000815250610e1a565b505050565b6000806107f8836115dc565b9050600073ffffffffffffffffffffffffffffffffffffffff168173ffffffffffffffffffffffffffffffffffffffff16141561086a576040517f08c379a0000000000000000000000000000000000000000000000000000000008152600401610861906134fd565b60405180910390fd5b80915050919050565b60008073ffffffffffffffffffffffffffffffffffffffff168273ffffffffffffffffffffffffffffffffffffffff1614156108e4576040517f08c379a00000000000000000000000000000000000000000000000000000000081526004016108db9061345d565b60405180910390fd5b600560008373ffffffffffffffffffffffffffffffffffffffff1673ffffffffffffffffffffffffffffffffffffffff168152602001908152602001600020549050919050565b6109336114ab565b61093d6000611619565b565b60008060009054906101000a900473ffffffffffffffffffffffffffffffffffffffff16905090565b6060600380546109779061384e565b80601f01602080910402602001604051908101604052809291908181526020018280546109a39061384e565b80156109f05780601f106109c5576101008083540402835291602001916109f0565b820191906000526020600020905b8154815290600101906020018083116109d357829003601f168201915b5050505050905090565b610a0c610a0561105b565b83836116dd565b5050565b610a18611529565b60016002811115610a2c57610a2b613919565b5b866002811115610a3f57610a3e613919565b5b148015610a71575060016002811115610a5b57610a5a613919565b5b856002811115610a6e57610a6d613919565b5b14155b610ab0576040517f08c379a0000000000000000000000000000000000000000000000000000000008152600401610aa79061341d565b60405180910390fd5b610ab861093f565b73ffffffffffffffffffffffffffffffffffffffff16610ad8838361184a565b73ffffffffffffffffffffffffffffffffffffffff1614610b2e576040517f08c379a0000000000000000000000000000000000000000000000000000000008152600401610b25906133bd565b60405180910390fd5b600981604051610b3e91906130a4565b908152602001604051809103902060009054906101000a900460ff1615610b9a576040517f08c379a0000000000000000000000000000000000000000000000000000000008152600401610b919061357d565b60405180910390fd5b60008390503373ffffffffffffffffffffffffffffffffffffffff168173ffffffffffffffffffffffffffffffffffffffff16636352211e876040518263ffffffff1660e01b8152600401610bef91906135bd565b60206040518083038186803b158015610c0757600080fd5b505afa158015610c1b573d6000803e3d6000fd5b505050506040513d601f19601f82011682018060405250810190610c3f919061283a565b73ffffffffffffffffffffffffffffffffffffffff1614610c95576040517f08c379a0000000000000000000000000000000000000000000000000000000008152600401610c8c9061335d565b60405180910390fd5b8373ffffffffffffffffffffffffffffffffffffffff166323b872dd3330886040518463ffffffff1660e01b8152600401610cd293929190613188565b600060405180830381600087803b158015610cec57600080fd5b505af1158015610d00573d6000803e3d6000fd5b505050507f1c919df7d32ab8953d2fd9b889c90de6092c971074e12c855410814e95fea51233308373ffffffffffffffffffffffffffffffffffffffff1663c87b56dd896040518263ffffffff1660e01b8152600401610d6091906135bd565b60006040518083038186803b158015610d7857600080fd5b505afa158015610d8c573d6000803e3d6000fd5b505050506040513d6000823e3d601f19601f82011682018060405250810190610db59190612b6f565b888b8b604051610dca96959493929190613120565b60405180910390a16001600983604051610de491906130a4565b908152602001604051809103902060006101000a81548160ff02191690831515021790555050610e126115d3565b505050505050565b610e2b610e2561105b565b8361111c565b610e6a576040517f08c379a0000000000000000000000000000000000000000000000000000000008152600401610e61906132dd565b60405180910390fd5b610e7684848484611889565b50505050565b6060610e87826118e5565b9050919050565b6000600760008473ffffffffffffffffffffffffffffffffffffffff1673ffffffffffffffffffffffffffffffffffffffff16815260200190815260200160002060008373ffffffffffffffffffffffffffffffffffffffff1673ffffffffffffffffffffffffffffffffffffffff16815260200190815260200160002060009054906101000a900460ff16905092915050565b610f2a6114ab565b600073ffffffffffffffffffffffffffffffffffffffff168173ffffffffffffffffffffffffffffffffffffffff161415610f9a576040517f08c379a0000000000000000000000000000000000000000000000000000000008152600401610f919061333d565b60405180910390fd5b610fa381611619565b50565b60007f01ffc9a7000000000000000000000000000000000000000000000000000000007bffffffffffffffffffffffffffffffffffffffffffffffffffffffff1916827bffffffffffffffffffffffffffffffffffffffffffffffffffffffff1916149050919050565b61101981611579565b611058576040517f08c379a000000000000000000000000000000000000000000000000000000000815260040161104f906134fd565b60405180910390fd5b50565b600033905090565b816006600083815260200190815260200160002060006101000a81548173ffffffffffffffffffffffffffffffffffffffff021916908373ffffffffffffffffffffffffffffffffffffffff160217905550808273ffffffffffffffffffffffffffffffffffffffff166110d6836107ec565b73ffffffffffffffffffffffffffffffffffffffff167f8c5be1e5ebec7d5bd14f71427d1e84f3dd0314c0f7b2291e5b200ac8c7c3b92560405160405180910390a45050565b600080611128836107ec565b90508073ffffffffffffffffffffffffffffffffffffffff168473ffffffffffffffffffffffffffffffffffffffff16148061116a57506111698185610e8e565b5b806111a857508373ffffffffffffffffffffffffffffffffffffffff16611190846104f3565b73ffffffffffffffffffffffffffffffffffffffff16145b91505092915050565b8273ffffffffffffffffffffffffffffffffffffffff166111d1826107ec565b73ffffffffffffffffffffffffffffffffffffffff1614611227576040517f08c379a000000000000000000000000000000000000000000000000000000000815260040161121e9061337d565b60405180910390fd5b600073ffffffffffffffffffffffffffffffffffffffff168273ffffffffffffffffffffffffffffffffffffffff161415611297576040517f08c379a000000000000000000000000000000000000000000000000000000000815260040161128e906133dd565b60405180910390fd5b6112a483838360016119f8565b8273ffffffffffffffffffffffffffffffffffffffff166112c4826107ec565b73ffffffffffffffffffffffffffffffffffffffff161461131a576040517f08c379a00000000000000000000000000000000000000000000000000000000081526004016113119061337d565b60405180910390fd5b6006600082815260200190815260200160002060006101000a81549073ffffffffffffffffffffffffffffffffffffffff02191690556001600560008573ffffffffffffffffffffffffffffffffffffffff1673ffffffffffffffffffffffffffffffffffffffff168152602001908152602001600020600082825403925050819055506001600560008473ffffffffffffffffffffffffffffffffffffffff1673ffffffffffffffffffffffffffffffffffffffff16815260200190815260200160002060008282540192505081905550816004600083815260200190815260200160002060006101000a81548173ffffffffffffffffffffffffffffffffffffffff021916908373ffffffffffffffffffffffffffffffffffffffff160217905550808273ffffffffffffffffffffffffffffffffffffffff168473ffffffffffffffffffffffffffffffffffffffff167fddf252ad1be2c89b69c2b068fc378daa952ba7f163c4a11628f55a4df523b3ef60405160405180910390a46114a68383836001611b1e565b505050565b6114b361105b565b73ffffffffffffffffffffffffffffffffffffffff166114d161093f565b73ffffffffffffffffffffffffffffffffffffffff1614611527576040517f08c379a000000000000000000000000000000000000000000000000000000000815260040161151e906134bd565b60405180910390fd5b565b6002600154141561156f576040517f08c379a00000000000000000000000000000000000000000000000000000000081526004016115669061359d565b60405180910390fd5b6002600181905550565b60008073ffffffffffffffffffffffffffffffffffffffff1661159b836115dc565b73ffffffffffffffffffffffffffffffffffffffff1614159050919050565b6115c48383611b24565b6115ce8282611b42565b505050565b60018081905550565b60006004600083815260200190815260200160002060009054906101000a900473ffffffffffffffffffffffffffffffffffffffff169050919050565b60008060009054906101000a900473ffffffffffffffffffffffffffffffffffffffff169050816000806101000a81548173ffffffffffffffffffffffffffffffffffffffff021916908373ffffffffffffffffffffffffffffffffffffffff1602179055508173ffffffffffffffffffffffffffffffffffffffff168173ffffffffffffffffffffffffffffffffffffffff167f8be0079c531659141344cd1fd0a4f28419497f9722a3daafe3b4186f6b6457e060405160405180910390a35050565b8173ffffffffffffffffffffffffffffffffffffffff168373ffffffffffffffffffffffffffffffffffffffff16141561174c576040517f08c379a0000000000000000000000000000000000000000000000000000000008152600401611743906133fd565b60405180910390fd5b80600760008573ffffffffffffffffffffffffffffffffffffffff1673ffffffffffffffffffffffffffffffffffffffff16815260200190815260200160002060008473ffffffffffffffffffffffffffffffffffffffff1673ffffffffffffffffffffffffffffffffffffffff16815260200190815260200160002060006101000a81548160ff0219169083151502179055508173ffffffffffffffffffffffffffffffffffffffff168373ffffffffffffffffffffffffffffffffffffffff167f17307eab39ab6107e8899845ad3d59bd9653f200f220920489ca2b5937696c318360405161183d919061323b565b60405180910390a3505050565b6000808360405160200161185e91906130df565b6040516020818303038152906040528051906020012090506118808184611bb6565b91505092915050565b6118948484846111b1565b6118a084848484611bdd565b6118df576040517f08c379a00000000000000000000000000000000000000000000000000000000081526004016118d69061331d565b60405180910390fd5b50505050565b60606118f082611010565b60006008600084815260200190815260200160002080546119109061384e565b80601f016020809104026020016040519081016040528092919081815260200182805461193c9061384e565b80156119895780601f1061195e57610100808354040283529160200191611989565b820191906000526020600020905b81548152906001019060200180831161196c57829003601f168201915b50505050509050600061199a611d74565b90506000815114156119b05781925050506119f3565b6000825111156119e55780826040516020016119cd9291906130bb565b604051602081830303815290604052925050506119f3565b6119ee84611d8b565b925050505b919050565b6001811115611b1857600073ffffffffffffffffffffffffffffffffffffffff168473ffffffffffffffffffffffffffffffffffffffff1614611a8c5780600560008673ffffffffffffffffffffffffffffffffffffffff1673ffffffffffffffffffffffffffffffffffffffff1681526020019081526020016000206000828254611a849190613703565b925050819055505b600073ffffffffffffffffffffffffffffffffffffffff168373ffffffffffffffffffffffffffffffffffffffff1614611b175780600560008573ffffffffffffffffffffffffffffffffffffffff1673ffffffffffffffffffffffffffffffffffffffff1681526020019081526020016000206000828254611b0f91906136ad565b925050819055505b5b50505050565b50505050565b611b3e828260405180602001604052806000815250611df3565b5050565b611b4b82611579565b611b8a576040517f08c379a0000000000000000000000000000000000000000000000000000000008152600401611b819061347d565b60405180910390fd5b80600860008481526020019081526020016000209080519060200190611bb192919061255d565b505050565b6000806000611bc58585611e4e565b91509150611bd281611ea0565b819250505092915050565b6000611bfe8473ffffffffffffffffffffffffffffffffffffffff1661200e565b15611d67578373ffffffffffffffffffffffffffffffffffffffff1663150b7a02611c2761105b565b8786866040518563ffffffff1660e01b8152600401611c4994939291906131bf565b602060405180830381600087803b158015611c6357600080fd5b505af1925050508015611c9457506040513d601f19601f82011682018060405250810190611c919190612a99565b60015b611d17573d8060008114611cc4576040519150601f19603f3d011682016040523d82523d6000602084013e611cc9565b606091505b50600081511415611d0f576040517f08c379a0000000000000000000000000000000000000000000000000000000008152600401611d069061331d565b60405180910390fd5b805181602001fd5b63150b7a0260e01b7bffffffffffffffffffffffffffffffffffffffffffffffffffffffff1916817bffffffffffffffffffffffffffffffffffffffffffffffffffffffff191614915050611d6c565b600190505b949350505050565b606060405180602001604052806000815250905090565b6060611d9682611010565b6000611da0611d74565b90506000815111611dc05760405180602001604052806000815250611deb565b80611dca84612031565b604051602001611ddb9291906130bb565b6040516020818303038152906040525b915050919050565b611dfd8383612109565b611e0a6000848484611bdd565b611e49576040517f08c379a0000000000000000000000000000000000000000000000000000000008152600401611e409061331d565b60405180910390fd5b505050565b600080604183511415611e905760008060006020860151925060408601519150606086015160001a9050611e8487828585612327565b94509450505050611e99565b60006002915091505b9250929050565b60006004811115611eb457611eb3613919565b5b816004811115611ec757611ec6613919565b5b1415611ed25761200b565b60016004811115611ee657611ee5613919565b5b816004811115611ef957611ef8613919565b5b1415611f3a576040517f08c379a0000000000000000000000000000000000000000000000000000000008152600401611f31906132bd565b60405180910390fd5b60026004811115611f4e57611f4d613919565b5b816004811115611f6157611f60613919565b5b1415611fa2576040517f08c379a0000000000000000000000000000000000000000000000000000000008152600401611f99906132fd565b60405180910390fd5b60036004811115611fb657611fb5613919565b5b816004811115611fc957611fc8613919565b5b141561200a576040517f08c379a00000000000000000000000000000000000000000000000000000000081526004016120019061343d565b60405180910390fd5b5b50565b6000808273ffffffffffffffffffffffffffffffffffffffff163b119050919050565b6060600060016120408461240a565b01905060008167ffffffffffffffff81111561205f5761205e613977565b5b6040519080825280601f01601f1916602001820160405280156120915781602001600182028036833780820191505090505b509050600082602001820190505b6001156120fe578080600190039150507f3031323334353637383961626364656600000000000000000000000000000000600a86061a8153600a85816120e8576120e76138ea565b5b04945060008514156120f9576120fe565b61209f565b819350505050919050565b600073ffffffffffffffffffffffffffffffffffffffff168273ffffffffffffffffffffffffffffffffffffffff161415612179576040517f08c379a00000000000000000000000000000000000000000000000000000000081526004016121709061349d565b60405180910390fd5b61218281611579565b156121c2576040517f08c379a00000000000000000000000000000000000000000000000000000000081526004016121b99061339d565b60405180910390fd5b6121d06000838360016119f8565b6121d981611579565b15612219576040517f08c379a00000000000000000000000000000000000000000000000000000000081526004016122109061339d565b60405180910390fd5b6001600560008473ffffffffffffffffffffffffffffffffffffffff1673ffffffffffffffffffffffffffffffffffffffff16815260200190815260200160002060008282540192505081905550816004600083815260200190815260200160002060006101000a81548173ffffffffffffffffffffffffffffffffffffffff021916908373ffffffffffffffffffffffffffffffffffffffff160217905550808273ffffffffffffffffffffffffffffffffffffffff16600073ffffffffffffffffffffffffffffffffffffffff167fddf252ad1be2c89b69c2b068fc378daa952ba7f163c4a11628f55a4df523b3ef60405160405180910390a4612323600083836001611b1e565b5050565b6000807f7fffffffffffffffffffffffffffffff5d576e7357a4501ddfe92f46681b20a08360001c1115612362576000600391509150612401565b6000600187878787604051600081526020016040526040516123879493929190613256565b6020604051602081039080840390855afa1580156123a9573d6000803e3d6000fd5b505050602060405103519050600073ffffffffffffffffffffffffffffffffffffffff168173ffffffffffffffffffffffffffffffffffffffff1614156123f857600060019250925050612401565b80600092509250505b94509492505050565b600080600090507a184f03e93ff9f4daa797ed6e38ed64bf6a1f0100000000000000008310612468577a184f03e93ff9f4daa797ed6e38ed64bf6a1f010000000000000000838161245e5761245d6138ea565b5b0492506040810190505b6d04ee2d6d415b85acef810000000083106124a5576d04ee2d6d415b85acef8100000000838161249b5761249a6138ea565b5b0492506020810190505b662386f26fc1000083106124d457662386f26fc1000083816124ca576124c96138ea565b5b0492506010810190505b6305f5e10083106124fd576305f5e10083816124f3576124f26138ea565b5b0492506008810190505b6127108310612522576127108381612518576125176138ea565b5b0492506004810190505b60648310612545576064838161253b5761253a6138ea565b5b0492506002810190505b600a8310612554576001810190505b80915050919050565b8280546125699061384e565b90600052602060002090601f01602090048101928261258b57600085556125d2565b82601f106125a457805160ff19168380011785556125d2565b828001600101855582156125d2579182015b828111156125d15782518255916020019190600101906125b6565b5b5090506125df91906125e3565b5090565b5b808211156125fc5760008160009055506001016125e4565b5090565b600061261361260e846135fd565b6135d8565b90508281526020810184848401111561262f5761262e6139ab565b5b61263a84828561380c565b509392505050565b60006126556126508461362e565b6135d8565b905082815260208101848484011115612671576126706139ab565b5b61267c84828561380c565b509392505050565b60006126976126928461362e565b6135d8565b9050828152602081018484840111156126b3576126b26139ab565b5b6126be84828561381b565b509392505050565b6000813590506126d581613f70565b92915050565b6000815190506126ea81613f70565b92915050565b6000813590506126ff81613f87565b92915050565b60008135905061271481613f9e565b92915050565b60008135905061272981613fb5565b92915050565b60008151905061273e81613fb5565b92915050565b600082601f830112612759576127586139a6565b5b8135612769848260208601612600565b91505092915050565b60008135905061278181613fcc565b92915050565b60008135905061279681613fdc565b92915050565b600082601f8301126127b1576127b06139a6565b5b81356127c1848260208601612642565b91505092915050565b600082601f8301126127df576127de6139a6565b5b81516127ef848260208601612684565b91505092915050565b60008135905061280781613fec565b92915050565b600060208284031215612823576128226139b5565b5b6000612831848285016126c6565b91505092915050565b6000602082840312156128505761284f6139b5565b5b600061285e848285016126db565b91505092915050565b6000806040838503121561287e5761287d6139b5565b5b600061288c858286016126c6565b925050602061289d858286016126c6565b9150509250929050565b6000806000606084860312156128c0576128bf6139b5565b5b60006128ce868287016126c6565b93505060206128df868287016126c6565b92505060406128f0868287016127f8565b9150509250925092565b60008060008060808587031215612914576129136139b5565b5b6000612922878288016126c6565b9450506020612933878288016126c6565b9350506040612944878288016127f8565b925050606085013567ffffffffffffffff811115612965576129646139b0565b5b61297187828801612744565b91505092959194509250565b60008060408385031215612994576129936139b5565b5b60006129a2858286016126c6565b92505060206129b3858286016126f0565b9150509250929050565b6000806000606084860312156129d6576129d56139b5565b5b60006129e4868287016126c6565b935050602084013567ffffffffffffffff811115612a0557612a046139b0565b5b612a118682870161279c565b9250506040612a22868287016127f8565b9150509250925092565b60008060408385031215612a4357612a426139b5565b5b6000612a51858286016126c6565b9250506020612a62858286016127f8565b9150509250929050565b600060208284031215612a8257612a816139b5565b5b6000612a908482850161271a565b91505092915050565b600060208284031215612aaf57612aae6139b5565b5b6000612abd8482850161272f565b91505092915050565b60008060008060008060c08789031215612ae357612ae26139b5565b5b6000612af189828a01612787565b9650506020612b0289828a01612772565b9550506040612b1389828a016127f8565b9450506060612b2489828a016126c6565b9350506080612b3589828a01612705565b92505060a087013567ffffffffffffffff811115612b5657612b556139b0565b5b612b6289828a01612744565b9150509295509295509295565b600060208284031215612b8557612b846139b5565b5b600082015167ffffffffffffffff811115612ba357612ba26139b0565b5b612baf848285016127ca565b91505092915050565b600060208284031215612bce57612bcd6139b5565b5b6000612bdc848285016127f8565b91505092915050565b612bee81613737565b82525050565b612bfd81613749565b82525050565b612c0c81613755565b82525050565b612c23612c1e82613755565b6138b1565b82525050565b6000612c348261365f565b612c3e8185613675565b9350612c4e81856020860161381b565b612c57816139ba565b840191505092915050565b6000612c6d8261365f565b612c778185613686565b9350612c8781856020860161381b565b80840191505092915050565b612c9c816137e8565b82525050565b612cab816137fa565b82525050565b6000612cbc8261366a565b612cc68185613691565b9350612cd681856020860161381b565b612cdf816139ba565b840191505092915050565b6000612cf58261366a565b612cff81856136a2565b9350612d0f81856020860161381b565b80840191505092915050565b6000612d28601883613691565b9150612d33826139cb565b602082019050919050565b6000612d4b602d83613691565b9150612d56826139f4565b604082019050919050565b6000612d6e601f83613691565b9150612d7982613a43565b602082019050919050565b6000612d91601c836136a2565b9150612d9c82613a6c565b601c82019050919050565b6000612db4603283613691565b9150612dbf82613a95565b604082019050919050565b6000612dd7602683613691565b9150612de282613ae4565b604082019050919050565b6000612dfa601f83613691565b9150612e0582613b33565b602082019050919050565b6000612e1d602583613691565b9150612e2882613b5c565b604082019050919050565b6000612e40601c83613691565b9150612e4b82613bab565b602082019050919050565b6000612e63601983613691565b9150612e6e82613bd4565b602082019050919050565b6000612e86602483613691565b9150612e9182613bfd565b604082019050919050565b6000612ea9601983613691565b9150612eb482613c4c565b602082019050919050565b6000612ecc600d83613691565b9150612ed782613c75565b602082019050919050565b6000612eef602283613691565b9150612efa82613c9e565b604082019050919050565b6000612f12602983613691565b9150612f1d82613ced565b604082019050919050565b6000612f35602e83613691565b9150612f4082613d3c565b604082019050919050565b6000612f58602083613691565b9150612f6382613d8b565b602082019050919050565b6000612f7b602083613691565b9150612f8682613db4565b602082019050919050565b6000612f9e601383613691565b9150612fa982613ddd565b602082019050919050565b6000612fc1601883613691565b9150612fcc82613e06565b602082019050919050565b6000612fe4602183613691565b9150612fef82613e2f565b604082019050919050565b6000613007603d83613691565b915061301282613e7e565b604082019050919050565b600061302a601283613691565b915061303582613ecd565b602082019050919050565b600061304d601683613691565b915061305882613ef6565b602082019050919050565b6000613070601f83613691565b915061307b82613f1f565b602082019050919050565b61308f816137d1565b82525050565b61309e816137db565b82525050565b60006130b08284612c62565b915081905092915050565b60006130c78285612cea565b91506130d38284612cea565b91508190509392505050565b60006130ea82612d84565b91506130f68284612c12565b60208201915081905092915050565b600060208201905061311a6000830184612be5565b92915050565b600060c0820190506131356000830189612be5565b6131426020830188612be5565b81810360408301526131548187612cb1565b90506131636060830186613086565b6131706080830185612ca2565b61317d60a0830184612c93565b979650505050505050565b600060608201905061319d6000830186612be5565b6131aa6020830185612be5565b6131b76040830184613086565b949350505050565b60006080820190506131d46000830187612be5565b6131e16020830186612be5565b6131ee6040830185613086565b81810360608301526132008184612c29565b905095945050505050565b60006040820190506132206000830185612be5565b81810360208301526132328184612cb1565b90509392505050565b60006020820190506132506000830184612bf4565b92915050565b600060808201905061326b6000830187612c03565b6132786020830186613095565b6132856040830185612c03565b6132926060830184612c03565b95945050505050565b600060208201905081810360008301526132b58184612cb1565b905092915050565b600060208201905081810360008301526132d681612d1b565b9050919050565b600060208201905081810360008301526132f681612d3e565b9050919050565b6000602082019050818103600083015261331681612d61565b9050919050565b6000602082019050818103600083015261333681612da7565b9050919050565b6000602082019050818103600083015261335681612dca565b9050919050565b6000602082019050818103600083015261337681612ded565b9050919050565b6000602082019050818103600083015261339681612e10565b9050919050565b600060208201905081810360008301526133b681612e33565b9050919050565b600060208201905081810360008301526133d681612e56565b9050919050565b600060208201905081810360008301526133f681612e79565b9050919050565b6000602082019050818103600083015261341681612e9c565b9050919050565b6000602082019050818103600083015261343681612ebf565b9050919050565b6000602082019050818103600083015261345681612ee2565b9050919050565b6000602082019050818103600083015261347681612f05565b9050919050565b6000602082019050818103600083015261349681612f28565b9050919050565b600060208201905081810360008301526134b681612f4b565b9050919050565b600060208201905081810360008301526134d681612f6e565b9050919050565b600060208201905081810360008301526134f681612f91565b9050919050565b6000602082019050818103600083015261351681612fb4565b9050919050565b6000602082019050818103600083015261353681612fd7565b9050919050565b6000602082019050818103600083015261355681612ffa565b9050919050565b600060208201905081810360008301526135768161301d565b9050919050565b6000602082019050818103600083015261359681613040565b9050919050565b600060208201905081810360008301526135b681613063565b9050919050565b60006020820190506135d26000830184613086565b92915050565b60006135e26135f3565b90506135ee8282613880565b919050565b6000604051905090565b600067ffffffffffffffff82111561361857613617613977565b5b613621826139ba565b9050602081019050919050565b600067ffffffffffffffff82111561364957613648613977565b5b613652826139ba565b9050602081019050919050565b600081519050919050565b600081519050919050565b600082825260208201905092915050565b600081905092915050565b600082825260208201905092915050565b600081905092915050565b60006136b8826137d1565b91506136c3836137d1565b9250827fffffffffffffffffffffffffffffffffffffffffffffffffffffffffffffffff038211156136f8576136f76138bb565b5b828201905092915050565b600061370e826137d1565b9150613719836137d1565b92508282101561372c5761372b6138bb565b5b828203905092915050565b6000613742826137b1565b9050919050565b60008115159050919050565b6000819050919050565b60007fffffffff0000000000000000000000000000000000000000000000000000000082169050919050565b600081905061379982613f48565b919050565b60008190506137ac82613f5c565b919050565b600073ffffffffffffffffffffffffffffffffffffffff82169050919050565b6000819050919050565b600060ff82169050919050565b60006137f38261378b565b9050919050565b60006138058261379e565b9050919050565b82818337600083830152505050565b60005b8381101561383957808201518184015260208101905061381e565b83811115613848576000848401525b50505050565b6000600282049050600182168061386657607f821691505b6020821081141561387a57613879613948565b5b50919050565b613889826139ba565b810181811067ffffffffffffffff821117156138a8576138a7613977565b5b80604052505050565b6000819050919050565b7f4e487b7100000000000000000000000000000000000000000000000000000000600052601160045260246000fd5b7f4e487b7100000000000000000000000000000000000000000000000000000000600052601260045260246000fd5b7f4e487b7100000000000000000000000000000000000000000000000000000000600052602160045260246000fd5b7f4e487b7100000000000000000000000000000000000000000000000000000000600052602260045260246000fd5b7f4e487b7100000000000000000000000000000000000000000000000000000000600052604160045260246000fd5b600080fd5b600080fd5b600080fd5b600080fd5b6000601f19601f8301169050919050565b7f45434453413a20696e76616c6964207369676e61747572650000000000000000600082015250565b7f4552433732313a2063616c6c6572206973206e6f7420746f6b656e206f776e6560008201527f72206f7220617070726f76656400000000000000000000000000000000000000602082015250565b7f45434453413a20696e76616c6964207369676e6174757265206c656e67746800600082015250565b7f19457468657265756d205369676e6564204d6573736167653a0a333200000000600082015250565b7f4552433732313a207472616e7366657220746f206e6f6e20455243373231526560008201527f63656976657220696d706c656d656e7465720000000000000000000000000000602082015250565b7f4f776e61626c653a206e6577206f776e657220697320746865207a65726f206160008201527f6464726573730000000000000000000000000000000000000000000000000000602082015250565b7f4f6e6c7920746865206f776e65722063616e206c6f636b20746865204e465400600082015250565b7f4552433732313a207472616e736665722066726f6d20696e636f72726563742060008201527f6f776e6572000000000000000000000000000000000000000000000000000000602082015250565b7f4552433732313a20746f6b656e20616c7265616479206d696e74656400000000600082015250565b7f41646472657373206973206e6f7420617574686f72697a656400000000000000600082015250565b7f4552433732313a207472616e7366657220746f20746865207a65726f2061646460008201527f7265737300000000000000000000000000000000000000000000000000000000602082015250565b7f4552433732313a20617070726f766520746f2063616c6c657200000000000000600082015250565b7f496e76616c696420636861696e00000000000000000000000000000000000000600082015250565b7f45434453413a20696e76616c6964207369676e6174757265202773272076616c60008201527f7565000000000000000000000000000000000000000000000000000000000000602082015250565b7f4552433732313a2061646472657373207a65726f206973206e6f74206120766160008201527f6c6964206f776e65720000000000000000000000000000000000000000000000602082015250565b7f45524337323155524953746f726167653a2055524920736574206f66206e6f6e60008201527f6578697374656e7420746f6b656e000000000000000000000000000000000000602082015250565b7f4552433732313a206d696e7420746f20746865207a65726f2061646472657373600082015250565b7f4f776e61626c653a2063616c6c6572206973206e6f7420746865206f776e6572600082015250565b7f416464726573732063616e6e6f74206265203000000000000000000000000000600082015250565b7f4552433732313a20696e76616c696420746f6b656e2049440000000000000000600082015250565b7f4552433732313a20617070726f76616c20746f2063757272656e74206f776e6560008201527f7200000000000000000000000000000000000000000000000000000000000000602082015250565b7f4552433732313a20617070726f76652063616c6c6572206973206e6f7420746f60008201527f6b656e206f776e6572206f7220617070726f76656420666f7220616c6c000000602082015250565b7f4e667420616c7265616479206578697374730000000000000000000000000000600082015250565b7f416c7265616479207369676e6174757265207573656400000000000000000000600082015250565b7f5265656e7472616e637947756172643a207265656e7472616e742063616c6c00600082015250565b60038110613f5957613f58613919565b5b50565b60038110613f6d57613f6c613919565b5b50565b613f7981613737565b8114613f8457600080fd5b50565b613f9081613749565b8114613f9b57600080fd5b50565b613fa781613755565b8114613fb257600080fd5b50565b613fbe8161375f565b8114613fc957600080fd5b50565b60038110613fd957600080fd5b50565b60038110613fe957600080fd5b50565b613ff5816137d1565b811461400057600080fd5b5056fea264697066735822122086e2e516878792f9bae5551d53d560b1f6ea1787585863c6924017dd99ed5e7464736f6c63430008070033",
  "linkReferences": {},
  "deployedLinkReferences": {}
}