{
  "_format": "hh-sol-artifact-1",
  "contractName": "NftBridgeBsc",
  "sourceName": "contracts/NftBridgeBsc.sol",
  "abi": [
    {
      "inputs": [],
      "stateMutability": "nonpayable",
      "type": "constructor"
    },
    {
      "anonymous": false,
      "inputs": [
        {
          "indexed": true,
          "internalType": "address",
          "name": "owner",
          "type": "address"
        },
        {
          "indexed": true,
          "internalType": "address",
          "name": "approved",
          "type": "address"
        },
        {
          "indexed": true,
          "internalType": "uint256",
          "name": "tokenId",
          "type": "uint256"
        }
      ],
      "name": "Approval",
      "type": "event"
    },
    {
      "anonymous": false,
      "inputs": [
        {
          "indexed": true,
          "internalType": "address",
          "name": "owner",
          "type": "address"
        },
        {
          "indexed": true,
          "internalType": "address",
          "name": "operator",
          "type": "address"
        },
        {
          "indexed": false,
          "internalType": "bool",
          "name": "approved",
          "type": "bool"
        }
      ],
      "name": "ApprovalForAll",
      "type": "event"
    },
    {
      "anonymous": false,
      "inputs": [
        {
          "indexed": false,
          "internalType": "address",
          "name": "_from",
          "type": "address"
        },
        {
          "indexed": false,
          "internalType": "address",
          "name": "_to",
          "type": "address"
        },
        {
          "indexed": false,
          "internalType": "string",
          "name": "_uri",
          "type": "string"
        },
        {
          "indexed": false,
          "internalType": "uint256",
          "name": "_tokenId",
          "type": "uint256"
        },
        {
          "indexed": false,
          "internalType": "enum NftBridgeBsc.SourceChain",
          "name": "_sourceChain",
          "type": "uint8"
        },
        {
          "indexed": false,
          "internalType": "enum NftBridgeBsc.DestinationChain",
          "name": "_destinationChain",
          "type": "uint8"
        }
      ],
      "name": "LockedNft",
      "type": "event"
    },
    {
      "anonymous": false,
      "inputs": [
        {
          "indexed": false,
          "internalType": "address",
          "name": "_to",
          "type": "address"
        },
        {
          "indexed": false,
          "internalType": "string",
          "name": "_uri",
          "type": "string"
        }
      ],
      "name": "NftTransferedToDestinationChain",
      "type": "event"
    },
    {
      "anonymous": false,
      "inputs": [
        {
          "indexed": true,
          "internalType": "address",
          "name": "previousOwner",
          "type": "address"
        },
        {
          "indexed": true,
          "internalType": "address",
          "name": "newOwner",
          "type": "address"
        }
      ],
      "name": "OwnershipTransferred",
      "type": "event"
    },
    {
      "anonymous": false,
      "inputs": [
        {
          "indexed": true,
          "internalType": "address",
          "name": "from",
          "type": "address"
        },
        {
          "indexed": true,
          "internalType": "address",
          "name": "to",
          "type": "address"
        },
        {
          "indexed": true,
          "internalType": "uint256",
          "name": "tokenId",
          "type": "uint256"
        }
      ],
      "name": "Transfer",
      "type": "event"
    },
    {
      "inputs": [
        {
          "internalType": "address",
          "name": "to",
          "type": "address"
        },
        {
          "internalType": "uint256",
          "name": "tokenId",
          "type": "uint256"
        }
      ],
      "name": "approve",
      "outputs": [],
      "stateMutability": "nonpayable",
      "type": "function"
    },
    {
      "inputs": [
        {
          "internalType": "address",
          "name": "owner",
          "type": "address"
        }
      ],
      "name": "balanceOf",
      "outputs": [
        {
          "internalType": "uint256",
          "name": "",
          "type": "uint256"
        }
      ],
      "stateMutability": "view",
      "type": "function"
    },
    {
      "inputs": [
        {
          "internalType": "uint256",
          "name": "tokenId",
          "type": "uint256"
        }
      ],
      "name": "getApproved",
      "outputs": [
        {
          "internalType": "address",
          "name": "",
          "type": "address"
        }
      ],
      "stateMutability": "view",
      "type": "function"
    },
    {
      "inputs": [
        {
          "internalType": "address",
          "name": "owner",
          "type": "address"
        },
        {
          "internalType": "address",
          "name": "operator",
          "type": "address"
        }
      ],
      "name": "isApprovedForAll",
      "outputs": [
        {
          "internalType": "bool",
          "name": "",
          "type": "bool"
        }
      ],
      "stateMutability": "view",
      "type": "function"
    },
    {
      "inputs": [
        {
          "internalType": "enum NftBridgeBsc.SourceChain",
          "name": "sourceChain",
          "type": "uint8"
        },
        {
          "internalType": "enum NftBridgeBsc.DestinationChain",
          "name": "destinationChain",
          "type": "uint8"
        },
        {
          "internalType": "uint256",
          "name": "tokenId",
          "type": "uint256"
        },
        {
          "internalType": "address",
          "name": "tokenAddress",
          "type": "address"
        },
        {
          "internalType": "bytes32",
          "name": "hash",
          "type": "bytes32"
        },
        {
          "internalType": "bytes",
          "name": "signature",
          "type": "bytes"
        }
      ],
      "name": "lockNft",
      "outputs": [],
      "stateMutability": "nonpayable",
      "type": "function"
    },
    {
      "inputs": [],
      "name": "name",
      "outputs": [
        {
          "internalType": "string",
          "name": "",
          "type": "string"
        }
      ],
      "stateMutability": "view",
      "type": "function"
    },
    {
      "inputs": [],
      "name": "owner",
      "outputs": [
        {
          "internalType": "address",
          "name": "",
          "type": "address"
        }
      ],
      "stateMutability": "view",
      "type": "function"
    },
    {
      "inputs": [
        {
          "internalType": "uint256",
          "name": "tokenId",
          "type": "uint256"
        }
      ],
      "name": "ownerOf",
      "outputs": [
        {
          "internalType": "address",
          "name": "",
          "type": "address"
        }
      ],
      "stateMutability": "view",
      "type": "function"
    },
    {
      "inputs": [],
      "name": "renounceOwnership",
      "outputs": [],
      "stateMutability": "nonpayable",
      "type": "function"
    },
    {
      "inputs": [
        {
          "internalType": "address",
          "name": "from",
          "type": "address"
        },
        {
          "internalType": "address",
          "name": "to",
          "type": "address"
        },
        {
          "internalType": "uint256",
          "name": "tokenId",
          "type": "uint256"
        }
      ],
      "name": "safeTransferFrom",
      "outputs": [],
      "stateMutability": "nonpayable",
      "type": "function"
    },
    {
      "inputs": [
        {
          "internalType": "address",
          "name": "from",
          "type": "address"
        },
        {
          "internalType": "address",
          "name": "to",
          "type": "address"
        },
        {
          "internalType": "uint256",
          "name": "tokenId",
          "type": "uint256"
        },
        {
          "internalType": "bytes",
          "name": "data",
          "type": "bytes"
        }
      ],
      "name": "safeTransferFrom",
      "outputs": [],
      "stateMutability": "nonpayable",
      "type": "function"
    },
    {
      "inputs": [
        {
          "internalType": "address",
          "name": "operator",
          "type": "address"
        },
        {
          "internalType": "bool",
          "name": "approved",
          "type": "bool"
        }
      ],
      "name": "setApprovalForAll",
      "outputs": [],
      "stateMutability": "nonpayable",
      "type": "function"
    },
    {
      "inputs": [
        {
          "internalType": "bytes4",
          "name": "interfaceId",
          "type": "bytes4"
        }
      ],
      "name": "supportsInterface",
      "outputs": [
        {
          "internalType": "bool",
          "name": "",
          "type": "bool"
        }
      ],
      "stateMutability": "view",
      "type": "function"
    },
    {
      "inputs": [],
      "name": "symbol",
      "outputs": [
        {
          "internalType": "string",
          "name": "",
          "type": "string"
        }
      ],
      "stateMutability": "view",
      "type": "function"
    },
    {
      "inputs": [
        {
          "internalType": "uint256",
          "name": "tokenId",
          "type": "uint256"
        }
      ],
      "name": "tokenURI",
      "outputs": [
        {
          "internalType": "string",
          "name": "",
          "type": "string"
        }
      ],
      "stateMutability": "view",
      "type": "function"
    },
    {
      "inputs": [
        {
          "internalType": "address",
          "name": "from",
          "type": "address"
        },
        {
          "internalType": "address",
          "name": "to",
          "type": "address"
        },
        {
          "internalType": "uint256",
          "name": "tokenId",
          "type": "uint256"
        }
      ],
      "name": "transferFrom",
      "outputs": [],
      "stateMutability": "nonpayable",
      "type": "function"
    },
    {
      "inputs": [
        {
          "internalType": "address",
          "name": "recipient",
          "type": "address"
        },
        {
          "internalType": "string",
          "name": "uri",
          "type": "string"
        }
      ],
      "name": "transferNft",
      "outputs": [],
      "stateMutability": "nonpayable",
      "type": "function"
    },
    {
      "inputs": [
        {
          "internalType": "address",
          "name": "newOwner",
          "type": "address"
        }
      ],
      "name": "transferOwnership",
      "outputs": [],
      "stateMutability": "nonpayable",
      "type": "function"
    }
  ],
  "bytecode": "0x60806040523480156200001157600080fd5b506040518060400160405280600c81526020017f4e667442726964676542736300000000000000000000000000000000000000008152506040518060400160405280600581526020017f4e424253430000000000000000000000000000000000000000000000000000008152506200009e62000092620000df60201b60201c565b620000e760201b60201c565b600180819055508160029080519060200190620000bd929190620001ab565b508060039080519060200190620000d6929190620001ab565b505050620002c0565b600033905090565b60008060009054906101000a900473ffffffffffffffffffffffffffffffffffffffff169050816000806101000a81548173ffffffffffffffffffffffffffffffffffffffff021916908373ffffffffffffffffffffffffffffffffffffffff1602179055508173ffffffffffffffffffffffffffffffffffffffff168173ffffffffffffffffffffffffffffffffffffffff167f8be0079c531659141344cd1fd0a4f28419497f9722a3daafe3b4186f6b6457e060405160405180910390a35050565b828054620001b9906200025b565b90600052602060002090601f016020900481019282620001dd576000855562000229565b82601f10620001f857805160ff191683800117855562000229565b8280016001018555821562000229579182015b82811115620002285782518255916020019190600101906200020b565b5b5090506200023891906200023c565b5090565b5b80821115620002575760008160009055506001016200023d565b5090565b600060028204905060018216806200027457607f821691505b602082108114156200028b576200028a62000291565b5b50919050565b7f4e487b7100000000000000000000000000000000000000000000000000000000600052602260045260246000fd5b613fb280620002d06000396000f3fe608060405234801561001057600080fd5b50600436106101165760003560e01c8063715018a6116100a2578063ae12e73411610071578063ae12e734146102cb578063b88d4fde146102e7578063c87b56dd14610303578063e985e9c514610333578063f2fde38b1461036357610116565b8063715018a6146102695780638da5cb5b1461027357806395d89b4114610291578063a22cb465146102af57610116565b80630fe74b25116100e95780630fe74b25146101b557806323b872dd146101d157806342842e0e146101ed5780636352211e1461020957806370a082311461023957610116565b806301ffc9a71461011b57806306fdde031461014b578063081812fc14610169578063095ea7b314610199575b600080fd5b61013560048036038101906101309190612a51565b61037f565b60405161014291906131fd565b60405180910390f35b610153610461565b604051610160919061325d565b60405180910390f35b610183600480360381019061017e9190612b9d565b6104f3565b60405161019091906130c7565b60405180910390f35b6101b360048036038101906101ae9190612a11565b610539565b005b6101cf60048036038101906101ca91906129b5565b610651565b005b6101eb60048036038101906101e6919061289f565b610720565b005b6102076004803603810190610202919061289f565b610780565b005b610223600480360381019061021e9190612b9d565b6107a0565b60405161023091906130c7565b60405180910390f35b610253600480360381019061024e9190612805565b610827565b604051610260919061355f565b60405180910390f35b6102716108df565b005b61027b6108f3565b60405161028891906130c7565b60405180910390f35b61029961091c565b6040516102a6919061325d565b60405180910390f35b6102c960048036038101906102c49190612975565b6109ae565b005b6102e560048036038101906102e09190612aab565b6109c4565b005b61030160048036038101906102fc91906128f2565b610dce565b005b61031d60048036038101906103189190612b9d565b610e30565b60405161032a919061325d565b60405180910390f35b61034d6004803603810190610348919061285f565b610e42565b60405161035a91906131fd565b60405180910390f35b61037d60048036038101906103789190612805565b610ed6565b005b60007f80ac58cd000000000000000000000000000000000000000000000000000000007bffffffffffffffffffffffffffffffffffffffffffffffffffffffff1916827bffffffffffffffffffffffffffffffffffffffffffffffffffffffff1916148061044a57507f5b5e139f000000000000000000000000000000000000000000000000000000007bffffffffffffffffffffffffffffffffffffffffffffffffffffffff1916827bffffffffffffffffffffffffffffffffffffffffffffffffffffffff1916145b8061045a575061045982610f5a565b5b9050919050565b606060028054610470906137f0565b80601f016020809104026020016040519081016040528092919081815260200182805461049c906137f0565b80156104e95780601f106104be576101008083540402835291602001916104e9565b820191906000526020600020905b8154815290600101906020018083116104cc57829003601f168201915b5050505050905090565b60006104fe82610fc4565b6006600083815260200190815260200160002060009054906101000a900473ffffffffffffffffffffffffffffffffffffffff169050919050565b6000610544826107a0565b90508073ffffffffffffffffffffffffffffffffffffffff168373ffffffffffffffffffffffffffffffffffffffff1614156105b5576040517f08c379a00000000000000000000000000000000000000000000000000000000081526004016105ac906134df565b60405180910390fd5b8073ffffffffffffffffffffffffffffffffffffffff166105d461100f565b73ffffffffffffffffffffffffffffffffffffffff1614806106035750610602816105fd61100f565b610e42565b5b610642576040517f08c379a0000000000000000000000000000000000000000000000000000000008152600401610639906134ff565b60405180910390fd5b61064c8383611017565b505050565b6106596110d0565b61066161114e565b600073ffffffffffffffffffffffffffffffffffffffff168273ffffffffffffffffffffffffffffffffffffffff1614156106d1576040517f08c379a00000000000000000000000000000000000000000000000000000000081526004016106c89061349f565b60405180910390fd5b7ff5e2cdb3c1806169fcc9a8e62feb5b0ed61f7825a7b228a0b2b9cdc124a3a1da82826040516107029291906131cd565b60405180910390a1610714828261119e565b61071c6111d7565b5050565b61073161072b61100f565b826111e0565b610770576040517f08c379a00000000000000000000000000000000000000000000000000000000081526004016107679061329f565b60405180910390fd5b61077b838383611275565b505050565b61079b83838360405180602001604052806000815250610dce565b505050565b6000806107ac8361156f565b9050600073ffffffffffffffffffffffffffffffffffffffff168173ffffffffffffffffffffffffffffffffffffffff16141561081e576040517f08c379a0000000000000000000000000000000000000000000000000000000008152600401610815906134bf565b60405180910390fd5b80915050919050565b60008073ffffffffffffffffffffffffffffffffffffffff168273ffffffffffffffffffffffffffffffffffffffff161415610898576040517f08c379a000000000000000000000000000000000000000000000000000000000815260040161088f9061341f565b60405180910390fd5b600560008373ffffffffffffffffffffffffffffffffffffffff1673ffffffffffffffffffffffffffffffffffffffff168152602001908152602001600020549050919050565b6108e76110d0565b6108f160006115ac565b565b60008060009054906101000a900473ffffffffffffffffffffffffffffffffffffffff16905090565b60606003805461092b906137f0565b80601f0160208091040260200160405190810160405280929190818152602001828054610957906137f0565b80156109a45780601f10610979576101008083540402835291602001916109a4565b820191906000526020600020905b81548152906001019060200180831161098757829003601f168201915b5050505050905090565b6109c06109b961100f565b8383611670565b5050565b6109cc61114e565b600160028111156109e0576109df6138bb565b5b8660028111156109f3576109f26138bb565b5b148015610a25575060016002811115610a0f57610a0e6138bb565b5b856002811115610a2257610a216138bb565b5b14155b610a64576040517f08c379a0000000000000000000000000000000000000000000000000000000008152600401610a5b906133df565b60405180910390fd5b610a6c6108f3565b73ffffffffffffffffffffffffffffffffffffffff16610a8c83836117dd565b73ffffffffffffffffffffffffffffffffffffffff1614610ae2576040517f08c379a0000000000000000000000000000000000000000000000000000000008152600401610ad99061337f565b60405180910390fd5b600a81604051610af29190613066565b908152602001604051809103902060009054906101000a900460ff1615610b4e576040517f08c379a0000000000000000000000000000000000000000000000000000000008152600401610b459061351f565b60405180910390fd5b60008390503373ffffffffffffffffffffffffffffffffffffffff168173ffffffffffffffffffffffffffffffffffffffff16636352211e876040518263ffffffff1660e01b8152600401610ba3919061355f565b60206040518083038186803b158015610bbb57600080fd5b505afa158015610bcf573d6000803e3d6000fd5b505050506040513d601f19601f82011682018060405250810190610bf39190612832565b73ffffffffffffffffffffffffffffffffffffffff1614610c49576040517f08c379a0000000000000000000000000000000000000000000000000000000008152600401610c409061331f565b60405180910390fd5b8373ffffffffffffffffffffffffffffffffffffffff166323b872dd3330886040518463ffffffff1660e01b8152600401610c869392919061314a565b600060405180830381600087803b158015610ca057600080fd5b505af1158015610cb4573d6000803e3d6000fd5b505050507f1c919df7d32ab8953d2fd9b889c90de6092c971074e12c855410814e95fea51233308373ffffffffffffffffffffffffffffffffffffffff1663c87b56dd896040518263ffffffff1660e01b8152600401610d14919061355f565b60006040518083038186803b158015610d2c57600080fd5b505afa158015610d40573d6000803e3d6000fd5b505050506040513d6000823e3d601f19601f82011682018060405250810190610d699190612b54565b888b8b604051610d7e969594939291906130e2565b60405180910390a16001600a83604051610d989190613066565b908152602001604051809103902060006101000a81548160ff02191690831515021790555050610dc66111d7565b505050505050565b610ddf610dd961100f565b836111e0565b610e1e576040517f08c379a0000000000000000000000000000000000000000000000000000000008152600401610e159061329f565b60405180910390fd5b610e2a8484848461181c565b50505050565b6060610e3b82611878565b9050919050565b6000600760008473ffffffffffffffffffffffffffffffffffffffff1673ffffffffffffffffffffffffffffffffffffffff16815260200190815260200160002060008373ffffffffffffffffffffffffffffffffffffffff1673ffffffffffffffffffffffffffffffffffffffff16815260200190815260200160002060009054906101000a900460ff16905092915050565b610ede6110d0565b600073ffffffffffffffffffffffffffffffffffffffff168173ffffffffffffffffffffffffffffffffffffffff161415610f4e576040517f08c379a0000000000000000000000000000000000000000000000000000000008152600401610f45906132ff565b60405180910390fd5b610f57816115ac565b50565b60007f01ffc9a7000000000000000000000000000000000000000000000000000000007bffffffffffffffffffffffffffffffffffffffffffffffffffffffff1916827bffffffffffffffffffffffffffffffffffffffffffffffffffffffff1916149050919050565b610fcd8161198b565b61100c576040517f08c379a0000000000000000000000000000000000000000000000000000000008152600401611003906134bf565b60405180910390fd5b50565b600033905090565b816006600083815260200190815260200160002060006101000a81548173ffffffffffffffffffffffffffffffffffffffff021916908373ffffffffffffffffffffffffffffffffffffffff160217905550808273ffffffffffffffffffffffffffffffffffffffff1661108a836107a0565b73ffffffffffffffffffffffffffffffffffffffff167f8c5be1e5ebec7d5bd14f71427d1e84f3dd0314c0f7b2291e5b200ac8c7c3b92560405160405180910390a45050565b6110d861100f565b73ffffffffffffffffffffffffffffffffffffffff166110f66108f3565b73ffffffffffffffffffffffffffffffffffffffff161461114c576040517f08c379a00000000000000000000000000000000000000000000000000000000081526004016111439061347f565b60405180910390fd5b565b60026001541415611194576040517f08c379a000000000000000000000000000000000000000000000000000000000815260040161118b9061353f565b60405180910390fd5b6002600181905550565b6111a66110d0565b60006111b260096119cc565b90506111be60096119da565b6111c883826119f0565b6111d28183611a0e565b505050565b60018081905550565b6000806111ec836107a0565b90508073ffffffffffffffffffffffffffffffffffffffff168473ffffffffffffffffffffffffffffffffffffffff16148061122e575061122d8185610e42565b5b8061126c57508373ffffffffffffffffffffffffffffffffffffffff16611254846104f3565b73ffffffffffffffffffffffffffffffffffffffff16145b91505092915050565b8273ffffffffffffffffffffffffffffffffffffffff16611295826107a0565b73ffffffffffffffffffffffffffffffffffffffff16146112eb576040517f08c379a00000000000000000000000000000000000000000000000000000000081526004016112e29061333f565b60405180910390fd5b600073ffffffffffffffffffffffffffffffffffffffff168273ffffffffffffffffffffffffffffffffffffffff16141561135b576040517f08c379a00000000000000000000000000000000000000000000000000000000081526004016113529061339f565b60405180910390fd5b6113688383836001611a82565b8273ffffffffffffffffffffffffffffffffffffffff16611388826107a0565b73ffffffffffffffffffffffffffffffffffffffff16146113de576040517f08c379a00000000000000000000000000000000000000000000000000000000081526004016113d59061333f565b60405180910390fd5b6006600082815260200190815260200160002060006101000a81549073ffffffffffffffffffffffffffffffffffffffff02191690556001600560008573ffffffffffffffffffffffffffffffffffffffff1673ffffffffffffffffffffffffffffffffffffffff168152602001908152602001600020600082825403925050819055506001600560008473ffffffffffffffffffffffffffffffffffffffff1673ffffffffffffffffffffffffffffffffffffffff16815260200190815260200160002060008282540192505081905550816004600083815260200190815260200160002060006101000a81548173ffffffffffffffffffffffffffffffffffffffff021916908373ffffffffffffffffffffffffffffffffffffffff160217905550808273ffffffffffffffffffffffffffffffffffffffff168473ffffffffffffffffffffffffffffffffffffffff167fddf252ad1be2c89b69c2b068fc378daa952ba7f163c4a11628f55a4df523b3ef60405160405180910390a461156a8383836001611ba8565b505050565b60006004600083815260200190815260200160002060009054906101000a900473ffffffffffffffffffffffffffffffffffffffff169050919050565b60008060009054906101000a900473ffffffffffffffffffffffffffffffffffffffff169050816000806101000a81548173ffffffffffffffffffffffffffffffffffffffff021916908373ffffffffffffffffffffffffffffffffffffffff1602179055508173ffffffffffffffffffffffffffffffffffffffff168173ffffffffffffffffffffffffffffffffffffffff167f8be0079c531659141344cd1fd0a4f28419497f9722a3daafe3b4186f6b6457e060405160405180910390a35050565b8173ffffffffffffffffffffffffffffffffffffffff168373ffffffffffffffffffffffffffffffffffffffff1614156116df576040517f08c379a00000000000000000000000000000000000000000000000000000000081526004016116d6906133bf565b60405180910390fd5b80600760008573ffffffffffffffffffffffffffffffffffffffff1673ffffffffffffffffffffffffffffffffffffffff16815260200190815260200160002060008473ffffffffffffffffffffffffffffffffffffffff1673ffffffffffffffffffffffffffffffffffffffff16815260200190815260200160002060006101000a81548160ff0219169083151502179055508173ffffffffffffffffffffffffffffffffffffffff168373ffffffffffffffffffffffffffffffffffffffff167f17307eab39ab6107e8899845ad3d59bd9653f200f220920489ca2b5937696c31836040516117d091906131fd565b60405180910390a3505050565b600080836040516020016117f191906130a1565b6040516020818303038152906040528051906020012090506118138184611bae565b91505092915050565b611827848484611275565b61183384848484611bd5565b611872576040517f08c379a0000000000000000000000000000000000000000000000000000000008152600401611869906132df565b60405180910390fd5b50505050565b606061188382610fc4565b60006008600084815260200190815260200160002080546118a3906137f0565b80601f01602080910402602001604051908101604052809291908181526020018280546118cf906137f0565b801561191c5780601f106118f15761010080835404028352916020019161191c565b820191906000526020600020905b8154815290600101906020018083116118ff57829003601f168201915b50505050509050600061192d611d6c565b9050600081511415611943578192505050611986565b60008251111561197857808260405160200161196092919061307d565b60405160208183030381529060405292505050611986565b61198184611d83565b925050505b919050565b60008073ffffffffffffffffffffffffffffffffffffffff166119ad8361156f565b73ffffffffffffffffffffffffffffffffffffffff1614159050919050565b600081600001549050919050565b6001816000016000828254019250508190555050565b611a0a828260405180602001604052806000815250611deb565b5050565b611a178261198b565b611a56576040517f08c379a0000000000000000000000000000000000000000000000000000000008152600401611a4d9061343f565b60405180910390fd5b80600860008481526020019081526020016000209080519060200190611a7d929190612555565b505050565b6001811115611ba257600073ffffffffffffffffffffffffffffffffffffffff168473ffffffffffffffffffffffffffffffffffffffff1614611b165780600560008673ffffffffffffffffffffffffffffffffffffffff1673ffffffffffffffffffffffffffffffffffffffff1681526020019081526020016000206000828254611b0e91906136a5565b925050819055505b600073ffffffffffffffffffffffffffffffffffffffff168373ffffffffffffffffffffffffffffffffffffffff1614611ba15780600560008573ffffffffffffffffffffffffffffffffffffffff1673ffffffffffffffffffffffffffffffffffffffff1681526020019081526020016000206000828254611b99919061364f565b925050819055505b5b50505050565b50505050565b6000806000611bbd8585611e46565b91509150611bca81611e98565b819250505092915050565b6000611bf68473ffffffffffffffffffffffffffffffffffffffff16612006565b15611d5f578373ffffffffffffffffffffffffffffffffffffffff1663150b7a02611c1f61100f565b8786866040518563ffffffff1660e01b8152600401611c419493929190613181565b602060405180830381600087803b158015611c5b57600080fd5b505af1925050508015611c8c57506040513d601f19601f82011682018060405250810190611c899190612a7e565b60015b611d0f573d8060008114611cbc576040519150601f19603f3d011682016040523d82523d6000602084013e611cc1565b606091505b50600081511415611d07576040517f08c379a0000000000000000000000000000000000000000000000000000000008152600401611cfe906132df565b60405180910390fd5b805181602001fd5b63150b7a0260e01b7bffffffffffffffffffffffffffffffffffffffffffffffffffffffff1916817bffffffffffffffffffffffffffffffffffffffffffffffffffffffff191614915050611d64565b600190505b949350505050565b606060405180602001604052806000815250905090565b6060611d8e82610fc4565b6000611d98611d6c565b90506000815111611db85760405180602001604052806000815250611de3565b80611dc284612029565b604051602001611dd392919061307d565b6040516020818303038152906040525b915050919050565b611df58383612101565b611e026000848484611bd5565b611e41576040517f08c379a0000000000000000000000000000000000000000000000000000000008152600401611e38906132df565b60405180910390fd5b505050565b600080604183511415611e885760008060006020860151925060408601519150606086015160001a9050611e7c8782858561231f565b94509450505050611e91565b60006002915091505b9250929050565b60006004811115611eac57611eab6138bb565b5b816004811115611ebf57611ebe6138bb565b5b1415611eca57612003565b60016004811115611ede57611edd6138bb565b5b816004811115611ef157611ef06138bb565b5b1415611f32576040517f08c379a0000000000000000000000000000000000000000000000000000000008152600401611f299061327f565b60405180910390fd5b60026004811115611f4657611f456138bb565b5b816004811115611f5957611f586138bb565b5b1415611f9a576040517f08c379a0000000000000000000000000000000000000000000000000000000008152600401611f91906132bf565b60405180910390fd5b60036004811115611fae57611fad6138bb565b5b816004811115611fc157611fc06138bb565b5b1415612002576040517f08c379a0000000000000000000000000000000000000000000000000000000008152600401611ff9906133ff565b60405180910390fd5b5b50565b6000808273ffffffffffffffffffffffffffffffffffffffff163b119050919050565b60606000600161203884612402565b01905060008167ffffffffffffffff81111561205757612056613919565b5b6040519080825280601f01601f1916602001820160405280156120895781602001600182028036833780820191505090505b509050600082602001820190505b6001156120f6578080600190039150507f3031323334353637383961626364656600000000000000000000000000000000600a86061a8153600a85816120e0576120df61388c565b5b04945060008514156120f1576120f6565b612097565b819350505050919050565b600073ffffffffffffffffffffffffffffffffffffffff168273ffffffffffffffffffffffffffffffffffffffff161415612171576040517f08c379a00000000000000000000000000000000000000000000000000000000081526004016121689061345f565b60405180910390fd5b61217a8161198b565b156121ba576040517f08c379a00000000000000000000000000000000000000000000000000000000081526004016121b19061335f565b60405180910390fd5b6121c8600083836001611a82565b6121d18161198b565b15612211576040517f08c379a00000000000000000000000000000000000000000000000000000000081526004016122089061335f565b60405180910390fd5b6001600560008473ffffffffffffffffffffffffffffffffffffffff1673ffffffffffffffffffffffffffffffffffffffff16815260200190815260200160002060008282540192505081905550816004600083815260200190815260200160002060006101000a81548173ffffffffffffffffffffffffffffffffffffffff021916908373ffffffffffffffffffffffffffffffffffffffff160217905550808273ffffffffffffffffffffffffffffffffffffffff16600073ffffffffffffffffffffffffffffffffffffffff167fddf252ad1be2c89b69c2b068fc378daa952ba7f163c4a11628f55a4df523b3ef60405160405180910390a461231b600083836001611ba8565b5050565b6000807f7fffffffffffffffffffffffffffffff5d576e7357a4501ddfe92f46681b20a08360001c111561235a5760006003915091506123f9565b60006001878787876040516000815260200160405260405161237f9493929190613218565b6020604051602081039080840390855afa1580156123a1573d6000803e3d6000fd5b505050602060405103519050600073ffffffffffffffffffffffffffffffffffffffff168173ffffffffffffffffffffffffffffffffffffffff1614156123f0576000600192509250506123f9565b80600092509250505b94509492505050565b600080600090507a184f03e93ff9f4daa797ed6e38ed64bf6a1f0100000000000000008310612460577a184f03e93ff9f4daa797ed6e38ed64bf6a1f01000000000000000083816124565761245561388c565b5b0492506040810190505b6d04ee2d6d415b85acef8100000000831061249d576d04ee2d6d415b85acef810000000083816124935761249261388c565b5b0492506020810190505b662386f26fc1000083106124cc57662386f26fc1000083816124c2576124c161388c565b5b0492506010810190505b6305f5e10083106124f5576305f5e10083816124eb576124ea61388c565b5b0492506008810190505b612710831061251a5761271083816125105761250f61388c565b5b0492506004810190505b6064831061253d57606483816125335761253261388c565b5b0492506002810190505b600a831061254c576001810190505b80915050919050565b828054612561906137f0565b90600052602060002090601f01602090048101928261258357600085556125ca565b82601f1061259c57805160ff19168380011785556125ca565b828001600101855582156125ca579182015b828111156125c95782518255916020019190600101906125ae565b5b5090506125d791906125db565b5090565b5b808211156125f45760008160009055506001016125dc565b5090565b600061260b6126068461359f565b61357a565b9050828152602081018484840111156126275761262661394d565b5b6126328482856137ae565b509392505050565b600061264d612648846135d0565b61357a565b9050828152602081018484840111156126695761266861394d565b5b6126748482856137ae565b509392505050565b600061268f61268a846135d0565b61357a565b9050828152602081018484840111156126ab576126aa61394d565b5b6126b68482856137bd565b509392505050565b6000813590506126cd81613ee9565b92915050565b6000815190506126e281613ee9565b92915050565b6000813590506126f781613f00565b92915050565b60008135905061270c81613f17565b92915050565b60008135905061272181613f2e565b92915050565b60008151905061273681613f2e565b92915050565b600082601f83011261275157612750613948565b5b81356127618482602086016125f8565b91505092915050565b60008135905061277981613f45565b92915050565b60008135905061278e81613f55565b92915050565b600082601f8301126127a9576127a8613948565b5b81356127b984826020860161263a565b91505092915050565b600082601f8301126127d7576127d6613948565b5b81516127e784826020860161267c565b91505092915050565b6000813590506127ff81613f65565b92915050565b60006020828403121561281b5761281a613957565b5b6000612829848285016126be565b91505092915050565b60006020828403121561284857612847613957565b5b6000612856848285016126d3565b91505092915050565b6000806040838503121561287657612875613957565b5b6000612884858286016126be565b9250506020612895858286016126be565b9150509250929050565b6000806000606084860312156128b8576128b7613957565b5b60006128c6868287016126be565b93505060206128d7868287016126be565b92505060406128e8868287016127f0565b9150509250925092565b6000806000806080858703121561290c5761290b613957565b5b600061291a878288016126be565b945050602061292b878288016126be565b935050604061293c878288016127f0565b925050606085013567ffffffffffffffff81111561295d5761295c613952565b5b6129698782880161273c565b91505092959194509250565b6000806040838503121561298c5761298b613957565b5b600061299a858286016126be565b92505060206129ab858286016126e8565b9150509250929050565b600080604083850312156129cc576129cb613957565b5b60006129da858286016126be565b925050602083013567ffffffffffffffff8111156129fb576129fa613952565b5b612a0785828601612794565b9150509250929050565b60008060408385031215612a2857612a27613957565b5b6000612a36858286016126be565b9250506020612a47858286016127f0565b9150509250929050565b600060208284031215612a6757612a66613957565b5b6000612a7584828501612712565b91505092915050565b600060208284031215612a9457612a93613957565b5b6000612aa284828501612727565b91505092915050565b60008060008060008060c08789031215612ac857612ac7613957565b5b6000612ad689828a0161277f565b9650506020612ae789828a0161276a565b9550506040612af889828a016127f0565b9450506060612b0989828a016126be565b9350506080612b1a89828a016126fd565b92505060a087013567ffffffffffffffff811115612b3b57612b3a613952565b5b612b4789828a0161273c565b9150509295509295509295565b600060208284031215612b6a57612b69613957565b5b600082015167ffffffffffffffff811115612b8857612b87613952565b5b612b94848285016127c2565b91505092915050565b600060208284031215612bb357612bb2613957565b5b6000612bc1848285016127f0565b91505092915050565b612bd3816136d9565b82525050565b612be2816136eb565b82525050565b612bf1816136f7565b82525050565b612c08612c03826136f7565b613853565b82525050565b6000612c1982613601565b612c238185613617565b9350612c338185602086016137bd565b612c3c8161395c565b840191505092915050565b6000612c5282613601565b612c5c8185613628565b9350612c6c8185602086016137bd565b80840191505092915050565b612c818161378a565b82525050565b612c908161379c565b82525050565b6000612ca18261360c565b612cab8185613633565b9350612cbb8185602086016137bd565b612cc48161395c565b840191505092915050565b6000612cda8261360c565b612ce48185613644565b9350612cf48185602086016137bd565b80840191505092915050565b6000612d0d601883613633565b9150612d188261396d565b602082019050919050565b6000612d30602d83613633565b9150612d3b82613996565b604082019050919050565b6000612d53601f83613633565b9150612d5e826139e5565b602082019050919050565b6000612d76601c83613644565b9150612d8182613a0e565b601c82019050919050565b6000612d99603283613633565b9150612da482613a37565b604082019050919050565b6000612dbc602683613633565b9150612dc782613a86565b604082019050919050565b6000612ddf601f83613633565b9150612dea82613ad5565b602082019050919050565b6000612e02602583613633565b9150612e0d82613afe565b604082019050919050565b6000612e25601c83613633565b9150612e3082613b4d565b602082019050919050565b6000612e48601983613633565b9150612e5382613b76565b602082019050919050565b6000612e6b602483613633565b9150612e7682613b9f565b604082019050919050565b6000612e8e601983613633565b9150612e9982613bee565b602082019050919050565b6000612eb1600d83613633565b9150612ebc82613c17565b602082019050919050565b6000612ed4602283613633565b9150612edf82613c40565b604082019050919050565b6000612ef7602983613633565b9150612f0282613c8f565b604082019050919050565b6000612f1a602e83613633565b9150612f2582613cde565b604082019050919050565b6000612f3d602083613633565b9150612f4882613d2d565b602082019050919050565b6000612f60602083613633565b9150612f6b82613d56565b602082019050919050565b6000612f83601383613633565b9150612f8e82613d7f565b602082019050919050565b6000612fa6601883613633565b9150612fb182613da8565b602082019050919050565b6000612fc9602183613633565b9150612fd482613dd1565b604082019050919050565b6000612fec603d83613633565b9150612ff782613e20565b604082019050919050565b600061300f601683613633565b915061301a82613e6f565b602082019050919050565b6000613032601f83613633565b915061303d82613e98565b602082019050919050565b61305181613773565b82525050565b6130608161377d565b82525050565b60006130728284612c47565b915081905092915050565b60006130898285612ccf565b91506130958284612ccf565b91508190509392505050565b60006130ac82612d69565b91506130b88284612bf7565b60208201915081905092915050565b60006020820190506130dc6000830184612bca565b92915050565b600060c0820190506130f76000830189612bca565b6131046020830188612bca565b81810360408301526131168187612c96565b90506131256060830186613048565b6131326080830185612c87565b61313f60a0830184612c78565b979650505050505050565b600060608201905061315f6000830186612bca565b61316c6020830185612bca565b6131796040830184613048565b949350505050565b60006080820190506131966000830187612bca565b6131a36020830186612bca565b6131b06040830185613048565b81810360608301526131c28184612c0e565b905095945050505050565b60006040820190506131e26000830185612bca565b81810360208301526131f48184612c96565b90509392505050565b60006020820190506132126000830184612bd9565b92915050565b600060808201905061322d6000830187612be8565b61323a6020830186613057565b6132476040830185612be8565b6132546060830184612be8565b95945050505050565b600060208201905081810360008301526132778184612c96565b905092915050565b6000602082019050818103600083015261329881612d00565b9050919050565b600060208201905081810360008301526132b881612d23565b9050919050565b600060208201905081810360008301526132d881612d46565b9050919050565b600060208201905081810360008301526132f881612d8c565b9050919050565b6000602082019050818103600083015261331881612daf565b9050919050565b6000602082019050818103600083015261333881612dd2565b9050919050565b6000602082019050818103600083015261335881612df5565b9050919050565b6000602082019050818103600083015261337881612e18565b9050919050565b6000602082019050818103600083015261339881612e3b565b9050919050565b600060208201905081810360008301526133b881612e5e565b9050919050565b600060208201905081810360008301526133d881612e81565b9050919050565b600060208201905081810360008301526133f881612ea4565b9050919050565b6000602082019050818103600083015261341881612ec7565b9050919050565b6000602082019050818103600083015261343881612eea565b9050919050565b6000602082019050818103600083015261345881612f0d565b9050919050565b6000602082019050818103600083015261347881612f30565b9050919050565b6000602082019050818103600083015261349881612f53565b9050919050565b600060208201905081810360008301526134b881612f76565b9050919050565b600060208201905081810360008301526134d881612f99565b9050919050565b600060208201905081810360008301526134f881612fbc565b9050919050565b6000602082019050818103600083015261351881612fdf565b9050919050565b6000602082019050818103600083015261353881613002565b9050919050565b6000602082019050818103600083015261355881613025565b9050919050565b60006020820190506135746000830184613048565b92915050565b6000613584613595565b90506135908282613822565b919050565b6000604051905090565b600067ffffffffffffffff8211156135ba576135b9613919565b5b6135c38261395c565b9050602081019050919050565b600067ffffffffffffffff8211156135eb576135ea613919565b5b6135f48261395c565b9050602081019050919050565b600081519050919050565b600081519050919050565b600082825260208201905092915050565b600081905092915050565b600082825260208201905092915050565b600081905092915050565b600061365a82613773565b915061366583613773565b9250827fffffffffffffffffffffffffffffffffffffffffffffffffffffffffffffffff0382111561369a5761369961385d565b5b828201905092915050565b60006136b082613773565b91506136bb83613773565b9250828210156136ce576136cd61385d565b5b828203905092915050565b60006136e482613753565b9050919050565b60008115159050919050565b6000819050919050565b60007fffffffff0000000000000000000000000000000000000000000000000000000082169050919050565b600081905061373b82613ec1565b919050565b600081905061374e82613ed5565b919050565b600073ffffffffffffffffffffffffffffffffffffffff82169050919050565b6000819050919050565b600060ff82169050919050565b60006137958261372d565b9050919050565b60006137a782613740565b9050919050565b82818337600083830152505050565b60005b838110156137db5780820151818401526020810190506137c0565b838111156137ea576000848401525b50505050565b6000600282049050600182168061380857607f821691505b6020821081141561381c5761381b6138ea565b5b50919050565b61382b8261395c565b810181811067ffffffffffffffff8211171561384a57613849613919565b5b80604052505050565b6000819050919050565b7f4e487b7100000000000000000000000000000000000000000000000000000000600052601160045260246000fd5b7f4e487b7100000000000000000000000000000000000000000000000000000000600052601260045260246000fd5b7f4e487b7100000000000000000000000000000000000000000000000000000000600052602160045260246000fd5b7f4e487b7100000000000000000000000000000000000000000000000000000000600052602260045260246000fd5b7f4e487b7100000000000000000000000000000000000000000000000000000000600052604160045260246000fd5b600080fd5b600080fd5b600080fd5b600080fd5b6000601f19601f8301169050919050565b7f45434453413a20696e76616c6964207369676e61747572650000000000000000600082015250565b7f4552433732313a2063616c6c6572206973206e6f7420746f6b656e206f776e6560008201527f72206f7220617070726f76656400000000000000000000000000000000000000602082015250565b7f45434453413a20696e76616c6964207369676e6174757265206c656e67746800600082015250565b7f19457468657265756d205369676e6564204d6573736167653a0a333200000000600082015250565b7f4552433732313a207472616e7366657220746f206e6f6e20455243373231526560008201527f63656976657220696d706c656d656e7465720000000000000000000000000000602082015250565b7f4f776e61626c653a206e6577206f776e657220697320746865207a65726f206160008201527f6464726573730000000000000000000000000000000000000000000000000000602082015250565b7f4f6e6c7920746865206f776e65722063616e206c6f636b20746865204e465400600082015250565b7f4552433732313a207472616e736665722066726f6d20696e636f72726563742060008201527f6f776e6572000000000000000000000000000000000000000000000000000000602082015250565b7f4552433732313a20746f6b656e20616c7265616479206d696e74656400000000600082015250565b7f41646472657373206973206e6f7420617574686f72697a656400000000000000600082015250565b7f4552433732313a207472616e7366657220746f20746865207a65726f2061646460008201527f7265737300000000000000000000000000000000000000000000000000000000602082015250565b7f4552433732313a20617070726f766520746f2063616c6c657200000000000000600082015250565b7f496e76616c696420636861696e00000000000000000000000000000000000000600082015250565b7f45434453413a20696e76616c6964207369676e6174757265202773272076616c60008201527f7565000000000000000000000000000000000000000000000000000000000000602082015250565b7f4552433732313a2061646472657373207a65726f206973206e6f74206120766160008201527f6c6964206f776e65720000000000000000000000000000000000000000000000602082015250565b7f45524337323155524953746f726167653a2055524920736574206f66206e6f6e60008201527f6578697374656e7420746f6b656e000000000000000000000000000000000000602082015250565b7f4552433732313a206d696e7420746f20746865207a65726f2061646472657373600082015250565b7f4f776e61626c653a2063616c6c6572206973206e6f7420746865206f776e6572600082015250565b7f416464726573732063616e6e6f74206265203000000000000000000000000000600082015250565b7f4552433732313a20696e76616c696420746f6b656e2049440000000000000000600082015250565b7f4552433732313a20617070726f76616c20746f2063757272656e74206f776e6560008201527f7200000000000000000000000000000000000000000000000000000000000000602082015250565b7f4552433732313a20617070726f76652063616c6c6572206973206e6f7420746f60008201527f6b656e206f776e6572206f7220617070726f76656420666f7220616c6c000000602082015250565b7f416c7265616479207369676e6174757265207573656400000000000000000000600082015250565b7f5265656e7472616e637947756172643a207265656e7472616e742063616c6c00600082015250565b60038110613ed257613ed16138bb565b5b50565b60038110613ee657613ee56138bb565b5b50565b613ef2816136d9565b8114613efd57600080fd5b50565b613f09816136eb565b8114613f1457600080fd5b50565b613f20816136f7565b8114613f2b57600080fd5b50565b613f3781613701565b8114613f4257600080fd5b50565b60038110613f5257600080fd5b50565b60038110613f6257600080fd5b50565b613f6e81613773565b8114613f7957600080fd5b5056fea2646970667358221220572cf3fcdcf6c50089d77958cbbe3bd8fb90816e5d8f460decc7c9aa9a5c010664736f6c63430008070033",
  "linkReferences": {},
  "deployedLinkReferences": {}
}