{
  "_format": "hh-sol-artifact-1",
  "contractName": "NftBridgePolygon",
  "sourceName": "contracts/NftBridgePolygon.sol",
  "abi": [
    {
      "inputs": [],
      "stateMutability": "nonpayable",
      "type": "constructor"
    },
    {
      "anonymous": false,
      "inputs": [
        {
          "indexed": true,
          "internalType": "address",
          "name": "owner",
          "type": "address"
        },
        {
          "indexed": true,
          "internalType": "address",
          "name": "approved",
          "type": "address"
        },
        {
          "indexed": true,
          "internalType": "uint256",
          "name": "tokenId",
          "type": "uint256"
        }
      ],
      "name": "Approval",
      "type": "event"
    },
    {
      "anonymous": false,
      "inputs": [
        {
          "indexed": true,
          "internalType": "address",
          "name": "owner",
          "type": "address"
        },
        {
          "indexed": true,
          "internalType": "address",
          "name": "operator",
          "type": "address"
        },
        {
          "indexed": false,
          "internalType": "bool",
          "name": "approved",
          "type": "bool"
        }
      ],
      "name": "ApprovalForAll",
      "type": "event"
    },
    {
      "anonymous": false,
      "inputs": [
        {
          "indexed": false,
          "internalType": "address",
          "name": "_from",
          "type": "address"
        },
        {
          "indexed": false,
          "internalType": "address",
          "name": "_to",
          "type": "address"
        },
        {
          "indexed": false,
          "internalType": "string",
          "name": "_uri",
          "type": "string"
        },
        {
          "indexed": false,
          "internalType": "uint256",
          "name": "_tokenId",
          "type": "uint256"
        },
        {
          "indexed": false,
          "internalType": "uint256",
          "name": "_value",
          "type": "uint256"
        },
        {
          "indexed": false,
          "internalType": "enum NftBridgePolygon.SourceChain",
          "name": "_sourceChain",
          "type": "uint8"
        },
        {
          "indexed": false,
          "internalType": "enum NftBridgePolygon.DestinationChain",
          "name": "_destinationChain",
          "type": "uint8"
        }
      ],
      "name": "LockedNft",
      "type": "event"
    },
    {
      "anonymous": false,
      "inputs": [
        {
          "indexed": false,
          "internalType": "address",
          "name": "_to",
          "type": "address"
        },
        {
          "indexed": false,
          "internalType": "string",
          "name": "_uri",
          "type": "string"
        }
      ],
      "name": "NftTransferedToDestinationChain",
      "type": "event"
    },
    {
      "anonymous": false,
      "inputs": [
        {
          "indexed": true,
          "internalType": "address",
          "name": "previousOwner",
          "type": "address"
        },
        {
          "indexed": true,
          "internalType": "address",
          "name": "newOwner",
          "type": "address"
        }
      ],
      "name": "OwnershipTransferred",
      "type": "event"
    },
    {
      "anonymous": false,
      "inputs": [
        {
          "indexed": true,
          "internalType": "address",
          "name": "from",
          "type": "address"
        },
        {
          "indexed": true,
          "internalType": "address",
          "name": "to",
          "type": "address"
        },
        {
          "indexed": true,
          "internalType": "uint256",
          "name": "tokenId",
          "type": "uint256"
        }
      ],
      "name": "Transfer",
      "type": "event"
    },
    {
      "inputs": [
        {
          "internalType": "address",
          "name": "to",
          "type": "address"
        },
        {
          "internalType": "uint256",
          "name": "tokenId",
          "type": "uint256"
        }
      ],
      "name": "approve",
      "outputs": [],
      "stateMutability": "nonpayable",
      "type": "function"
    },
    {
      "inputs": [
        {
          "internalType": "address",
          "name": "owner",
          "type": "address"
        }
      ],
      "name": "balanceOf",
      "outputs": [
        {
          "internalType": "uint256",
          "name": "",
          "type": "uint256"
        }
      ],
      "stateMutability": "view",
      "type": "function"
    },
    {
      "inputs": [
        {
          "internalType": "uint256",
          "name": "newSmartContractFees",
          "type": "uint256"
        }
      ],
      "name": "changeSmartContractFees",
      "outputs": [
        {
          "internalType": "uint256",
          "name": "",
          "type": "uint256"
        }
      ],
      "stateMutability": "nonpayable",
      "type": "function"
    },
    {
      "inputs": [
        {
          "internalType": "uint256",
          "name": "tokenId",
          "type": "uint256"
        }
      ],
      "name": "getApproved",
      "outputs": [
        {
          "internalType": "address",
          "name": "",
          "type": "address"
        }
      ],
      "stateMutability": "view",
      "type": "function"
    },
    {
      "inputs": [],
      "name": "getSmartContractFees",
      "outputs": [
        {
          "internalType": "uint256",
          "name": "",
          "type": "uint256"
        }
      ],
      "stateMutability": "view",
      "type": "function"
    },
    {
      "inputs": [
        {
          "internalType": "address",
          "name": "owner",
          "type": "address"
        },
        {
          "internalType": "address",
          "name": "operator",
          "type": "address"
        }
      ],
      "name": "isApprovedForAll",
      "outputs": [
        {
          "internalType": "bool",
          "name": "",
          "type": "bool"
        }
      ],
      "stateMutability": "view",
      "type": "function"
    },
    {
      "inputs": [
        {
          "internalType": "enum NftBridgePolygon.SourceChain",
          "name": "sourceChain",
          "type": "uint8"
        },
        {
          "internalType": "enum NftBridgePolygon.DestinationChain",
          "name": "destinationChain",
          "type": "uint8"
        },
        {
          "internalType": "uint256",
          "name": "tokenId",
          "type": "uint256"
        },
        {
          "internalType": "address",
          "name": "tokenAddress",
          "type": "address"
        },
        {
          "internalType": "bytes32",
          "name": "hash",
          "type": "bytes32"
        },
        {
          "internalType": "bytes",
          "name": "signature",
          "type": "bytes"
        }
      ],
      "name": "lockNft",
      "outputs": [],
      "stateMutability": "payable",
      "type": "function"
    },
    {
      "inputs": [],
      "name": "name",
      "outputs": [
        {
          "internalType": "string",
          "name": "",
          "type": "string"
        }
      ],
      "stateMutability": "view",
      "type": "function"
    },
    {
      "inputs": [],
      "name": "owner",
      "outputs": [
        {
          "internalType": "address",
          "name": "",
          "type": "address"
        }
      ],
      "stateMutability": "view",
      "type": "function"
    },
    {
      "inputs": [
        {
          "internalType": "uint256",
          "name": "tokenId",
          "type": "uint256"
        }
      ],
      "name": "ownerOf",
      "outputs": [
        {
          "internalType": "address",
          "name": "",
          "type": "address"
        }
      ],
      "stateMutability": "view",
      "type": "function"
    },
    {
      "inputs": [],
      "name": "renounceOwnership",
      "outputs": [],
      "stateMutability": "nonpayable",
      "type": "function"
    },
    {
      "inputs": [
        {
          "internalType": "address",
          "name": "from",
          "type": "address"
        },
        {
          "internalType": "address",
          "name": "to",
          "type": "address"
        },
        {
          "internalType": "uint256",
          "name": "tokenId",
          "type": "uint256"
        }
      ],
      "name": "safeTransferFrom",
      "outputs": [],
      "stateMutability": "nonpayable",
      "type": "function"
    },
    {
      "inputs": [
        {
          "internalType": "address",
          "name": "from",
          "type": "address"
        },
        {
          "internalType": "address",
          "name": "to",
          "type": "address"
        },
        {
          "internalType": "uint256",
          "name": "tokenId",
          "type": "uint256"
        },
        {
          "internalType": "bytes",
          "name": "data",
          "type": "bytes"
        }
      ],
      "name": "safeTransferFrom",
      "outputs": [],
      "stateMutability": "nonpayable",
      "type": "function"
    },
    {
      "inputs": [
        {
          "internalType": "address",
          "name": "operator",
          "type": "address"
        },
        {
          "internalType": "bool",
          "name": "approved",
          "type": "bool"
        }
      ],
      "name": "setApprovalForAll",
      "outputs": [],
      "stateMutability": "nonpayable",
      "type": "function"
    },
    {
      "inputs": [
        {
          "internalType": "bytes4",
          "name": "interfaceId",
          "type": "bytes4"
        }
      ],
      "name": "supportsInterface",
      "outputs": [
        {
          "internalType": "bool",
          "name": "",
          "type": "bool"
        }
      ],
      "stateMutability": "view",
      "type": "function"
    },
    {
      "inputs": [],
      "name": "symbol",
      "outputs": [
        {
          "internalType": "string",
          "name": "",
          "type": "string"
        }
      ],
      "stateMutability": "view",
      "type": "function"
    },
    {
      "inputs": [
        {
          "internalType": "uint256",
          "name": "tokenId",
          "type": "uint256"
        }
      ],
      "name": "tokenURI",
      "outputs": [
        {
          "internalType": "string",
          "name": "",
          "type": "string"
        }
      ],
      "stateMutability": "view",
      "type": "function"
    },
    {
      "inputs": [
        {
          "internalType": "address",
          "name": "from",
          "type": "address"
        },
        {
          "internalType": "address",
          "name": "to",
          "type": "address"
        },
        {
          "internalType": "uint256",
          "name": "tokenId",
          "type": "uint256"
        }
      ],
      "name": "transferFrom",
      "outputs": [],
      "stateMutability": "nonpayable",
      "type": "function"
    },
    {
      "inputs": [
        {
          "internalType": "address",
          "name": "recipient",
          "type": "address"
        },
        {
          "internalType": "string",
          "name": "uri",
          "type": "string"
        }
      ],
      "name": "transferNft",
      "outputs": [],
      "stateMutability": "nonpayable",
      "type": "function"
    },
    {
      "inputs": [
        {
          "internalType": "address",
          "name": "newOwner",
          "type": "address"
        }
      ],
      "name": "transferOwnership",
      "outputs": [],
      "stateMutability": "nonpayable",
      "type": "function"
    },
    {
      "inputs": [
        {
          "internalType": "address payable",
          "name": "recipient",
          "type": "address"
        }
      ],
      "name": "withdraw",
      "outputs": [],
      "stateMutability": "nonpayable",
      "type": "function"
    }
  ],
  "bytecode": "0x60806040526103e8600a553480156200001757600080fd5b506040518060400160405280601081526020017f4e6674427269646765506f6c79676f6e000000000000000000000000000000008152506040518060400160405280600981526020017f4e42504f4c59474f4e0000000000000000000000000000000000000000000000815250620000a462000098620000e560201b60201c565b620000ed60201b60201c565b600180819055508160029080519060200190620000c3929190620001b1565b508060039080519060200190620000dc929190620001b1565b505050620002c6565b600033905090565b60008060009054906101000a900473ffffffffffffffffffffffffffffffffffffffff169050816000806101000a81548173ffffffffffffffffffffffffffffffffffffffff021916908373ffffffffffffffffffffffffffffffffffffffff1602179055508173ffffffffffffffffffffffffffffffffffffffff168173ffffffffffffffffffffffffffffffffffffffff167f8be0079c531659141344cd1fd0a4f28419497f9722a3daafe3b4186f6b6457e060405160405180910390a35050565b828054620001bf9062000261565b90600052602060002090601f016020900481019282620001e357600085556200022f565b82601f10620001fe57805160ff19168380011785556200022f565b828001600101855582156200022f579182015b828111156200022e57825182559160200191906001019062000211565b5b5090506200023e919062000242565b5090565b5b808211156200025d57600081600090555060010162000243565b5090565b600060028204905060018216806200027a57607f821691505b6020821081141562000291576200029062000297565b5b50919050565b7f4e487b7100000000000000000000000000000000000000000000000000000000600052602260045260246000fd5b61451180620002d66000396000f3fe60806040526004361061012a5760003560e01c8063715018a6116100ab578063ae12e7341161006f578063ae12e734146103dc578063b88d4fde146103f8578063c87b56dd14610421578063e985e9c51461045e578063f2fde38b1461049b578063f656eece146104c45761012a565b8063715018a61461031b5780638da5cb5b1461033257806395d89b411461035d5780639a3488b614610388578063a22cb465146103b35761012a565b806323b872dd116100f257806323b872dd1461022657806342842e0e1461024f57806351cff8d9146102785780636352211e146102a157806370a08231146102de5761012a565b806301ffc9a71461012f57806306fdde031461016c578063081812fc14610197578063095ea7b3146101d45780630fe74b25146101fd575b600080fd5b34801561013b57600080fd5b5061015660048036038101906101519190612dc9565b610501565b604051610163919061360f565b60405180910390f35b34801561017857600080fd5b506101816105e3565b60405161018e919061366f565b60405180910390f35b3480156101a357600080fd5b506101be60048036038101906101b99190612f15565b610675565b6040516101cb91906134cb565b60405180910390f35b3480156101e057600080fd5b506101fb60048036038101906101f69190612d89565b6106bb565b005b34801561020957600080fd5b50610224600480360381019061021f9190612d2d565b6107d3565b005b34801561023257600080fd5b5061024d60048036038101906102489190612c17565b6108a2565b005b34801561025b57600080fd5b5061027660048036038101906102719190612c17565b610902565b005b34801561028457600080fd5b5061029f600480360381019061029a9190612baa565b610922565b005b3480156102ad57600080fd5b506102c860048036038101906102c39190612f15565b6109e4565b6040516102d591906134cb565b60405180910390f35b3480156102ea57600080fd5b5061030560048036038101906103009190612b50565b610a6b565b60405161031291906139f1565b60405180910390f35b34801561032757600080fd5b50610330610b23565b005b34801561033e57600080fd5b50610347610b37565b60405161035491906134cb565b60405180910390f35b34801561036957600080fd5b50610372610b60565b60405161037f919061366f565b60405180910390f35b34801561039457600080fd5b5061039d610bf2565b6040516103aa91906139f1565b60405180910390f35b3480156103bf57600080fd5b506103da60048036038101906103d59190612ced565b610bfc565b005b6103f660048036038101906103f19190612e23565b610c12565b005b34801561040457600080fd5b5061041f600480360381019061041a9190612c6a565b6110a4565b005b34801561042d57600080fd5b5061044860048036038101906104439190612f15565b611106565b604051610455919061366f565b60405180910390f35b34801561046a57600080fd5b5061048560048036038101906104809190612bd7565b611118565b604051610492919061360f565b60405180910390f35b3480156104a757600080fd5b506104c260048036038101906104bd9190612b50565b6111ac565b005b3480156104d057600080fd5b506104eb60048036038101906104e69190612f15565b611230565b6040516104f891906139f1565b60405180910390f35b60007f80ac58cd000000000000000000000000000000000000000000000000000000007bffffffffffffffffffffffffffffffffffffffffffffffffffffffff1916827bffffffffffffffffffffffffffffffffffffffffffffffffffffffff191614806105cc57507f5b5e139f000000000000000000000000000000000000000000000000000000007bffffffffffffffffffffffffffffffffffffffffffffffffffffffff1916827bffffffffffffffffffffffffffffffffffffffffffffffffffffffff1916145b806105dc57506105db82611290565b5b9050919050565b6060600280546105f290613c94565b80601f016020809104026020016040519081016040528092919081815260200182805461061e90613c94565b801561066b5780601f106106405761010080835404028352916020019161066b565b820191906000526020600020905b81548152906001019060200180831161064e57829003601f168201915b5050505050905090565b6000610680826112fa565b6006600083815260200190815260200160002060009054906101000a900473ffffffffffffffffffffffffffffffffffffffff169050919050565b60006106c6826109e4565b90508073ffffffffffffffffffffffffffffffffffffffff168373ffffffffffffffffffffffffffffffffffffffff161415610737576040517f08c379a000000000000000000000000000000000000000000000000000000000815260040161072e90613951565b60405180910390fd5b8073ffffffffffffffffffffffffffffffffffffffff16610756611345565b73ffffffffffffffffffffffffffffffffffffffff16148061078557506107848161077f611345565b611118565b5b6107c4576040517f08c379a00000000000000000000000000000000000000000000000000000000081526004016107bb90613971565b60405180910390fd5b6107ce838361134d565b505050565b6107db611406565b6107e3611484565b600073ffffffffffffffffffffffffffffffffffffffff168273ffffffffffffffffffffffffffffffffffffffff161415610853576040517f08c379a000000000000000000000000000000000000000000000000000000000815260040161084a90613911565b60405180910390fd5b7ff5e2cdb3c1806169fcc9a8e62feb5b0ed61f7825a7b228a0b2b9cdc124a3a1da82826040516108849291906135df565b60405180910390a161089682826114d4565b61089e61150d565b5050565b6108b36108ad611345565b82611516565b6108f2576040517f08c379a00000000000000000000000000000000000000000000000000000000081526004016108e9906136b1565b60405180910390fd5b6108fd8383836115ab565b505050565b61091d838383604051806020016040528060008152506110a4565b505050565b61092a611406565b600073ffffffffffffffffffffffffffffffffffffffff168173ffffffffffffffffffffffffffffffffffffffff16141561099a576040517f08c379a000000000000000000000000000000000000000000000000000000000815260040161099190613831565b60405180910390fd5b8073ffffffffffffffffffffffffffffffffffffffff166108fc479081150290604051600060405180830381858888f193505050501580156109e0573d6000803e3d6000fd5b5050565b6000806109f0836118a5565b9050600073ffffffffffffffffffffffffffffffffffffffff168173ffffffffffffffffffffffffffffffffffffffff161415610a62576040517f08c379a0000000000000000000000000000000000000000000000000000000008152600401610a5990613931565b60405180910390fd5b80915050919050565b60008073ffffffffffffffffffffffffffffffffffffffff168273ffffffffffffffffffffffffffffffffffffffff161415610adc576040517f08c379a0000000000000000000000000000000000000000000000000000000008152600401610ad390613851565b60405180910390fd5b600560008373ffffffffffffffffffffffffffffffffffffffff1673ffffffffffffffffffffffffffffffffffffffff168152602001908152602001600020549050919050565b610b2b611406565b610b3560006118e2565b565b60008060009054906101000a900473ffffffffffffffffffffffffffffffffffffffff16905090565b606060038054610b6f90613c94565b80601f0160208091040260200160405190810160405280929190818152602001828054610b9b90613c94565b8015610be85780601f10610bbd57610100808354040283529160200191610be8565b820191906000526020600020905b815481529060010190602001808311610bcb57829003601f168201915b5050505050905090565b6000600a54905090565b610c0e610c07611345565b83836119a6565b5050565b610c1a611484565b6000341415610c5e576040517f08c379a0000000000000000000000000000000000000000000000000000000008152600401610c55906138d1565b60405180910390fd5b600a543414610ca2576040517f08c379a0000000000000000000000000000000000000000000000000000000008152600401610c9990613891565b60405180910390fd5b600280811115610cb557610cb4613d5f565b5b866002811115610cc857610cc7613d5f565b5b148015610cf95750600280811115610ce357610ce2613d5f565b5b856002811115610cf657610cf5613d5f565b5b14155b610d38576040517f08c379a0000000000000000000000000000000000000000000000000000000008152600401610d2f906137f1565b60405180910390fd5b610d40610b37565b73ffffffffffffffffffffffffffffffffffffffff16610d608383611b13565b73ffffffffffffffffffffffffffffffffffffffff1614610db6576040517f08c379a0000000000000000000000000000000000000000000000000000000008152600401610dad90613791565b60405180910390fd5b600b81604051610dc6919061346a565b908152602001604051809103902060009054906101000a900460ff1615610e22576040517f08c379a0000000000000000000000000000000000000000000000000000000008152600401610e19906139b1565b60405180910390fd5b60008390503373ffffffffffffffffffffffffffffffffffffffff168173ffffffffffffffffffffffffffffffffffffffff16636352211e876040518263ffffffff1660e01b8152600401610e7791906139f1565b60206040518083038186803b158015610e8f57600080fd5b505afa158015610ea3573d6000803e3d6000fd5b505050506040513d601f19601f82011682018060405250810190610ec79190612b7d565b73ffffffffffffffffffffffffffffffffffffffff1614610f1d576040517f08c379a0000000000000000000000000000000000000000000000000000000008152600401610f1490613731565b60405180910390fd5b8373ffffffffffffffffffffffffffffffffffffffff166323b872dd3330886040518463ffffffff1660e01b8152600401610f5a9392919061355c565b600060405180830381600087803b158015610f7457600080fd5b505af1158015610f88573d6000803e3d6000fd5b505050507f077b4f649a490b65bd23bf638dec092f8438ff3e5fd0e495efcd71316f8b5f0833308373ffffffffffffffffffffffffffffffffffffffff1663c87b56dd896040518263ffffffff1660e01b8152600401610fe891906139f1565b60006040518083038186803b15801561100057600080fd5b505afa158015611014573d6000803e3d6000fd5b505050506040513d6000823e3d601f19601f8201168201806040525081019061103d9190612ecc565b88348c8c60405161105497969594939291906134e6565b60405180910390a16001600b8360405161106e919061346a565b908152602001604051809103902060006101000a81548160ff0219169083151502179055505061109c61150d565b505050505050565b6110b56110af611345565b83611516565b6110f4576040517f08c379a00000000000000000000000000000000000000000000000000000000081526004016110eb906136b1565b60405180910390fd5b61110084848484611b52565b50505050565b606061111182611bae565b9050919050565b6000600760008473ffffffffffffffffffffffffffffffffffffffff1673ffffffffffffffffffffffffffffffffffffffff16815260200190815260200160002060008373ffffffffffffffffffffffffffffffffffffffff1673ffffffffffffffffffffffffffffffffffffffff16815260200190815260200160002060009054906101000a900460ff16905092915050565b6111b4611406565b600073ffffffffffffffffffffffffffffffffffffffff168173ffffffffffffffffffffffffffffffffffffffff161415611224576040517f08c379a000000000000000000000000000000000000000000000000000000000815260040161121b90613711565b60405180910390fd5b61122d816118e2565b50565b600061123a611406565b81600a54141561127f576040517f08c379a000000000000000000000000000000000000000000000000000000000815260040161127690613991565b60405180910390fd5b81600a81905550600a549050919050565b60007f01ffc9a7000000000000000000000000000000000000000000000000000000007bffffffffffffffffffffffffffffffffffffffffffffffffffffffff1916827bffffffffffffffffffffffffffffffffffffffffffffffffffffffff1916149050919050565b61130381611cc1565b611342576040517f08c379a000000000000000000000000000000000000000000000000000000000815260040161133990613931565b60405180910390fd5b50565b600033905090565b816006600083815260200190815260200160002060006101000a81548173ffffffffffffffffffffffffffffffffffffffff021916908373ffffffffffffffffffffffffffffffffffffffff160217905550808273ffffffffffffffffffffffffffffffffffffffff166113c0836109e4565b73ffffffffffffffffffffffffffffffffffffffff167f8c5be1e5ebec7d5bd14f71427d1e84f3dd0314c0f7b2291e5b200ac8c7c3b92560405160405180910390a45050565b61140e611345565b73ffffffffffffffffffffffffffffffffffffffff1661142c610b37565b73ffffffffffffffffffffffffffffffffffffffff1614611482576040517f08c379a0000000000000000000000000000000000000000000000000000000008152600401611479906138f1565b60405180910390fd5b565b600260015414156114ca576040517f08c379a00000000000000000000000000000000000000000000000000000000081526004016114c1906139d1565b60405180910390fd5b6002600181905550565b6114dc611406565b60006114e86009611d02565b90506114f46009611d10565b6114fe8382611d26565b6115088183611d44565b505050565b60018081905550565b600080611522836109e4565b90508073ffffffffffffffffffffffffffffffffffffffff168473ffffffffffffffffffffffffffffffffffffffff16148061156457506115638185611118565b5b806115a257508373ffffffffffffffffffffffffffffffffffffffff1661158a84610675565b73ffffffffffffffffffffffffffffffffffffffff16145b91505092915050565b8273ffffffffffffffffffffffffffffffffffffffff166115cb826109e4565b73ffffffffffffffffffffffffffffffffffffffff1614611621576040517f08c379a000000000000000000000000000000000000000000000000000000000815260040161161890613751565b60405180910390fd5b600073ffffffffffffffffffffffffffffffffffffffff168273ffffffffffffffffffffffffffffffffffffffff161415611691576040517f08c379a0000000000000000000000000000000000000000000000000000000008152600401611688906137b1565b60405180910390fd5b61169e8383836001611db8565b8273ffffffffffffffffffffffffffffffffffffffff166116be826109e4565b73ffffffffffffffffffffffffffffffffffffffff1614611714576040517f08c379a000000000000000000000000000000000000000000000000000000000815260040161170b90613751565b60405180910390fd5b6006600082815260200190815260200160002060006101000a81549073ffffffffffffffffffffffffffffffffffffffff02191690556001600560008573ffffffffffffffffffffffffffffffffffffffff1673ffffffffffffffffffffffffffffffffffffffff168152602001908152602001600020600082825403925050819055506001600560008473ffffffffffffffffffffffffffffffffffffffff1673ffffffffffffffffffffffffffffffffffffffff16815260200190815260200160002060008282540192505081905550816004600083815260200190815260200160002060006101000a81548173ffffffffffffffffffffffffffffffffffffffff021916908373ffffffffffffffffffffffffffffffffffffffff160217905550808273ffffffffffffffffffffffffffffffffffffffff168473ffffffffffffffffffffffffffffffffffffffff167fddf252ad1be2c89b69c2b068fc378daa952ba7f163c4a11628f55a4df523b3ef60405160405180910390a46118a08383836001611ede565b505050565b60006004600083815260200190815260200160002060009054906101000a900473ffffffffffffffffffffffffffffffffffffffff169050919050565b60008060009054906101000a900473ffffffffffffffffffffffffffffffffffffffff169050816000806101000a81548173ffffffffffffffffffffffffffffffffffffffff021916908373ffffffffffffffffffffffffffffffffffffffff1602179055508173ffffffffffffffffffffffffffffffffffffffff168173ffffffffffffffffffffffffffffffffffffffff167f8be0079c531659141344cd1fd0a4f28419497f9722a3daafe3b4186f6b6457e060405160405180910390a35050565b8173ffffffffffffffffffffffffffffffffffffffff168373ffffffffffffffffffffffffffffffffffffffff161415611a15576040517f08c379a0000000000000000000000000000000000000000000000000000000008152600401611a0c906137d1565b60405180910390fd5b80600760008573ffffffffffffffffffffffffffffffffffffffff1673ffffffffffffffffffffffffffffffffffffffff16815260200190815260200160002060008473ffffffffffffffffffffffffffffffffffffffff1673ffffffffffffffffffffffffffffffffffffffff16815260200190815260200160002060006101000a81548160ff0219169083151502179055508173ffffffffffffffffffffffffffffffffffffffff168373ffffffffffffffffffffffffffffffffffffffff167f17307eab39ab6107e8899845ad3d59bd9653f200f220920489ca2b5937696c3183604051611b06919061360f565b60405180910390a3505050565b60008083604051602001611b2791906134a5565b604051602081830303815290604052805190602001209050611b498184611ee4565b91505092915050565b611b5d8484846115ab565b611b6984848484611f0b565b611ba8576040517f08c379a0000000000000000000000000000000000000000000000000000000008152600401611b9f906136f1565b60405180910390fd5b50505050565b6060611bb9826112fa565b6000600860008481526020019081526020016000208054611bd990613c94565b80601f0160208091040260200160405190810160405280929190818152602001828054611c0590613c94565b8015611c525780601f10611c2757610100808354040283529160200191611c52565b820191906000526020600020905b815481529060010190602001808311611c3557829003601f168201915b505050505090506000611c636120a2565b9050600081511415611c79578192505050611cbc565b600082511115611cae578082604051602001611c96929190613481565b60405160208183030381529060405292505050611cbc565b611cb7846120b9565b925050505b919050565b60008073ffffffffffffffffffffffffffffffffffffffff16611ce3836118a5565b73ffffffffffffffffffffffffffffffffffffffff1614159050919050565b600081600001549050919050565b6001816000016000828254019250508190555050565b611d40828260405180602001604052806000815250612121565b5050565b611d4d82611cc1565b611d8c576040517f08c379a0000000000000000000000000000000000000000000000000000000008152600401611d8390613871565b60405180910390fd5b80600860008481526020019081526020016000209080519060200190611db392919061288b565b505050565b6001811115611ed857600073ffffffffffffffffffffffffffffffffffffffff168473ffffffffffffffffffffffffffffffffffffffff1614611e4c5780600560008673ffffffffffffffffffffffffffffffffffffffff1673ffffffffffffffffffffffffffffffffffffffff1681526020019081526020016000206000828254611e449190613b37565b925050819055505b600073ffffffffffffffffffffffffffffffffffffffff168373ffffffffffffffffffffffffffffffffffffffff1614611ed75780600560008573ffffffffffffffffffffffffffffffffffffffff1673ffffffffffffffffffffffffffffffffffffffff1681526020019081526020016000206000828254611ecf9190613ae1565b925050819055505b5b50505050565b50505050565b6000806000611ef3858561217c565b91509150611f00816121ce565b819250505092915050565b6000611f2c8473ffffffffffffffffffffffffffffffffffffffff1661233c565b15612095578373ffffffffffffffffffffffffffffffffffffffff1663150b7a02611f55611345565b8786866040518563ffffffff1660e01b8152600401611f779493929190613593565b602060405180830381600087803b158015611f9157600080fd5b505af1925050508015611fc257506040513d601f19601f82011682018060405250810190611fbf9190612df6565b60015b612045573d8060008114611ff2576040519150601f19603f3d011682016040523d82523d6000602084013e611ff7565b606091505b5060008151141561203d576040517f08c379a0000000000000000000000000000000000000000000000000000000008152600401612034906136f1565b60405180910390fd5b805181602001fd5b63150b7a0260e01b7bffffffffffffffffffffffffffffffffffffffffffffffffffffffff1916817bffffffffffffffffffffffffffffffffffffffffffffffffffffffff19161491505061209a565b600190505b949350505050565b606060405180602001604052806000815250905090565b60606120c4826112fa565b60006120ce6120a2565b905060008151116120ee5760405180602001604052806000815250612119565b806120f88461235f565b604051602001612109929190613481565b6040516020818303038152906040525b915050919050565b61212b8383612437565b6121386000848484611f0b565b612177576040517f08c379a000000000000000000000000000000000000000000000000000000000815260040161216e906136f1565b60405180910390fd5b505050565b6000806041835114156121be5760008060006020860151925060408601519150606086015160001a90506121b287828585612655565b945094505050506121c7565b60006002915091505b9250929050565b600060048111156121e2576121e1613d5f565b5b8160048111156121f5576121f4613d5f565b5b141561220057612339565b6001600481111561221457612213613d5f565b5b81600481111561222757612226613d5f565b5b1415612268576040517f08c379a000000000000000000000000000000000000000000000000000000000815260040161225f90613691565b60405180910390fd5b6002600481111561227c5761227b613d5f565b5b81600481111561228f5761228e613d5f565b5b14156122d0576040517f08c379a00000000000000000000000000000000000000000000000000000000081526004016122c7906136d1565b60405180910390fd5b600360048111156122e4576122e3613d5f565b5b8160048111156122f7576122f6613d5f565b5b1415612338576040517f08c379a000000000000000000000000000000000000000000000000000000000815260040161232f90613811565b60405180910390fd5b5b50565b6000808273ffffffffffffffffffffffffffffffffffffffff163b119050919050565b60606000600161236e84612738565b01905060008167ffffffffffffffff81111561238d5761238c613dbd565b5b6040519080825280601f01601f1916602001820160405280156123bf5781602001600182028036833780820191505090505b509050600082602001820190505b60011561242c578080600190039150507f3031323334353637383961626364656600000000000000000000000000000000600a86061a8153600a858161241657612415613d30565b5b04945060008514156124275761242c565b6123cd565b819350505050919050565b600073ffffffffffffffffffffffffffffffffffffffff168273ffffffffffffffffffffffffffffffffffffffff1614156124a7576040517f08c379a000000000000000000000000000000000000000000000000000000000815260040161249e906138b1565b60405180910390fd5b6124b081611cc1565b156124f0576040517f08c379a00000000000000000000000000000000000000000000000000000000081526004016124e790613771565b60405180910390fd5b6124fe600083836001611db8565b61250781611cc1565b15612547576040517f08c379a000000000000000000000000000000000000000000000000000000000815260040161253e90613771565b60405180910390fd5b6001600560008473ffffffffffffffffffffffffffffffffffffffff1673ffffffffffffffffffffffffffffffffffffffff16815260200190815260200160002060008282540192505081905550816004600083815260200190815260200160002060006101000a81548173ffffffffffffffffffffffffffffffffffffffff021916908373ffffffffffffffffffffffffffffffffffffffff160217905550808273ffffffffffffffffffffffffffffffffffffffff16600073ffffffffffffffffffffffffffffffffffffffff167fddf252ad1be2c89b69c2b068fc378daa952ba7f163c4a11628f55a4df523b3ef60405160405180910390a4612651600083836001611ede565b5050565b6000807f7fffffffffffffffffffffffffffffff5d576e7357a4501ddfe92f46681b20a08360001c111561269057600060039150915061272f565b6000600187878787604051600081526020016040526040516126b5949392919061362a565b6020604051602081039080840390855afa1580156126d7573d6000803e3d6000fd5b505050602060405103519050600073ffffffffffffffffffffffffffffffffffffffff168173ffffffffffffffffffffffffffffffffffffffff1614156127265760006001925092505061272f565b80600092509250505b94509492505050565b600080600090507a184f03e93ff9f4daa797ed6e38ed64bf6a1f0100000000000000008310612796577a184f03e93ff9f4daa797ed6e38ed64bf6a1f010000000000000000838161278c5761278b613d30565b5b0492506040810190505b6d04ee2d6d415b85acef810000000083106127d3576d04ee2d6d415b85acef810000000083816127c9576127c8613d30565b5b0492506020810190505b662386f26fc10000831061280257662386f26fc1000083816127f8576127f7613d30565b5b0492506010810190505b6305f5e100831061282b576305f5e100838161282157612820613d30565b5b0492506008810190505b612710831061285057612710838161284657612845613d30565b5b0492506004810190505b60648310612873576064838161286957612868613d30565b5b0492506002810190505b600a8310612882576001810190505b80915050919050565b82805461289790613c94565b90600052602060002090601f0160209004810192826128b95760008555612900565b82601f106128d257805160ff1916838001178555612900565b82800160010185558215612900579182015b828111156128ff5782518255916020019190600101906128e4565b5b50905061290d9190612911565b5090565b5b8082111561292a576000816000905550600101612912565b5090565b600061294161293c84613a31565b613a0c565b90508281526020810184848401111561295d5761295c613df1565b5b612968848285613c52565b509392505050565b600061298361297e84613a62565b613a0c565b90508281526020810184848401111561299f5761299e613df1565b5b6129aa848285613c52565b509392505050565b60006129c56129c084613a62565b613a0c565b9050828152602081018484840111156129e1576129e0613df1565b5b6129ec848285613c61565b509392505050565b600081359050612a0381614431565b92915050565b600081519050612a1881614431565b92915050565b600081359050612a2d81614448565b92915050565b600081359050612a428161445f565b92915050565b600081359050612a5781614476565b92915050565b600081359050612a6c8161448d565b92915050565b600081519050612a818161448d565b92915050565b600082601f830112612a9c57612a9b613dec565b5b8135612aac84826020860161292e565b91505092915050565b600081359050612ac4816144a4565b92915050565b600081359050612ad9816144b4565b92915050565b600082601f830112612af457612af3613dec565b5b8135612b04848260208601612970565b91505092915050565b600082601f830112612b2257612b21613dec565b5b8151612b328482602086016129b2565b91505092915050565b600081359050612b4a816144c4565b92915050565b600060208284031215612b6657612b65613dfb565b5b6000612b74848285016129f4565b91505092915050565b600060208284031215612b9357612b92613dfb565b5b6000612ba184828501612a09565b91505092915050565b600060208284031215612bc057612bbf613dfb565b5b6000612bce84828501612a1e565b91505092915050565b60008060408385031215612bee57612bed613dfb565b5b6000612bfc858286016129f4565b9250506020612c0d858286016129f4565b9150509250929050565b600080600060608486031215612c3057612c2f613dfb565b5b6000612c3e868287016129f4565b9350506020612c4f868287016129f4565b9250506040612c6086828701612b3b565b9150509250925092565b60008060008060808587031215612c8457612c83613dfb565b5b6000612c92878288016129f4565b9450506020612ca3878288016129f4565b9350506040612cb487828801612b3b565b925050606085013567ffffffffffffffff811115612cd557612cd4613df6565b5b612ce187828801612a87565b91505092959194509250565b60008060408385031215612d0457612d03613dfb565b5b6000612d12858286016129f4565b9250506020612d2385828601612a33565b9150509250929050565b60008060408385031215612d4457612d43613dfb565b5b6000612d52858286016129f4565b925050602083013567ffffffffffffffff811115612d7357612d72613df6565b5b612d7f85828601612adf565b9150509250929050565b60008060408385031215612da057612d9f613dfb565b5b6000612dae858286016129f4565b9250506020612dbf85828601612b3b565b9150509250929050565b600060208284031215612ddf57612dde613dfb565b5b6000612ded84828501612a5d565b91505092915050565b600060208284031215612e0c57612e0b613dfb565b5b6000612e1a84828501612a72565b91505092915050565b60008060008060008060c08789031215612e4057612e3f613dfb565b5b6000612e4e89828a01612aca565b9650506020612e5f89828a01612ab5565b9550506040612e7089828a01612b3b565b9450506060612e8189828a016129f4565b9350506080612e9289828a01612a48565b92505060a087013567ffffffffffffffff811115612eb357612eb2613df6565b5b612ebf89828a01612a87565b9150509295509295509295565b600060208284031215612ee257612ee1613dfb565b5b600082015167ffffffffffffffff811115612f0057612eff613df6565b5b612f0c84828501612b0d565b91505092915050565b600060208284031215612f2b57612f2a613dfb565b5b6000612f3984828501612b3b565b91505092915050565b612f4b81613b6b565b82525050565b612f5a81613b8f565b82525050565b612f6981613b9b565b82525050565b612f80612f7b82613b9b565b613cf7565b82525050565b6000612f9182613a93565b612f9b8185613aa9565b9350612fab818560208601613c61565b612fb481613e00565b840191505092915050565b6000612fca82613a93565b612fd48185613aba565b9350612fe4818560208601613c61565b80840191505092915050565b612ff981613c2e565b82525050565b61300881613c40565b82525050565b600061301982613a9e565b6130238185613ac5565b9350613033818560208601613c61565b61303c81613e00565b840191505092915050565b600061305282613a9e565b61305c8185613ad6565b935061306c818560208601613c61565b80840191505092915050565b6000613085601883613ac5565b915061309082613e11565b602082019050919050565b60006130a8602d83613ac5565b91506130b382613e3a565b604082019050919050565b60006130cb601f83613ac5565b91506130d682613e89565b602082019050919050565b60006130ee601c83613ad6565b91506130f982613eb2565b601c82019050919050565b6000613111603283613ac5565b915061311c82613edb565b604082019050919050565b6000613134602683613ac5565b915061313f82613f2a565b604082019050919050565b6000613157601f83613ac5565b915061316282613f79565b602082019050919050565b600061317a602583613ac5565b915061318582613fa2565b604082019050919050565b600061319d601c83613ac5565b91506131a882613ff1565b602082019050919050565b60006131c0601983613ac5565b91506131cb8261401a565b602082019050919050565b60006131e3602483613ac5565b91506131ee82614043565b604082019050919050565b6000613206601983613ac5565b915061321182614092565b602082019050919050565b6000613229600d83613ac5565b9150613234826140bb565b602082019050919050565b600061324c602283613ac5565b9150613257826140e4565b604082019050919050565b600061326f601683613ac5565b915061327a82614133565b602082019050919050565b6000613292602983613ac5565b915061329d8261415c565b604082019050919050565b60006132b5602e83613ac5565b91506132c0826141ab565b604082019050919050565b60006132d8601483613ac5565b91506132e3826141fa565b602082019050919050565b60006132fb602083613ac5565b915061330682614223565b602082019050919050565b600061331e601583613ac5565b91506133298261424c565b602082019050919050565b6000613341602083613ac5565b915061334c82614275565b602082019050919050565b6000613364601383613ac5565b915061336f8261429e565b602082019050919050565b6000613387601883613ac5565b9150613392826142c7565b602082019050919050565b60006133aa602183613ac5565b91506133b5826142f0565b604082019050919050565b60006133cd603d83613ac5565b91506133d88261433f565b604082019050919050565b60006133f0601483613ac5565b91506133fb8261438e565b602082019050919050565b6000613413601683613ac5565b915061341e826143b7565b602082019050919050565b6000613436601f83613ac5565b9150613441826143e0565b602082019050919050565b61345581613c17565b82525050565b61346481613c21565b82525050565b60006134768284612fbf565b915081905092915050565b600061348d8285613047565b91506134998284613047565b91508190509392505050565b60006134b0826130e1565b91506134bc8284612f6f565b60208201915081905092915050565b60006020820190506134e06000830184612f42565b92915050565b600060e0820190506134fb600083018a612f42565b6135086020830189612f42565b818103604083015261351a818861300e565b9050613529606083018761344c565b613536608083018661344c565b61354360a0830185612fff565b61355060c0830184612ff0565b98975050505050505050565b60006060820190506135716000830186612f42565b61357e6020830185612f42565b61358b604083018461344c565b949350505050565b60006080820190506135a86000830187612f42565b6135b56020830186612f42565b6135c2604083018561344c565b81810360608301526135d48184612f86565b905095945050505050565b60006040820190506135f46000830185612f42565b8181036020830152613606818461300e565b90509392505050565b60006020820190506136246000830184612f51565b92915050565b600060808201905061363f6000830187612f60565b61364c602083018661345b565b6136596040830185612f60565b6136666060830184612f60565b95945050505050565b60006020820190508181036000830152613689818461300e565b905092915050565b600060208201905081810360008301526136aa81613078565b9050919050565b600060208201905081810360008301526136ca8161309b565b9050919050565b600060208201905081810360008301526136ea816130be565b9050919050565b6000602082019050818103600083015261370a81613104565b9050919050565b6000602082019050818103600083015261372a81613127565b9050919050565b6000602082019050818103600083015261374a8161314a565b9050919050565b6000602082019050818103600083015261376a8161316d565b9050919050565b6000602082019050818103600083015261378a81613190565b9050919050565b600060208201905081810360008301526137aa816131b3565b9050919050565b600060208201905081810360008301526137ca816131d6565b9050919050565b600060208201905081810360008301526137ea816131f9565b9050919050565b6000602082019050818103600083015261380a8161321c565b9050919050565b6000602082019050818103600083015261382a8161323f565b9050919050565b6000602082019050818103600083015261384a81613262565b9050919050565b6000602082019050818103600083015261386a81613285565b9050919050565b6000602082019050818103600083015261388a816132a8565b9050919050565b600060208201905081810360008301526138aa816132cb565b9050919050565b600060208201905081810360008301526138ca816132ee565b9050919050565b600060208201905081810360008301526138ea81613311565b9050919050565b6000602082019050818103600083015261390a81613334565b9050919050565b6000602082019050818103600083015261392a81613357565b9050919050565b6000602082019050818103600083015261394a8161337a565b9050919050565b6000602082019050818103600083015261396a8161339d565b9050919050565b6000602082019050818103600083015261398a816133c0565b9050919050565b600060208201905081810360008301526139aa816133e3565b9050919050565b600060208201905081810360008301526139ca81613406565b9050919050565b600060208201905081810360008301526139ea81613429565b9050919050565b6000602082019050613a06600083018461344c565b92915050565b6000613a16613a27565b9050613a228282613cc6565b919050565b6000604051905090565b600067ffffffffffffffff821115613a4c57613a4b613dbd565b5b613a5582613e00565b9050602081019050919050565b600067ffffffffffffffff821115613a7d57613a7c613dbd565b5b613a8682613e00565b9050602081019050919050565b600081519050919050565b600081519050919050565b600082825260208201905092915050565b600081905092915050565b600082825260208201905092915050565b600081905092915050565b6000613aec82613c17565b9150613af783613c17565b9250827fffffffffffffffffffffffffffffffffffffffffffffffffffffffffffffffff03821115613b2c57613b2b613d01565b5b828201905092915050565b6000613b4282613c17565b9150613b4d83613c17565b925082821015613b6057613b5f613d01565b5b828203905092915050565b6000613b7682613bf7565b9050919050565b6000613b8882613bf7565b9050919050565b60008115159050919050565b6000819050919050565b60007fffffffff0000000000000000000000000000000000000000000000000000000082169050919050565b6000819050613bdf82614409565b919050565b6000819050613bf28261441d565b919050565b600073ffffffffffffffffffffffffffffffffffffffff82169050919050565b6000819050919050565b600060ff82169050919050565b6000613c3982613bd1565b9050919050565b6000613c4b82613be4565b9050919050565b82818337600083830152505050565b60005b83811015613c7f578082015181840152602081019050613c64565b83811115613c8e576000848401525b50505050565b60006002820490506001821680613cac57607f821691505b60208210811415613cc057613cbf613d8e565b5b50919050565b613ccf82613e00565b810181811067ffffffffffffffff82111715613cee57613ced613dbd565b5b80604052505050565b6000819050919050565b7f4e487b7100000000000000000000000000000000000000000000000000000000600052601160045260246000fd5b7f4e487b7100000000000000000000000000000000000000000000000000000000600052601260045260246000fd5b7f4e487b7100000000000000000000000000000000000000000000000000000000600052602160045260246000fd5b7f4e487b7100000000000000000000000000000000000000000000000000000000600052602260045260246000fd5b7f4e487b7100000000000000000000000000000000000000000000000000000000600052604160045260246000fd5b600080fd5b600080fd5b600080fd5b600080fd5b6000601f19601f8301169050919050565b7f45434453413a20696e76616c6964207369676e61747572650000000000000000600082015250565b7f4552433732313a2063616c6c6572206973206e6f7420746f6b656e206f776e6560008201527f72206f7220617070726f76656400000000000000000000000000000000000000602082015250565b7f45434453413a20696e76616c6964207369676e6174757265206c656e67746800600082015250565b7f19457468657265756d205369676e6564204d6573736167653a0a333200000000600082015250565b7f4552433732313a207472616e7366657220746f206e6f6e20455243373231526560008201527f63656976657220696d706c656d656e7465720000000000000000000000000000602082015250565b7f4f776e61626c653a206e6577206f776e657220697320746865207a65726f206160008201527f6464726573730000000000000000000000000000000000000000000000000000602082015250565b7f4f6e6c7920746865206f776e65722063616e206c6f636b20746865204e465400600082015250565b7f4552433732313a207472616e736665722066726f6d20696e636f72726563742060008201527f6f776e6572000000000000000000000000000000000000000000000000000000602082015250565b7f4552433732313a20746f6b656e20616c7265616479206d696e74656400000000600082015250565b7f41646472657373206973206e6f7420617574686f72697a656400000000000000600082015250565b7f4552433732313a207472616e7366657220746f20746865207a65726f2061646460008201527f7265737300000000000000000000000000000000000000000000000000000000602082015250565b7f4552433732313a20617070726f766520746f2063616c6c657200000000000000600082015250565b7f496e76616c696420636861696e00000000000000000000000000000000000000600082015250565b7f45434453413a20696e76616c6964207369676e6174757265202773272076616c60008201527f7565000000000000000000000000000000000000000000000000000000000000602082015250565b7f416464726573732063616e6e6f74206265207a65726f00000000000000000000600082015250565b7f4552433732313a2061646472657373207a65726f206973206e6f74206120766160008201527f6c6964206f776e65720000000000000000000000000000000000000000000000602082015250565b7f45524337323155524953746f726167653a2055524920736574206f66206e6f6e60008201527f6578697374656e7420746f6b656e000000000000000000000000000000000000602082015250565b7f466565732073686f756c6420626520657175616c000000000000000000000000600082015250565b7f4552433732313a206d696e7420746f20746865207a65726f2061646472657373600082015250565b7f56616c75652073686f756c64206e6f7420626520300000000000000000000000600082015250565b7f4f776e61626c653a2063616c6c6572206973206e6f7420746865206f776e6572600082015250565b7f416464726573732063616e6e6f74206265203000000000000000000000000000600082015250565b7f4552433732313a20696e76616c696420746f6b656e2049440000000000000000600082015250565b7f4552433732313a20617070726f76616c20746f2063757272656e74206f776e6560008201527f7200000000000000000000000000000000000000000000000000000000000000602082015250565b7f4552433732313a20617070726f76652063616c6c6572206973206e6f7420746f60008201527f6b656e206f776e6572206f7220617070726f76656420666f7220616c6c000000602082015250565b7f4665657320697320616c72656164792073616d65000000000000000000000000600082015250565b7f416c7265616479207369676e6174757265207573656400000000000000000000600082015250565b7f5265656e7472616e637947756172643a207265656e7472616e742063616c6c00600082015250565b6003811061441a57614419613d5f565b5b50565b6003811061442e5761442d613d5f565b5b50565b61443a81613b6b565b811461444557600080fd5b50565b61445181613b7d565b811461445c57600080fd5b50565b61446881613b8f565b811461447357600080fd5b50565b61447f81613b9b565b811461448a57600080fd5b50565b61449681613ba5565b81146144a157600080fd5b50565b600381106144b157600080fd5b50565b600381106144c157600080fd5b50565b6144cd81613c17565b81146144d857600080fd5b5056fea264697066735822122064515f1f3a41c6651cb3de7a109b78efeb47d0b1cc8d1a658a09400d0f22e8c164736f6c63430008070033",
  "linkReferences": {},
  "deployedLinkReferences": {}
}