{
  "_format": "hh-sol-artifact-1",
  "contractName": "NftBridgePolygon",
  "sourceName": "contracts/NftBridgePolygon.sol",
  "abi": [
    {
      "inputs": [],
      "stateMutability": "nonpayable",
      "type": "constructor"
    },
    {
      "anonymous": false,
      "inputs": [
        {
          "indexed": true,
          "internalType": "address",
          "name": "owner",
          "type": "address"
        },
        {
          "indexed": true,
          "internalType": "address",
          "name": "approved",
          "type": "address"
        },
        {
          "indexed": true,
          "internalType": "uint256",
          "name": "tokenId",
          "type": "uint256"
        }
      ],
      "name": "Approval",
      "type": "event"
    },
    {
      "anonymous": false,
      "inputs": [
        {
          "indexed": true,
          "internalType": "address",
          "name": "owner",
          "type": "address"
        },
        {
          "indexed": true,
          "internalType": "address",
          "name": "operator",
          "type": "address"
        },
        {
          "indexed": false,
          "internalType": "bool",
          "name": "approved",
          "type": "bool"
        }
      ],
      "name": "ApprovalForAll",
      "type": "event"
    },
    {
      "anonymous": false,
      "inputs": [
        {
          "indexed": false,
          "internalType": "address",
          "name": "_from",
          "type": "address"
        },
        {
          "indexed": false,
          "internalType": "address",
          "name": "_to",
          "type": "address"
        },
        {
          "indexed": false,
          "internalType": "string",
          "name": "_uri",
          "type": "string"
        },
        {
          "indexed": false,
          "internalType": "uint256",
          "name": "_tokenId",
          "type": "uint256"
        },
        {
          "indexed": false,
          "internalType": "uint256",
          "name": "_value",
          "type": "uint256"
        },
        {
          "indexed": false,
          "internalType": "enum NftBridgePolygon.SourceChain",
          "name": "_sourceChain",
          "type": "uint8"
        },
        {
          "indexed": false,
          "internalType": "enum NftBridgePolygon.DestinationChain",
          "name": "_destinationChain",
          "type": "uint8"
        }
      ],
      "name": "LockedNft",
      "type": "event"
    },
    {
      "anonymous": false,
      "inputs": [
        {
          "indexed": false,
          "internalType": "address",
          "name": "_to",
          "type": "address"
        },
        {
          "indexed": false,
          "internalType": "string",
          "name": "_uri",
          "type": "string"
        }
      ],
      "name": "NftTransferedToDestinationChain",
      "type": "event"
    },
    {
      "anonymous": false,
      "inputs": [
        {
          "indexed": true,
          "internalType": "address",
          "name": "previousOwner",
          "type": "address"
        },
        {
          "indexed": true,
          "internalType": "address",
          "name": "newOwner",
          "type": "address"
        }
      ],
      "name": "OwnershipTransferred",
      "type": "event"
    },
    {
      "anonymous": false,
      "inputs": [
        {
          "indexed": false,
          "internalType": "address",
          "name": "account",
          "type": "address"
        }
      ],
      "name": "Paused",
      "type": "event"
    },
    {
      "anonymous": false,
      "inputs": [
        {
          "indexed": true,
          "internalType": "address",
          "name": "from",
          "type": "address"
        },
        {
          "indexed": true,
          "internalType": "address",
          "name": "to",
          "type": "address"
        },
        {
          "indexed": true,
          "internalType": "uint256",
          "name": "tokenId",
          "type": "uint256"
        }
      ],
      "name": "Transfer",
      "type": "event"
    },
    {
      "anonymous": false,
      "inputs": [
        {
          "indexed": false,
          "internalType": "address",
          "name": "account",
          "type": "address"
        }
      ],
      "name": "Unpaused",
      "type": "event"
    },
    {
      "inputs": [
        {
          "internalType": "address",
          "name": "to",
          "type": "address"
        },
        {
          "internalType": "uint256",
          "name": "tokenId",
          "type": "uint256"
        }
      ],
      "name": "approve",
      "outputs": [],
      "stateMutability": "nonpayable",
      "type": "function"
    },
    {
      "inputs": [
        {
          "internalType": "address",
          "name": "owner",
          "type": "address"
        }
      ],
      "name": "balanceOf",
      "outputs": [
        {
          "internalType": "uint256",
          "name": "",
          "type": "uint256"
        }
      ],
      "stateMutability": "view",
      "type": "function"
    },
    {
      "inputs": [
        {
          "internalType": "uint256",
          "name": "newSmartContractFees",
          "type": "uint256"
        }
      ],
      "name": "changeSmartContractFees",
      "outputs": [
        {
          "internalType": "uint256",
          "name": "",
          "type": "uint256"
        }
      ],
      "stateMutability": "nonpayable",
      "type": "function"
    },
    {
      "inputs": [
        {
          "internalType": "uint256",
          "name": "tokenId",
          "type": "uint256"
        }
      ],
      "name": "getApproved",
      "outputs": [
        {
          "internalType": "address",
          "name": "",
          "type": "address"
        }
      ],
      "stateMutability": "view",
      "type": "function"
    },
    {
      "inputs": [],
      "name": "getSmartContractFees",
      "outputs": [
        {
          "internalType": "uint256",
          "name": "",
          "type": "uint256"
        }
      ],
      "stateMutability": "view",
      "type": "function"
    },
    {
      "inputs": [
        {
          "internalType": "address",
          "name": "owner",
          "type": "address"
        },
        {
          "internalType": "address",
          "name": "operator",
          "type": "address"
        }
      ],
      "name": "isApprovedForAll",
      "outputs": [
        {
          "internalType": "bool",
          "name": "",
          "type": "bool"
        }
      ],
      "stateMutability": "view",
      "type": "function"
    },
    {
      "inputs": [
        {
          "internalType": "enum NftBridgePolygon.SourceChain",
          "name": "sourceChain",
          "type": "uint8"
        },
        {
          "internalType": "enum NftBridgePolygon.DestinationChain",
          "name": "destinationChain",
          "type": "uint8"
        },
        {
          "internalType": "uint256",
          "name": "tokenId",
          "type": "uint256"
        },
        {
          "internalType": "address",
          "name": "tokenAddress",
          "type": "address"
        },
        {
          "internalType": "bytes32",
          "name": "hash",
          "type": "bytes32"
        },
        {
          "internalType": "bytes",
          "name": "signature",
          "type": "bytes"
        }
      ],
      "name": "lockNft",
      "outputs": [],
      "stateMutability": "payable",
      "type": "function"
    },
    {
      "inputs": [],
      "name": "name",
      "outputs": [
        {
          "internalType": "string",
          "name": "",
          "type": "string"
        }
      ],
      "stateMutability": "view",
      "type": "function"
    },
    {
      "inputs": [],
      "name": "owner",
      "outputs": [
        {
          "internalType": "address",
          "name": "",
          "type": "address"
        }
      ],
      "stateMutability": "view",
      "type": "function"
    },
    {
      "inputs": [
        {
          "internalType": "uint256",
          "name": "tokenId",
          "type": "uint256"
        }
      ],
      "name": "ownerOf",
      "outputs": [
        {
          "internalType": "address",
          "name": "",
          "type": "address"
        }
      ],
      "stateMutability": "view",
      "type": "function"
    },
    {
      "inputs": [],
      "name": "pause",
      "outputs": [],
      "stateMutability": "nonpayable",
      "type": "function"
    },
    {
      "inputs": [],
      "name": "paused",
      "outputs": [
        {
          "internalType": "bool",
          "name": "",
          "type": "bool"
        }
      ],
      "stateMutability": "view",
      "type": "function"
    },
    {
      "inputs": [],
      "name": "renounceOwnership",
      "outputs": [],
      "stateMutability": "nonpayable",
      "type": "function"
    },
    {
      "inputs": [
        {
          "internalType": "address",
          "name": "from",
          "type": "address"
        },
        {
          "internalType": "address",
          "name": "to",
          "type": "address"
        },
        {
          "internalType": "uint256",
          "name": "tokenId",
          "type": "uint256"
        }
      ],
      "name": "safeTransferFrom",
      "outputs": [],
      "stateMutability": "nonpayable",
      "type": "function"
    },
    {
      "inputs": [
        {
          "internalType": "address",
          "name": "from",
          "type": "address"
        },
        {
          "internalType": "address",
          "name": "to",
          "type": "address"
        },
        {
          "internalType": "uint256",
          "name": "tokenId",
          "type": "uint256"
        },
        {
          "internalType": "bytes",
          "name": "data",
          "type": "bytes"
        }
      ],
      "name": "safeTransferFrom",
      "outputs": [],
      "stateMutability": "nonpayable",
      "type": "function"
    },
    {
      "inputs": [
        {
          "internalType": "address",
          "name": "operator",
          "type": "address"
        },
        {
          "internalType": "bool",
          "name": "approved",
          "type": "bool"
        }
      ],
      "name": "setApprovalForAll",
      "outputs": [],
      "stateMutability": "nonpayable",
      "type": "function"
    },
    {
      "inputs": [
        {
          "internalType": "bytes4",
          "name": "interfaceId",
          "type": "bytes4"
        }
      ],
      "name": "supportsInterface",
      "outputs": [
        {
          "internalType": "bool",
          "name": "",
          "type": "bool"
        }
      ],
      "stateMutability": "view",
      "type": "function"
    },
    {
      "inputs": [],
      "name": "symbol",
      "outputs": [
        {
          "internalType": "string",
          "name": "",
          "type": "string"
        }
      ],
      "stateMutability": "view",
      "type": "function"
    },
    {
      "inputs": [
        {
          "internalType": "uint256",
          "name": "tokenId",
          "type": "uint256"
        }
      ],
      "name": "tokenURI",
      "outputs": [
        {
          "internalType": "string",
          "name": "",
          "type": "string"
        }
      ],
      "stateMutability": "view",
      "type": "function"
    },
    {
      "inputs": [
        {
          "internalType": "address",
          "name": "from",
          "type": "address"
        },
        {
          "internalType": "address",
          "name": "to",
          "type": "address"
        },
        {
          "internalType": "uint256",
          "name": "tokenId",
          "type": "uint256"
        }
      ],
      "name": "transferFrom",
      "outputs": [],
      "stateMutability": "nonpayable",
      "type": "function"
    },
    {
      "inputs": [
        {
          "internalType": "address",
          "name": "recipient",
          "type": "address"
        },
        {
          "internalType": "string",
          "name": "uri",
          "type": "string"
        }
      ],
      "name": "transferNft",
      "outputs": [],
      "stateMutability": "nonpayable",
      "type": "function"
    },
    {
      "inputs": [
        {
          "internalType": "uint256",
          "name": "tokenId",
          "type": "uint256"
        },
        {
          "internalType": "address",
          "name": "recipient",
          "type": "address"
        },
        {
          "internalType": "address",
          "name": "tokenAddress",
          "type": "address"
        }
      ],
      "name": "transferNftBackToUser",
      "outputs": [],
      "stateMutability": "nonpayable",
      "type": "function"
    },
    {
      "inputs": [
        {
          "internalType": "address",
          "name": "newOwner",
          "type": "address"
        }
      ],
      "name": "transferOwnership",
      "outputs": [],
      "stateMutability": "nonpayable",
      "type": "function"
    },
    {
      "inputs": [],
      "name": "unpause",
      "outputs": [],
      "stateMutability": "nonpayable",
      "type": "function"
    },
    {
      "inputs": [
        {
          "internalType": "address payable",
          "name": "recipient",
          "type": "address"
        }
      ],
      "name": "withdraw",
      "outputs": [],
      "stateMutability": "nonpayable",
      "type": "function"
    },
    {
      "inputs": [
        {
          "internalType": "uint256",
          "name": "tokenId",
          "type": "uint256"
        },
        {
          "internalType": "address",
          "name": "recipient",
          "type": "address"
        },
        {
          "internalType": "address",
          "name": "tokenAddress",
          "type": "address"
        }
      ],
      "name": "withdrawNft",
      "outputs": [],
      "stateMutability": "nonpayable",
      "type": "function"
    }
  ],
  "bytecode": "0x60806040526103e8600a553480156200001757600080fd5b506040518060400160405280601081526020017f4e6674427269646765506f6c79676f6e000000000000000000000000000000008152506040518060400160405280600981526020017f4e42504f4c59474f4e0000000000000000000000000000000000000000000000815250620000a462000098620000ff60201b60201c565b6200010760201b60201c565b60008060146101000a81548160ff021916908315150217905550600180819055508160029080519060200190620000dd929190620001cb565b508060039080519060200190620000f6929190620001cb565b505050620002e0565b600033905090565b60008060009054906101000a900473ffffffffffffffffffffffffffffffffffffffff169050816000806101000a81548173ffffffffffffffffffffffffffffffffffffffff021916908373ffffffffffffffffffffffffffffffffffffffff1602179055508173ffffffffffffffffffffffffffffffffffffffff168173ffffffffffffffffffffffffffffffffffffffff167f8be0079c531659141344cd1fd0a4f28419497f9722a3daafe3b4186f6b6457e060405160405180910390a35050565b828054620001d9906200027b565b90600052602060002090601f016020900481019282620001fd576000855562000249565b82601f106200021857805160ff191683800117855562000249565b8280016001018555821562000249579182015b82811115620002485782518255916020019190600101906200022b565b5b5090506200025891906200025c565b5090565b5b80821115620002775760008160009055506001016200025d565b5090565b600060028204905060018216806200029457607f821691505b60208210811415620002ab57620002aa620002b1565b5b50919050565b7f4e487b7100000000000000000000000000000000000000000000000000000000600052602260045260246000fd5b614c6c80620002f06000396000f3fe6080604052600436106101815760003560e01c8063715018a6116100d1578063aafbb3311161008a578063c87b56dd11610064578063c87b56dd14610523578063e985e9c514610560578063f2fde38b1461059d578063f656eece146105c657610181565b8063aafbb331146104b5578063ae12e734146104de578063b88d4fde146104fa57610181565b8063715018a6146103dd5780638456cb59146103f45780638da5cb5b1461040b57806395d89b41146104365780639a3488b614610461578063a22cb4651461048c57610181565b80633f4ba83a1161013e57806351cff8d91161011857806351cff8d91461030f5780635c975abb146103385780636352211e1461036357806370a08231146103a057610181565b80633f4ba83a146102a657806340f9b947146102bd57806342842e0e146102e657610181565b806301ffc9a71461018657806306fdde03146101c3578063081812fc146101ee578063095ea7b31461022b5780630fe74b251461025457806323b872dd1461027d575b600080fd5b34801561019257600080fd5b506101ad60048036038101906101a8919061338d565b610603565b6040516101ba9190613c8f565b60405180910390f35b3480156101cf57600080fd5b506101d86106e5565b6040516101e59190613cef565b60405180910390f35b3480156101fa57600080fd5b50610215600480360381019061021091906134d9565b610777565b6040516102229190613b4b565b60405180910390f35b34801561023757600080fd5b50610252600480360381019061024d919061334d565b6107bd565b005b34801561026057600080fd5b5061027b600480360381019061027691906132f1565b6108d5565b005b34801561028957600080fd5b506102a4600480360381019061029f91906131db565b6109ac565b005b3480156102b257600080fd5b506102bb610a0c565b005b3480156102c957600080fd5b506102e460048036038101906102df9190613506565b610a1e565b005b3480156102f257600080fd5b5061030d600480360381019061030891906131db565b610ba6565b005b34801561031b57600080fd5b506103366004803603810190610331919061316e565b610bc6565b005b34801561034457600080fd5b5061034d610c98565b60405161035a9190613c8f565b60405180910390f35b34801561036f57600080fd5b5061038a600480360381019061038591906134d9565b610cae565b6040516103979190613b4b565b60405180910390f35b3480156103ac57600080fd5b506103c760048036038101906103c29190613114565b610d35565b6040516103d491906140d1565b60405180910390f35b3480156103e957600080fd5b506103f2610ded565b005b34801561040057600080fd5b50610409610e01565b005b34801561041757600080fd5b50610420610e13565b60405161042d9190613b4b565b60405180910390f35b34801561044257600080fd5b5061044b610e3c565b6040516104589190613cef565b60405180910390f35b34801561046d57600080fd5b50610476610ece565b60405161048391906140d1565b60405180910390f35b34801561049857600080fd5b506104b360048036038101906104ae91906132b1565b610ed8565b005b3480156104c157600080fd5b506104dc60048036038101906104d79190613506565b610eee565b005b6104f860048036038101906104f391906133e7565b611076565b005b34801561050657600080fd5b50610521600480360381019061051c919061322e565b611510565b005b34801561052f57600080fd5b5061054a600480360381019061054591906134d9565b611572565b6040516105579190613cef565b60405180910390f35b34801561056c57600080fd5b506105876004803603810190610582919061319b565b611584565b6040516105949190613c8f565b60405180910390f35b3480156105a957600080fd5b506105c460048036038101906105bf9190613114565b611618565b005b3480156105d257600080fd5b506105ed60048036038101906105e891906134d9565b61169c565b6040516105fa91906140d1565b60405180910390f35b60007f80ac58cd000000000000000000000000000000000000000000000000000000007bffffffffffffffffffffffffffffffffffffffffffffffffffffffff1916827bffffffffffffffffffffffffffffffffffffffffffffffffffffffff191614806106ce57507f5b5e139f000000000000000000000000000000000000000000000000000000007bffffffffffffffffffffffffffffffffffffffffffffffffffffffff1916827bffffffffffffffffffffffffffffffffffffffffffffffffffffffff1916145b806106de57506106dd826116fc565b5b9050919050565b6060600280546106f490614374565b80601f016020809104026020016040519081016040528092919081815260200182805461072090614374565b801561076d5780601f106107425761010080835404028352916020019161076d565b820191906000526020600020905b81548152906001019060200180831161075057829003601f168201915b5050505050905090565b600061078282611766565b6006600083815260200190815260200160002060009054906101000a900473ffffffffffffffffffffffffffffffffffffffff169050919050565b60006107c882610cae565b90508073ffffffffffffffffffffffffffffffffffffffff168373ffffffffffffffffffffffffffffffffffffffff161415610839576040517f08c379a000000000000000000000000000000000000000000000000000000000815260040161083090614031565b60405180910390fd5b8073ffffffffffffffffffffffffffffffffffffffff166108586117b1565b73ffffffffffffffffffffffffffffffffffffffff1614806108875750610886816108816117b1565b611584565b5b6108c6576040517f08c379a00000000000000000000000000000000000000000000000000000000081526004016108bd90614051565b60405180910390fd5b6108d083836117b9565b505050565b6108dd611872565b6108e56118f0565b6108ed61193a565b600073ffffffffffffffffffffffffffffffffffffffff168273ffffffffffffffffffffffffffffffffffffffff16141561095d576040517f08c379a000000000000000000000000000000000000000000000000000000000815260040161095490613ff1565b60405180910390fd5b7ff5e2cdb3c1806169fcc9a8e62feb5b0ed61f7825a7b228a0b2b9cdc124a3a1da828260405161098e929190613c5f565b60405180910390a16109a0828261198a565b6109a86119c3565b5050565b6109bd6109b76117b1565b826119cc565b6109fc576040517f08c379a00000000000000000000000000000000000000000000000000000000081526004016109f390613d51565b60405180910390fd5b610a07838383611a61565b505050565b610a14611872565b610a1c611d5b565b565b610a26611872565b610a2e61193a565b60008190503073ffffffffffffffffffffffffffffffffffffffff168173ffffffffffffffffffffffffffffffffffffffff16636352211e866040518263ffffffff1660e01b8152600401610a8391906140d1565b60206040518083038186803b158015610a9b57600080fd5b505afa158015610aaf573d6000803e3d6000fd5b505050506040513d601f19601f82011682018060405250810190610ad39190613141565b73ffffffffffffffffffffffffffffffffffffffff1614610b29576040517f08c379a0000000000000000000000000000000000000000000000000000000008152600401610b2090613fb1565b60405180910390fd5b8173ffffffffffffffffffffffffffffffffffffffff166323b872dd3085876040518463ffffffff1660e01b8152600401610b6693929190613bdc565b600060405180830381600087803b158015610b8057600080fd5b505af1158015610b94573d6000803e3d6000fd5b5050505050610ba16119c3565b505050565b610bc183838360405180602001604052806000815250611510565b505050565b610bce611872565b610bd661193a565b600073ffffffffffffffffffffffffffffffffffffffff168173ffffffffffffffffffffffffffffffffffffffff161415610c46576040517f08c379a0000000000000000000000000000000000000000000000000000000008152600401610c3d90613ed1565b60405180910390fd5b8073ffffffffffffffffffffffffffffffffffffffff166108fc479081150290604051600060405180830381858888f19350505050158015610c8c573d6000803e3d6000fd5b50610c956119c3565b50565b60008060149054906101000a900460ff16905090565b600080610cba83611dbd565b9050600073ffffffffffffffffffffffffffffffffffffffff168173ffffffffffffffffffffffffffffffffffffffff161415610d2c576040517f08c379a0000000000000000000000000000000000000000000000000000000008152600401610d2390614011565b60405180910390fd5b80915050919050565b60008073ffffffffffffffffffffffffffffffffffffffff168273ffffffffffffffffffffffffffffffffffffffff161415610da6576040517f08c379a0000000000000000000000000000000000000000000000000000000008152600401610d9d90613f11565b60405180910390fd5b600560008373ffffffffffffffffffffffffffffffffffffffff1673ffffffffffffffffffffffffffffffffffffffff168152602001908152602001600020549050919050565b610df5611872565b610dff6000611dfa565b565b610e09611872565b610e11611ebe565b565b60008060009054906101000a900473ffffffffffffffffffffffffffffffffffffffff16905090565b606060038054610e4b90614374565b80601f0160208091040260200160405190810160405280929190818152602001828054610e7790614374565b8015610ec45780601f10610e9957610100808354040283529160200191610ec4565b820191906000526020600020905b815481529060010190602001808311610ea757829003601f168201915b5050505050905090565b6000600a54905090565b610eea610ee36117b1565b8383611f21565b5050565b610ef6611872565b610efe61193a565b60008190503073ffffffffffffffffffffffffffffffffffffffff168173ffffffffffffffffffffffffffffffffffffffff16636352211e866040518263ffffffff1660e01b8152600401610f5391906140d1565b60206040518083038186803b158015610f6b57600080fd5b505afa158015610f7f573d6000803e3d6000fd5b505050506040513d601f19601f82011682018060405250810190610fa39190613141565b73ffffffffffffffffffffffffffffffffffffffff1614610ff9576040517f08c379a0000000000000000000000000000000000000000000000000000000008152600401610ff090613fb1565b60405180910390fd5b8173ffffffffffffffffffffffffffffffffffffffff166323b872dd3085876040518463ffffffff1660e01b815260040161103693929190613bdc565b600060405180830381600087803b15801561105057600080fd5b505af1158015611064573d6000803e3d6000fd5b50505050506110716119c3565b505050565b61107e6118f0565b61108661193a565b60003414156110ca576040517f08c379a00000000000000000000000000000000000000000000000000000000081526004016110c190613f91565b60405180910390fd5b600a54341461110e576040517f08c379a000000000000000000000000000000000000000000000000000000000815260040161110590613f51565b60405180910390fd5b6002808111156111215761112061443f565b5b8660028111156111345761113361443f565b5b148015611165575060028081111561114f5761114e61443f565b5b8560028111156111625761116161443f565b5b14155b6111a4576040517f08c379a000000000000000000000000000000000000000000000000000000000815260040161119b90613e91565b60405180910390fd5b6111ac610e13565b73ffffffffffffffffffffffffffffffffffffffff166111cc838361208e565b73ffffffffffffffffffffffffffffffffffffffff1614611222576040517f08c379a000000000000000000000000000000000000000000000000000000000815260040161121990613e31565b60405180910390fd5b600b816040516112329190613aea565b908152602001604051809103902060009054906101000a900460ff161561128e576040517f08c379a000000000000000000000000000000000000000000000000000000000815260040161128590614091565b60405180910390fd5b60008390503373ffffffffffffffffffffffffffffffffffffffff168173ffffffffffffffffffffffffffffffffffffffff16636352211e876040518263ffffffff1660e01b81526004016112e391906140d1565b60206040518083038186803b1580156112fb57600080fd5b505afa15801561130f573d6000803e3d6000fd5b505050506040513d601f19601f820116820180604052508101906113339190613141565b73ffffffffffffffffffffffffffffffffffffffff1614611389576040517f08c379a000000000000000000000000000000000000000000000000000000000815260040161138090613dd1565b60405180910390fd5b8373ffffffffffffffffffffffffffffffffffffffff166323b872dd3330886040518463ffffffff1660e01b81526004016113c693929190613bdc565b600060405180830381600087803b1580156113e057600080fd5b505af11580156113f4573d6000803e3d6000fd5b505050507f077b4f649a490b65bd23bf638dec092f8438ff3e5fd0e495efcd71316f8b5f0833308373ffffffffffffffffffffffffffffffffffffffff1663c87b56dd896040518263ffffffff1660e01b815260040161145491906140d1565b60006040518083038186803b15801561146c57600080fd5b505afa158015611480573d6000803e3d6000fd5b505050506040513d6000823e3d601f19601f820116820180604052508101906114a99190613490565b88348c8c6040516114c09796959493929190613b66565b60405180910390a16001600b836040516114da9190613aea565b908152602001604051809103902060006101000a81548160ff021916908315150217905550506115086119c3565b505050505050565b61152161151b6117b1565b836119cc565b611560576040517f08c379a000000000000000000000000000000000000000000000000000000000815260040161155790613d51565b60405180910390fd5b61156c848484846120cd565b50505050565b606061157d82612129565b9050919050565b6000600760008473ffffffffffffffffffffffffffffffffffffffff1673ffffffffffffffffffffffffffffffffffffffff16815260200190815260200160002060008373ffffffffffffffffffffffffffffffffffffffff1673ffffffffffffffffffffffffffffffffffffffff16815260200190815260200160002060009054906101000a900460ff16905092915050565b611620611872565b600073ffffffffffffffffffffffffffffffffffffffff168173ffffffffffffffffffffffffffffffffffffffff161415611690576040517f08c379a000000000000000000000000000000000000000000000000000000000815260040161168790613db1565b60405180910390fd5b61169981611dfa565b50565b60006116a6611872565b81600a5414156116eb576040517f08c379a00000000000000000000000000000000000000000000000000000000081526004016116e290614071565b60405180910390fd5b81600a81905550600a549050919050565b60007f01ffc9a7000000000000000000000000000000000000000000000000000000007bffffffffffffffffffffffffffffffffffffffffffffffffffffffff1916827bffffffffffffffffffffffffffffffffffffffffffffffffffffffff1916149050919050565b61176f8161223c565b6117ae576040517f08c379a00000000000000000000000000000000000000000000000000000000081526004016117a590614011565b60405180910390fd5b50565b600033905090565b816006600083815260200190815260200160002060006101000a81548173ffffffffffffffffffffffffffffffffffffffff021916908373ffffffffffffffffffffffffffffffffffffffff160217905550808273ffffffffffffffffffffffffffffffffffffffff1661182c83610cae565b73ffffffffffffffffffffffffffffffffffffffff167f8c5be1e5ebec7d5bd14f71427d1e84f3dd0314c0f7b2291e5b200ac8c7c3b92560405160405180910390a45050565b61187a6117b1565b73ffffffffffffffffffffffffffffffffffffffff16611898610e13565b73ffffffffffffffffffffffffffffffffffffffff16146118ee576040517f08c379a00000000000000000000000000000000000000000000000000000000081526004016118e590613fd1565b60405180910390fd5b565b6118f8610c98565b15611938576040517f08c379a000000000000000000000000000000000000000000000000000000000815260040161192f90613ef1565b60405180910390fd5b565b60026001541415611980576040517f08c379a0000000000000000000000000000000000000000000000000000000008152600401611977906140b1565b60405180910390fd5b6002600181905550565b611992611872565b600061199e600961227d565b90506119aa600961228b565b6119b483826122a1565b6119be81836122bf565b505050565b60018081905550565b6000806119d883610cae565b90508073ffffffffffffffffffffffffffffffffffffffff168473ffffffffffffffffffffffffffffffffffffffff161480611a1a5750611a198185611584565b5b80611a5857508373ffffffffffffffffffffffffffffffffffffffff16611a4084610777565b73ffffffffffffffffffffffffffffffffffffffff16145b91505092915050565b8273ffffffffffffffffffffffffffffffffffffffff16611a8182610cae565b73ffffffffffffffffffffffffffffffffffffffff1614611ad7576040517f08c379a0000000000000000000000000000000000000000000000000000000008152600401611ace90613df1565b60405180910390fd5b600073ffffffffffffffffffffffffffffffffffffffff168273ffffffffffffffffffffffffffffffffffffffff161415611b47576040517f08c379a0000000000000000000000000000000000000000000000000000000008152600401611b3e90613e51565b60405180910390fd5b611b548383836001612333565b8273ffffffffffffffffffffffffffffffffffffffff16611b7482610cae565b73ffffffffffffffffffffffffffffffffffffffff1614611bca576040517f08c379a0000000000000000000000000000000000000000000000000000000008152600401611bc190613df1565b60405180910390fd5b6006600082815260200190815260200160002060006101000a81549073ffffffffffffffffffffffffffffffffffffffff02191690556001600560008573ffffffffffffffffffffffffffffffffffffffff1673ffffffffffffffffffffffffffffffffffffffff168152602001908152602001600020600082825403925050819055506001600560008473ffffffffffffffffffffffffffffffffffffffff1673ffffffffffffffffffffffffffffffffffffffff16815260200190815260200160002060008282540192505081905550816004600083815260200190815260200160002060006101000a81548173ffffffffffffffffffffffffffffffffffffffff021916908373ffffffffffffffffffffffffffffffffffffffff160217905550808273ffffffffffffffffffffffffffffffffffffffff168473ffffffffffffffffffffffffffffffffffffffff167fddf252ad1be2c89b69c2b068fc378daa952ba7f163c4a11628f55a4df523b3ef60405160405180910390a4611d568383836001612459565b505050565b611d6361245f565b60008060146101000a81548160ff0219169083151502179055507f5db9ee0a495bf2e6ff9c91a7834c1ba4fdd244a5e8aa4e537bd38aeae4b073aa611da66117b1565b604051611db39190613b4b565b60405180910390a1565b60006004600083815260200190815260200160002060009054906101000a900473ffffffffffffffffffffffffffffffffffffffff169050919050565b60008060009054906101000a900473ffffffffffffffffffffffffffffffffffffffff169050816000806101000a81548173ffffffffffffffffffffffffffffffffffffffff021916908373ffffffffffffffffffffffffffffffffffffffff1602179055508173ffffffffffffffffffffffffffffffffffffffff168173ffffffffffffffffffffffffffffffffffffffff167f8be0079c531659141344cd1fd0a4f28419497f9722a3daafe3b4186f6b6457e060405160405180910390a35050565b611ec66118f0565b6001600060146101000a81548160ff0219169083151502179055507f62e78cea01bee320cd4e420270b5ea74000d11b0c9f74754ebdbfc544b05a258611f0a6117b1565b604051611f179190613b4b565b60405180910390a1565b8173ffffffffffffffffffffffffffffffffffffffff168373ffffffffffffffffffffffffffffffffffffffff161415611f90576040517f08c379a0000000000000000000000000000000000000000000000000000000008152600401611f8790613e71565b60405180910390fd5b80600760008573ffffffffffffffffffffffffffffffffffffffff1673ffffffffffffffffffffffffffffffffffffffff16815260200190815260200160002060008473ffffffffffffffffffffffffffffffffffffffff1673ffffffffffffffffffffffffffffffffffffffff16815260200190815260200160002060006101000a81548160ff0219169083151502179055508173ffffffffffffffffffffffffffffffffffffffff168373ffffffffffffffffffffffffffffffffffffffff167f17307eab39ab6107e8899845ad3d59bd9653f200f220920489ca2b5937696c31836040516120819190613c8f565b60405180910390a3505050565b600080836040516020016120a29190613b25565b6040516020818303038152906040528051906020012090506120c481846124a8565b91505092915050565b6120d8848484611a61565b6120e4848484846124cf565b612123576040517f08c379a000000000000000000000000000000000000000000000000000000000815260040161211a90613d91565b60405180910390fd5b50505050565b606061213482611766565b600060086000848152602001908152602001600020805461215490614374565b80601f016020809104026020016040519081016040528092919081815260200182805461218090614374565b80156121cd5780601f106121a2576101008083540402835291602001916121cd565b820191906000526020600020905b8154815290600101906020018083116121b057829003601f168201915b5050505050905060006121de612666565b90506000815114156121f4578192505050612237565b600082511115612229578082604051602001612211929190613b01565b60405160208183030381529060405292505050612237565b6122328461267d565b925050505b919050565b60008073ffffffffffffffffffffffffffffffffffffffff1661225e83611dbd565b73ffffffffffffffffffffffffffffffffffffffff1614159050919050565b600081600001549050919050565b6001816000016000828254019250508190555050565b6122bb8282604051806020016040528060008152506126e5565b5050565b6122c88261223c565b612307576040517f08c379a00000000000000000000000000000000000000000000000000000000081526004016122fe90613f31565b60405180910390fd5b8060086000848152602001908152602001600020908051906020019061232e929190612e4f565b505050565b600181111561245357600073ffffffffffffffffffffffffffffffffffffffff168473ffffffffffffffffffffffffffffffffffffffff16146123c75780600560008673ffffffffffffffffffffffffffffffffffffffff1673ffffffffffffffffffffffffffffffffffffffff16815260200190815260200160002060008282546123bf9190614217565b925050819055505b600073ffffffffffffffffffffffffffffffffffffffff168373ffffffffffffffffffffffffffffffffffffffff16146124525780600560008573ffffffffffffffffffffffffffffffffffffffff1673ffffffffffffffffffffffffffffffffffffffff168152602001908152602001600020600082825461244a91906141c1565b925050819055505b5b50505050565b50505050565b612467610c98565b6124a6576040517f08c379a000000000000000000000000000000000000000000000000000000000815260040161249d90613d31565b60405180910390fd5b565b60008060006124b78585612740565b915091506124c481612792565b819250505092915050565b60006124f08473ffffffffffffffffffffffffffffffffffffffff16612900565b15612659578373ffffffffffffffffffffffffffffffffffffffff1663150b7a026125196117b1565b8786866040518563ffffffff1660e01b815260040161253b9493929190613c13565b602060405180830381600087803b15801561255557600080fd5b505af192505050801561258657506040513d601f19601f8201168201806040525081019061258391906133ba565b60015b612609573d80600081146125b6576040519150601f19603f3d011682016040523d82523d6000602084013e6125bb565b606091505b50600081511415612601576040517f08c379a00000000000000000000000000000000000000000000000000000000081526004016125f890613d91565b60405180910390fd5b805181602001fd5b63150b7a0260e01b7bffffffffffffffffffffffffffffffffffffffffffffffffffffffff1916817bffffffffffffffffffffffffffffffffffffffffffffffffffffffff19161491505061265e565b600190505b949350505050565b606060405180602001604052806000815250905090565b606061268882611766565b6000612692612666565b905060008151116126b257604051806020016040528060008152506126dd565b806126bc84612923565b6040516020016126cd929190613b01565b6040516020818303038152906040525b915050919050565b6126ef83836129fb565b6126fc60008484846124cf565b61273b576040517f08c379a000000000000000000000000000000000000000000000000000000000815260040161273290613d91565b60405180910390fd5b505050565b6000806041835114156127825760008060006020860151925060408601519150606086015160001a905061277687828585612c19565b9450945050505061278b565b60006002915091505b9250929050565b600060048111156127a6576127a561443f565b5b8160048111156127b9576127b861443f565b5b14156127c4576128fd565b600160048111156127d8576127d761443f565b5b8160048111156127eb576127ea61443f565b5b141561282c576040517f08c379a000000000000000000000000000000000000000000000000000000000815260040161282390613d11565b60405180910390fd5b600260048111156128405761283f61443f565b5b8160048111156128535761285261443f565b5b1415612894576040517f08c379a000000000000000000000000000000000000000000000000000000000815260040161288b90613d71565b60405180910390fd5b600360048111156128a8576128a761443f565b5b8160048111156128bb576128ba61443f565b5b14156128fc576040517f08c379a00000000000000000000000000000000000000000000000000000000081526004016128f390613eb1565b60405180910390fd5b5b50565b6000808273ffffffffffffffffffffffffffffffffffffffff163b119050919050565b60606000600161293284612cfc565b01905060008167ffffffffffffffff8111156129515761295061449d565b5b6040519080825280601f01601f1916602001820160405280156129835781602001600182028036833780820191505090505b509050600082602001820190505b6001156129f0578080600190039150507f3031323334353637383961626364656600000000000000000000000000000000600a86061a8153600a85816129da576129d9614410565b5b04945060008514156129eb576129f0565b612991565b819350505050919050565b600073ffffffffffffffffffffffffffffffffffffffff168273ffffffffffffffffffffffffffffffffffffffff161415612a6b576040517f08c379a0000000000000000000000000000000000000000000000000000000008152600401612a6290613f71565b60405180910390fd5b612a748161223c565b15612ab4576040517f08c379a0000000000000000000000000000000000000000000000000000000008152600401612aab90613e11565b60405180910390fd5b612ac2600083836001612333565b612acb8161223c565b15612b0b576040517f08c379a0000000000000000000000000000000000000000000000000000000008152600401612b0290613e11565b60405180910390fd5b6001600560008473ffffffffffffffffffffffffffffffffffffffff1673ffffffffffffffffffffffffffffffffffffffff16815260200190815260200160002060008282540192505081905550816004600083815260200190815260200160002060006101000a81548173ffffffffffffffffffffffffffffffffffffffff021916908373ffffffffffffffffffffffffffffffffffffffff160217905550808273ffffffffffffffffffffffffffffffffffffffff16600073ffffffffffffffffffffffffffffffffffffffff167fddf252ad1be2c89b69c2b068fc378daa952ba7f163c4a11628f55a4df523b3ef60405160405180910390a4612c15600083836001612459565b5050565b6000807f7fffffffffffffffffffffffffffffff5d576e7357a4501ddfe92f46681b20a08360001c1115612c54576000600391509150612cf3565b600060018787878760405160008152602001604052604051612c799493929190613caa565b6020604051602081039080840390855afa158015612c9b573d6000803e3d6000fd5b505050602060405103519050600073ffffffffffffffffffffffffffffffffffffffff168173ffffffffffffffffffffffffffffffffffffffff161415612cea57600060019250925050612cf3565b80600092509250505b94509492505050565b600080600090507a184f03e93ff9f4daa797ed6e38ed64bf6a1f0100000000000000008310612d5a577a184f03e93ff9f4daa797ed6e38ed64bf6a1f0100000000000000008381612d5057612d4f614410565b5b0492506040810190505b6d04ee2d6d415b85acef81000000008310612d97576d04ee2d6d415b85acef81000000008381612d8d57612d8c614410565b5b0492506020810190505b662386f26fc100008310612dc657662386f26fc100008381612dbc57612dbb614410565b5b0492506010810190505b6305f5e1008310612def576305f5e1008381612de557612de4614410565b5b0492506008810190505b6127108310612e14576127108381612e0a57612e09614410565b5b0492506004810190505b60648310612e375760648381612e2d57612e2c614410565b5b0492506002810190505b600a8310612e46576001810190505b80915050919050565b828054612e5b90614374565b90600052602060002090601f016020900481019282612e7d5760008555612ec4565b82601f10612e9657805160ff1916838001178555612ec4565b82800160010185558215612ec4579182015b82811115612ec3578251825591602001919060010190612ea8565b5b509050612ed19190612ed5565b5090565b5b80821115612eee576000816000905550600101612ed6565b5090565b6000612f05612f0084614111565b6140ec565b905082815260208101848484011115612f2157612f206144d1565b5b612f2c848285614332565b509392505050565b6000612f47612f4284614142565b6140ec565b905082815260208101848484011115612f6357612f626144d1565b5b612f6e848285614332565b509392505050565b6000612f89612f8484614142565b6140ec565b905082815260208101848484011115612fa557612fa46144d1565b5b612fb0848285614341565b509392505050565b600081359050612fc781614b8c565b92915050565b600081519050612fdc81614b8c565b92915050565b600081359050612ff181614ba3565b92915050565b60008135905061300681614bba565b92915050565b60008135905061301b81614bd1565b92915050565b60008135905061303081614be8565b92915050565b60008151905061304581614be8565b92915050565b600082601f8301126130605761305f6144cc565b5b8135613070848260208601612ef2565b91505092915050565b60008135905061308881614bff565b92915050565b60008135905061309d81614c0f565b92915050565b600082601f8301126130b8576130b76144cc565b5b81356130c8848260208601612f34565b91505092915050565b600082601f8301126130e6576130e56144cc565b5b81516130f6848260208601612f76565b91505092915050565b60008135905061310e81614c1f565b92915050565b60006020828403121561312a576131296144db565b5b600061313884828501612fb8565b91505092915050565b600060208284031215613157576131566144db565b5b600061316584828501612fcd565b91505092915050565b600060208284031215613184576131836144db565b5b600061319284828501612fe2565b91505092915050565b600080604083850312156131b2576131b16144db565b5b60006131c085828601612fb8565b92505060206131d185828601612fb8565b9150509250929050565b6000806000606084860312156131f4576131f36144db565b5b600061320286828701612fb8565b935050602061321386828701612fb8565b9250506040613224868287016130ff565b9150509250925092565b60008060008060808587031215613248576132476144db565b5b600061325687828801612fb8565b945050602061326787828801612fb8565b9350506040613278878288016130ff565b925050606085013567ffffffffffffffff811115613299576132986144d6565b5b6132a58782880161304b565b91505092959194509250565b600080604083850312156132c8576132c76144db565b5b60006132d685828601612fb8565b92505060206132e785828601612ff7565b9150509250929050565b60008060408385031215613308576133076144db565b5b600061331685828601612fb8565b925050602083013567ffffffffffffffff811115613337576133366144d6565b5b613343858286016130a3565b9150509250929050565b60008060408385031215613364576133636144db565b5b600061337285828601612fb8565b9250506020613383858286016130ff565b9150509250929050565b6000602082840312156133a3576133a26144db565b5b60006133b184828501613021565b91505092915050565b6000602082840312156133d0576133cf6144db565b5b60006133de84828501613036565b91505092915050565b60008060008060008060c08789031215613404576134036144db565b5b600061341289828a0161308e565b965050602061342389828a01613079565b955050604061343489828a016130ff565b945050606061344589828a01612fb8565b935050608061345689828a0161300c565b92505060a087013567ffffffffffffffff811115613477576134766144d6565b5b61348389828a0161304b565b9150509295509295509295565b6000602082840312156134a6576134a56144db565b5b600082015167ffffffffffffffff8111156134c4576134c36144d6565b5b6134d0848285016130d1565b91505092915050565b6000602082840312156134ef576134ee6144db565b5b60006134fd848285016130ff565b91505092915050565b60008060006060848603121561351f5761351e6144db565b5b600061352d868287016130ff565b935050602061353e86828701612fb8565b925050604061354f86828701612fb8565b9150509250925092565b6135628161424b565b82525050565b6135718161426f565b82525050565b6135808161427b565b82525050565b6135976135928261427b565b6143d7565b82525050565b60006135a882614173565b6135b28185614189565b93506135c2818560208601614341565b6135cb816144e0565b840191505092915050565b60006135e182614173565b6135eb818561419a565b93506135fb818560208601614341565b80840191505092915050565b6136108161430e565b82525050565b61361f81614320565b82525050565b60006136308261417e565b61363a81856141a5565b935061364a818560208601614341565b613653816144e0565b840191505092915050565b60006136698261417e565b61367381856141b6565b9350613683818560208601614341565b80840191505092915050565b600061369c6018836141a5565b91506136a7826144f1565b602082019050919050565b60006136bf6014836141a5565b91506136ca8261451a565b602082019050919050565b60006136e2602d836141a5565b91506136ed82614543565b604082019050919050565b6000613705601f836141a5565b915061371082614592565b602082019050919050565b6000613728601c836141b6565b9150613733826145bb565b601c82019050919050565b600061374b6032836141a5565b9150613756826145e4565b604082019050919050565b600061376e6026836141a5565b915061377982614633565b604082019050919050565b6000613791601f836141a5565b915061379c82614682565b602082019050919050565b60006137b46025836141a5565b91506137bf826146ab565b604082019050919050565b60006137d7601c836141a5565b91506137e2826146fa565b602082019050919050565b60006137fa6019836141a5565b915061380582614723565b602082019050919050565b600061381d6024836141a5565b91506138288261474c565b604082019050919050565b60006138406019836141a5565b915061384b8261479b565b602082019050919050565b6000613863600d836141a5565b915061386e826147c4565b602082019050919050565b60006138866022836141a5565b9150613891826147ed565b604082019050919050565b60006138a96016836141a5565b91506138b48261483c565b602082019050919050565b60006138cc6010836141a5565b91506138d782614865565b602082019050919050565b60006138ef6029836141a5565b91506138fa8261488e565b604082019050919050565b6000613912602e836141a5565b915061391d826148dd565b604082019050919050565b60006139356014836141a5565b91506139408261492c565b602082019050919050565b60006139586020836141a5565b915061396382614955565b602082019050919050565b600061397b6015836141a5565b91506139868261497e565b602082019050919050565b600061399e601f836141a5565b91506139a9826149a7565b602082019050919050565b60006139c16020836141a5565b91506139cc826149d0565b602082019050919050565b60006139e46013836141a5565b91506139ef826149f9565b602082019050919050565b6000613a076018836141a5565b9150613a1282614a22565b602082019050919050565b6000613a2a6021836141a5565b9150613a3582614a4b565b604082019050919050565b6000613a4d603d836141a5565b9150613a5882614a9a565b604082019050919050565b6000613a706014836141a5565b9150613a7b82614ae9565b602082019050919050565b6000613a936016836141a5565b9150613a9e82614b12565b602082019050919050565b6000613ab6601f836141a5565b9150613ac182614b3b565b602082019050919050565b613ad5816142f7565b82525050565b613ae481614301565b82525050565b6000613af682846135d6565b915081905092915050565b6000613b0d828561365e565b9150613b19828461365e565b91508190509392505050565b6000613b308261371b565b9150613b3c8284613586565b60208201915081905092915050565b6000602082019050613b606000830184613559565b92915050565b600060e082019050613b7b600083018a613559565b613b886020830189613559565b8181036040830152613b9a8188613625565b9050613ba96060830187613acc565b613bb66080830186613acc565b613bc360a0830185613616565b613bd060c0830184613607565b98975050505050505050565b6000606082019050613bf16000830186613559565b613bfe6020830185613559565b613c0b6040830184613acc565b949350505050565b6000608082019050613c286000830187613559565b613c356020830186613559565b613c426040830185613acc565b8181036060830152613c54818461359d565b905095945050505050565b6000604082019050613c746000830185613559565b8181036020830152613c868184613625565b90509392505050565b6000602082019050613ca46000830184613568565b92915050565b6000608082019050613cbf6000830187613577565b613ccc6020830186613adb565b613cd96040830185613577565b613ce66060830184613577565b95945050505050565b60006020820190508181036000830152613d098184613625565b905092915050565b60006020820190508181036000830152613d2a8161368f565b9050919050565b60006020820190508181036000830152613d4a816136b2565b9050919050565b60006020820190508181036000830152613d6a816136d5565b9050919050565b60006020820190508181036000830152613d8a816136f8565b9050919050565b60006020820190508181036000830152613daa8161373e565b9050919050565b60006020820190508181036000830152613dca81613761565b9050919050565b60006020820190508181036000830152613dea81613784565b9050919050565b60006020820190508181036000830152613e0a816137a7565b9050919050565b60006020820190508181036000830152613e2a816137ca565b9050919050565b60006020820190508181036000830152613e4a816137ed565b9050919050565b60006020820190508181036000830152613e6a81613810565b9050919050565b60006020820190508181036000830152613e8a81613833565b9050919050565b60006020820190508181036000830152613eaa81613856565b9050919050565b60006020820190508181036000830152613eca81613879565b9050919050565b60006020820190508181036000830152613eea8161389c565b9050919050565b60006020820190508181036000830152613f0a816138bf565b9050919050565b60006020820190508181036000830152613f2a816138e2565b9050919050565b60006020820190508181036000830152613f4a81613905565b9050919050565b60006020820190508181036000830152613f6a81613928565b9050919050565b60006020820190508181036000830152613f8a8161394b565b9050919050565b60006020820190508181036000830152613faa8161396e565b9050919050565b60006020820190508181036000830152613fca81613991565b9050919050565b60006020820190508181036000830152613fea816139b4565b9050919050565b6000602082019050818103600083015261400a816139d7565b9050919050565b6000602082019050818103600083015261402a816139fa565b9050919050565b6000602082019050818103600083015261404a81613a1d565b9050919050565b6000602082019050818103600083015261406a81613a40565b9050919050565b6000602082019050818103600083015261408a81613a63565b9050919050565b600060208201905081810360008301526140aa81613a86565b9050919050565b600060208201905081810360008301526140ca81613aa9565b9050919050565b60006020820190506140e66000830184613acc565b92915050565b60006140f6614107565b905061410282826143a6565b919050565b6000604051905090565b600067ffffffffffffffff82111561412c5761412b61449d565b5b614135826144e0565b9050602081019050919050565b600067ffffffffffffffff82111561415d5761415c61449d565b5b614166826144e0565b9050602081019050919050565b600081519050919050565b600081519050919050565b600082825260208201905092915050565b600081905092915050565b600082825260208201905092915050565b600081905092915050565b60006141cc826142f7565b91506141d7836142f7565b9250827fffffffffffffffffffffffffffffffffffffffffffffffffffffffffffffffff0382111561420c5761420b6143e1565b5b828201905092915050565b6000614222826142f7565b915061422d836142f7565b9250828210156142405761423f6143e1565b5b828203905092915050565b6000614256826142d7565b9050919050565b6000614268826142d7565b9050919050565b60008115159050919050565b6000819050919050565b60007fffffffff0000000000000000000000000000000000000000000000000000000082169050919050565b60008190506142bf82614b64565b919050565b60008190506142d282614b78565b919050565b600073ffffffffffffffffffffffffffffffffffffffff82169050919050565b6000819050919050565b600060ff82169050919050565b6000614319826142b1565b9050919050565b600061432b826142c4565b9050919050565b82818337600083830152505050565b60005b8381101561435f578082015181840152602081019050614344565b8381111561436e576000848401525b50505050565b6000600282049050600182168061438c57607f821691505b602082108114156143a05761439f61446e565b5b50919050565b6143af826144e0565b810181811067ffffffffffffffff821117156143ce576143cd61449d565b5b80604052505050565b6000819050919050565b7f4e487b7100000000000000000000000000000000000000000000000000000000600052601160045260246000fd5b7f4e487b7100000000000000000000000000000000000000000000000000000000600052601260045260246000fd5b7f4e487b7100000000000000000000000000000000000000000000000000000000600052602160045260246000fd5b7f4e487b7100000000000000000000000000000000000000000000000000000000600052602260045260246000fd5b7f4e487b7100000000000000000000000000000000000000000000000000000000600052604160045260246000fd5b600080fd5b600080fd5b600080fd5b600080fd5b6000601f19601f8301169050919050565b7f45434453413a20696e76616c6964207369676e61747572650000000000000000600082015250565b7f5061757361626c653a206e6f7420706175736564000000000000000000000000600082015250565b7f4552433732313a2063616c6c6572206973206e6f7420746f6b656e206f776e6560008201527f72206f7220617070726f76656400000000000000000000000000000000000000602082015250565b7f45434453413a20696e76616c6964207369676e6174757265206c656e67746800600082015250565b7f19457468657265756d205369676e6564204d6573736167653a0a333200000000600082015250565b7f4552433732313a207472616e7366657220746f206e6f6e20455243373231526560008201527f63656976657220696d706c656d656e7465720000000000000000000000000000602082015250565b7f4f776e61626c653a206e6577206f776e657220697320746865207a65726f206160008201527f6464726573730000000000000000000000000000000000000000000000000000602082015250565b7f4f6e6c7920746865206f776e65722063616e206c6f636b20746865204e465400600082015250565b7f4552433732313a207472616e736665722066726f6d20696e636f72726563742060008201527f6f776e6572000000000000000000000000000000000000000000000000000000602082015250565b7f4552433732313a20746f6b656e20616c7265616479206d696e74656400000000600082015250565b7f41646472657373206973206e6f7420617574686f72697a656400000000000000600082015250565b7f4552433732313a207472616e7366657220746f20746865207a65726f2061646460008201527f7265737300000000000000000000000000000000000000000000000000000000602082015250565b7f4552433732313a20617070726f766520746f2063616c6c657200000000000000600082015250565b7f496e76616c696420636861696e00000000000000000000000000000000000000600082015250565b7f45434453413a20696e76616c6964207369676e6174757265202773272076616c60008201527f7565000000000000000000000000000000000000000000000000000000000000602082015250565b7f416464726573732063616e6e6f74206265207a65726f00000000000000000000600082015250565b7f5061757361626c653a2070617573656400000000000000000000000000000000600082015250565b7f4552433732313a2061646472657373207a65726f206973206e6f74206120766160008201527f6c6964206f776e65720000000000000000000000000000000000000000000000602082015250565b7f45524337323155524953746f726167653a2055524920736574206f66206e6f6e60008201527f6578697374656e7420746f6b656e000000000000000000000000000000000000602082015250565b7f466565732073686f756c6420626520657175616c000000000000000000000000600082015250565b7f4552433732313a206d696e7420746f20746865207a65726f2061646472657373600082015250565b7f56616c75652073686f756c64206e6f7420626520300000000000000000000000600082015250565b7f4f6e6c7920746865206f776e6572207472616e7366657220746865204e465400600082015250565b7f4f776e61626c653a2063616c6c6572206973206e6f7420746865206f776e6572600082015250565b7f416464726573732063616e6e6f74206265203000000000000000000000000000600082015250565b7f4552433732313a20696e76616c696420746f6b656e2049440000000000000000600082015250565b7f4552433732313a20617070726f76616c20746f2063757272656e74206f776e6560008201527f7200000000000000000000000000000000000000000000000000000000000000602082015250565b7f4552433732313a20617070726f76652063616c6c6572206973206e6f7420746f60008201527f6b656e206f776e6572206f7220617070726f76656420666f7220616c6c000000602082015250565b7f4665657320697320616c72656164792073616d65000000000000000000000000600082015250565b7f416c7265616479207369676e6174757265207573656400000000000000000000600082015250565b7f5265656e7472616e637947756172643a207265656e7472616e742063616c6c00600082015250565b60038110614b7557614b7461443f565b5b50565b60038110614b8957614b8861443f565b5b50565b614b958161424b565b8114614ba057600080fd5b50565b614bac8161425d565b8114614bb757600080fd5b50565b614bc38161426f565b8114614bce57600080fd5b50565b614bda8161427b565b8114614be557600080fd5b50565b614bf181614285565b8114614bfc57600080fd5b50565b60038110614c0c57600080fd5b50565b60038110614c1c57600080fd5b50565b614c28816142f7565b8114614c3357600080fd5b5056fea26469706673582212203d719690fba5062d035190d3fc4a67cd87a3dacd0d33a67d773d61b8744dda2364736f6c63430008070033",
  "linkReferences": {},
  "deployedLinkReferences": {}
}