{
  "_format": "hh-sol-artifact-1",
  "contractName": "NftBridgePolygon",
  "sourceName": "contracts/NftBridgePolygon.sol",
  "abi": [
    {
      "inputs": [],
      "stateMutability": "nonpayable",
      "type": "constructor"
    },
    {
      "anonymous": false,
      "inputs": [
        {
          "indexed": true,
          "internalType": "address",
          "name": "owner",
          "type": "address"
        },
        {
          "indexed": true,
          "internalType": "address",
          "name": "approved",
          "type": "address"
        },
        {
          "indexed": true,
          "internalType": "uint256",
          "name": "tokenId",
          "type": "uint256"
        }
      ],
      "name": "Approval",
      "type": "event"
    },
    {
      "anonymous": false,
      "inputs": [
        {
          "indexed": true,
          "internalType": "address",
          "name": "owner",
          "type": "address"
        },
        {
          "indexed": true,
          "internalType": "address",
          "name": "operator",
          "type": "address"
        },
        {
          "indexed": false,
          "internalType": "bool",
          "name": "approved",
          "type": "bool"
        }
      ],
      "name": "ApprovalForAll",
      "type": "event"
    },
    {
      "anonymous": false,
      "inputs": [
        {
          "indexed": false,
          "internalType": "address",
          "name": "_from",
          "type": "address"
        },
        {
          "indexed": false,
          "internalType": "address",
          "name": "_to",
          "type": "address"
        },
        {
          "indexed": false,
          "internalType": "string",
          "name": "_uri",
          "type": "string"
        },
        {
          "indexed": false,
          "internalType": "uint256",
          "name": "_tokenId",
          "type": "uint256"
        },
        {
          "indexed": false,
          "internalType": "uint256",
          "name": "_value",
          "type": "uint256"
        },
        {
          "indexed": false,
          "internalType": "enum NftBridgePolygon.SourceChain",
          "name": "_sourceChain",
          "type": "uint8"
        },
        {
          "indexed": false,
          "internalType": "enum NftBridgePolygon.DestinationChain",
          "name": "_destinationChain",
          "type": "uint8"
        }
      ],
      "name": "LockedNft",
      "type": "event"
    },
    {
      "anonymous": false,
      "inputs": [
        {
          "indexed": false,
          "internalType": "address",
          "name": "_to",
          "type": "address"
        },
        {
          "indexed": false,
          "internalType": "string",
          "name": "_uri",
          "type": "string"
        }
      ],
      "name": "NftTransferedToDestinationChain",
      "type": "event"
    },
    {
      "anonymous": false,
      "inputs": [
        {
          "indexed": true,
          "internalType": "address",
          "name": "previousOwner",
          "type": "address"
        },
        {
          "indexed": true,
          "internalType": "address",
          "name": "newOwner",
          "type": "address"
        }
      ],
      "name": "OwnershipTransferred",
      "type": "event"
    },
    {
      "anonymous": false,
      "inputs": [
        {
          "indexed": true,
          "internalType": "address",
          "name": "from",
          "type": "address"
        },
        {
          "indexed": true,
          "internalType": "address",
          "name": "to",
          "type": "address"
        },
        {
          "indexed": true,
          "internalType": "uint256",
          "name": "tokenId",
          "type": "uint256"
        }
      ],
      "name": "Transfer",
      "type": "event"
    },
    {
      "inputs": [
        {
          "internalType": "address",
          "name": "to",
          "type": "address"
        },
        {
          "internalType": "uint256",
          "name": "tokenId",
          "type": "uint256"
        }
      ],
      "name": "approve",
      "outputs": [],
      "stateMutability": "nonpayable",
      "type": "function"
    },
    {
      "inputs": [
        {
          "internalType": "address",
          "name": "owner",
          "type": "address"
        }
      ],
      "name": "balanceOf",
      "outputs": [
        {
          "internalType": "uint256",
          "name": "",
          "type": "uint256"
        }
      ],
      "stateMutability": "view",
      "type": "function"
    },
    {
      "inputs": [
        {
          "internalType": "uint256",
          "name": "newSmartContractFees",
          "type": "uint256"
        }
      ],
      "name": "changeSmartContractFees",
      "outputs": [
        {
          "internalType": "uint256",
          "name": "",
          "type": "uint256"
        }
      ],
      "stateMutability": "nonpayable",
      "type": "function"
    },
    {
      "inputs": [
        {
          "internalType": "uint256",
          "name": "tokenId",
          "type": "uint256"
        }
      ],
      "name": "getApproved",
      "outputs": [
        {
          "internalType": "address",
          "name": "",
          "type": "address"
        }
      ],
      "stateMutability": "view",
      "type": "function"
    },
    {
      "inputs": [],
      "name": "getSmartContractFees",
      "outputs": [
        {
          "internalType": "uint256",
          "name": "",
          "type": "uint256"
        }
      ],
      "stateMutability": "view",
      "type": "function"
    },
    {
      "inputs": [
        {
          "internalType": "address",
          "name": "owner",
          "type": "address"
        },
        {
          "internalType": "address",
          "name": "operator",
          "type": "address"
        }
      ],
      "name": "isApprovedForAll",
      "outputs": [
        {
          "internalType": "bool",
          "name": "",
          "type": "bool"
        }
      ],
      "stateMutability": "view",
      "type": "function"
    },
    {
      "inputs": [
        {
          "internalType": "enum NftBridgePolygon.SourceChain",
          "name": "sourceChain",
          "type": "uint8"
        },
        {
          "internalType": "enum NftBridgePolygon.DestinationChain",
          "name": "destinationChain",
          "type": "uint8"
        },
        {
          "internalType": "uint256",
          "name": "tokenId",
          "type": "uint256"
        },
        {
          "internalType": "address",
          "name": "tokenAddress",
          "type": "address"
        },
        {
          "internalType": "bytes32",
          "name": "hash",
          "type": "bytes32"
        },
        {
          "internalType": "bytes",
          "name": "signature",
          "type": "bytes"
        }
      ],
      "name": "lockNft",
      "outputs": [],
      "stateMutability": "payable",
      "type": "function"
    },
    {
      "inputs": [],
      "name": "name",
      "outputs": [
        {
          "internalType": "string",
          "name": "",
          "type": "string"
        }
      ],
      "stateMutability": "view",
      "type": "function"
    },
    {
      "inputs": [],
      "name": "owner",
      "outputs": [
        {
          "internalType": "address",
          "name": "",
          "type": "address"
        }
      ],
      "stateMutability": "view",
      "type": "function"
    },
    {
      "inputs": [
        {
          "internalType": "uint256",
          "name": "tokenId",
          "type": "uint256"
        }
      ],
      "name": "ownerOf",
      "outputs": [
        {
          "internalType": "address",
          "name": "",
          "type": "address"
        }
      ],
      "stateMutability": "view",
      "type": "function"
    },
    {
      "inputs": [],
      "name": "renounceOwnership",
      "outputs": [],
      "stateMutability": "nonpayable",
      "type": "function"
    },
    {
      "inputs": [
        {
          "internalType": "address",
          "name": "from",
          "type": "address"
        },
        {
          "internalType": "address",
          "name": "to",
          "type": "address"
        },
        {
          "internalType": "uint256",
          "name": "tokenId",
          "type": "uint256"
        }
      ],
      "name": "safeTransferFrom",
      "outputs": [],
      "stateMutability": "nonpayable",
      "type": "function"
    },
    {
      "inputs": [
        {
          "internalType": "address",
          "name": "from",
          "type": "address"
        },
        {
          "internalType": "address",
          "name": "to",
          "type": "address"
        },
        {
          "internalType": "uint256",
          "name": "tokenId",
          "type": "uint256"
        },
        {
          "internalType": "bytes",
          "name": "data",
          "type": "bytes"
        }
      ],
      "name": "safeTransferFrom",
      "outputs": [],
      "stateMutability": "nonpayable",
      "type": "function"
    },
    {
      "inputs": [
        {
          "internalType": "address",
          "name": "operator",
          "type": "address"
        },
        {
          "internalType": "bool",
          "name": "approved",
          "type": "bool"
        }
      ],
      "name": "setApprovalForAll",
      "outputs": [],
      "stateMutability": "nonpayable",
      "type": "function"
    },
    {
      "inputs": [
        {
          "internalType": "bytes4",
          "name": "interfaceId",
          "type": "bytes4"
        }
      ],
      "name": "supportsInterface",
      "outputs": [
        {
          "internalType": "bool",
          "name": "",
          "type": "bool"
        }
      ],
      "stateMutability": "view",
      "type": "function"
    },
    {
      "inputs": [],
      "name": "symbol",
      "outputs": [
        {
          "internalType": "string",
          "name": "",
          "type": "string"
        }
      ],
      "stateMutability": "view",
      "type": "function"
    },
    {
      "inputs": [
        {
          "internalType": "uint256",
          "name": "tokenId",
          "type": "uint256"
        }
      ],
      "name": "tokenURI",
      "outputs": [
        {
          "internalType": "string",
          "name": "",
          "type": "string"
        }
      ],
      "stateMutability": "view",
      "type": "function"
    },
    {
      "inputs": [
        {
          "internalType": "address",
          "name": "from",
          "type": "address"
        },
        {
          "internalType": "address",
          "name": "to",
          "type": "address"
        },
        {
          "internalType": "uint256",
          "name": "tokenId",
          "type": "uint256"
        }
      ],
      "name": "transferFrom",
      "outputs": [],
      "stateMutability": "nonpayable",
      "type": "function"
    },
    {
      "inputs": [
        {
          "internalType": "address",
          "name": "recipient",
          "type": "address"
        },
        {
          "internalType": "string",
          "name": "uri",
          "type": "string"
        }
      ],
      "name": "transferNft",
      "outputs": [],
      "stateMutability": "nonpayable",
      "type": "function"
    },
    {
      "inputs": [
        {
          "internalType": "uint256",
          "name": "tokenId",
          "type": "uint256"
        },
        {
          "internalType": "address",
          "name": "recipient",
          "type": "address"
        },
        {
          "internalType": "address",
          "name": "tokenAddress",
          "type": "address"
        }
      ],
      "name": "transferNftBackToUser",
      "outputs": [],
      "stateMutability": "nonpayable",
      "type": "function"
    },
    {
      "inputs": [
        {
          "internalType": "address",
          "name": "newOwner",
          "type": "address"
        }
      ],
      "name": "transferOwnership",
      "outputs": [],
      "stateMutability": "nonpayable",
      "type": "function"
    },
    {
      "inputs": [
        {
          "internalType": "address payable",
          "name": "recipient",
          "type": "address"
        }
      ],
      "name": "withdraw",
      "outputs": [],
      "stateMutability": "nonpayable",
      "type": "function"
    }
  ],
  "bytecode": "0x60806040526103e8600a553480156200001757600080fd5b506040518060400160405280601081526020017f4e6674427269646765506f6c79676f6e000000000000000000000000000000008152506040518060400160405280600981526020017f4e42504f4c59474f4e0000000000000000000000000000000000000000000000815250620000a462000098620000e560201b60201c565b620000ed60201b60201c565b600180819055508160029080519060200190620000c3929190620001b1565b508060039080519060200190620000dc929190620001b1565b505050620002c6565b600033905090565b60008060009054906101000a900473ffffffffffffffffffffffffffffffffffffffff169050816000806101000a81548173ffffffffffffffffffffffffffffffffffffffff021916908373ffffffffffffffffffffffffffffffffffffffff1602179055508173ffffffffffffffffffffffffffffffffffffffff168173ffffffffffffffffffffffffffffffffffffffff167f8be0079c531659141344cd1fd0a4f28419497f9722a3daafe3b4186f6b6457e060405160405180910390a35050565b828054620001bf9062000261565b90600052602060002090601f016020900481019282620001e357600085556200022f565b82601f10620001fe57805160ff19168380011785556200022f565b828001600101855582156200022f579182015b828111156200022e57825182559160200191906001019062000211565b5b5090506200023e919062000242565b5090565b5b808211156200025d57600081600090555060010162000243565b5090565b600060028204905060018216806200027a57607f821691505b6020821081141562000291576200029062000297565b5b50919050565b7f4e487b7100000000000000000000000000000000000000000000000000000000600052602260045260246000fd5b61478c80620002d66000396000f3fe6080604052600436106101355760003560e01c8063715018a6116100ab578063ae12e7341161006f578063ae12e73414610410578063b88d4fde1461042c578063c87b56dd14610455578063e985e9c514610492578063f2fde38b146104cf578063f656eece146104f857610135565b8063715018a61461034f5780638da5cb5b1461036657806395d89b41146103915780639a3488b6146103bc578063a22cb465146103e757610135565b806323b872dd116100fd57806323b872dd1461023157806340f9b9471461025a57806342842e0e1461028357806351cff8d9146102ac5780636352211e146102d557806370a082311461031257610135565b806301ffc9a71461013a57806306fdde0314610177578063081812fc146101a2578063095ea7b3146101df5780630fe74b2514610208575b600080fd5b34801561014657600080fd5b50610161600480360381019061015c9190612f85565b610535565b60405161016e9190613841565b60405180910390f35b34801561018357600080fd5b5061018c610617565b60405161019991906138a1565b60405180910390f35b3480156101ae57600080fd5b506101c960048036038101906101c491906130d1565b6106a9565b6040516101d691906136fd565b60405180910390f35b3480156101eb57600080fd5b5061020660048036038101906102019190612f45565b6106ef565b005b34801561021457600080fd5b5061022f600480360381019061022a9190612ee9565b610807565b005b34801561023d57600080fd5b5061025860048036038101906102539190612dd3565b6108d6565b005b34801561026657600080fd5b50610281600480360381019061027c91906130fe565b610936565b005b34801561028f57600080fd5b506102aa60048036038101906102a59190612dd3565b610abe565b005b3480156102b857600080fd5b506102d360048036038101906102ce9190612d66565b610ade565b005b3480156102e157600080fd5b506102fc60048036038101906102f791906130d1565b610ba0565b60405161030991906136fd565b60405180910390f35b34801561031e57600080fd5b5061033960048036038101906103349190612d0c565b610c27565b6040516103469190613c43565b60405180910390f35b34801561035b57600080fd5b50610364610cdf565b005b34801561037257600080fd5b5061037b610cf3565b60405161038891906136fd565b60405180910390f35b34801561039d57600080fd5b506103a6610d1c565b6040516103b391906138a1565b60405180910390f35b3480156103c857600080fd5b506103d1610dae565b6040516103de9190613c43565b60405180910390f35b3480156103f357600080fd5b5061040e60048036038101906104099190612ea9565b610db8565b005b61042a60048036038101906104259190612fdf565b610dce565b005b34801561043857600080fd5b50610453600480360381019061044e9190612e26565b611260565b005b34801561046157600080fd5b5061047c600480360381019061047791906130d1565b6112c2565b60405161048991906138a1565b60405180910390f35b34801561049e57600080fd5b506104b960048036038101906104b49190612d93565b6112d4565b6040516104c69190613841565b60405180910390f35b3480156104db57600080fd5b506104f660048036038101906104f19190612d0c565b611368565b005b34801561050457600080fd5b5061051f600480360381019061051a91906130d1565b6113ec565b60405161052c9190613c43565b60405180910390f35b60007f80ac58cd000000000000000000000000000000000000000000000000000000007bffffffffffffffffffffffffffffffffffffffffffffffffffffffff1916827bffffffffffffffffffffffffffffffffffffffffffffffffffffffff1916148061060057507f5b5e139f000000000000000000000000000000000000000000000000000000007bffffffffffffffffffffffffffffffffffffffffffffffffffffffff1916827bffffffffffffffffffffffffffffffffffffffffffffffffffffffff1916145b80610610575061060f8261144c565b5b9050919050565b60606002805461062690613ee6565b80601f016020809104026020016040519081016040528092919081815260200182805461065290613ee6565b801561069f5780601f106106745761010080835404028352916020019161069f565b820191906000526020600020905b81548152906001019060200180831161068257829003601f168201915b5050505050905090565b60006106b4826114b6565b6006600083815260200190815260200160002060009054906101000a900473ffffffffffffffffffffffffffffffffffffffff169050919050565b60006106fa82610ba0565b90508073ffffffffffffffffffffffffffffffffffffffff168373ffffffffffffffffffffffffffffffffffffffff16141561076b576040517f08c379a000000000000000000000000000000000000000000000000000000000815260040161076290613ba3565b60405180910390fd5b8073ffffffffffffffffffffffffffffffffffffffff1661078a611501565b73ffffffffffffffffffffffffffffffffffffffff1614806107b957506107b8816107b3611501565b6112d4565b5b6107f8576040517f08c379a00000000000000000000000000000000000000000000000000000000081526004016107ef90613bc3565b60405180910390fd5b6108028383611509565b505050565b61080f6115c2565b610817611640565b600073ffffffffffffffffffffffffffffffffffffffff168273ffffffffffffffffffffffffffffffffffffffff161415610887576040517f08c379a000000000000000000000000000000000000000000000000000000000815260040161087e90613b63565b60405180910390fd5b7ff5e2cdb3c1806169fcc9a8e62feb5b0ed61f7825a7b228a0b2b9cdc124a3a1da82826040516108b8929190613811565b60405180910390a16108ca8282611690565b6108d26116c9565b5050565b6108e76108e1611501565b826116d2565b610926576040517f08c379a000000000000000000000000000000000000000000000000000000000815260040161091d906138e3565b60405180910390fd5b610931838383611767565b505050565b61093e6115c2565b610946611640565b60008190503073ffffffffffffffffffffffffffffffffffffffff168173ffffffffffffffffffffffffffffffffffffffff16636352211e866040518263ffffffff1660e01b815260040161099b9190613c43565b60206040518083038186803b1580156109b357600080fd5b505afa1580156109c7573d6000803e3d6000fd5b505050506040513d601f19601f820116820180604052508101906109eb9190612d39565b73ffffffffffffffffffffffffffffffffffffffff1614610a41576040517f08c379a0000000000000000000000000000000000000000000000000000000008152600401610a3890613b23565b60405180910390fd5b8173ffffffffffffffffffffffffffffffffffffffff166323b872dd3085876040518463ffffffff1660e01b8152600401610a7e9392919061378e565b600060405180830381600087803b158015610a9857600080fd5b505af1158015610aac573d6000803e3d6000fd5b5050505050610ab96116c9565b505050565b610ad983838360405180602001604052806000815250611260565b505050565b610ae66115c2565b600073ffffffffffffffffffffffffffffffffffffffff168173ffffffffffffffffffffffffffffffffffffffff161415610b56576040517f08c379a0000000000000000000000000000000000000000000000000000000008152600401610b4d90613a63565b60405180910390fd5b8073ffffffffffffffffffffffffffffffffffffffff166108fc479081150290604051600060405180830381858888f19350505050158015610b9c573d6000803e3d6000fd5b5050565b600080610bac83611a61565b9050600073ffffffffffffffffffffffffffffffffffffffff168173ffffffffffffffffffffffffffffffffffffffff161415610c1e576040517f08c379a0000000000000000000000000000000000000000000000000000000008152600401610c1590613b83565b60405180910390fd5b80915050919050565b60008073ffffffffffffffffffffffffffffffffffffffff168273ffffffffffffffffffffffffffffffffffffffff161415610c98576040517f08c379a0000000000000000000000000000000000000000000000000000000008152600401610c8f90613a83565b60405180910390fd5b600560008373ffffffffffffffffffffffffffffffffffffffff1673ffffffffffffffffffffffffffffffffffffffff168152602001908152602001600020549050919050565b610ce76115c2565b610cf16000611a9e565b565b60008060009054906101000a900473ffffffffffffffffffffffffffffffffffffffff16905090565b606060038054610d2b90613ee6565b80601f0160208091040260200160405190810160405280929190818152602001828054610d5790613ee6565b8015610da45780601f10610d7957610100808354040283529160200191610da4565b820191906000526020600020905b815481529060010190602001808311610d8757829003601f168201915b5050505050905090565b6000600a54905090565b610dca610dc3611501565b8383611b62565b5050565b610dd6611640565b6000341415610e1a576040517f08c379a0000000000000000000000000000000000000000000000000000000008152600401610e1190613b03565b60405180910390fd5b600a543414610e5e576040517f08c379a0000000000000000000000000000000000000000000000000000000008152600401610e5590613ac3565b60405180910390fd5b600280811115610e7157610e70613fb1565b5b866002811115610e8457610e83613fb1565b5b148015610eb55750600280811115610e9f57610e9e613fb1565b5b856002811115610eb257610eb1613fb1565b5b14155b610ef4576040517f08c379a0000000000000000000000000000000000000000000000000000000008152600401610eeb90613a23565b60405180910390fd5b610efc610cf3565b73ffffffffffffffffffffffffffffffffffffffff16610f1c8383611ccf565b73ffffffffffffffffffffffffffffffffffffffff1614610f72576040517f08c379a0000000000000000000000000000000000000000000000000000000008152600401610f69906139c3565b60405180910390fd5b600b81604051610f82919061369c565b908152602001604051809103902060009054906101000a900460ff1615610fde576040517f08c379a0000000000000000000000000000000000000000000000000000000008152600401610fd590613c03565b60405180910390fd5b60008390503373ffffffffffffffffffffffffffffffffffffffff168173ffffffffffffffffffffffffffffffffffffffff16636352211e876040518263ffffffff1660e01b81526004016110339190613c43565b60206040518083038186803b15801561104b57600080fd5b505afa15801561105f573d6000803e3d6000fd5b505050506040513d601f19601f820116820180604052508101906110839190612d39565b73ffffffffffffffffffffffffffffffffffffffff16146110d9576040517f08c379a00000000000000000000000000000000000000000000000000000000081526004016110d090613963565b60405180910390fd5b8373ffffffffffffffffffffffffffffffffffffffff166323b872dd3330886040518463ffffffff1660e01b81526004016111169392919061378e565b600060405180830381600087803b15801561113057600080fd5b505af1158015611144573d6000803e3d6000fd5b505050507f077b4f649a490b65bd23bf638dec092f8438ff3e5fd0e495efcd71316f8b5f0833308373ffffffffffffffffffffffffffffffffffffffff1663c87b56dd896040518263ffffffff1660e01b81526004016111a49190613c43565b60006040518083038186803b1580156111bc57600080fd5b505afa1580156111d0573d6000803e3d6000fd5b505050506040513d6000823e3d601f19601f820116820180604052508101906111f99190613088565b88348c8c6040516112109796959493929190613718565b60405180910390a16001600b8360405161122a919061369c565b908152602001604051809103902060006101000a81548160ff021916908315150217905550506112586116c9565b505050505050565b61127161126b611501565b836116d2565b6112b0576040517f08c379a00000000000000000000000000000000000000000000000000000000081526004016112a7906138e3565b60405180910390fd5b6112bc84848484611d0e565b50505050565b60606112cd82611d6a565b9050919050565b6000600760008473ffffffffffffffffffffffffffffffffffffffff1673ffffffffffffffffffffffffffffffffffffffff16815260200190815260200160002060008373ffffffffffffffffffffffffffffffffffffffff1673ffffffffffffffffffffffffffffffffffffffff16815260200190815260200160002060009054906101000a900460ff16905092915050565b6113706115c2565b600073ffffffffffffffffffffffffffffffffffffffff168173ffffffffffffffffffffffffffffffffffffffff1614156113e0576040517f08c379a00000000000000000000000000000000000000000000000000000000081526004016113d790613943565b60405180910390fd5b6113e981611a9e565b50565b60006113f66115c2565b81600a54141561143b576040517f08c379a000000000000000000000000000000000000000000000000000000000815260040161143290613be3565b60405180910390fd5b81600a81905550600a549050919050565b60007f01ffc9a7000000000000000000000000000000000000000000000000000000007bffffffffffffffffffffffffffffffffffffffffffffffffffffffff1916827bffffffffffffffffffffffffffffffffffffffffffffffffffffffff1916149050919050565b6114bf81611e7d565b6114fe576040517f08c379a00000000000000000000000000000000000000000000000000000000081526004016114f590613b83565b60405180910390fd5b50565b600033905090565b816006600083815260200190815260200160002060006101000a81548173ffffffffffffffffffffffffffffffffffffffff021916908373ffffffffffffffffffffffffffffffffffffffff160217905550808273ffffffffffffffffffffffffffffffffffffffff1661157c83610ba0565b73ffffffffffffffffffffffffffffffffffffffff167f8c5be1e5ebec7d5bd14f71427d1e84f3dd0314c0f7b2291e5b200ac8c7c3b92560405160405180910390a45050565b6115ca611501565b73ffffffffffffffffffffffffffffffffffffffff166115e8610cf3565b73ffffffffffffffffffffffffffffffffffffffff161461163e576040517f08c379a000000000000000000000000000000000000000000000000000000000815260040161163590613b43565b60405180910390fd5b565b60026001541415611686576040517f08c379a000000000000000000000000000000000000000000000000000000000815260040161167d90613c23565b60405180910390fd5b6002600181905550565b6116986115c2565b60006116a46009611ebe565b90506116b06009611ecc565b6116ba8382611ee2565b6116c48183611f00565b505050565b60018081905550565b6000806116de83610ba0565b90508073ffffffffffffffffffffffffffffffffffffffff168473ffffffffffffffffffffffffffffffffffffffff161480611720575061171f81856112d4565b5b8061175e57508373ffffffffffffffffffffffffffffffffffffffff16611746846106a9565b73ffffffffffffffffffffffffffffffffffffffff16145b91505092915050565b8273ffffffffffffffffffffffffffffffffffffffff1661178782610ba0565b73ffffffffffffffffffffffffffffffffffffffff16146117dd576040517f08c379a00000000000000000000000000000000000000000000000000000000081526004016117d490613983565b60405180910390fd5b600073ffffffffffffffffffffffffffffffffffffffff168273ffffffffffffffffffffffffffffffffffffffff16141561184d576040517f08c379a0000000000000000000000000000000000000000000000000000000008152600401611844906139e3565b60405180910390fd5b61185a8383836001611f74565b8273ffffffffffffffffffffffffffffffffffffffff1661187a82610ba0565b73ffffffffffffffffffffffffffffffffffffffff16146118d0576040517f08c379a00000000000000000000000000000000000000000000000000000000081526004016118c790613983565b60405180910390fd5b6006600082815260200190815260200160002060006101000a81549073ffffffffffffffffffffffffffffffffffffffff02191690556001600560008573ffffffffffffffffffffffffffffffffffffffff1673ffffffffffffffffffffffffffffffffffffffff168152602001908152602001600020600082825403925050819055506001600560008473ffffffffffffffffffffffffffffffffffffffff1673ffffffffffffffffffffffffffffffffffffffff16815260200190815260200160002060008282540192505081905550816004600083815260200190815260200160002060006101000a81548173ffffffffffffffffffffffffffffffffffffffff021916908373ffffffffffffffffffffffffffffffffffffffff160217905550808273ffffffffffffffffffffffffffffffffffffffff168473ffffffffffffffffffffffffffffffffffffffff167fddf252ad1be2c89b69c2b068fc378daa952ba7f163c4a11628f55a4df523b3ef60405160405180910390a4611a5c838383600161209a565b505050565b60006004600083815260200190815260200160002060009054906101000a900473ffffffffffffffffffffffffffffffffffffffff169050919050565b60008060009054906101000a900473ffffffffffffffffffffffffffffffffffffffff169050816000806101000a81548173ffffffffffffffffffffffffffffffffffffffff021916908373ffffffffffffffffffffffffffffffffffffffff1602179055508173ffffffffffffffffffffffffffffffffffffffff168173ffffffffffffffffffffffffffffffffffffffff167f8be0079c531659141344cd1fd0a4f28419497f9722a3daafe3b4186f6b6457e060405160405180910390a35050565b8173ffffffffffffffffffffffffffffffffffffffff168373ffffffffffffffffffffffffffffffffffffffff161415611bd1576040517f08c379a0000000000000000000000000000000000000000000000000000000008152600401611bc890613a03565b60405180910390fd5b80600760008573ffffffffffffffffffffffffffffffffffffffff1673ffffffffffffffffffffffffffffffffffffffff16815260200190815260200160002060008473ffffffffffffffffffffffffffffffffffffffff1673ffffffffffffffffffffffffffffffffffffffff16815260200190815260200160002060006101000a81548160ff0219169083151502179055508173ffffffffffffffffffffffffffffffffffffffff168373ffffffffffffffffffffffffffffffffffffffff167f17307eab39ab6107e8899845ad3d59bd9653f200f220920489ca2b5937696c3183604051611cc29190613841565b60405180910390a3505050565b60008083604051602001611ce391906136d7565b604051602081830303815290604052805190602001209050611d0581846120a0565b91505092915050565b611d19848484611767565b611d25848484846120c7565b611d64576040517f08c379a0000000000000000000000000000000000000000000000000000000008152600401611d5b90613923565b60405180910390fd5b50505050565b6060611d75826114b6565b6000600860008481526020019081526020016000208054611d9590613ee6565b80601f0160208091040260200160405190810160405280929190818152602001828054611dc190613ee6565b8015611e0e5780601f10611de357610100808354040283529160200191611e0e565b820191906000526020600020905b815481529060010190602001808311611df157829003601f168201915b505050505090506000611e1f61225e565b9050600081511415611e35578192505050611e78565b600082511115611e6a578082604051602001611e529291906136b3565b60405160208183030381529060405292505050611e78565b611e7384612275565b925050505b919050565b60008073ffffffffffffffffffffffffffffffffffffffff16611e9f83611a61565b73ffffffffffffffffffffffffffffffffffffffff1614159050919050565b600081600001549050919050565b6001816000016000828254019250508190555050565b611efc8282604051806020016040528060008152506122dd565b5050565b611f0982611e7d565b611f48576040517f08c379a0000000000000000000000000000000000000000000000000000000008152600401611f3f90613aa3565b60405180910390fd5b80600860008481526020019081526020016000209080519060200190611f6f929190612a47565b505050565b600181111561209457600073ffffffffffffffffffffffffffffffffffffffff168473ffffffffffffffffffffffffffffffffffffffff16146120085780600560008673ffffffffffffffffffffffffffffffffffffffff1673ffffffffffffffffffffffffffffffffffffffff16815260200190815260200160002060008282546120009190613d89565b925050819055505b600073ffffffffffffffffffffffffffffffffffffffff168373ffffffffffffffffffffffffffffffffffffffff16146120935780600560008573ffffffffffffffffffffffffffffffffffffffff1673ffffffffffffffffffffffffffffffffffffffff168152602001908152602001600020600082825461208b9190613d33565b925050819055505b5b50505050565b50505050565b60008060006120af8585612338565b915091506120bc8161238a565b819250505092915050565b60006120e88473ffffffffffffffffffffffffffffffffffffffff166124f8565b15612251578373ffffffffffffffffffffffffffffffffffffffff1663150b7a02612111611501565b8786866040518563ffffffff1660e01b815260040161213394939291906137c5565b602060405180830381600087803b15801561214d57600080fd5b505af192505050801561217e57506040513d601f19601f8201168201806040525081019061217b9190612fb2565b60015b612201573d80600081146121ae576040519150601f19603f3d011682016040523d82523d6000602084013e6121b3565b606091505b506000815114156121f9576040517f08c379a00000000000000000000000000000000000000000000000000000000081526004016121f090613923565b60405180910390fd5b805181602001fd5b63150b7a0260e01b7bffffffffffffffffffffffffffffffffffffffffffffffffffffffff1916817bffffffffffffffffffffffffffffffffffffffffffffffffffffffff191614915050612256565b600190505b949350505050565b606060405180602001604052806000815250905090565b6060612280826114b6565b600061228a61225e565b905060008151116122aa57604051806020016040528060008152506122d5565b806122b48461251b565b6040516020016122c59291906136b3565b6040516020818303038152906040525b915050919050565b6122e783836125f3565b6122f460008484846120c7565b612333576040517f08c379a000000000000000000000000000000000000000000000000000000000815260040161232a90613923565b60405180910390fd5b505050565b60008060418351141561237a5760008060006020860151925060408601519150606086015160001a905061236e87828585612811565b94509450505050612383565b60006002915091505b9250929050565b6000600481111561239e5761239d613fb1565b5b8160048111156123b1576123b0613fb1565b5b14156123bc576124f5565b600160048111156123d0576123cf613fb1565b5b8160048111156123e3576123e2613fb1565b5b1415612424576040517f08c379a000000000000000000000000000000000000000000000000000000000815260040161241b906138c3565b60405180910390fd5b6002600481111561243857612437613fb1565b5b81600481111561244b5761244a613fb1565b5b141561248c576040517f08c379a000000000000000000000000000000000000000000000000000000000815260040161248390613903565b60405180910390fd5b600360048111156124a05761249f613fb1565b5b8160048111156124b3576124b2613fb1565b5b14156124f4576040517f08c379a00000000000000000000000000000000000000000000000000000000081526004016124eb90613a43565b60405180910390fd5b5b50565b6000808273ffffffffffffffffffffffffffffffffffffffff163b119050919050565b60606000600161252a846128f4565b01905060008167ffffffffffffffff8111156125495761254861400f565b5b6040519080825280601f01601f19166020018201604052801561257b5781602001600182028036833780820191505090505b509050600082602001820190505b6001156125e8578080600190039150507f3031323334353637383961626364656600000000000000000000000000000000600a86061a8153600a85816125d2576125d1613f82565b5b04945060008514156125e3576125e8565b612589565b819350505050919050565b600073ffffffffffffffffffffffffffffffffffffffff168273ffffffffffffffffffffffffffffffffffffffff161415612663576040517f08c379a000000000000000000000000000000000000000000000000000000000815260040161265a90613ae3565b60405180910390fd5b61266c81611e7d565b156126ac576040517f08c379a00000000000000000000000000000000000000000000000000000000081526004016126a3906139a3565b60405180910390fd5b6126ba600083836001611f74565b6126c381611e7d565b15612703576040517f08c379a00000000000000000000000000000000000000000000000000000000081526004016126fa906139a3565b60405180910390fd5b6001600560008473ffffffffffffffffffffffffffffffffffffffff1673ffffffffffffffffffffffffffffffffffffffff16815260200190815260200160002060008282540192505081905550816004600083815260200190815260200160002060006101000a81548173ffffffffffffffffffffffffffffffffffffffff021916908373ffffffffffffffffffffffffffffffffffffffff160217905550808273ffffffffffffffffffffffffffffffffffffffff16600073ffffffffffffffffffffffffffffffffffffffff167fddf252ad1be2c89b69c2b068fc378daa952ba7f163c4a11628f55a4df523b3ef60405160405180910390a461280d60008383600161209a565b5050565b6000807f7fffffffffffffffffffffffffffffff5d576e7357a4501ddfe92f46681b20a08360001c111561284c5760006003915091506128eb565b600060018787878760405160008152602001604052604051612871949392919061385c565b6020604051602081039080840390855afa158015612893573d6000803e3d6000fd5b505050602060405103519050600073ffffffffffffffffffffffffffffffffffffffff168173ffffffffffffffffffffffffffffffffffffffff1614156128e2576000600192509250506128eb565b80600092509250505b94509492505050565b600080600090507a184f03e93ff9f4daa797ed6e38ed64bf6a1f0100000000000000008310612952577a184f03e93ff9f4daa797ed6e38ed64bf6a1f010000000000000000838161294857612947613f82565b5b0492506040810190505b6d04ee2d6d415b85acef8100000000831061298f576d04ee2d6d415b85acef8100000000838161298557612984613f82565b5b0492506020810190505b662386f26fc1000083106129be57662386f26fc1000083816129b4576129b3613f82565b5b0492506010810190505b6305f5e10083106129e7576305f5e10083816129dd576129dc613f82565b5b0492506008810190505b6127108310612a0c576127108381612a0257612a01613f82565b5b0492506004810190505b60648310612a2f5760648381612a2557612a24613f82565b5b0492506002810190505b600a8310612a3e576001810190505b80915050919050565b828054612a5390613ee6565b90600052602060002090601f016020900481019282612a755760008555612abc565b82601f10612a8e57805160ff1916838001178555612abc565b82800160010185558215612abc579182015b82811115612abb578251825591602001919060010190612aa0565b5b509050612ac99190612acd565b5090565b5b80821115612ae6576000816000905550600101612ace565b5090565b6000612afd612af884613c83565b613c5e565b905082815260208101848484011115612b1957612b18614043565b5b612b24848285613ea4565b509392505050565b6000612b3f612b3a84613cb4565b613c5e565b905082815260208101848484011115612b5b57612b5a614043565b5b612b66848285613ea4565b509392505050565b6000612b81612b7c84613cb4565b613c5e565b905082815260208101848484011115612b9d57612b9c614043565b5b612ba8848285613eb3565b509392505050565b600081359050612bbf816146ac565b92915050565b600081519050612bd4816146ac565b92915050565b600081359050612be9816146c3565b92915050565b600081359050612bfe816146da565b92915050565b600081359050612c13816146f1565b92915050565b600081359050612c2881614708565b92915050565b600081519050612c3d81614708565b92915050565b600082601f830112612c5857612c5761403e565b5b8135612c68848260208601612aea565b91505092915050565b600081359050612c808161471f565b92915050565b600081359050612c958161472f565b92915050565b600082601f830112612cb057612caf61403e565b5b8135612cc0848260208601612b2c565b91505092915050565b600082601f830112612cde57612cdd61403e565b5b8151612cee848260208601612b6e565b91505092915050565b600081359050612d068161473f565b92915050565b600060208284031215612d2257612d2161404d565b5b6000612d3084828501612bb0565b91505092915050565b600060208284031215612d4f57612d4e61404d565b5b6000612d5d84828501612bc5565b91505092915050565b600060208284031215612d7c57612d7b61404d565b5b6000612d8a84828501612bda565b91505092915050565b60008060408385031215612daa57612da961404d565b5b6000612db885828601612bb0565b9250506020612dc985828601612bb0565b9150509250929050565b600080600060608486031215612dec57612deb61404d565b5b6000612dfa86828701612bb0565b9350506020612e0b86828701612bb0565b9250506040612e1c86828701612cf7565b9150509250925092565b60008060008060808587031215612e4057612e3f61404d565b5b6000612e4e87828801612bb0565b9450506020612e5f87828801612bb0565b9350506040612e7087828801612cf7565b925050606085013567ffffffffffffffff811115612e9157612e90614048565b5b612e9d87828801612c43565b91505092959194509250565b60008060408385031215612ec057612ebf61404d565b5b6000612ece85828601612bb0565b9250506020612edf85828601612bef565b9150509250929050565b60008060408385031215612f0057612eff61404d565b5b6000612f0e85828601612bb0565b925050602083013567ffffffffffffffff811115612f2f57612f2e614048565b5b612f3b85828601612c9b565b9150509250929050565b60008060408385031215612f5c57612f5b61404d565b5b6000612f6a85828601612bb0565b9250506020612f7b85828601612cf7565b9150509250929050565b600060208284031215612f9b57612f9a61404d565b5b6000612fa984828501612c19565b91505092915050565b600060208284031215612fc857612fc761404d565b5b6000612fd684828501612c2e565b91505092915050565b60008060008060008060c08789031215612ffc57612ffb61404d565b5b600061300a89828a01612c86565b965050602061301b89828a01612c71565b955050604061302c89828a01612cf7565b945050606061303d89828a01612bb0565b935050608061304e89828a01612c04565b92505060a087013567ffffffffffffffff81111561306f5761306e614048565b5b61307b89828a01612c43565b9150509295509295509295565b60006020828403121561309e5761309d61404d565b5b600082015167ffffffffffffffff8111156130bc576130bb614048565b5b6130c884828501612cc9565b91505092915050565b6000602082840312156130e7576130e661404d565b5b60006130f584828501612cf7565b91505092915050565b6000806000606084860312156131175761311661404d565b5b600061312586828701612cf7565b935050602061313686828701612bb0565b925050604061314786828701612bb0565b9150509250925092565b61315a81613dbd565b82525050565b61316981613de1565b82525050565b61317881613ded565b82525050565b61318f61318a82613ded565b613f49565b82525050565b60006131a082613ce5565b6131aa8185613cfb565b93506131ba818560208601613eb3565b6131c381614052565b840191505092915050565b60006131d982613ce5565b6131e38185613d0c565b93506131f3818560208601613eb3565b80840191505092915050565b61320881613e80565b82525050565b61321781613e92565b82525050565b600061322882613cf0565b6132328185613d17565b9350613242818560208601613eb3565b61324b81614052565b840191505092915050565b600061326182613cf0565b61326b8185613d28565b935061327b818560208601613eb3565b80840191505092915050565b6000613294601883613d17565b915061329f82614063565b602082019050919050565b60006132b7602d83613d17565b91506132c28261408c565b604082019050919050565b60006132da601f83613d17565b91506132e5826140db565b602082019050919050565b60006132fd601c83613d28565b915061330882614104565b601c82019050919050565b6000613320603283613d17565b915061332b8261412d565b604082019050919050565b6000613343602683613d17565b915061334e8261417c565b604082019050919050565b6000613366601f83613d17565b9150613371826141cb565b602082019050919050565b6000613389602583613d17565b9150613394826141f4565b604082019050919050565b60006133ac601c83613d17565b91506133b782614243565b602082019050919050565b60006133cf601983613d17565b91506133da8261426c565b602082019050919050565b60006133f2602483613d17565b91506133fd82614295565b604082019050919050565b6000613415601983613d17565b9150613420826142e4565b602082019050919050565b6000613438600d83613d17565b91506134438261430d565b602082019050919050565b600061345b602283613d17565b915061346682614336565b604082019050919050565b600061347e601683613d17565b915061348982614385565b602082019050919050565b60006134a1602983613d17565b91506134ac826143ae565b604082019050919050565b60006134c4602e83613d17565b91506134cf826143fd565b604082019050919050565b60006134e7601483613d17565b91506134f28261444c565b602082019050919050565b600061350a602083613d17565b915061351582614475565b602082019050919050565b600061352d601583613d17565b91506135388261449e565b602082019050919050565b6000613550601f83613d17565b915061355b826144c7565b602082019050919050565b6000613573602083613d17565b915061357e826144f0565b602082019050919050565b6000613596601383613d17565b91506135a182614519565b602082019050919050565b60006135b9601883613d17565b91506135c482614542565b602082019050919050565b60006135dc602183613d17565b91506135e78261456b565b604082019050919050565b60006135ff603d83613d17565b915061360a826145ba565b604082019050919050565b6000613622601483613d17565b915061362d82614609565b602082019050919050565b6000613645601683613d17565b915061365082614632565b602082019050919050565b6000613668601f83613d17565b91506136738261465b565b602082019050919050565b61368781613e69565b82525050565b61369681613e73565b82525050565b60006136a882846131ce565b915081905092915050565b60006136bf8285613256565b91506136cb8284613256565b91508190509392505050565b60006136e2826132f0565b91506136ee828461317e565b60208201915081905092915050565b60006020820190506137126000830184613151565b92915050565b600060e08201905061372d600083018a613151565b61373a6020830189613151565b818103604083015261374c818861321d565b905061375b606083018761367e565b613768608083018661367e565b61377560a083018561320e565b61378260c08301846131ff565b98975050505050505050565b60006060820190506137a36000830186613151565b6137b06020830185613151565b6137bd604083018461367e565b949350505050565b60006080820190506137da6000830187613151565b6137e76020830186613151565b6137f4604083018561367e565b81810360608301526138068184613195565b905095945050505050565b60006040820190506138266000830185613151565b8181036020830152613838818461321d565b90509392505050565b60006020820190506138566000830184613160565b92915050565b6000608082019050613871600083018761316f565b61387e602083018661368d565b61388b604083018561316f565b613898606083018461316f565b95945050505050565b600060208201905081810360008301526138bb818461321d565b905092915050565b600060208201905081810360008301526138dc81613287565b9050919050565b600060208201905081810360008301526138fc816132aa565b9050919050565b6000602082019050818103600083015261391c816132cd565b9050919050565b6000602082019050818103600083015261393c81613313565b9050919050565b6000602082019050818103600083015261395c81613336565b9050919050565b6000602082019050818103600083015261397c81613359565b9050919050565b6000602082019050818103600083015261399c8161337c565b9050919050565b600060208201905081810360008301526139bc8161339f565b9050919050565b600060208201905081810360008301526139dc816133c2565b9050919050565b600060208201905081810360008301526139fc816133e5565b9050919050565b60006020820190508181036000830152613a1c81613408565b9050919050565b60006020820190508181036000830152613a3c8161342b565b9050919050565b60006020820190508181036000830152613a5c8161344e565b9050919050565b60006020820190508181036000830152613a7c81613471565b9050919050565b60006020820190508181036000830152613a9c81613494565b9050919050565b60006020820190508181036000830152613abc816134b7565b9050919050565b60006020820190508181036000830152613adc816134da565b9050919050565b60006020820190508181036000830152613afc816134fd565b9050919050565b60006020820190508181036000830152613b1c81613520565b9050919050565b60006020820190508181036000830152613b3c81613543565b9050919050565b60006020820190508181036000830152613b5c81613566565b9050919050565b60006020820190508181036000830152613b7c81613589565b9050919050565b60006020820190508181036000830152613b9c816135ac565b9050919050565b60006020820190508181036000830152613bbc816135cf565b9050919050565b60006020820190508181036000830152613bdc816135f2565b9050919050565b60006020820190508181036000830152613bfc81613615565b9050919050565b60006020820190508181036000830152613c1c81613638565b9050919050565b60006020820190508181036000830152613c3c8161365b565b9050919050565b6000602082019050613c58600083018461367e565b92915050565b6000613c68613c79565b9050613c748282613f18565b919050565b6000604051905090565b600067ffffffffffffffff821115613c9e57613c9d61400f565b5b613ca782614052565b9050602081019050919050565b600067ffffffffffffffff821115613ccf57613cce61400f565b5b613cd882614052565b9050602081019050919050565b600081519050919050565b600081519050919050565b600082825260208201905092915050565b600081905092915050565b600082825260208201905092915050565b600081905092915050565b6000613d3e82613e69565b9150613d4983613e69565b9250827fffffffffffffffffffffffffffffffffffffffffffffffffffffffffffffffff03821115613d7e57613d7d613f53565b5b828201905092915050565b6000613d9482613e69565b9150613d9f83613e69565b925082821015613db257613db1613f53565b5b828203905092915050565b6000613dc882613e49565b9050919050565b6000613dda82613e49565b9050919050565b60008115159050919050565b6000819050919050565b60007fffffffff0000000000000000000000000000000000000000000000000000000082169050919050565b6000819050613e3182614684565b919050565b6000819050613e4482614698565b919050565b600073ffffffffffffffffffffffffffffffffffffffff82169050919050565b6000819050919050565b600060ff82169050919050565b6000613e8b82613e23565b9050919050565b6000613e9d82613e36565b9050919050565b82818337600083830152505050565b60005b83811015613ed1578082015181840152602081019050613eb6565b83811115613ee0576000848401525b50505050565b60006002820490506001821680613efe57607f821691505b60208210811415613f1257613f11613fe0565b5b50919050565b613f2182614052565b810181811067ffffffffffffffff82111715613f4057613f3f61400f565b5b80604052505050565b6000819050919050565b7f4e487b7100000000000000000000000000000000000000000000000000000000600052601160045260246000fd5b7f4e487b7100000000000000000000000000000000000000000000000000000000600052601260045260246000fd5b7f4e487b7100000000000000000000000000000000000000000000000000000000600052602160045260246000fd5b7f4e487b7100000000000000000000000000000000000000000000000000000000600052602260045260246000fd5b7f4e487b7100000000000000000000000000000000000000000000000000000000600052604160045260246000fd5b600080fd5b600080fd5b600080fd5b600080fd5b6000601f19601f8301169050919050565b7f45434453413a20696e76616c6964207369676e61747572650000000000000000600082015250565b7f4552433732313a2063616c6c6572206973206e6f7420746f6b656e206f776e6560008201527f72206f7220617070726f76656400000000000000000000000000000000000000602082015250565b7f45434453413a20696e76616c6964207369676e6174757265206c656e67746800600082015250565b7f19457468657265756d205369676e6564204d6573736167653a0a333200000000600082015250565b7f4552433732313a207472616e7366657220746f206e6f6e20455243373231526560008201527f63656976657220696d706c656d656e7465720000000000000000000000000000602082015250565b7f4f776e61626c653a206e6577206f776e657220697320746865207a65726f206160008201527f6464726573730000000000000000000000000000000000000000000000000000602082015250565b7f4f6e6c7920746865206f776e65722063616e206c6f636b20746865204e465400600082015250565b7f4552433732313a207472616e736665722066726f6d20696e636f72726563742060008201527f6f776e6572000000000000000000000000000000000000000000000000000000602082015250565b7f4552433732313a20746f6b656e20616c7265616479206d696e74656400000000600082015250565b7f41646472657373206973206e6f7420617574686f72697a656400000000000000600082015250565b7f4552433732313a207472616e7366657220746f20746865207a65726f2061646460008201527f7265737300000000000000000000000000000000000000000000000000000000602082015250565b7f4552433732313a20617070726f766520746f2063616c6c657200000000000000600082015250565b7f496e76616c696420636861696e00000000000000000000000000000000000000600082015250565b7f45434453413a20696e76616c6964207369676e6174757265202773272076616c60008201527f7565000000000000000000000000000000000000000000000000000000000000602082015250565b7f416464726573732063616e6e6f74206265207a65726f00000000000000000000600082015250565b7f4552433732313a2061646472657373207a65726f206973206e6f74206120766160008201527f6c6964206f776e65720000000000000000000000000000000000000000000000602082015250565b7f45524337323155524953746f726167653a2055524920736574206f66206e6f6e60008201527f6578697374656e7420746f6b656e000000000000000000000000000000000000602082015250565b7f466565732073686f756c6420626520657175616c000000000000000000000000600082015250565b7f4552433732313a206d696e7420746f20746865207a65726f2061646472657373600082015250565b7f56616c75652073686f756c64206e6f7420626520300000000000000000000000600082015250565b7f4f6e6c7920746865206f776e6572207472616e7366657220746865204e465400600082015250565b7f4f776e61626c653a2063616c6c6572206973206e6f7420746865206f776e6572600082015250565b7f416464726573732063616e6e6f74206265203000000000000000000000000000600082015250565b7f4552433732313a20696e76616c696420746f6b656e2049440000000000000000600082015250565b7f4552433732313a20617070726f76616c20746f2063757272656e74206f776e6560008201527f7200000000000000000000000000000000000000000000000000000000000000602082015250565b7f4552433732313a20617070726f76652063616c6c6572206973206e6f7420746f60008201527f6b656e206f776e6572206f7220617070726f76656420666f7220616c6c000000602082015250565b7f4665657320697320616c72656164792073616d65000000000000000000000000600082015250565b7f416c7265616479207369676e6174757265207573656400000000000000000000600082015250565b7f5265656e7472616e637947756172643a207265656e7472616e742063616c6c00600082015250565b6003811061469557614694613fb1565b5b50565b600381106146a9576146a8613fb1565b5b50565b6146b581613dbd565b81146146c057600080fd5b50565b6146cc81613dcf565b81146146d757600080fd5b50565b6146e381613de1565b81146146ee57600080fd5b50565b6146fa81613ded565b811461470557600080fd5b50565b61471181613df7565b811461471c57600080fd5b50565b6003811061472c57600080fd5b50565b6003811061473c57600080fd5b50565b61474881613e69565b811461475357600080fd5b5056fea2646970667358221220d1bdd4c1d35541ce36d6d479a677716509c5db1f1a40aeea9210b1f90a7b130d64736f6c63430008070033",
  "linkReferences": {},
  "deployedLinkReferences": {}
}