{
  "_format": "hh-sol-artifact-1",
  "contractName": "NftBridgePolygon",
  "sourceName": "contracts/NftBridgePolygon.sol",
  "abi": [
    {
      "inputs": [],
      "stateMutability": "nonpayable",
      "type": "constructor"
    },
    {
      "anonymous": false,
      "inputs": [
        {
          "indexed": true,
          "internalType": "address",
          "name": "owner",
          "type": "address"
        },
        {
          "indexed": true,
          "internalType": "address",
          "name": "approved",
          "type": "address"
        },
        {
          "indexed": true,
          "internalType": "uint256",
          "name": "tokenId",
          "type": "uint256"
        }
      ],
      "name": "Approval",
      "type": "event"
    },
    {
      "anonymous": false,
      "inputs": [
        {
          "indexed": true,
          "internalType": "address",
          "name": "owner",
          "type": "address"
        },
        {
          "indexed": true,
          "internalType": "address",
          "name": "operator",
          "type": "address"
        },
        {
          "indexed": false,
          "internalType": "bool",
          "name": "approved",
          "type": "bool"
        }
      ],
      "name": "ApprovalForAll",
      "type": "event"
    },
    {
      "anonymous": false,
      "inputs": [
        {
          "indexed": false,
          "internalType": "address",
          "name": "_from",
          "type": "address"
        },
        {
          "indexed": false,
          "internalType": "string",
          "name": "_uri",
          "type": "string"
        },
        {
          "indexed": false,
          "internalType": "uint256",
          "name": "_tokenId",
          "type": "uint256"
        },
        {
          "indexed": false,
          "internalType": "enum NftBridgePolygon.SourceChain",
          "name": "_sourceChain",
          "type": "uint8"
        },
        {
          "indexed": false,
          "internalType": "enum NftBridgePolygon.DestinationChain",
          "name": "_destinationChain",
          "type": "uint8"
        }
      ],
      "name": "LockedNft",
      "type": "event"
    },
    {
      "anonymous": false,
      "inputs": [
        {
          "indexed": false,
          "internalType": "address",
          "name": "_to",
          "type": "address"
        },
        {
          "indexed": true,
          "internalType": "uint256",
          "name": "_tokenId",
          "type": "uint256"
        },
        {
          "indexed": false,
          "internalType": "string",
          "name": "_uri",
          "type": "string"
        }
      ],
      "name": "NftTransferedToDestinationChain",
      "type": "event"
    },
    {
      "anonymous": false,
      "inputs": [
        {
          "indexed": true,
          "internalType": "address",
          "name": "previousOwner",
          "type": "address"
        },
        {
          "indexed": true,
          "internalType": "address",
          "name": "newOwner",
          "type": "address"
        }
      ],
      "name": "OwnershipTransferred",
      "type": "event"
    },
    {
      "anonymous": false,
      "inputs": [
        {
          "indexed": true,
          "internalType": "address",
          "name": "from",
          "type": "address"
        },
        {
          "indexed": true,
          "internalType": "address",
          "name": "to",
          "type": "address"
        },
        {
          "indexed": true,
          "internalType": "uint256",
          "name": "tokenId",
          "type": "uint256"
        }
      ],
      "name": "Transfer",
      "type": "event"
    },
    {
      "inputs": [
        {
          "internalType": "address",
          "name": "to",
          "type": "address"
        },
        {
          "internalType": "uint256",
          "name": "tokenId",
          "type": "uint256"
        }
      ],
      "name": "approve",
      "outputs": [],
      "stateMutability": "nonpayable",
      "type": "function"
    },
    {
      "inputs": [
        {
          "internalType": "address",
          "name": "owner",
          "type": "address"
        }
      ],
      "name": "balanceOf",
      "outputs": [
        {
          "internalType": "uint256",
          "name": "",
          "type": "uint256"
        }
      ],
      "stateMutability": "view",
      "type": "function"
    },
    {
      "inputs": [
        {
          "internalType": "uint256",
          "name": "tokenId",
          "type": "uint256"
        }
      ],
      "name": "getApproved",
      "outputs": [
        {
          "internalType": "address",
          "name": "",
          "type": "address"
        }
      ],
      "stateMutability": "view",
      "type": "function"
    },
    {
      "inputs": [
        {
          "internalType": "address",
          "name": "owner",
          "type": "address"
        },
        {
          "internalType": "address",
          "name": "operator",
          "type": "address"
        }
      ],
      "name": "isApprovedForAll",
      "outputs": [
        {
          "internalType": "bool",
          "name": "",
          "type": "bool"
        }
      ],
      "stateMutability": "view",
      "type": "function"
    },
    {
      "inputs": [
        {
          "internalType": "enum NftBridgePolygon.SourceChain",
          "name": "sourceChain",
          "type": "uint8"
        },
        {
          "internalType": "enum NftBridgePolygon.DestinationChain",
          "name": "destinationChain",
          "type": "uint8"
        },
        {
          "internalType": "uint256",
          "name": "tokenId",
          "type": "uint256"
        },
        {
          "internalType": "string",
          "name": "uri",
          "type": "string"
        },
        {
          "internalType": "bytes32",
          "name": "hash",
          "type": "bytes32"
        },
        {
          "internalType": "bytes",
          "name": "signature",
          "type": "bytes"
        }
      ],
      "name": "lockNft",
      "outputs": [],
      "stateMutability": "nonpayable",
      "type": "function"
    },
    {
      "inputs": [],
      "name": "name",
      "outputs": [
        {
          "internalType": "string",
          "name": "",
          "type": "string"
        }
      ],
      "stateMutability": "view",
      "type": "function"
    },
    {
      "inputs": [],
      "name": "owner",
      "outputs": [
        {
          "internalType": "address",
          "name": "",
          "type": "address"
        }
      ],
      "stateMutability": "view",
      "type": "function"
    },
    {
      "inputs": [
        {
          "internalType": "uint256",
          "name": "tokenId",
          "type": "uint256"
        }
      ],
      "name": "ownerOf",
      "outputs": [
        {
          "internalType": "address",
          "name": "",
          "type": "address"
        }
      ],
      "stateMutability": "view",
      "type": "function"
    },
    {
      "inputs": [],
      "name": "renounceOwnership",
      "outputs": [],
      "stateMutability": "nonpayable",
      "type": "function"
    },
    {
      "inputs": [
        {
          "internalType": "address",
          "name": "from",
          "type": "address"
        },
        {
          "internalType": "address",
          "name": "to",
          "type": "address"
        },
        {
          "internalType": "uint256",
          "name": "tokenId",
          "type": "uint256"
        }
      ],
      "name": "safeTransferFrom",
      "outputs": [],
      "stateMutability": "nonpayable",
      "type": "function"
    },
    {
      "inputs": [
        {
          "internalType": "address",
          "name": "from",
          "type": "address"
        },
        {
          "internalType": "address",
          "name": "to",
          "type": "address"
        },
        {
          "internalType": "uint256",
          "name": "tokenId",
          "type": "uint256"
        },
        {
          "internalType": "bytes",
          "name": "data",
          "type": "bytes"
        }
      ],
      "name": "safeTransferFrom",
      "outputs": [],
      "stateMutability": "nonpayable",
      "type": "function"
    },
    {
      "inputs": [
        {
          "internalType": "address",
          "name": "operator",
          "type": "address"
        },
        {
          "internalType": "bool",
          "name": "approved",
          "type": "bool"
        }
      ],
      "name": "setApprovalForAll",
      "outputs": [],
      "stateMutability": "nonpayable",
      "type": "function"
    },
    {
      "inputs": [
        {
          "internalType": "bytes4",
          "name": "interfaceId",
          "type": "bytes4"
        }
      ],
      "name": "supportsInterface",
      "outputs": [
        {
          "internalType": "bool",
          "name": "",
          "type": "bool"
        }
      ],
      "stateMutability": "view",
      "type": "function"
    },
    {
      "inputs": [],
      "name": "symbol",
      "outputs": [
        {
          "internalType": "string",
          "name": "",
          "type": "string"
        }
      ],
      "stateMutability": "view",
      "type": "function"
    },
    {
      "inputs": [
        {
          "internalType": "uint256",
          "name": "tokenId",
          "type": "uint256"
        }
      ],
      "name": "tokenURI",
      "outputs": [
        {
          "internalType": "string",
          "name": "",
          "type": "string"
        }
      ],
      "stateMutability": "view",
      "type": "function"
    },
    {
      "inputs": [
        {
          "internalType": "address",
          "name": "from",
          "type": "address"
        },
        {
          "internalType": "address",
          "name": "to",
          "type": "address"
        },
        {
          "internalType": "uint256",
          "name": "tokenId",
          "type": "uint256"
        }
      ],
      "name": "transferFrom",
      "outputs": [],
      "stateMutability": "nonpayable",
      "type": "function"
    },
    {
      "inputs": [
        {
          "internalType": "address",
          "name": "recipient",
          "type": "address"
        },
        {
          "internalType": "string",
          "name": "uri",
          "type": "string"
        },
        {
          "internalType": "uint256",
          "name": "tokenId",
          "type": "uint256"
        }
      ],
      "name": "transferNft",
      "outputs": [],
      "stateMutability": "nonpayable",
      "type": "function"
    },
    {
      "inputs": [
        {
          "internalType": "address",
          "name": "newOwner",
          "type": "address"
        }
      ],
      "name": "transferOwnership",
      "outputs": [],
      "stateMutability": "nonpayable",
      "type": "function"
    }
  ],
  "bytecode": "0x60806040523480156200001157600080fd5b506040518060400160405280601081526020017f4e6674427269646765506f6c79676f6e000000000000000000000000000000008152506040518060400160405280600981526020017f4e42504f4c59474f4e00000000000000000000000000000000000000000000008152506200009e62000092620000df60201b60201c565b620000e760201b60201c565b600180819055508160029080519060200190620000bd929190620001ab565b508060039080519060200190620000d6929190620001ab565b505050620002c0565b600033905090565b60008060009054906101000a900473ffffffffffffffffffffffffffffffffffffffff169050816000806101000a81548173ffffffffffffffffffffffffffffffffffffffff021916908373ffffffffffffffffffffffffffffffffffffffff1602179055508173ffffffffffffffffffffffffffffffffffffffff168173ffffffffffffffffffffffffffffffffffffffff167f8be0079c531659141344cd1fd0a4f28419497f9722a3daafe3b4186f6b6457e060405160405180910390a35050565b828054620001b9906200025b565b90600052602060002090601f016020900481019282620001dd576000855562000229565b82601f10620001f857805160ff191683800117855562000229565b8280016001018555821562000229579182015b82811115620002285782518255916020019190600101906200020b565b5b5090506200023891906200023c565b5090565b5b80821115620002575760008160009055506001016200023d565b5090565b600060028204905060018216806200027457607f821691505b602082108114156200028b576200028a62000291565b5b50919050565b7f4e487b7100000000000000000000000000000000000000000000000000000000600052602260045260246000fd5b613eb680620002d06000396000f3fe608060405234801561001057600080fd5b50600436106101165760003560e01c8063715018a6116100a2578063b88d4fde11610071578063b88d4fde146102cb578063c87b56dd146102e7578063d4f2c28514610317578063e985e9c514610333578063f2fde38b1461036357610116565b8063715018a6146102695780638da5cb5b1461027357806395d89b4114610291578063a22cb465146102af57610116565b806323b872dd116100e957806323b872dd146101b55780633e6caa7b146101d157806342842e0e146101ed5780636352211e1461020957806370a082311461023957610116565b806301ffc9a71461011b57806306fdde031461014b578063081812fc14610169578063095ea7b314610199575b600080fd5b610135600480360381019061013091906129c7565b61037f565b6040516101429190613101565b60405180910390f35b610153610461565b6040516101609190613161565b60405180910390f35b610183600480360381019061017e9190612ae6565b6104f3565b6040516101909190613010565b60405180910390f35b6101b360048036038101906101ae9190612987565b610539565b005b6101cf60048036038101906101ca9190612802565b610651565b005b6101eb60048036038101906101e69190612918565b6106b1565b005b61020760048036038101906102029190612802565b6107cc565b005b610223600480360381019061021e9190612ae6565b6107ec565b6040516102309190613010565b60405180910390f35b610253600480360381019061024e9190612795565b610873565b6040516102609190613463565b60405180910390f35b61027161092b565b005b61027b61093f565b6040516102889190613010565b60405180910390f35b610299610968565b6040516102a69190613161565b60405180910390f35b6102c960048036038101906102c491906128d8565b6109fa565b005b6102e560048036038101906102e09190612855565b610a10565b005b61030160048036038101906102fc9190612ae6565b610a72565b60405161030e9190613161565b60405180910390f35b610331600480360381019061032c9190612a21565b610a84565b005b61034d600480360381019061034891906127c2565b610cae565b60405161035a9190613101565b60405180910390f35b61037d60048036038101906103789190612795565b610d42565b005b60007f80ac58cd000000000000000000000000000000000000000000000000000000007bffffffffffffffffffffffffffffffffffffffffffffffffffffffff1916827bffffffffffffffffffffffffffffffffffffffffffffffffffffffff1916148061044a57507f5b5e139f000000000000000000000000000000000000000000000000000000007bffffffffffffffffffffffffffffffffffffffffffffffffffffffff1916827bffffffffffffffffffffffffffffffffffffffffffffffffffffffff1916145b8061045a575061045982610dc6565b5b9050919050565b606060028054610470906136f4565b80601f016020809104026020016040519081016040528092919081815260200182805461049c906136f4565b80156104e95780601f106104be576101008083540402835291602001916104e9565b820191906000526020600020905b8154815290600101906020018083116104cc57829003601f168201915b5050505050905090565b60006104fe82610e30565b6006600083815260200190815260200160002060009054906101000a900473ffffffffffffffffffffffffffffffffffffffff169050919050565b6000610544826107ec565b90508073ffffffffffffffffffffffffffffffffffffffff168373ffffffffffffffffffffffffffffffffffffffff1614156105b5576040517f08c379a00000000000000000000000000000000000000000000000000000000081526004016105ac906133c3565b60405180910390fd5b8073ffffffffffffffffffffffffffffffffffffffff166105d4610e7b565b73ffffffffffffffffffffffffffffffffffffffff1614806106035750610602816105fd610e7b565b610cae565b5b610642576040517f08c379a0000000000000000000000000000000000000000000000000000000008152600401610639906133e3565b60405180910390fd5b61064c8383610e83565b505050565b61066261065c610e7b565b82610f3c565b6106a1576040517f08c379a0000000000000000000000000000000000000000000000000000000008152600401610698906131a3565b60405180910390fd5b6106ac838383610fd1565b505050565b6106b96112cb565b6106c1611349565b600073ffffffffffffffffffffffffffffffffffffffff168373ffffffffffffffffffffffffffffffffffffffff161415610731576040517f08c379a000000000000000000000000000000000000000000000000000000000815260040161072890613383565b60405180910390fd5b61073a81611399565b1561077a576040517f08c379a000000000000000000000000000000000000000000000000000000000815260040161077190613403565b60405180910390fd5b807f3de8cbbb2b0c7e856c104db60ab7521788a58cb7210352d1dbf5f8a55b99fe0a84846040516107ac929190613077565b60405180910390a26107bf8382846113da565b6107c76113f3565b505050565b6107e783838360405180602001604052806000815250610a10565b505050565b6000806107f8836113fc565b9050600073ffffffffffffffffffffffffffffffffffffffff168173ffffffffffffffffffffffffffffffffffffffff16141561086a576040517f08c379a0000000000000000000000000000000000000000000000000000000008152600401610861906133a3565b60405180910390fd5b80915050919050565b60008073ffffffffffffffffffffffffffffffffffffffff168273ffffffffffffffffffffffffffffffffffffffff1614156108e4576040517f08c379a00000000000000000000000000000000000000000000000000000000081526004016108db90613303565b60405180910390fd5b600560008373ffffffffffffffffffffffffffffffffffffffff1673ffffffffffffffffffffffffffffffffffffffff168152602001908152602001600020549050919050565b6109336112cb565b61093d6000611439565b565b60008060009054906101000a900473ffffffffffffffffffffffffffffffffffffffff16905090565b606060038054610977906136f4565b80601f01602080910402602001604051908101604052809291908181526020018280546109a3906136f4565b80156109f05780601f106109c5576101008083540402835291602001916109f0565b820191906000526020600020905b8154815290600101906020018083116109d357829003601f168201915b5050505050905090565b610a0c610a05610e7b565b83836114fd565b5050565b610a21610a1b610e7b565b83610f3c565b610a60576040517f08c379a0000000000000000000000000000000000000000000000000000000008152600401610a57906131a3565b60405180910390fd5b610a6c8484848461166a565b50505050565b6060610a7d826116c6565b9050919050565b610a8c611349565b600280811115610a9f57610a9e6137bf565b5b866002811115610ab257610ab16137bf565b5b148015610ae35750600280811115610acd57610acc6137bf565b5b856002811115610ae057610adf6137bf565b5b14155b610b22576040517f08c379a0000000000000000000000000000000000000000000000000000000008152600401610b19906132c3565b60405180910390fd5b610b2a61093f565b73ffffffffffffffffffffffffffffffffffffffff16610b4a83836117d9565b73ffffffffffffffffffffffffffffffffffffffff1614610ba0576040517f08c379a0000000000000000000000000000000000000000000000000000000008152600401610b9790613263565b60405180910390fd5b600981604051610bb09190612faf565b908152602001604051809103902060009054906101000a900460ff1615610c0c576040517f08c379a0000000000000000000000000000000000000000000000000000000008152600401610c0390613423565b60405180910390fd5b610c173385856113da565b7f6350129c18d9141f730c1a62c58c009ac10d4fb98d1333727efdf48ac0e6231933610c4286610a72565b868989604051610c569594939291906130a7565b60405180910390a1610c6784611818565b6001600982604051610c799190612faf565b908152602001604051809103902060006101000a81548160ff021916908315150217905550610ca66113f3565b505050505050565b6000600760008473ffffffffffffffffffffffffffffffffffffffff1673ffffffffffffffffffffffffffffffffffffffff16815260200190815260200160002060008373ffffffffffffffffffffffffffffffffffffffff1673ffffffffffffffffffffffffffffffffffffffff16815260200190815260200160002060009054906101000a900460ff16905092915050565b610d4a6112cb565b600073ffffffffffffffffffffffffffffffffffffffff168173ffffffffffffffffffffffffffffffffffffffff161415610dba576040517f08c379a0000000000000000000000000000000000000000000000000000000008152600401610db190613203565b60405180910390fd5b610dc381611439565b50565b60007f01ffc9a7000000000000000000000000000000000000000000000000000000007bffffffffffffffffffffffffffffffffffffffffffffffffffffffff1916827bffffffffffffffffffffffffffffffffffffffffffffffffffffffff1916149050919050565b610e3981611399565b610e78576040517f08c379a0000000000000000000000000000000000000000000000000000000008152600401610e6f906133a3565b60405180910390fd5b50565b600033905090565b816006600083815260200190815260200160002060006101000a81548173ffffffffffffffffffffffffffffffffffffffff021916908373ffffffffffffffffffffffffffffffffffffffff160217905550808273ffffffffffffffffffffffffffffffffffffffff16610ef6836107ec565b73ffffffffffffffffffffffffffffffffffffffff167f8c5be1e5ebec7d5bd14f71427d1e84f3dd0314c0f7b2291e5b200ac8c7c3b92560405160405180910390a45050565b600080610f48836107ec565b90508073ffffffffffffffffffffffffffffffffffffffff168473ffffffffffffffffffffffffffffffffffffffff161480610f8a5750610f898185610cae565b5b80610fc857508373ffffffffffffffffffffffffffffffffffffffff16610fb0846104f3565b73ffffffffffffffffffffffffffffffffffffffff16145b91505092915050565b8273ffffffffffffffffffffffffffffffffffffffff16610ff1826107ec565b73ffffffffffffffffffffffffffffffffffffffff1614611047576040517f08c379a000000000000000000000000000000000000000000000000000000000815260040161103e90613223565b60405180910390fd5b600073ffffffffffffffffffffffffffffffffffffffff168273ffffffffffffffffffffffffffffffffffffffff1614156110b7576040517f08c379a00000000000000000000000000000000000000000000000000000000081526004016110ae90613283565b60405180910390fd5b6110c48383836001611824565b8273ffffffffffffffffffffffffffffffffffffffff166110e4826107ec565b73ffffffffffffffffffffffffffffffffffffffff161461113a576040517f08c379a000000000000000000000000000000000000000000000000000000000815260040161113190613223565b60405180910390fd5b6006600082815260200190815260200160002060006101000a81549073ffffffffffffffffffffffffffffffffffffffff02191690556001600560008573ffffffffffffffffffffffffffffffffffffffff1673ffffffffffffffffffffffffffffffffffffffff168152602001908152602001600020600082825403925050819055506001600560008473ffffffffffffffffffffffffffffffffffffffff1673ffffffffffffffffffffffffffffffffffffffff16815260200190815260200160002060008282540192505081905550816004600083815260200190815260200160002060006101000a81548173ffffffffffffffffffffffffffffffffffffffff021916908373ffffffffffffffffffffffffffffffffffffffff160217905550808273ffffffffffffffffffffffffffffffffffffffff168473ffffffffffffffffffffffffffffffffffffffff167fddf252ad1be2c89b69c2b068fc378daa952ba7f163c4a11628f55a4df523b3ef60405160405180910390a46112c6838383600161194a565b505050565b6112d3610e7b565b73ffffffffffffffffffffffffffffffffffffffff166112f161093f565b73ffffffffffffffffffffffffffffffffffffffff1614611347576040517f08c379a000000000000000000000000000000000000000000000000000000000815260040161133e90613363565b60405180910390fd5b565b6002600154141561138f576040517f08c379a000000000000000000000000000000000000000000000000000000000815260040161138690613443565b60405180910390fd5b6002600181905550565b60008073ffffffffffffffffffffffffffffffffffffffff166113bb836113fc565b73ffffffffffffffffffffffffffffffffffffffff1614159050919050565b6113e48383611950565b6113ee828261196e565b505050565b60018081905550565b60006004600083815260200190815260200160002060009054906101000a900473ffffffffffffffffffffffffffffffffffffffff169050919050565b60008060009054906101000a900473ffffffffffffffffffffffffffffffffffffffff169050816000806101000a81548173ffffffffffffffffffffffffffffffffffffffff021916908373ffffffffffffffffffffffffffffffffffffffff1602179055508173ffffffffffffffffffffffffffffffffffffffff168173ffffffffffffffffffffffffffffffffffffffff167f8be0079c531659141344cd1fd0a4f28419497f9722a3daafe3b4186f6b6457e060405160405180910390a35050565b8173ffffffffffffffffffffffffffffffffffffffff168373ffffffffffffffffffffffffffffffffffffffff16141561156c576040517f08c379a0000000000000000000000000000000000000000000000000000000008152600401611563906132a3565b60405180910390fd5b80600760008573ffffffffffffffffffffffffffffffffffffffff1673ffffffffffffffffffffffffffffffffffffffff16815260200190815260200160002060008473ffffffffffffffffffffffffffffffffffffffff1673ffffffffffffffffffffffffffffffffffffffff16815260200190815260200160002060006101000a81548160ff0219169083151502179055508173ffffffffffffffffffffffffffffffffffffffff168373ffffffffffffffffffffffffffffffffffffffff167f17307eab39ab6107e8899845ad3d59bd9653f200f220920489ca2b5937696c318360405161165d9190613101565b60405180910390a3505050565b611675848484610fd1565b611681848484846119e2565b6116c0576040517f08c379a00000000000000000000000000000000000000000000000000000000081526004016116b7906131e3565b60405180910390fd5b50505050565b60606116d182610e30565b60006008600084815260200190815260200160002080546116f1906136f4565b80601f016020809104026020016040519081016040528092919081815260200182805461171d906136f4565b801561176a5780601f1061173f5761010080835404028352916020019161176a565b820191906000526020600020905b81548152906001019060200180831161174d57829003601f168201915b50505050509050600061177b611b79565b90506000815114156117915781925050506117d4565b6000825111156117c65780826040516020016117ae929190612fc6565b604051602081830303815290604052925050506117d4565b6117cf84611b90565b925050505b919050565b600080836040516020016117ed9190612fea565b60405160208183030381529060405280519060200120905061180f8184611bf8565b91505092915050565b61182181611c1f565b50565b600181111561194457600073ffffffffffffffffffffffffffffffffffffffff168473ffffffffffffffffffffffffffffffffffffffff16146118b85780600560008673ffffffffffffffffffffffffffffffffffffffff1673ffffffffffffffffffffffffffffffffffffffff16815260200190815260200160002060008282546118b091906135a9565b925050819055505b600073ffffffffffffffffffffffffffffffffffffffff168373ffffffffffffffffffffffffffffffffffffffff16146119435780600560008573ffffffffffffffffffffffffffffffffffffffff1673ffffffffffffffffffffffffffffffffffffffff168152602001908152602001600020600082825461193b9190613553565b925050819055505b5b50505050565b50505050565b61196a828260405180602001604052806000815250611c72565b5050565b61197782611399565b6119b6576040517f08c379a00000000000000000000000000000000000000000000000000000000081526004016119ad90613323565b60405180910390fd5b806008600084815260200190815260200160002090805190602001906119dd92919061252a565b505050565b6000611a038473ffffffffffffffffffffffffffffffffffffffff16611ccd565b15611b6c578373ffffffffffffffffffffffffffffffffffffffff1663150b7a02611a2c610e7b565b8786866040518563ffffffff1660e01b8152600401611a4e949392919061302b565b602060405180830381600087803b158015611a6857600080fd5b505af1925050508015611a9957506040513d601f19601f82011682018060405250810190611a9691906129f4565b60015b611b1c573d8060008114611ac9576040519150601f19603f3d011682016040523d82523d6000602084013e611ace565b606091505b50600081511415611b14576040517f08c379a0000000000000000000000000000000000000000000000000000000008152600401611b0b906131e3565b60405180910390fd5b805181602001fd5b63150b7a0260e01b7bffffffffffffffffffffffffffffffffffffffffffffffffffffffff1916817bffffffffffffffffffffffffffffffffffffffffffffffffffffffff191614915050611b71565b600190505b949350505050565b606060405180602001604052806000815250905090565b6060611b9b82610e30565b6000611ba5611b79565b90506000815111611bc55760405180602001604052806000815250611bf0565b80611bcf84611cf0565b604051602001611be0929190612fc6565b6040516020818303038152906040525b915050919050565b6000806000611c078585611dc8565b91509150611c1481611e1a565b819250505092915050565b611c2881611f88565b6000600860008381526020019081526020016000208054611c48906136f4565b905014611c6f57600860008281526020019081526020016000206000611c6e91906125b0565b5b50565b611c7c83836120d6565b611c8960008484846119e2565b611cc8576040517f08c379a0000000000000000000000000000000000000000000000000000000008152600401611cbf906131e3565b60405180910390fd5b505050565b6000808273ffffffffffffffffffffffffffffffffffffffff163b119050919050565b606060006001611cff846122f4565b01905060008167ffffffffffffffff811115611d1e57611d1d61381d565b5b6040519080825280601f01601f191660200182016040528015611d505781602001600182028036833780820191505090505b509050600082602001820190505b600115611dbd578080600190039150507f3031323334353637383961626364656600000000000000000000000000000000600a86061a8153600a8581611da757611da6613790565b5b0494506000851415611db857611dbd565b611d5e565b819350505050919050565b600080604183511415611e0a5760008060006020860151925060408601519150606086015160001a9050611dfe87828585612447565b94509450505050611e13565b60006002915091505b9250929050565b60006004811115611e2e57611e2d6137bf565b5b816004811115611e4157611e406137bf565b5b1415611e4c57611f85565b60016004811115611e6057611e5f6137bf565b5b816004811115611e7357611e726137bf565b5b1415611eb4576040517f08c379a0000000000000000000000000000000000000000000000000000000008152600401611eab90613183565b60405180910390fd5b60026004811115611ec857611ec76137bf565b5b816004811115611edb57611eda6137bf565b5b1415611f1c576040517f08c379a0000000000000000000000000000000000000000000000000000000008152600401611f13906131c3565b60405180910390fd5b60036004811115611f3057611f2f6137bf565b5b816004811115611f4357611f426137bf565b5b1415611f84576040517f08c379a0000000000000000000000000000000000000000000000000000000008152600401611f7b906132e3565b60405180910390fd5b5b50565b6000611f93826107ec565b9050611fa3816000846001611824565b611fac826107ec565b90506006600083815260200190815260200160002060006101000a81549073ffffffffffffffffffffffffffffffffffffffff02191690556001600560008373ffffffffffffffffffffffffffffffffffffffff1673ffffffffffffffffffffffffffffffffffffffff168152602001908152602001600020600082825403925050819055506004600083815260200190815260200160002060006101000a81549073ffffffffffffffffffffffffffffffffffffffff021916905581600073ffffffffffffffffffffffffffffffffffffffff168273ffffffffffffffffffffffffffffffffffffffff167fddf252ad1be2c89b69c2b068fc378daa952ba7f163c4a11628f55a4df523b3ef60405160405180910390a46120d281600084600161194a565b5050565b600073ffffffffffffffffffffffffffffffffffffffff168273ffffffffffffffffffffffffffffffffffffffff161415612146576040517f08c379a000000000000000000000000000000000000000000000000000000000815260040161213d90613343565b60405180910390fd5b61214f81611399565b1561218f576040517f08c379a000000000000000000000000000000000000000000000000000000000815260040161218690613243565b60405180910390fd5b61219d600083836001611824565b6121a681611399565b156121e6576040517f08c379a00000000000000000000000000000000000000000000000000000000081526004016121dd90613243565b60405180910390fd5b6001600560008473ffffffffffffffffffffffffffffffffffffffff1673ffffffffffffffffffffffffffffffffffffffff16815260200190815260200160002060008282540192505081905550816004600083815260200190815260200160002060006101000a81548173ffffffffffffffffffffffffffffffffffffffff021916908373ffffffffffffffffffffffffffffffffffffffff160217905550808273ffffffffffffffffffffffffffffffffffffffff16600073ffffffffffffffffffffffffffffffffffffffff167fddf252ad1be2c89b69c2b068fc378daa952ba7f163c4a11628f55a4df523b3ef60405160405180910390a46122f060008383600161194a565b5050565b600080600090507a184f03e93ff9f4daa797ed6e38ed64bf6a1f0100000000000000008310612352577a184f03e93ff9f4daa797ed6e38ed64bf6a1f010000000000000000838161234857612347613790565b5b0492506040810190505b6d04ee2d6d415b85acef8100000000831061238f576d04ee2d6d415b85acef8100000000838161238557612384613790565b5b0492506020810190505b662386f26fc1000083106123be57662386f26fc1000083816123b4576123b3613790565b5b0492506010810190505b6305f5e10083106123e7576305f5e10083816123dd576123dc613790565b5b0492506008810190505b612710831061240c57612710838161240257612401613790565b5b0492506004810190505b6064831061242f576064838161242557612424613790565b5b0492506002810190505b600a831061243e576001810190505b80915050919050565b6000807f7fffffffffffffffffffffffffffffff5d576e7357a4501ddfe92f46681b20a08360001c1115612482576000600391509150612521565b6000600187878787604051600081526020016040526040516124a7949392919061311c565b6020604051602081039080840390855afa1580156124c9573d6000803e3d6000fd5b505050602060405103519050600073ffffffffffffffffffffffffffffffffffffffff168173ffffffffffffffffffffffffffffffffffffffff16141561251857600060019250925050612521565b80600092509250505b94509492505050565b828054612536906136f4565b90600052602060002090601f016020900481019282612558576000855561259f565b82601f1061257157805160ff191683800117855561259f565b8280016001018555821561259f579182015b8281111561259e578251825591602001919060010190612583565b5b5090506125ac91906125f0565b5090565b5080546125bc906136f4565b6000825580601f106125ce57506125ed565b601f0160209004906000526020600020908101906125ec91906125f0565b5b50565b5b808211156126095760008160009055506001016125f1565b5090565b600061262061261b846134a3565b61347e565b90508281526020810184848401111561263c5761263b613851565b5b6126478482856136b2565b509392505050565b600061266261265d846134d4565b61347e565b90508281526020810184848401111561267e5761267d613851565b5b6126898482856136b2565b509392505050565b6000813590506126a081613ded565b92915050565b6000813590506126b581613e04565b92915050565b6000813590506126ca81613e1b565b92915050565b6000813590506126df81613e32565b92915050565b6000815190506126f481613e32565b92915050565b600082601f83011261270f5761270e61384c565b5b813561271f84826020860161260d565b91505092915050565b60008135905061273781613e49565b92915050565b60008135905061274c81613e59565b92915050565b600082601f8301126127675761276661384c565b5b813561277784826020860161264f565b91505092915050565b60008135905061278f81613e69565b92915050565b6000602082840312156127ab576127aa61385b565b5b60006127b984828501612691565b91505092915050565b600080604083850312156127d9576127d861385b565b5b60006127e785828601612691565b92505060206127f885828601612691565b9150509250929050565b60008060006060848603121561281b5761281a61385b565b5b600061282986828701612691565b935050602061283a86828701612691565b925050604061284b86828701612780565b9150509250925092565b6000806000806080858703121561286f5761286e61385b565b5b600061287d87828801612691565b945050602061288e87828801612691565b935050604061289f87828801612780565b925050606085013567ffffffffffffffff8111156128c0576128bf613856565b5b6128cc878288016126fa565b91505092959194509250565b600080604083850312156128ef576128ee61385b565b5b60006128fd85828601612691565b925050602061290e858286016126a6565b9150509250929050565b6000806000606084860312156129315761293061385b565b5b600061293f86828701612691565b935050602084013567ffffffffffffffff8111156129605761295f613856565b5b61296c86828701612752565b925050604061297d86828701612780565b9150509250925092565b6000806040838503121561299e5761299d61385b565b5b60006129ac85828601612691565b92505060206129bd85828601612780565b9150509250929050565b6000602082840312156129dd576129dc61385b565b5b60006129eb848285016126d0565b91505092915050565b600060208284031215612a0a57612a0961385b565b5b6000612a18848285016126e5565b91505092915050565b60008060008060008060c08789031215612a3e57612a3d61385b565b5b6000612a4c89828a0161273d565b9650506020612a5d89828a01612728565b9550506040612a6e89828a01612780565b945050606087013567ffffffffffffffff811115612a8f57612a8e613856565b5b612a9b89828a01612752565b9350506080612aac89828a016126bb565b92505060a087013567ffffffffffffffff811115612acd57612acc613856565b5b612ad989828a016126fa565b9150509295509295509295565b600060208284031215612afc57612afb61385b565b5b6000612b0a84828501612780565b91505092915050565b612b1c816135dd565b82525050565b612b2b816135ef565b82525050565b612b3a816135fb565b82525050565b612b51612b4c826135fb565b613757565b82525050565b6000612b6282613505565b612b6c818561351b565b9350612b7c8185602086016136c1565b612b8581613860565b840191505092915050565b6000612b9b82613505565b612ba5818561352c565b9350612bb58185602086016136c1565b80840191505092915050565b612bca8161368e565b82525050565b612bd9816136a0565b82525050565b6000612bea82613510565b612bf48185613537565b9350612c048185602086016136c1565b612c0d81613860565b840191505092915050565b6000612c2382613510565b612c2d8185613548565b9350612c3d8185602086016136c1565b80840191505092915050565b6000612c56601883613537565b9150612c6182613871565b602082019050919050565b6000612c79602d83613537565b9150612c848261389a565b604082019050919050565b6000612c9c601f83613537565b9150612ca7826138e9565b602082019050919050565b6000612cbf601c83613548565b9150612cca82613912565b601c82019050919050565b6000612ce2603283613537565b9150612ced8261393b565b604082019050919050565b6000612d05602683613537565b9150612d108261398a565b604082019050919050565b6000612d28602583613537565b9150612d33826139d9565b604082019050919050565b6000612d4b601c83613537565b9150612d5682613a28565b602082019050919050565b6000612d6e601983613537565b9150612d7982613a51565b602082019050919050565b6000612d91602483613537565b9150612d9c82613a7a565b604082019050919050565b6000612db4601983613537565b9150612dbf82613ac9565b602082019050919050565b6000612dd7600d83613537565b9150612de282613af2565b602082019050919050565b6000612dfa602283613537565b9150612e0582613b1b565b604082019050919050565b6000612e1d602983613537565b9150612e2882613b6a565b604082019050919050565b6000612e40602e83613537565b9150612e4b82613bb9565b604082019050919050565b6000612e63602083613537565b9150612e6e82613c08565b602082019050919050565b6000612e86602083613537565b9150612e9182613c31565b602082019050919050565b6000612ea9601383613537565b9150612eb482613c5a565b602082019050919050565b6000612ecc601883613537565b9150612ed782613c83565b602082019050919050565b6000612eef602183613537565b9150612efa82613cac565b604082019050919050565b6000612f12603d83613537565b9150612f1d82613cfb565b604082019050919050565b6000612f35601283613537565b9150612f4082613d4a565b602082019050919050565b6000612f58601683613537565b9150612f6382613d73565b602082019050919050565b6000612f7b601f83613537565b9150612f8682613d9c565b602082019050919050565b612f9a81613677565b82525050565b612fa981613681565b82525050565b6000612fbb8284612b90565b915081905092915050565b6000612fd28285612c18565b9150612fde8284612c18565b91508190509392505050565b6000612ff582612cb2565b91506130018284612b40565b60208201915081905092915050565b60006020820190506130256000830184612b13565b92915050565b60006080820190506130406000830187612b13565b61304d6020830186612b13565b61305a6040830185612f91565b818103606083015261306c8184612b57565b905095945050505050565b600060408201905061308c6000830185612b13565b818103602083015261309e8184612bdf565b90509392505050565b600060a0820190506130bc6000830188612b13565b81810360208301526130ce8187612bdf565b90506130dd6040830186612f91565b6130ea6060830185612bd0565b6130f76080830184612bc1565b9695505050505050565b60006020820190506131166000830184612b22565b92915050565b60006080820190506131316000830187612b31565b61313e6020830186612fa0565b61314b6040830185612b31565b6131586060830184612b31565b95945050505050565b6000602082019050818103600083015261317b8184612bdf565b905092915050565b6000602082019050818103600083015261319c81612c49565b9050919050565b600060208201905081810360008301526131bc81612c6c565b9050919050565b600060208201905081810360008301526131dc81612c8f565b9050919050565b600060208201905081810360008301526131fc81612cd5565b9050919050565b6000602082019050818103600083015261321c81612cf8565b9050919050565b6000602082019050818103600083015261323c81612d1b565b9050919050565b6000602082019050818103600083015261325c81612d3e565b9050919050565b6000602082019050818103600083015261327c81612d61565b9050919050565b6000602082019050818103600083015261329c81612d84565b9050919050565b600060208201905081810360008301526132bc81612da7565b9050919050565b600060208201905081810360008301526132dc81612dca565b9050919050565b600060208201905081810360008301526132fc81612ded565b9050919050565b6000602082019050818103600083015261331c81612e10565b9050919050565b6000602082019050818103600083015261333c81612e33565b9050919050565b6000602082019050818103600083015261335c81612e56565b9050919050565b6000602082019050818103600083015261337c81612e79565b9050919050565b6000602082019050818103600083015261339c81612e9c565b9050919050565b600060208201905081810360008301526133bc81612ebf565b9050919050565b600060208201905081810360008301526133dc81612ee2565b9050919050565b600060208201905081810360008301526133fc81612f05565b9050919050565b6000602082019050818103600083015261341c81612f28565b9050919050565b6000602082019050818103600083015261343c81612f4b565b9050919050565b6000602082019050818103600083015261345c81612f6e565b9050919050565b60006020820190506134786000830184612f91565b92915050565b6000613488613499565b90506134948282613726565b919050565b6000604051905090565b600067ffffffffffffffff8211156134be576134bd61381d565b5b6134c782613860565b9050602081019050919050565b600067ffffffffffffffff8211156134ef576134ee61381d565b5b6134f882613860565b9050602081019050919050565b600081519050919050565b600081519050919050565b600082825260208201905092915050565b600081905092915050565b600082825260208201905092915050565b600081905092915050565b600061355e82613677565b915061356983613677565b9250827fffffffffffffffffffffffffffffffffffffffffffffffffffffffffffffffff0382111561359e5761359d613761565b5b828201905092915050565b60006135b482613677565b91506135bf83613677565b9250828210156135d2576135d1613761565b5b828203905092915050565b60006135e882613657565b9050919050565b60008115159050919050565b6000819050919050565b60007fffffffff0000000000000000000000000000000000000000000000000000000082169050919050565b600081905061363f82613dc5565b919050565b600081905061365282613dd9565b919050565b600073ffffffffffffffffffffffffffffffffffffffff82169050919050565b6000819050919050565b600060ff82169050919050565b600061369982613631565b9050919050565b60006136ab82613644565b9050919050565b82818337600083830152505050565b60005b838110156136df5780820151818401526020810190506136c4565b838111156136ee576000848401525b50505050565b6000600282049050600182168061370c57607f821691505b602082108114156137205761371f6137ee565b5b50919050565b61372f82613860565b810181811067ffffffffffffffff8211171561374e5761374d61381d565b5b80604052505050565b6000819050919050565b7f4e487b7100000000000000000000000000000000000000000000000000000000600052601160045260246000fd5b7f4e487b7100000000000000000000000000000000000000000000000000000000600052601260045260246000fd5b7f4e487b7100000000000000000000000000000000000000000000000000000000600052602160045260246000fd5b7f4e487b7100000000000000000000000000000000000000000000000000000000600052602260045260246000fd5b7f4e487b7100000000000000000000000000000000000000000000000000000000600052604160045260246000fd5b600080fd5b600080fd5b600080fd5b600080fd5b6000601f19601f8301169050919050565b7f45434453413a20696e76616c6964207369676e61747572650000000000000000600082015250565b7f4552433732313a2063616c6c6572206973206e6f7420746f6b656e206f776e6560008201527f72206f7220617070726f76656400000000000000000000000000000000000000602082015250565b7f45434453413a20696e76616c6964207369676e6174757265206c656e67746800600082015250565b7f19457468657265756d205369676e6564204d6573736167653a0a333200000000600082015250565b7f4552433732313a207472616e7366657220746f206e6f6e20455243373231526560008201527f63656976657220696d706c656d656e7465720000000000000000000000000000602082015250565b7f4f776e61626c653a206e6577206f776e657220697320746865207a65726f206160008201527f6464726573730000000000000000000000000000000000000000000000000000602082015250565b7f4552433732313a207472616e736665722066726f6d20696e636f72726563742060008201527f6f776e6572000000000000000000000000000000000000000000000000000000602082015250565b7f4552433732313a20746f6b656e20616c7265616479206d696e74656400000000600082015250565b7f41646472657373206973206e6f7420617574686f72697a656400000000000000600082015250565b7f4552433732313a207472616e7366657220746f20746865207a65726f2061646460008201527f7265737300000000000000000000000000000000000000000000000000000000602082015250565b7f4552433732313a20617070726f766520746f2063616c6c657200000000000000600082015250565b7f496e76616c696420636861696e00000000000000000000000000000000000000600082015250565b7f45434453413a20696e76616c6964207369676e6174757265202773272076616c60008201527f7565000000000000000000000000000000000000000000000000000000000000602082015250565b7f4552433732313a2061646472657373207a65726f206973206e6f74206120766160008201527f6c6964206f776e65720000000000000000000000000000000000000000000000602082015250565b7f45524337323155524953746f726167653a2055524920736574206f66206e6f6e60008201527f6578697374656e7420746f6b656e000000000000000000000000000000000000602082015250565b7f4552433732313a206d696e7420746f20746865207a65726f2061646472657373600082015250565b7f4f776e61626c653a2063616c6c6572206973206e6f7420746865206f776e6572600082015250565b7f416464726573732063616e6e6f74206265203000000000000000000000000000600082015250565b7f4552433732313a20696e76616c696420746f6b656e2049440000000000000000600082015250565b7f4552433732313a20617070726f76616c20746f2063757272656e74206f776e6560008201527f7200000000000000000000000000000000000000000000000000000000000000602082015250565b7f4552433732313a20617070726f76652063616c6c6572206973206e6f7420746f60008201527f6b656e206f776e6572206f7220617070726f76656420666f7220616c6c000000602082015250565b7f4e667420616c7265616479206578697374730000000000000000000000000000600082015250565b7f416c7265616479207369676e6174757265207573656400000000000000000000600082015250565b7f5265656e7472616e637947756172643a207265656e7472616e742063616c6c00600082015250565b60038110613dd657613dd56137bf565b5b50565b60038110613dea57613de96137bf565b5b50565b613df6816135dd565b8114613e0157600080fd5b50565b613e0d816135ef565b8114613e1857600080fd5b50565b613e24816135fb565b8114613e2f57600080fd5b50565b613e3b81613605565b8114613e4657600080fd5b50565b60038110613e5657600080fd5b50565b60038110613e6657600080fd5b50565b613e7281613677565b8114613e7d57600080fd5b5056fea264697066735822122070fc046ffaf72e77dbba38c28f5d76387dd2ff47477089498fa59ddc8445430764736f6c63430008070033",
  "linkReferences": {},
  "deployedLinkReferences": {}
}