{
  "_format": "hh-sol-artifact-1",
  "contractName": "NftBridgePolygon",
  "sourceName": "contracts/NftBridgePolygon.sol",
  "abi": [
    {
      "inputs": [],
      "stateMutability": "nonpayable",
      "type": "constructor"
    },
    {
      "anonymous": false,
      "inputs": [
        {
          "indexed": true,
          "internalType": "address",
          "name": "owner",
          "type": "address"
        },
        {
          "indexed": true,
          "internalType": "address",
          "name": "approved",
          "type": "address"
        },
        {
          "indexed": true,
          "internalType": "uint256",
          "name": "tokenId",
          "type": "uint256"
        }
      ],
      "name": "Approval",
      "type": "event"
    },
    {
      "anonymous": false,
      "inputs": [
        {
          "indexed": true,
          "internalType": "address",
          "name": "owner",
          "type": "address"
        },
        {
          "indexed": true,
          "internalType": "address",
          "name": "operator",
          "type": "address"
        },
        {
          "indexed": false,
          "internalType": "bool",
          "name": "approved",
          "type": "bool"
        }
      ],
      "name": "ApprovalForAll",
      "type": "event"
    },
    {
      "anonymous": false,
      "inputs": [
        {
          "indexed": false,
          "internalType": "address",
          "name": "_from",
          "type": "address"
        },
        {
          "indexed": false,
          "internalType": "address",
          "name": "_to",
          "type": "address"
        },
        {
          "indexed": false,
          "internalType": "string",
          "name": "_uri",
          "type": "string"
        },
        {
          "indexed": false,
          "internalType": "uint256",
          "name": "_tokenId",
          "type": "uint256"
        },
        {
          "indexed": false,
          "internalType": "enum NftBridgePolygon.SourceChain",
          "name": "_sourceChain",
          "type": "uint8"
        },
        {
          "indexed": false,
          "internalType": "enum NftBridgePolygon.DestinationChain",
          "name": "_destinationChain",
          "type": "uint8"
        }
      ],
      "name": "LockedNft",
      "type": "event"
    },
    {
      "anonymous": false,
      "inputs": [
        {
          "indexed": false,
          "internalType": "address",
          "name": "_to",
          "type": "address"
        },
        {
          "indexed": true,
          "internalType": "uint256",
          "name": "_tokenId",
          "type": "uint256"
        },
        {
          "indexed": false,
          "internalType": "string",
          "name": "_uri",
          "type": "string"
        }
      ],
      "name": "NftTransferedToDestinationChain",
      "type": "event"
    },
    {
      "anonymous": false,
      "inputs": [
        {
          "indexed": true,
          "internalType": "address",
          "name": "previousOwner",
          "type": "address"
        },
        {
          "indexed": true,
          "internalType": "address",
          "name": "newOwner",
          "type": "address"
        }
      ],
      "name": "OwnershipTransferred",
      "type": "event"
    },
    {
      "anonymous": false,
      "inputs": [
        {
          "indexed": true,
          "internalType": "address",
          "name": "from",
          "type": "address"
        },
        {
          "indexed": true,
          "internalType": "address",
          "name": "to",
          "type": "address"
        },
        {
          "indexed": true,
          "internalType": "uint256",
          "name": "tokenId",
          "type": "uint256"
        }
      ],
      "name": "Transfer",
      "type": "event"
    },
    {
      "inputs": [
        {
          "internalType": "address",
          "name": "to",
          "type": "address"
        },
        {
          "internalType": "uint256",
          "name": "tokenId",
          "type": "uint256"
        }
      ],
      "name": "approve",
      "outputs": [],
      "stateMutability": "nonpayable",
      "type": "function"
    },
    {
      "inputs": [
        {
          "internalType": "address",
          "name": "owner",
          "type": "address"
        }
      ],
      "name": "balanceOf",
      "outputs": [
        {
          "internalType": "uint256",
          "name": "",
          "type": "uint256"
        }
      ],
      "stateMutability": "view",
      "type": "function"
    },
    {
      "inputs": [
        {
          "internalType": "uint256",
          "name": "tokenId",
          "type": "uint256"
        }
      ],
      "name": "getApproved",
      "outputs": [
        {
          "internalType": "address",
          "name": "",
          "type": "address"
        }
      ],
      "stateMutability": "view",
      "type": "function"
    },
    {
      "inputs": [
        {
          "internalType": "address",
          "name": "owner",
          "type": "address"
        },
        {
          "internalType": "address",
          "name": "operator",
          "type": "address"
        }
      ],
      "name": "isApprovedForAll",
      "outputs": [
        {
          "internalType": "bool",
          "name": "",
          "type": "bool"
        }
      ],
      "stateMutability": "view",
      "type": "function"
    },
    {
      "inputs": [
        {
          "internalType": "enum NftBridgePolygon.SourceChain",
          "name": "sourceChain",
          "type": "uint8"
        },
        {
          "internalType": "enum NftBridgePolygon.DestinationChain",
          "name": "destinationChain",
          "type": "uint8"
        },
        {
          "internalType": "uint256",
          "name": "tokenId",
          "type": "uint256"
        },
        {
          "internalType": "address",
          "name": "tokenAddress",
          "type": "address"
        },
        {
          "internalType": "bytes32",
          "name": "hash",
          "type": "bytes32"
        },
        {
          "internalType": "bytes",
          "name": "signature",
          "type": "bytes"
        }
      ],
      "name": "lockNft",
      "outputs": [],
      "stateMutability": "nonpayable",
      "type": "function"
    },
    {
      "inputs": [],
      "name": "name",
      "outputs": [
        {
          "internalType": "string",
          "name": "",
          "type": "string"
        }
      ],
      "stateMutability": "view",
      "type": "function"
    },
    {
      "inputs": [],
      "name": "owner",
      "outputs": [
        {
          "internalType": "address",
          "name": "",
          "type": "address"
        }
      ],
      "stateMutability": "view",
      "type": "function"
    },
    {
      "inputs": [
        {
          "internalType": "uint256",
          "name": "tokenId",
          "type": "uint256"
        }
      ],
      "name": "ownerOf",
      "outputs": [
        {
          "internalType": "address",
          "name": "",
          "type": "address"
        }
      ],
      "stateMutability": "view",
      "type": "function"
    },
    {
      "inputs": [],
      "name": "renounceOwnership",
      "outputs": [],
      "stateMutability": "nonpayable",
      "type": "function"
    },
    {
      "inputs": [
        {
          "internalType": "address",
          "name": "from",
          "type": "address"
        },
        {
          "internalType": "address",
          "name": "to",
          "type": "address"
        },
        {
          "internalType": "uint256",
          "name": "tokenId",
          "type": "uint256"
        }
      ],
      "name": "safeTransferFrom",
      "outputs": [],
      "stateMutability": "nonpayable",
      "type": "function"
    },
    {
      "inputs": [
        {
          "internalType": "address",
          "name": "from",
          "type": "address"
        },
        {
          "internalType": "address",
          "name": "to",
          "type": "address"
        },
        {
          "internalType": "uint256",
          "name": "tokenId",
          "type": "uint256"
        },
        {
          "internalType": "bytes",
          "name": "data",
          "type": "bytes"
        }
      ],
      "name": "safeTransferFrom",
      "outputs": [],
      "stateMutability": "nonpayable",
      "type": "function"
    },
    {
      "inputs": [
        {
          "internalType": "address",
          "name": "operator",
          "type": "address"
        },
        {
          "internalType": "bool",
          "name": "approved",
          "type": "bool"
        }
      ],
      "name": "setApprovalForAll",
      "outputs": [],
      "stateMutability": "nonpayable",
      "type": "function"
    },
    {
      "inputs": [
        {
          "internalType": "bytes4",
          "name": "interfaceId",
          "type": "bytes4"
        }
      ],
      "name": "supportsInterface",
      "outputs": [
        {
          "internalType": "bool",
          "name": "",
          "type": "bool"
        }
      ],
      "stateMutability": "view",
      "type": "function"
    },
    {
      "inputs": [],
      "name": "symbol",
      "outputs": [
        {
          "internalType": "string",
          "name": "",
          "type": "string"
        }
      ],
      "stateMutability": "view",
      "type": "function"
    },
    {
      "inputs": [
        {
          "internalType": "uint256",
          "name": "tokenId",
          "type": "uint256"
        }
      ],
      "name": "tokenURI",
      "outputs": [
        {
          "internalType": "string",
          "name": "",
          "type": "string"
        }
      ],
      "stateMutability": "view",
      "type": "function"
    },
    {
      "inputs": [
        {
          "internalType": "address",
          "name": "from",
          "type": "address"
        },
        {
          "internalType": "address",
          "name": "to",
          "type": "address"
        },
        {
          "internalType": "uint256",
          "name": "tokenId",
          "type": "uint256"
        }
      ],
      "name": "transferFrom",
      "outputs": [],
      "stateMutability": "nonpayable",
      "type": "function"
    },
    {
      "inputs": [
        {
          "internalType": "address",
          "name": "recipient",
          "type": "address"
        },
        {
          "internalType": "string",
          "name": "uri",
          "type": "string"
        },
        {
          "internalType": "uint256",
          "name": "tokenId",
          "type": "uint256"
        }
      ],
      "name": "transferNft",
      "outputs": [],
      "stateMutability": "nonpayable",
      "type": "function"
    },
    {
      "inputs": [
        {
          "internalType": "address",
          "name": "newOwner",
          "type": "address"
        }
      ],
      "name": "transferOwnership",
      "outputs": [],
      "stateMutability": "nonpayable",
      "type": "function"
    }
  ],
  "bytecode": "0x60806040523480156200001157600080fd5b506040518060400160405280601081526020017f4e6674427269646765506f6c79676f6e000000000000000000000000000000008152506040518060400160405280600981526020017f4e42504f4c59474f4e00000000000000000000000000000000000000000000008152506200009e62000092620000df60201b60201c565b620000e760201b60201c565b600180819055508160029080519060200190620000bd929190620001ab565b508060039080519060200190620000d6929190620001ab565b505050620002c0565b600033905090565b60008060009054906101000a900473ffffffffffffffffffffffffffffffffffffffff169050816000806101000a81548173ffffffffffffffffffffffffffffffffffffffff021916908373ffffffffffffffffffffffffffffffffffffffff1602179055508173ffffffffffffffffffffffffffffffffffffffff168173ffffffffffffffffffffffffffffffffffffffff167f8be0079c531659141344cd1fd0a4f28419497f9722a3daafe3b4186f6b6457e060405160405180910390a35050565b828054620001b9906200025b565b90600052602060002090601f016020900481019282620001dd576000855562000229565b82601f10620001f857805160ff191683800117855562000229565b8280016001018555821562000229579182015b82811115620002285782518255916020019190600101906200020b565b5b5090506200023891906200023c565b5090565b5b80821115620002575760008160009055506001016200023d565b5090565b600060028204905060018216806200027457607f821691505b602082108114156200028b576200028a62000291565b5b50919050565b7f4e487b7100000000000000000000000000000000000000000000000000000000600052602260045260246000fd5b6140d180620002d06000396000f3fe608060405234801561001057600080fd5b50600436106101165760003560e01c8063715018a6116100a2578063ae12e73411610071578063ae12e734146102cb578063b88d4fde146102e7578063c87b56dd14610303578063e985e9c514610333578063f2fde38b1461036357610116565b8063715018a6146102695780638da5cb5b1461027357806395d89b4114610291578063a22cb465146102af57610116565b806323b872dd116100e957806323b872dd146101b55780633e6caa7b146101d157806342842e0e146101ed5780636352211e1461020957806370a082311461023957610116565b806301ffc9a71461011b57806306fdde031461014b578063081812fc14610169578063095ea7b314610199575b600080fd5b61013560048036038101906101309190612b04565b61037f565b60405161014291906132d3565b60405180910390f35b610153610461565b6040516101609190613333565b60405180910390f35b610183600480360381019061017e9190612c50565b6104f3565b604051610190919061319d565b60405180910390f35b6101b360048036038101906101ae9190612ac4565b610539565b005b6101cf60048036038101906101ca919061293f565b610651565b005b6101eb60048036038101906101e69190612a55565b6106b1565b005b6102076004803603810190610202919061293f565b6107cc565b005b610223600480360381019061021e9190612c50565b6107ec565b604051610230919061319d565b60405180910390f35b610253600480360381019061024e91906128a5565b610873565b6040516102609190613655565b60405180910390f35b61027161092b565b005b61027b61093f565b604051610288919061319d565b60405180910390f35b610299610968565b6040516102a69190613333565b60405180910390f35b6102c960048036038101906102c49190612a15565b6109fa565b005b6102e560048036038101906102e09190612b5e565b610a10565b005b61030160048036038101906102fc9190612992565b610e18565b005b61031d60048036038101906103189190612c50565b610e7a565b60405161032a9190613333565b60405180910390f35b61034d600480360381019061034891906128ff565b610e8c565b60405161035a91906132d3565b60405180910390f35b61037d600480360381019061037891906128a5565b610f20565b005b60007f80ac58cd000000000000000000000000000000000000000000000000000000007bffffffffffffffffffffffffffffffffffffffffffffffffffffffff1916827bffffffffffffffffffffffffffffffffffffffffffffffffffffffff1916148061044a57507f5b5e139f000000000000000000000000000000000000000000000000000000007bffffffffffffffffffffffffffffffffffffffffffffffffffffffff1916827bffffffffffffffffffffffffffffffffffffffffffffffffffffffff1916145b8061045a575061045982610fa4565b5b9050919050565b606060028054610470906138e6565b80601f016020809104026020016040519081016040528092919081815260200182805461049c906138e6565b80156104e95780601f106104be576101008083540402835291602001916104e9565b820191906000526020600020905b8154815290600101906020018083116104cc57829003601f168201915b5050505050905090565b60006104fe8261100e565b6006600083815260200190815260200160002060009054906101000a900473ffffffffffffffffffffffffffffffffffffffff169050919050565b6000610544826107ec565b90508073ffffffffffffffffffffffffffffffffffffffff168373ffffffffffffffffffffffffffffffffffffffff1614156105b5576040517f08c379a00000000000000000000000000000000000000000000000000000000081526004016105ac906135b5565b60405180910390fd5b8073ffffffffffffffffffffffffffffffffffffffff166105d4611059565b73ffffffffffffffffffffffffffffffffffffffff1614806106035750610602816105fd611059565b610e8c565b5b610642576040517f08c379a0000000000000000000000000000000000000000000000000000000008152600401610639906135d5565b60405180910390fd5b61064c8383611061565b505050565b61066261065c611059565b8261111a565b6106a1576040517f08c379a000000000000000000000000000000000000000000000000000000000815260040161069890613375565b60405180910390fd5b6106ac8383836111af565b505050565b6106b96114a9565b6106c1611527565b600073ffffffffffffffffffffffffffffffffffffffff168373ffffffffffffffffffffffffffffffffffffffff161415610731576040517f08c379a000000000000000000000000000000000000000000000000000000000815260040161072890613575565b60405180910390fd5b61073a81611577565b1561077a576040517f08c379a0000000000000000000000000000000000000000000000000000000008152600401610771906135f5565b60405180910390fd5b807f3de8cbbb2b0c7e856c104db60ab7521788a58cb7210352d1dbf5f8a55b99fe0a84846040516107ac9291906132a3565b60405180910390a26107bf838284611652565b6107c761166b565b505050565b6107e783838360405180602001604052806000815250610e18565b505050565b6000806107f883611674565b9050600073ffffffffffffffffffffffffffffffffffffffff168173ffffffffffffffffffffffffffffffffffffffff16141561086a576040517f08c379a000000000000000000000000000000000000000000000000000000000815260040161086190613595565b60405180910390fd5b80915050919050565b60008073ffffffffffffffffffffffffffffffffffffffff168273ffffffffffffffffffffffffffffffffffffffff1614156108e4576040517f08c379a00000000000000000000000000000000000000000000000000000000081526004016108db906134f5565b60405180910390fd5b600560008373ffffffffffffffffffffffffffffffffffffffff1673ffffffffffffffffffffffffffffffffffffffff168152602001908152602001600020549050919050565b6109336114a9565b61093d60006116b1565b565b60008060009054906101000a900473ffffffffffffffffffffffffffffffffffffffff16905090565b606060038054610977906138e6565b80601f01602080910402602001604051908101604052809291908181526020018280546109a3906138e6565b80156109f05780601f106109c5576101008083540402835291602001916109f0565b820191906000526020600020905b8154815290600101906020018083116109d357829003601f168201915b5050505050905090565b610a0c610a05611059565b8383611775565b5050565b610a18611527565b600280811115610a2b57610a2a6139b1565b5b866002811115610a3e57610a3d6139b1565b5b148015610a6f5750600280811115610a5957610a586139b1565b5b856002811115610a6c57610a6b6139b1565b5b14155b610aae576040517f08c379a0000000000000000000000000000000000000000000000000000000008152600401610aa5906134b5565b60405180910390fd5b610ab661093f565b73ffffffffffffffffffffffffffffffffffffffff16610ad683836118e2565b73ffffffffffffffffffffffffffffffffffffffff1614610b2c576040517f08c379a0000000000000000000000000000000000000000000000000000000008152600401610b2390613455565b60405180910390fd5b600981604051610b3c919061313c565b908152602001604051809103902060009054906101000a900460ff1615610b98576040517f08c379a0000000000000000000000000000000000000000000000000000000008152600401610b8f90613615565b60405180910390fd5b60008390503373ffffffffffffffffffffffffffffffffffffffff168173ffffffffffffffffffffffffffffffffffffffff16636352211e876040518263ffffffff1660e01b8152600401610bed9190613655565b60206040518083038186803b158015610c0557600080fd5b505afa158015610c19573d6000803e3d6000fd5b505050506040513d601f19601f82011682018060405250810190610c3d91906128d2565b73ffffffffffffffffffffffffffffffffffffffff1614610c93576040517f08c379a0000000000000000000000000000000000000000000000000000000008152600401610c8a906133f5565b60405180910390fd5b8373ffffffffffffffffffffffffffffffffffffffff166323b872dd3330886040518463ffffffff1660e01b8152600401610cd093929190613220565b600060405180830381600087803b158015610cea57600080fd5b505af1158015610cfe573d6000803e3d6000fd5b505050507f1c919df7d32ab8953d2fd9b889c90de6092c971074e12c855410814e95fea51233308373ffffffffffffffffffffffffffffffffffffffff1663c87b56dd896040518263ffffffff1660e01b8152600401610d5e9190613655565b60006040518083038186803b158015610d7657600080fd5b505afa158015610d8a573d6000803e3d6000fd5b505050506040513d6000823e3d601f19601f82011682018060405250810190610db39190612c07565b888b8b604051610dc8969594939291906131b8565b60405180910390a16001600983604051610de2919061313c565b908152602001604051809103902060006101000a81548160ff02191690831515021790555050610e1061166b565b505050505050565b610e29610e23611059565b8361111a565b610e68576040517f08c379a0000000000000000000000000000000000000000000000000000000008152600401610e5f90613375565b60405180910390fd5b610e7484848484611921565b50505050565b6060610e858261197d565b9050919050565b6000600760008473ffffffffffffffffffffffffffffffffffffffff1673ffffffffffffffffffffffffffffffffffffffff16815260200190815260200160002060008373ffffffffffffffffffffffffffffffffffffffff1673ffffffffffffffffffffffffffffffffffffffff16815260200190815260200160002060009054906101000a900460ff16905092915050565b610f286114a9565b600073ffffffffffffffffffffffffffffffffffffffff168173ffffffffffffffffffffffffffffffffffffffff161415610f98576040517f08c379a0000000000000000000000000000000000000000000000000000000008152600401610f8f906133d5565b60405180910390fd5b610fa1816116b1565b50565b60007f01ffc9a7000000000000000000000000000000000000000000000000000000007bffffffffffffffffffffffffffffffffffffffffffffffffffffffff1916827bffffffffffffffffffffffffffffffffffffffffffffffffffffffff1916149050919050565b61101781611577565b611056576040517f08c379a000000000000000000000000000000000000000000000000000000000815260040161104d90613595565b60405180910390fd5b50565b600033905090565b816006600083815260200190815260200160002060006101000a81548173ffffffffffffffffffffffffffffffffffffffff021916908373ffffffffffffffffffffffffffffffffffffffff160217905550808273ffffffffffffffffffffffffffffffffffffffff166110d4836107ec565b73ffffffffffffffffffffffffffffffffffffffff167f8c5be1e5ebec7d5bd14f71427d1e84f3dd0314c0f7b2291e5b200ac8c7c3b92560405160405180910390a45050565b600080611126836107ec565b90508073ffffffffffffffffffffffffffffffffffffffff168473ffffffffffffffffffffffffffffffffffffffff16148061116857506111678185610e8c565b5b806111a657508373ffffffffffffffffffffffffffffffffffffffff1661118e846104f3565b73ffffffffffffffffffffffffffffffffffffffff16145b91505092915050565b8273ffffffffffffffffffffffffffffffffffffffff166111cf826107ec565b73ffffffffffffffffffffffffffffffffffffffff1614611225576040517f08c379a000000000000000000000000000000000000000000000000000000000815260040161121c90613415565b60405180910390fd5b600073ffffffffffffffffffffffffffffffffffffffff168273ffffffffffffffffffffffffffffffffffffffff161415611295576040517f08c379a000000000000000000000000000000000000000000000000000000000815260040161128c90613475565b60405180910390fd5b6112a28383836001611a90565b8273ffffffffffffffffffffffffffffffffffffffff166112c2826107ec565b73ffffffffffffffffffffffffffffffffffffffff1614611318576040517f08c379a000000000000000000000000000000000000000000000000000000000815260040161130f90613415565b60405180910390fd5b6006600082815260200190815260200160002060006101000a81549073ffffffffffffffffffffffffffffffffffffffff02191690556001600560008573ffffffffffffffffffffffffffffffffffffffff1673ffffffffffffffffffffffffffffffffffffffff168152602001908152602001600020600082825403925050819055506001600560008473ffffffffffffffffffffffffffffffffffffffff1673ffffffffffffffffffffffffffffffffffffffff16815260200190815260200160002060008282540192505081905550816004600083815260200190815260200160002060006101000a81548173ffffffffffffffffffffffffffffffffffffffff021916908373ffffffffffffffffffffffffffffffffffffffff160217905550808273ffffffffffffffffffffffffffffffffffffffff168473ffffffffffffffffffffffffffffffffffffffff167fddf252ad1be2c89b69c2b068fc378daa952ba7f163c4a11628f55a4df523b3ef60405160405180910390a46114a48383836001611bb6565b505050565b6114b1611059565b73ffffffffffffffffffffffffffffffffffffffff166114cf61093f565b73ffffffffffffffffffffffffffffffffffffffff1614611525576040517f08c379a000000000000000000000000000000000000000000000000000000000815260040161151c90613555565b60405180910390fd5b565b6002600154141561156d576040517f08c379a000000000000000000000000000000000000000000000000000000000815260040161156490613635565b60405180910390fd5b6002600181905550565b60008073a131ad247055fd2e2aa8b156a11bdec81b9ead959050600073ffffffffffffffffffffffffffffffffffffffff168173ffffffffffffffffffffffffffffffffffffffff16636352211e856040518263ffffffff1660e01b81526004016115e29190613655565b60206040518083038186803b1580156115fa57600080fd5b505afa15801561160e573d6000803e3d6000fd5b505050506040513d601f19601f8201168201806040525081019061163291906128d2565b73ffffffffffffffffffffffffffffffffffffffff161415915050919050565b61165c8383611bbc565b6116668282611bda565b505050565b60018081905550565b60006004600083815260200190815260200160002060009054906101000a900473ffffffffffffffffffffffffffffffffffffffff169050919050565b60008060009054906101000a900473ffffffffffffffffffffffffffffffffffffffff169050816000806101000a81548173ffffffffffffffffffffffffffffffffffffffff021916908373ffffffffffffffffffffffffffffffffffffffff1602179055508173ffffffffffffffffffffffffffffffffffffffff168173ffffffffffffffffffffffffffffffffffffffff167f8be0079c531659141344cd1fd0a4f28419497f9722a3daafe3b4186f6b6457e060405160405180910390a35050565b8173ffffffffffffffffffffffffffffffffffffffff168373ffffffffffffffffffffffffffffffffffffffff1614156117e4576040517f08c379a00000000000000000000000000000000000000000000000000000000081526004016117db90613495565b60405180910390fd5b80600760008573ffffffffffffffffffffffffffffffffffffffff1673ffffffffffffffffffffffffffffffffffffffff16815260200190815260200160002060008473ffffffffffffffffffffffffffffffffffffffff1673ffffffffffffffffffffffffffffffffffffffff16815260200190815260200160002060006101000a81548160ff0219169083151502179055508173ffffffffffffffffffffffffffffffffffffffff168373ffffffffffffffffffffffffffffffffffffffff167f17307eab39ab6107e8899845ad3d59bd9653f200f220920489ca2b5937696c31836040516118d591906132d3565b60405180910390a3505050565b600080836040516020016118f69190613177565b6040516020818303038152906040528051906020012090506119188184611c4e565b91505092915050565b61192c8484846111af565b61193884848484611c75565b611977576040517f08c379a000000000000000000000000000000000000000000000000000000000815260040161196e906133b5565b60405180910390fd5b50505050565b60606119888261100e565b60006008600084815260200190815260200160002080546119a8906138e6565b80601f01602080910402602001604051908101604052809291908181526020018280546119d4906138e6565b8015611a215780601f106119f657610100808354040283529160200191611a21565b820191906000526020600020905b815481529060010190602001808311611a0457829003601f168201915b505050505090506000611a32611e0c565b9050600081511415611a48578192505050611a8b565b600082511115611a7d578082604051602001611a65929190613153565b60405160208183030381529060405292505050611a8b565b611a8684611e23565b925050505b919050565b6001811115611bb057600073ffffffffffffffffffffffffffffffffffffffff168473ffffffffffffffffffffffffffffffffffffffff1614611b245780600560008673ffffffffffffffffffffffffffffffffffffffff1673ffffffffffffffffffffffffffffffffffffffff1681526020019081526020016000206000828254611b1c919061379b565b925050819055505b600073ffffffffffffffffffffffffffffffffffffffff168373ffffffffffffffffffffffffffffffffffffffff1614611baf5780600560008573ffffffffffffffffffffffffffffffffffffffff1673ffffffffffffffffffffffffffffffffffffffff1681526020019081526020016000206000828254611ba79190613745565b925050819055505b5b50505050565b50505050565b611bd6828260405180602001604052806000815250611e8b565b5050565b611be382611577565b611c22576040517f08c379a0000000000000000000000000000000000000000000000000000000008152600401611c1990613515565b60405180910390fd5b80600860008481526020019081526020016000209080519060200190611c499291906125f5565b505050565b6000806000611c5d8585611ee6565b91509150611c6a81611f38565b819250505092915050565b6000611c968473ffffffffffffffffffffffffffffffffffffffff166120a6565b15611dff578373ffffffffffffffffffffffffffffffffffffffff1663150b7a02611cbf611059565b8786866040518563ffffffff1660e01b8152600401611ce19493929190613257565b602060405180830381600087803b158015611cfb57600080fd5b505af1925050508015611d2c57506040513d601f19601f82011682018060405250810190611d299190612b31565b60015b611daf573d8060008114611d5c576040519150601f19603f3d011682016040523d82523d6000602084013e611d61565b606091505b50600081511415611da7576040517f08c379a0000000000000000000000000000000000000000000000000000000008152600401611d9e906133b5565b60405180910390fd5b805181602001fd5b63150b7a0260e01b7bffffffffffffffffffffffffffffffffffffffffffffffffffffffff1916817bffffffffffffffffffffffffffffffffffffffffffffffffffffffff191614915050611e04565b600190505b949350505050565b606060405180602001604052806000815250905090565b6060611e2e8261100e565b6000611e38611e0c565b90506000815111611e585760405180602001604052806000815250611e83565b80611e62846120c9565b604051602001611e73929190613153565b6040516020818303038152906040525b915050919050565b611e9583836121a1565b611ea26000848484611c75565b611ee1576040517f08c379a0000000000000000000000000000000000000000000000000000000008152600401611ed8906133b5565b60405180910390fd5b505050565b600080604183511415611f285760008060006020860151925060408601519150606086015160001a9050611f1c878285856123bf565b94509450505050611f31565b60006002915091505b9250929050565b60006004811115611f4c57611f4b6139b1565b5b816004811115611f5f57611f5e6139b1565b5b1415611f6a576120a3565b60016004811115611f7e57611f7d6139b1565b5b816004811115611f9157611f906139b1565b5b1415611fd2576040517f08c379a0000000000000000000000000000000000000000000000000000000008152600401611fc990613355565b60405180910390fd5b60026004811115611fe657611fe56139b1565b5b816004811115611ff957611ff86139b1565b5b141561203a576040517f08c379a000000000000000000000000000000000000000000000000000000000815260040161203190613395565b60405180910390fd5b6003600481111561204e5761204d6139b1565b5b816004811115612061576120606139b1565b5b14156120a2576040517f08c379a0000000000000000000000000000000000000000000000000000000008152600401612099906134d5565b60405180910390fd5b5b50565b6000808273ffffffffffffffffffffffffffffffffffffffff163b119050919050565b6060600060016120d8846124a2565b01905060008167ffffffffffffffff8111156120f7576120f6613a0f565b5b6040519080825280601f01601f1916602001820160405280156121295781602001600182028036833780820191505090505b509050600082602001820190505b600115612196578080600190039150507f3031323334353637383961626364656600000000000000000000000000000000600a86061a8153600a85816121805761217f613982565b5b049450600085141561219157612196565b612137565b819350505050919050565b600073ffffffffffffffffffffffffffffffffffffffff168273ffffffffffffffffffffffffffffffffffffffff161415612211576040517f08c379a000000000000000000000000000000000000000000000000000000000815260040161220890613535565b60405180910390fd5b61221a81611577565b1561225a576040517f08c379a000000000000000000000000000000000000000000000000000000000815260040161225190613435565b60405180910390fd5b612268600083836001611a90565b61227181611577565b156122b1576040517f08c379a00000000000000000000000000000000000000000000000000000000081526004016122a890613435565b60405180910390fd5b6001600560008473ffffffffffffffffffffffffffffffffffffffff1673ffffffffffffffffffffffffffffffffffffffff16815260200190815260200160002060008282540192505081905550816004600083815260200190815260200160002060006101000a81548173ffffffffffffffffffffffffffffffffffffffff021916908373ffffffffffffffffffffffffffffffffffffffff160217905550808273ffffffffffffffffffffffffffffffffffffffff16600073ffffffffffffffffffffffffffffffffffffffff167fddf252ad1be2c89b69c2b068fc378daa952ba7f163c4a11628f55a4df523b3ef60405160405180910390a46123bb600083836001611bb6565b5050565b6000807f7fffffffffffffffffffffffffffffff5d576e7357a4501ddfe92f46681b20a08360001c11156123fa576000600391509150612499565b60006001878787876040516000815260200160405260405161241f94939291906132ee565b6020604051602081039080840390855afa158015612441573d6000803e3d6000fd5b505050602060405103519050600073ffffffffffffffffffffffffffffffffffffffff168173ffffffffffffffffffffffffffffffffffffffff16141561249057600060019250925050612499565b80600092509250505b94509492505050565b600080600090507a184f03e93ff9f4daa797ed6e38ed64bf6a1f0100000000000000008310612500577a184f03e93ff9f4daa797ed6e38ed64bf6a1f01000000000000000083816124f6576124f5613982565b5b0492506040810190505b6d04ee2d6d415b85acef8100000000831061253d576d04ee2d6d415b85acef8100000000838161253357612532613982565b5b0492506020810190505b662386f26fc10000831061256c57662386f26fc10000838161256257612561613982565b5b0492506010810190505b6305f5e1008310612595576305f5e100838161258b5761258a613982565b5b0492506008810190505b61271083106125ba5761271083816125b0576125af613982565b5b0492506004810190505b606483106125dd57606483816125d3576125d2613982565b5b0492506002810190505b600a83106125ec576001810190505b80915050919050565b828054612601906138e6565b90600052602060002090601f016020900481019282612623576000855561266a565b82601f1061263c57805160ff191683800117855561266a565b8280016001018555821561266a579182015b8281111561266957825182559160200191906001019061264e565b5b509050612677919061267b565b5090565b5b8082111561269457600081600090555060010161267c565b5090565b60006126ab6126a684613695565b613670565b9050828152602081018484840111156126c7576126c6613a43565b5b6126d28482856138a4565b509392505050565b60006126ed6126e8846136c6565b613670565b90508281526020810184848401111561270957612708613a43565b5b6127148482856138a4565b509392505050565b600061272f61272a846136c6565b613670565b90508281526020810184848401111561274b5761274a613a43565b5b6127568482856138b3565b509392505050565b60008135905061276d81614008565b92915050565b60008151905061278281614008565b92915050565b6000813590506127978161401f565b92915050565b6000813590506127ac81614036565b92915050565b6000813590506127c18161404d565b92915050565b6000815190506127d68161404d565b92915050565b600082601f8301126127f1576127f0613a3e565b5b8135612801848260208601612698565b91505092915050565b60008135905061281981614064565b92915050565b60008135905061282e81614074565b92915050565b600082601f83011261284957612848613a3e565b5b81356128598482602086016126da565b91505092915050565b600082601f83011261287757612876613a3e565b5b815161288784826020860161271c565b91505092915050565b60008135905061289f81614084565b92915050565b6000602082840312156128bb576128ba613a4d565b5b60006128c98482850161275e565b91505092915050565b6000602082840312156128e8576128e7613a4d565b5b60006128f684828501612773565b91505092915050565b6000806040838503121561291657612915613a4d565b5b60006129248582860161275e565b92505060206129358582860161275e565b9150509250929050565b60008060006060848603121561295857612957613a4d565b5b60006129668682870161275e565b93505060206129778682870161275e565b925050604061298886828701612890565b9150509250925092565b600080600080608085870312156129ac576129ab613a4d565b5b60006129ba8782880161275e565b94505060206129cb8782880161275e565b93505060406129dc87828801612890565b925050606085013567ffffffffffffffff8111156129fd576129fc613a48565b5b612a09878288016127dc565b91505092959194509250565b60008060408385031215612a2c57612a2b613a4d565b5b6000612a3a8582860161275e565b9250506020612a4b85828601612788565b9150509250929050565b600080600060608486031215612a6e57612a6d613a4d565b5b6000612a7c8682870161275e565b935050602084013567ffffffffffffffff811115612a9d57612a9c613a48565b5b612aa986828701612834565b9250506040612aba86828701612890565b9150509250925092565b60008060408385031215612adb57612ada613a4d565b5b6000612ae98582860161275e565b9250506020612afa85828601612890565b9150509250929050565b600060208284031215612b1a57612b19613a4d565b5b6000612b28848285016127b2565b91505092915050565b600060208284031215612b4757612b46613a4d565b5b6000612b55848285016127c7565b91505092915050565b60008060008060008060c08789031215612b7b57612b7a613a4d565b5b6000612b8989828a0161281f565b9650506020612b9a89828a0161280a565b9550506040612bab89828a01612890565b9450506060612bbc89828a0161275e565b9350506080612bcd89828a0161279d565b92505060a087013567ffffffffffffffff811115612bee57612bed613a48565b5b612bfa89828a016127dc565b9150509295509295509295565b600060208284031215612c1d57612c1c613a4d565b5b600082015167ffffffffffffffff811115612c3b57612c3a613a48565b5b612c4784828501612862565b91505092915050565b600060208284031215612c6657612c65613a4d565b5b6000612c7484828501612890565b91505092915050565b612c86816137cf565b82525050565b612c95816137e1565b82525050565b612ca4816137ed565b82525050565b612cbb612cb6826137ed565b613949565b82525050565b6000612ccc826136f7565b612cd6818561370d565b9350612ce68185602086016138b3565b612cef81613a52565b840191505092915050565b6000612d05826136f7565b612d0f818561371e565b9350612d1f8185602086016138b3565b80840191505092915050565b612d3481613880565b82525050565b612d4381613892565b82525050565b6000612d5482613702565b612d5e8185613729565b9350612d6e8185602086016138b3565b612d7781613a52565b840191505092915050565b6000612d8d82613702565b612d97818561373a565b9350612da78185602086016138b3565b80840191505092915050565b6000612dc0601883613729565b9150612dcb82613a63565b602082019050919050565b6000612de3602d83613729565b9150612dee82613a8c565b604082019050919050565b6000612e06601f83613729565b9150612e1182613adb565b602082019050919050565b6000612e29601c8361373a565b9150612e3482613b04565b601c82019050919050565b6000612e4c603283613729565b9150612e5782613b2d565b604082019050919050565b6000612e6f602683613729565b9150612e7a82613b7c565b604082019050919050565b6000612e92601f83613729565b9150612e9d82613bcb565b602082019050919050565b6000612eb5602583613729565b9150612ec082613bf4565b604082019050919050565b6000612ed8601c83613729565b9150612ee382613c43565b602082019050919050565b6000612efb601983613729565b9150612f0682613c6c565b602082019050919050565b6000612f1e602483613729565b9150612f2982613c95565b604082019050919050565b6000612f41601983613729565b9150612f4c82613ce4565b602082019050919050565b6000612f64600d83613729565b9150612f6f82613d0d565b602082019050919050565b6000612f87602283613729565b9150612f9282613d36565b604082019050919050565b6000612faa602983613729565b9150612fb582613d85565b604082019050919050565b6000612fcd602e83613729565b9150612fd882613dd4565b604082019050919050565b6000612ff0602083613729565b9150612ffb82613e23565b602082019050919050565b6000613013602083613729565b915061301e82613e4c565b602082019050919050565b6000613036601383613729565b915061304182613e75565b602082019050919050565b6000613059601883613729565b915061306482613e9e565b602082019050919050565b600061307c602183613729565b915061308782613ec7565b604082019050919050565b600061309f603d83613729565b91506130aa82613f16565b604082019050919050565b60006130c2601283613729565b91506130cd82613f65565b602082019050919050565b60006130e5601683613729565b91506130f082613f8e565b602082019050919050565b6000613108601f83613729565b915061311382613fb7565b602082019050919050565b61312781613869565b82525050565b61313681613873565b82525050565b60006131488284612cfa565b915081905092915050565b600061315f8285612d82565b915061316b8284612d82565b91508190509392505050565b600061318282612e1c565b915061318e8284612caa565b60208201915081905092915050565b60006020820190506131b26000830184612c7d565b92915050565b600060c0820190506131cd6000830189612c7d565b6131da6020830188612c7d565b81810360408301526131ec8187612d49565b90506131fb606083018661311e565b6132086080830185612d3a565b61321560a0830184612d2b565b979650505050505050565b60006060820190506132356000830186612c7d565b6132426020830185612c7d565b61324f604083018461311e565b949350505050565b600060808201905061326c6000830187612c7d565b6132796020830186612c7d565b613286604083018561311e565b81810360608301526132988184612cc1565b905095945050505050565b60006040820190506132b86000830185612c7d565b81810360208301526132ca8184612d49565b90509392505050565b60006020820190506132e86000830184612c8c565b92915050565b60006080820190506133036000830187612c9b565b613310602083018661312d565b61331d6040830185612c9b565b61332a6060830184612c9b565b95945050505050565b6000602082019050818103600083015261334d8184612d49565b905092915050565b6000602082019050818103600083015261336e81612db3565b9050919050565b6000602082019050818103600083015261338e81612dd6565b9050919050565b600060208201905081810360008301526133ae81612df9565b9050919050565b600060208201905081810360008301526133ce81612e3f565b9050919050565b600060208201905081810360008301526133ee81612e62565b9050919050565b6000602082019050818103600083015261340e81612e85565b9050919050565b6000602082019050818103600083015261342e81612ea8565b9050919050565b6000602082019050818103600083015261344e81612ecb565b9050919050565b6000602082019050818103600083015261346e81612eee565b9050919050565b6000602082019050818103600083015261348e81612f11565b9050919050565b600060208201905081810360008301526134ae81612f34565b9050919050565b600060208201905081810360008301526134ce81612f57565b9050919050565b600060208201905081810360008301526134ee81612f7a565b9050919050565b6000602082019050818103600083015261350e81612f9d565b9050919050565b6000602082019050818103600083015261352e81612fc0565b9050919050565b6000602082019050818103600083015261354e81612fe3565b9050919050565b6000602082019050818103600083015261356e81613006565b9050919050565b6000602082019050818103600083015261358e81613029565b9050919050565b600060208201905081810360008301526135ae8161304c565b9050919050565b600060208201905081810360008301526135ce8161306f565b9050919050565b600060208201905081810360008301526135ee81613092565b9050919050565b6000602082019050818103600083015261360e816130b5565b9050919050565b6000602082019050818103600083015261362e816130d8565b9050919050565b6000602082019050818103600083015261364e816130fb565b9050919050565b600060208201905061366a600083018461311e565b92915050565b600061367a61368b565b90506136868282613918565b919050565b6000604051905090565b600067ffffffffffffffff8211156136b0576136af613a0f565b5b6136b982613a52565b9050602081019050919050565b600067ffffffffffffffff8211156136e1576136e0613a0f565b5b6136ea82613a52565b9050602081019050919050565b600081519050919050565b600081519050919050565b600082825260208201905092915050565b600081905092915050565b600082825260208201905092915050565b600081905092915050565b600061375082613869565b915061375b83613869565b9250827fffffffffffffffffffffffffffffffffffffffffffffffffffffffffffffffff038211156137905761378f613953565b5b828201905092915050565b60006137a682613869565b91506137b183613869565b9250828210156137c4576137c3613953565b5b828203905092915050565b60006137da82613849565b9050919050565b60008115159050919050565b6000819050919050565b60007fffffffff0000000000000000000000000000000000000000000000000000000082169050919050565b600081905061383182613fe0565b919050565b600081905061384482613ff4565b919050565b600073ffffffffffffffffffffffffffffffffffffffff82169050919050565b6000819050919050565b600060ff82169050919050565b600061388b82613823565b9050919050565b600061389d82613836565b9050919050565b82818337600083830152505050565b60005b838110156138d15780820151818401526020810190506138b6565b838111156138e0576000848401525b50505050565b600060028204905060018216806138fe57607f821691505b60208210811415613912576139116139e0565b5b50919050565b61392182613a52565b810181811067ffffffffffffffff821117156139405761393f613a0f565b5b80604052505050565b6000819050919050565b7f4e487b7100000000000000000000000000000000000000000000000000000000600052601160045260246000fd5b7f4e487b7100000000000000000000000000000000000000000000000000000000600052601260045260246000fd5b7f4e487b7100000000000000000000000000000000000000000000000000000000600052602160045260246000fd5b7f4e487b7100000000000000000000000000000000000000000000000000000000600052602260045260246000fd5b7f4e487b7100000000000000000000000000000000000000000000000000000000600052604160045260246000fd5b600080fd5b600080fd5b600080fd5b600080fd5b6000601f19601f8301169050919050565b7f45434453413a20696e76616c6964207369676e61747572650000000000000000600082015250565b7f4552433732313a2063616c6c6572206973206e6f7420746f6b656e206f776e6560008201527f72206f7220617070726f76656400000000000000000000000000000000000000602082015250565b7f45434453413a20696e76616c6964207369676e6174757265206c656e67746800600082015250565b7f19457468657265756d205369676e6564204d6573736167653a0a333200000000600082015250565b7f4552433732313a207472616e7366657220746f206e6f6e20455243373231526560008201527f63656976657220696d706c656d656e7465720000000000000000000000000000602082015250565b7f4f776e61626c653a206e6577206f776e657220697320746865207a65726f206160008201527f6464726573730000000000000000000000000000000000000000000000000000602082015250565b7f4f6e6c7920746865206f776e65722063616e206c6f636b20746865204e465400600082015250565b7f4552433732313a207472616e736665722066726f6d20696e636f72726563742060008201527f6f776e6572000000000000000000000000000000000000000000000000000000602082015250565b7f4552433732313a20746f6b656e20616c7265616479206d696e74656400000000600082015250565b7f41646472657373206973206e6f7420617574686f72697a656400000000000000600082015250565b7f4552433732313a207472616e7366657220746f20746865207a65726f2061646460008201527f7265737300000000000000000000000000000000000000000000000000000000602082015250565b7f4552433732313a20617070726f766520746f2063616c6c657200000000000000600082015250565b7f496e76616c696420636861696e00000000000000000000000000000000000000600082015250565b7f45434453413a20696e76616c6964207369676e6174757265202773272076616c60008201527f7565000000000000000000000000000000000000000000000000000000000000602082015250565b7f4552433732313a2061646472657373207a65726f206973206e6f74206120766160008201527f6c6964206f776e65720000000000000000000000000000000000000000000000602082015250565b7f45524337323155524953746f726167653a2055524920736574206f66206e6f6e60008201527f6578697374656e7420746f6b656e000000000000000000000000000000000000602082015250565b7f4552433732313a206d696e7420746f20746865207a65726f2061646472657373600082015250565b7f4f776e61626c653a2063616c6c6572206973206e6f7420746865206f776e6572600082015250565b7f416464726573732063616e6e6f74206265203000000000000000000000000000600082015250565b7f4552433732313a20696e76616c696420746f6b656e2049440000000000000000600082015250565b7f4552433732313a20617070726f76616c20746f2063757272656e74206f776e6560008201527f7200000000000000000000000000000000000000000000000000000000000000602082015250565b7f4552433732313a20617070726f76652063616c6c6572206973206e6f7420746f60008201527f6b656e206f776e6572206f7220617070726f76656420666f7220616c6c000000602082015250565b7f4e667420616c7265616479206578697374730000000000000000000000000000600082015250565b7f416c7265616479207369676e6174757265207573656400000000000000000000600082015250565b7f5265656e7472616e637947756172643a207265656e7472616e742063616c6c00600082015250565b60038110613ff157613ff06139b1565b5b50565b60038110614005576140046139b1565b5b50565b614011816137cf565b811461401c57600080fd5b50565b614028816137e1565b811461403357600080fd5b50565b61403f816137ed565b811461404a57600080fd5b50565b614056816137f7565b811461406157600080fd5b50565b6003811061407157600080fd5b50565b6003811061408157600080fd5b50565b61408d81613869565b811461409857600080fd5b5056fea2646970667358221220d942d499301f174dbbbd4a3c76503a6d3787c38d331066ddf87fb234a2ed915664736f6c63430008070033",
  "linkReferences": {},
  "deployedLinkReferences": {}
}