{
  "_format": "hh-sol-artifact-1",
  "contractName": "NftBridgePolygon",
  "sourceName": "contracts/NftBridgePolygon.sol",
  "abi": [
    {
      "inputs": [],
      "stateMutability": "nonpayable",
      "type": "constructor"
    },
    {
      "anonymous": false,
      "inputs": [
        {
          "indexed": true,
          "internalType": "address",
          "name": "owner",
          "type": "address"
        },
        {
          "indexed": true,
          "internalType": "address",
          "name": "approved",
          "type": "address"
        },
        {
          "indexed": true,
          "internalType": "uint256",
          "name": "tokenId",
          "type": "uint256"
        }
      ],
      "name": "Approval",
      "type": "event"
    },
    {
      "anonymous": false,
      "inputs": [
        {
          "indexed": true,
          "internalType": "address",
          "name": "owner",
          "type": "address"
        },
        {
          "indexed": true,
          "internalType": "address",
          "name": "operator",
          "type": "address"
        },
        {
          "indexed": false,
          "internalType": "bool",
          "name": "approved",
          "type": "bool"
        }
      ],
      "name": "ApprovalForAll",
      "type": "event"
    },
    {
      "anonymous": false,
      "inputs": [
        {
          "indexed": false,
          "internalType": "address",
          "name": "_from",
          "type": "address"
        },
        {
          "indexed": false,
          "internalType": "address",
          "name": "_to",
          "type": "address"
        },
        {
          "indexed": false,
          "internalType": "string",
          "name": "_uri",
          "type": "string"
        },
        {
          "indexed": false,
          "internalType": "uint256",
          "name": "_tokenId",
          "type": "uint256"
        },
        {
          "indexed": false,
          "internalType": "enum NftBridgePolygon.SourceChain",
          "name": "_sourceChain",
          "type": "uint8"
        },
        {
          "indexed": false,
          "internalType": "enum NftBridgePolygon.DestinationChain",
          "name": "_destinationChain",
          "type": "uint8"
        }
      ],
      "name": "LockedNft",
      "type": "event"
    },
    {
      "anonymous": false,
      "inputs": [
        {
          "indexed": false,
          "internalType": "address",
          "name": "_to",
          "type": "address"
        },
        {
          "indexed": false,
          "internalType": "string",
          "name": "_uri",
          "type": "string"
        }
      ],
      "name": "NftTransferedToDestinationChain",
      "type": "event"
    },
    {
      "anonymous": false,
      "inputs": [
        {
          "indexed": true,
          "internalType": "address",
          "name": "previousOwner",
          "type": "address"
        },
        {
          "indexed": true,
          "internalType": "address",
          "name": "newOwner",
          "type": "address"
        }
      ],
      "name": "OwnershipTransferred",
      "type": "event"
    },
    {
      "anonymous": false,
      "inputs": [
        {
          "indexed": true,
          "internalType": "address",
          "name": "from",
          "type": "address"
        },
        {
          "indexed": true,
          "internalType": "address",
          "name": "to",
          "type": "address"
        },
        {
          "indexed": true,
          "internalType": "uint256",
          "name": "tokenId",
          "type": "uint256"
        }
      ],
      "name": "Transfer",
      "type": "event"
    },
    {
      "inputs": [
        {
          "internalType": "address",
          "name": "to",
          "type": "address"
        },
        {
          "internalType": "uint256",
          "name": "tokenId",
          "type": "uint256"
        }
      ],
      "name": "approve",
      "outputs": [],
      "stateMutability": "nonpayable",
      "type": "function"
    },
    {
      "inputs": [
        {
          "internalType": "address",
          "name": "owner",
          "type": "address"
        }
      ],
      "name": "balanceOf",
      "outputs": [
        {
          "internalType": "uint256",
          "name": "",
          "type": "uint256"
        }
      ],
      "stateMutability": "view",
      "type": "function"
    },
    {
      "inputs": [
        {
          "internalType": "uint256",
          "name": "tokenId",
          "type": "uint256"
        }
      ],
      "name": "getApproved",
      "outputs": [
        {
          "internalType": "address",
          "name": "",
          "type": "address"
        }
      ],
      "stateMutability": "view",
      "type": "function"
    },
    {
      "inputs": [
        {
          "internalType": "address",
          "name": "owner",
          "type": "address"
        },
        {
          "internalType": "address",
          "name": "operator",
          "type": "address"
        }
      ],
      "name": "isApprovedForAll",
      "outputs": [
        {
          "internalType": "bool",
          "name": "",
          "type": "bool"
        }
      ],
      "stateMutability": "view",
      "type": "function"
    },
    {
      "inputs": [
        {
          "internalType": "enum NftBridgePolygon.SourceChain",
          "name": "sourceChain",
          "type": "uint8"
        },
        {
          "internalType": "enum NftBridgePolygon.DestinationChain",
          "name": "destinationChain",
          "type": "uint8"
        },
        {
          "internalType": "uint256",
          "name": "tokenId",
          "type": "uint256"
        },
        {
          "internalType": "address",
          "name": "tokenAddress",
          "type": "address"
        },
        {
          "internalType": "bytes32",
          "name": "hash",
          "type": "bytes32"
        },
        {
          "internalType": "bytes",
          "name": "signature",
          "type": "bytes"
        }
      ],
      "name": "lockNft",
      "outputs": [],
      "stateMutability": "nonpayable",
      "type": "function"
    },
    {
      "inputs": [],
      "name": "name",
      "outputs": [
        {
          "internalType": "string",
          "name": "",
          "type": "string"
        }
      ],
      "stateMutability": "view",
      "type": "function"
    },
    {
      "inputs": [],
      "name": "owner",
      "outputs": [
        {
          "internalType": "address",
          "name": "",
          "type": "address"
        }
      ],
      "stateMutability": "view",
      "type": "function"
    },
    {
      "inputs": [
        {
          "internalType": "uint256",
          "name": "tokenId",
          "type": "uint256"
        }
      ],
      "name": "ownerOf",
      "outputs": [
        {
          "internalType": "address",
          "name": "",
          "type": "address"
        }
      ],
      "stateMutability": "view",
      "type": "function"
    },
    {
      "inputs": [],
      "name": "renounceOwnership",
      "outputs": [],
      "stateMutability": "nonpayable",
      "type": "function"
    },
    {
      "inputs": [
        {
          "internalType": "address",
          "name": "from",
          "type": "address"
        },
        {
          "internalType": "address",
          "name": "to",
          "type": "address"
        },
        {
          "internalType": "uint256",
          "name": "tokenId",
          "type": "uint256"
        }
      ],
      "name": "safeTransferFrom",
      "outputs": [],
      "stateMutability": "nonpayable",
      "type": "function"
    },
    {
      "inputs": [
        {
          "internalType": "address",
          "name": "from",
          "type": "address"
        },
        {
          "internalType": "address",
          "name": "to",
          "type": "address"
        },
        {
          "internalType": "uint256",
          "name": "tokenId",
          "type": "uint256"
        },
        {
          "internalType": "bytes",
          "name": "data",
          "type": "bytes"
        }
      ],
      "name": "safeTransferFrom",
      "outputs": [],
      "stateMutability": "nonpayable",
      "type": "function"
    },
    {
      "inputs": [
        {
          "internalType": "address",
          "name": "operator",
          "type": "address"
        },
        {
          "internalType": "bool",
          "name": "approved",
          "type": "bool"
        }
      ],
      "name": "setApprovalForAll",
      "outputs": [],
      "stateMutability": "nonpayable",
      "type": "function"
    },
    {
      "inputs": [
        {
          "internalType": "bytes4",
          "name": "interfaceId",
          "type": "bytes4"
        }
      ],
      "name": "supportsInterface",
      "outputs": [
        {
          "internalType": "bool",
          "name": "",
          "type": "bool"
        }
      ],
      "stateMutability": "view",
      "type": "function"
    },
    {
      "inputs": [],
      "name": "symbol",
      "outputs": [
        {
          "internalType": "string",
          "name": "",
          "type": "string"
        }
      ],
      "stateMutability": "view",
      "type": "function"
    },
    {
      "inputs": [
        {
          "internalType": "uint256",
          "name": "tokenId",
          "type": "uint256"
        }
      ],
      "name": "tokenURI",
      "outputs": [
        {
          "internalType": "string",
          "name": "",
          "type": "string"
        }
      ],
      "stateMutability": "view",
      "type": "function"
    },
    {
      "inputs": [
        {
          "internalType": "address",
          "name": "from",
          "type": "address"
        },
        {
          "internalType": "address",
          "name": "to",
          "type": "address"
        },
        {
          "internalType": "uint256",
          "name": "tokenId",
          "type": "uint256"
        }
      ],
      "name": "transferFrom",
      "outputs": [],
      "stateMutability": "nonpayable",
      "type": "function"
    },
    {
      "inputs": [
        {
          "internalType": "address",
          "name": "recipient",
          "type": "address"
        },
        {
          "internalType": "string",
          "name": "uri",
          "type": "string"
        }
      ],
      "name": "transferNft",
      "outputs": [],
      "stateMutability": "nonpayable",
      "type": "function"
    },
    {
      "inputs": [
        {
          "internalType": "address",
          "name": "newOwner",
          "type": "address"
        }
      ],
      "name": "transferOwnership",
      "outputs": [],
      "stateMutability": "nonpayable",
      "type": "function"
    }
  ],
  "bytecode": "0x60806040523480156200001157600080fd5b506040518060400160405280601081526020017f4e6674427269646765506f6c79676f6e000000000000000000000000000000008152506040518060400160405280600981526020017f4e42504f4c59474f4e00000000000000000000000000000000000000000000008152506200009e62000092620000df60201b60201c565b620000e760201b60201c565b600180819055508160029080519060200190620000bd929190620001ab565b508060039080519060200190620000d6929190620001ab565b505050620002c0565b600033905090565b60008060009054906101000a900473ffffffffffffffffffffffffffffffffffffffff169050816000806101000a81548173ffffffffffffffffffffffffffffffffffffffff021916908373ffffffffffffffffffffffffffffffffffffffff1602179055508173ffffffffffffffffffffffffffffffffffffffff168173ffffffffffffffffffffffffffffffffffffffff167f8be0079c531659141344cd1fd0a4f28419497f9722a3daafe3b4186f6b6457e060405160405180910390a35050565b828054620001b9906200025b565b90600052602060002090601f016020900481019282620001dd576000855562000229565b82601f10620001f857805160ff191683800117855562000229565b8280016001018555821562000229579182015b82811115620002285782518255916020019190600101906200020b565b5b5090506200023891906200023c565b5090565b5b80821115620002575760008160009055506001016200023d565b5090565b600060028204905060018216806200027457607f821691505b602082108114156200028b576200028a62000291565b5b50919050565b7f4e487b7100000000000000000000000000000000000000000000000000000000600052602260045260246000fd5b613fb080620002d06000396000f3fe608060405234801561001057600080fd5b50600436106101165760003560e01c8063715018a6116100a2578063ae12e73411610071578063ae12e734146102cb578063b88d4fde146102e7578063c87b56dd14610303578063e985e9c514610333578063f2fde38b1461036357610116565b8063715018a6146102695780638da5cb5b1461027357806395d89b4114610291578063a22cb465146102af57610116565b80630fe74b25116100e95780630fe74b25146101b557806323b872dd146101d157806342842e0e146101ed5780636352211e1461020957806370a082311461023957610116565b806301ffc9a71461011b57806306fdde031461014b578063081812fc14610169578063095ea7b314610199575b600080fd5b61013560048036038101906101309190612a4f565b61037f565b60405161014291906131fb565b60405180910390f35b610153610461565b604051610160919061325b565b60405180910390f35b610183600480360381019061017e9190612b9b565b6104f3565b60405161019091906130c5565b60405180910390f35b6101b360048036038101906101ae9190612a0f565b610539565b005b6101cf60048036038101906101ca91906129b3565b610651565b005b6101eb60048036038101906101e6919061289d565b610720565b005b6102076004803603810190610202919061289d565b610780565b005b610223600480360381019061021e9190612b9b565b6107a0565b60405161023091906130c5565b60405180910390f35b610253600480360381019061024e9190612803565b610827565b604051610260919061355d565b60405180910390f35b6102716108df565b005b61027b6108f3565b60405161028891906130c5565b60405180910390f35b61029961091c565b6040516102a6919061325b565b60405180910390f35b6102c960048036038101906102c49190612973565b6109ae565b005b6102e560048036038101906102e09190612aa9565b6109c4565b005b61030160048036038101906102fc91906128f0565b610dcc565b005b61031d60048036038101906103189190612b9b565b610e2e565b60405161032a919061325b565b60405180910390f35b61034d6004803603810190610348919061285d565b610e40565b60405161035a91906131fb565b60405180910390f35b61037d60048036038101906103789190612803565b610ed4565b005b60007f80ac58cd000000000000000000000000000000000000000000000000000000007bffffffffffffffffffffffffffffffffffffffffffffffffffffffff1916827bffffffffffffffffffffffffffffffffffffffffffffffffffffffff1916148061044a57507f5b5e139f000000000000000000000000000000000000000000000000000000007bffffffffffffffffffffffffffffffffffffffffffffffffffffffff1916827bffffffffffffffffffffffffffffffffffffffffffffffffffffffff1916145b8061045a575061045982610f58565b5b9050919050565b606060028054610470906137ee565b80601f016020809104026020016040519081016040528092919081815260200182805461049c906137ee565b80156104e95780601f106104be576101008083540402835291602001916104e9565b820191906000526020600020905b8154815290600101906020018083116104cc57829003601f168201915b5050505050905090565b60006104fe82610fc2565b6006600083815260200190815260200160002060009054906101000a900473ffffffffffffffffffffffffffffffffffffffff169050919050565b6000610544826107a0565b90508073ffffffffffffffffffffffffffffffffffffffff168373ffffffffffffffffffffffffffffffffffffffff1614156105b5576040517f08c379a00000000000000000000000000000000000000000000000000000000081526004016105ac906134dd565b60405180910390fd5b8073ffffffffffffffffffffffffffffffffffffffff166105d461100d565b73ffffffffffffffffffffffffffffffffffffffff1614806106035750610602816105fd61100d565b610e40565b5b610642576040517f08c379a0000000000000000000000000000000000000000000000000000000008152600401610639906134fd565b60405180910390fd5b61064c8383611015565b505050565b6106596110ce565b61066161114c565b600073ffffffffffffffffffffffffffffffffffffffff168273ffffffffffffffffffffffffffffffffffffffff1614156106d1576040517f08c379a00000000000000000000000000000000000000000000000000000000081526004016106c89061349d565b60405180910390fd5b7ff5e2cdb3c1806169fcc9a8e62feb5b0ed61f7825a7b228a0b2b9cdc124a3a1da82826040516107029291906131cb565b60405180910390a1610714828261119c565b61071c6111d5565b5050565b61073161072b61100d565b826111de565b610770576040517f08c379a00000000000000000000000000000000000000000000000000000000081526004016107679061329d565b60405180910390fd5b61077b838383611273565b505050565b61079b83838360405180602001604052806000815250610dcc565b505050565b6000806107ac8361156d565b9050600073ffffffffffffffffffffffffffffffffffffffff168173ffffffffffffffffffffffffffffffffffffffff16141561081e576040517f08c379a0000000000000000000000000000000000000000000000000000000008152600401610815906134bd565b60405180910390fd5b80915050919050565b60008073ffffffffffffffffffffffffffffffffffffffff168273ffffffffffffffffffffffffffffffffffffffff161415610898576040517f08c379a000000000000000000000000000000000000000000000000000000000815260040161088f9061341d565b60405180910390fd5b600560008373ffffffffffffffffffffffffffffffffffffffff1673ffffffffffffffffffffffffffffffffffffffff168152602001908152602001600020549050919050565b6108e76110ce565b6108f160006115aa565b565b60008060009054906101000a900473ffffffffffffffffffffffffffffffffffffffff16905090565b60606003805461092b906137ee565b80601f0160208091040260200160405190810160405280929190818152602001828054610957906137ee565b80156109a45780601f10610979576101008083540402835291602001916109a4565b820191906000526020600020905b81548152906001019060200180831161098757829003601f168201915b5050505050905090565b6109c06109b961100d565b838361166e565b5050565b6109cc61114c565b6002808111156109df576109de6138b9565b5b8660028111156109f2576109f16138b9565b5b148015610a235750600280811115610a0d57610a0c6138b9565b5b856002811115610a2057610a1f6138b9565b5b14155b610a62576040517f08c379a0000000000000000000000000000000000000000000000000000000008152600401610a59906133dd565b60405180910390fd5b610a6a6108f3565b73ffffffffffffffffffffffffffffffffffffffff16610a8a83836117db565b73ffffffffffffffffffffffffffffffffffffffff1614610ae0576040517f08c379a0000000000000000000000000000000000000000000000000000000008152600401610ad79061337d565b60405180910390fd5b600a81604051610af09190613064565b908152602001604051809103902060009054906101000a900460ff1615610b4c576040517f08c379a0000000000000000000000000000000000000000000000000000000008152600401610b439061351d565b60405180910390fd5b60008390503373ffffffffffffffffffffffffffffffffffffffff168173ffffffffffffffffffffffffffffffffffffffff16636352211e876040518263ffffffff1660e01b8152600401610ba1919061355d565b60206040518083038186803b158015610bb957600080fd5b505afa158015610bcd573d6000803e3d6000fd5b505050506040513d601f19601f82011682018060405250810190610bf19190612830565b73ffffffffffffffffffffffffffffffffffffffff1614610c47576040517f08c379a0000000000000000000000000000000000000000000000000000000008152600401610c3e9061331d565b60405180910390fd5b8373ffffffffffffffffffffffffffffffffffffffff166323b872dd3330886040518463ffffffff1660e01b8152600401610c8493929190613148565b600060405180830381600087803b158015610c9e57600080fd5b505af1158015610cb2573d6000803e3d6000fd5b505050507f1c919df7d32ab8953d2fd9b889c90de6092c971074e12c855410814e95fea51233308373ffffffffffffffffffffffffffffffffffffffff1663c87b56dd896040518263ffffffff1660e01b8152600401610d12919061355d565b60006040518083038186803b158015610d2a57600080fd5b505afa158015610d3e573d6000803e3d6000fd5b505050506040513d6000823e3d601f19601f82011682018060405250810190610d679190612b52565b888b8b604051610d7c969594939291906130e0565b60405180910390a16001600a83604051610d969190613064565b908152602001604051809103902060006101000a81548160ff02191690831515021790555050610dc46111d5565b505050505050565b610ddd610dd761100d565b836111de565b610e1c576040517f08c379a0000000000000000000000000000000000000000000000000000000008152600401610e139061329d565b60405180910390fd5b610e288484848461181a565b50505050565b6060610e3982611876565b9050919050565b6000600760008473ffffffffffffffffffffffffffffffffffffffff1673ffffffffffffffffffffffffffffffffffffffff16815260200190815260200160002060008373ffffffffffffffffffffffffffffffffffffffff1673ffffffffffffffffffffffffffffffffffffffff16815260200190815260200160002060009054906101000a900460ff16905092915050565b610edc6110ce565b600073ffffffffffffffffffffffffffffffffffffffff168173ffffffffffffffffffffffffffffffffffffffff161415610f4c576040517f08c379a0000000000000000000000000000000000000000000000000000000008152600401610f43906132fd565b60405180910390fd5b610f55816115aa565b50565b60007f01ffc9a7000000000000000000000000000000000000000000000000000000007bffffffffffffffffffffffffffffffffffffffffffffffffffffffff1916827bffffffffffffffffffffffffffffffffffffffffffffffffffffffff1916149050919050565b610fcb81611989565b61100a576040517f08c379a0000000000000000000000000000000000000000000000000000000008152600401611001906134bd565b60405180910390fd5b50565b600033905090565b816006600083815260200190815260200160002060006101000a81548173ffffffffffffffffffffffffffffffffffffffff021916908373ffffffffffffffffffffffffffffffffffffffff160217905550808273ffffffffffffffffffffffffffffffffffffffff16611088836107a0565b73ffffffffffffffffffffffffffffffffffffffff167f8c5be1e5ebec7d5bd14f71427d1e84f3dd0314c0f7b2291e5b200ac8c7c3b92560405160405180910390a45050565b6110d661100d565b73ffffffffffffffffffffffffffffffffffffffff166110f46108f3565b73ffffffffffffffffffffffffffffffffffffffff161461114a576040517f08c379a00000000000000000000000000000000000000000000000000000000081526004016111419061347d565b60405180910390fd5b565b60026001541415611192576040517f08c379a00000000000000000000000000000000000000000000000000000000081526004016111899061353d565b60405180910390fd5b6002600181905550565b6111a46110ce565b60006111b060096119ca565b90506111bc60096119d8565b6111c683826119ee565b6111d08183611a0c565b505050565b60018081905550565b6000806111ea836107a0565b90508073ffffffffffffffffffffffffffffffffffffffff168473ffffffffffffffffffffffffffffffffffffffff16148061122c575061122b8185610e40565b5b8061126a57508373ffffffffffffffffffffffffffffffffffffffff16611252846104f3565b73ffffffffffffffffffffffffffffffffffffffff16145b91505092915050565b8273ffffffffffffffffffffffffffffffffffffffff16611293826107a0565b73ffffffffffffffffffffffffffffffffffffffff16146112e9576040517f08c379a00000000000000000000000000000000000000000000000000000000081526004016112e09061333d565b60405180910390fd5b600073ffffffffffffffffffffffffffffffffffffffff168273ffffffffffffffffffffffffffffffffffffffff161415611359576040517f08c379a00000000000000000000000000000000000000000000000000000000081526004016113509061339d565b60405180910390fd5b6113668383836001611a80565b8273ffffffffffffffffffffffffffffffffffffffff16611386826107a0565b73ffffffffffffffffffffffffffffffffffffffff16146113dc576040517f08c379a00000000000000000000000000000000000000000000000000000000081526004016113d39061333d565b60405180910390fd5b6006600082815260200190815260200160002060006101000a81549073ffffffffffffffffffffffffffffffffffffffff02191690556001600560008573ffffffffffffffffffffffffffffffffffffffff1673ffffffffffffffffffffffffffffffffffffffff168152602001908152602001600020600082825403925050819055506001600560008473ffffffffffffffffffffffffffffffffffffffff1673ffffffffffffffffffffffffffffffffffffffff16815260200190815260200160002060008282540192505081905550816004600083815260200190815260200160002060006101000a81548173ffffffffffffffffffffffffffffffffffffffff021916908373ffffffffffffffffffffffffffffffffffffffff160217905550808273ffffffffffffffffffffffffffffffffffffffff168473ffffffffffffffffffffffffffffffffffffffff167fddf252ad1be2c89b69c2b068fc378daa952ba7f163c4a11628f55a4df523b3ef60405160405180910390a46115688383836001611ba6565b505050565b60006004600083815260200190815260200160002060009054906101000a900473ffffffffffffffffffffffffffffffffffffffff169050919050565b60008060009054906101000a900473ffffffffffffffffffffffffffffffffffffffff169050816000806101000a81548173ffffffffffffffffffffffffffffffffffffffff021916908373ffffffffffffffffffffffffffffffffffffffff1602179055508173ffffffffffffffffffffffffffffffffffffffff168173ffffffffffffffffffffffffffffffffffffffff167f8be0079c531659141344cd1fd0a4f28419497f9722a3daafe3b4186f6b6457e060405160405180910390a35050565b8173ffffffffffffffffffffffffffffffffffffffff168373ffffffffffffffffffffffffffffffffffffffff1614156116dd576040517f08c379a00000000000000000000000000000000000000000000000000000000081526004016116d4906133bd565b60405180910390fd5b80600760008573ffffffffffffffffffffffffffffffffffffffff1673ffffffffffffffffffffffffffffffffffffffff16815260200190815260200160002060008473ffffffffffffffffffffffffffffffffffffffff1673ffffffffffffffffffffffffffffffffffffffff16815260200190815260200160002060006101000a81548160ff0219169083151502179055508173ffffffffffffffffffffffffffffffffffffffff168373ffffffffffffffffffffffffffffffffffffffff167f17307eab39ab6107e8899845ad3d59bd9653f200f220920489ca2b5937696c31836040516117ce91906131fb565b60405180910390a3505050565b600080836040516020016117ef919061309f565b6040516020818303038152906040528051906020012090506118118184611bac565b91505092915050565b611825848484611273565b61183184848484611bd3565b611870576040517f08c379a0000000000000000000000000000000000000000000000000000000008152600401611867906132dd565b60405180910390fd5b50505050565b606061188182610fc2565b60006008600084815260200190815260200160002080546118a1906137ee565b80601f01602080910402602001604051908101604052809291908181526020018280546118cd906137ee565b801561191a5780601f106118ef5761010080835404028352916020019161191a565b820191906000526020600020905b8154815290600101906020018083116118fd57829003601f168201915b50505050509050600061192b611d6a565b9050600081511415611941578192505050611984565b60008251111561197657808260405160200161195e92919061307b565b60405160208183030381529060405292505050611984565b61197f84611d81565b925050505b919050565b60008073ffffffffffffffffffffffffffffffffffffffff166119ab8361156d565b73ffffffffffffffffffffffffffffffffffffffff1614159050919050565b600081600001549050919050565b6001816000016000828254019250508190555050565b611a08828260405180602001604052806000815250611de9565b5050565b611a1582611989565b611a54576040517f08c379a0000000000000000000000000000000000000000000000000000000008152600401611a4b9061343d565b60405180910390fd5b80600860008481526020019081526020016000209080519060200190611a7b929190612553565b505050565b6001811115611ba057600073ffffffffffffffffffffffffffffffffffffffff168473ffffffffffffffffffffffffffffffffffffffff1614611b145780600560008673ffffffffffffffffffffffffffffffffffffffff1673ffffffffffffffffffffffffffffffffffffffff1681526020019081526020016000206000828254611b0c91906136a3565b925050819055505b600073ffffffffffffffffffffffffffffffffffffffff168373ffffffffffffffffffffffffffffffffffffffff1614611b9f5780600560008573ffffffffffffffffffffffffffffffffffffffff1673ffffffffffffffffffffffffffffffffffffffff1681526020019081526020016000206000828254611b97919061364d565b925050819055505b5b50505050565b50505050565b6000806000611bbb8585611e44565b91509150611bc881611e96565b819250505092915050565b6000611bf48473ffffffffffffffffffffffffffffffffffffffff16612004565b15611d5d578373ffffffffffffffffffffffffffffffffffffffff1663150b7a02611c1d61100d565b8786866040518563ffffffff1660e01b8152600401611c3f949392919061317f565b602060405180830381600087803b158015611c5957600080fd5b505af1925050508015611c8a57506040513d601f19601f82011682018060405250810190611c879190612a7c565b60015b611d0d573d8060008114611cba576040519150601f19603f3d011682016040523d82523d6000602084013e611cbf565b606091505b50600081511415611d05576040517f08c379a0000000000000000000000000000000000000000000000000000000008152600401611cfc906132dd565b60405180910390fd5b805181602001fd5b63150b7a0260e01b7bffffffffffffffffffffffffffffffffffffffffffffffffffffffff1916817bffffffffffffffffffffffffffffffffffffffffffffffffffffffff191614915050611d62565b600190505b949350505050565b606060405180602001604052806000815250905090565b6060611d8c82610fc2565b6000611d96611d6a565b90506000815111611db65760405180602001604052806000815250611de1565b80611dc084612027565b604051602001611dd192919061307b565b6040516020818303038152906040525b915050919050565b611df383836120ff565b611e006000848484611bd3565b611e3f576040517f08c379a0000000000000000000000000000000000000000000000000000000008152600401611e36906132dd565b60405180910390fd5b505050565b600080604183511415611e865760008060006020860151925060408601519150606086015160001a9050611e7a8782858561231d565b94509450505050611e8f565b60006002915091505b9250929050565b60006004811115611eaa57611ea96138b9565b5b816004811115611ebd57611ebc6138b9565b5b1415611ec857612001565b60016004811115611edc57611edb6138b9565b5b816004811115611eef57611eee6138b9565b5b1415611f30576040517f08c379a0000000000000000000000000000000000000000000000000000000008152600401611f279061327d565b60405180910390fd5b60026004811115611f4457611f436138b9565b5b816004811115611f5757611f566138b9565b5b1415611f98576040517f08c379a0000000000000000000000000000000000000000000000000000000008152600401611f8f906132bd565b60405180910390fd5b60036004811115611fac57611fab6138b9565b5b816004811115611fbf57611fbe6138b9565b5b1415612000576040517f08c379a0000000000000000000000000000000000000000000000000000000008152600401611ff7906133fd565b60405180910390fd5b5b50565b6000808273ffffffffffffffffffffffffffffffffffffffff163b119050919050565b60606000600161203684612400565b01905060008167ffffffffffffffff81111561205557612054613917565b5b6040519080825280601f01601f1916602001820160405280156120875781602001600182028036833780820191505090505b509050600082602001820190505b6001156120f4578080600190039150507f3031323334353637383961626364656600000000000000000000000000000000600a86061a8153600a85816120de576120dd61388a565b5b04945060008514156120ef576120f4565b612095565b819350505050919050565b600073ffffffffffffffffffffffffffffffffffffffff168273ffffffffffffffffffffffffffffffffffffffff16141561216f576040517f08c379a00000000000000000000000000000000000000000000000000000000081526004016121669061345d565b60405180910390fd5b61217881611989565b156121b8576040517f08c379a00000000000000000000000000000000000000000000000000000000081526004016121af9061335d565b60405180910390fd5b6121c6600083836001611a80565b6121cf81611989565b1561220f576040517f08c379a00000000000000000000000000000000000000000000000000000000081526004016122069061335d565b60405180910390fd5b6001600560008473ffffffffffffffffffffffffffffffffffffffff1673ffffffffffffffffffffffffffffffffffffffff16815260200190815260200160002060008282540192505081905550816004600083815260200190815260200160002060006101000a81548173ffffffffffffffffffffffffffffffffffffffff021916908373ffffffffffffffffffffffffffffffffffffffff160217905550808273ffffffffffffffffffffffffffffffffffffffff16600073ffffffffffffffffffffffffffffffffffffffff167fddf252ad1be2c89b69c2b068fc378daa952ba7f163c4a11628f55a4df523b3ef60405160405180910390a4612319600083836001611ba6565b5050565b6000807f7fffffffffffffffffffffffffffffff5d576e7357a4501ddfe92f46681b20a08360001c11156123585760006003915091506123f7565b60006001878787876040516000815260200160405260405161237d9493929190613216565b6020604051602081039080840390855afa15801561239f573d6000803e3d6000fd5b505050602060405103519050600073ffffffffffffffffffffffffffffffffffffffff168173ffffffffffffffffffffffffffffffffffffffff1614156123ee576000600192509250506123f7565b80600092509250505b94509492505050565b600080600090507a184f03e93ff9f4daa797ed6e38ed64bf6a1f010000000000000000831061245e577a184f03e93ff9f4daa797ed6e38ed64bf6a1f01000000000000000083816124545761245361388a565b5b0492506040810190505b6d04ee2d6d415b85acef8100000000831061249b576d04ee2d6d415b85acef810000000083816124915761249061388a565b5b0492506020810190505b662386f26fc1000083106124ca57662386f26fc1000083816124c0576124bf61388a565b5b0492506010810190505b6305f5e10083106124f3576305f5e10083816124e9576124e861388a565b5b0492506008810190505b612710831061251857612710838161250e5761250d61388a565b5b0492506004810190505b6064831061253b57606483816125315761253061388a565b5b0492506002810190505b600a831061254a576001810190505b80915050919050565b82805461255f906137ee565b90600052602060002090601f01602090048101928261258157600085556125c8565b82601f1061259a57805160ff19168380011785556125c8565b828001600101855582156125c8579182015b828111156125c75782518255916020019190600101906125ac565b5b5090506125d591906125d9565b5090565b5b808211156125f25760008160009055506001016125da565b5090565b60006126096126048461359d565b613578565b9050828152602081018484840111156126255761262461394b565b5b6126308482856137ac565b509392505050565b600061264b612646846135ce565b613578565b9050828152602081018484840111156126675761266661394b565b5b6126728482856137ac565b509392505050565b600061268d612688846135ce565b613578565b9050828152602081018484840111156126a9576126a861394b565b5b6126b48482856137bb565b509392505050565b6000813590506126cb81613ee7565b92915050565b6000815190506126e081613ee7565b92915050565b6000813590506126f581613efe565b92915050565b60008135905061270a81613f15565b92915050565b60008135905061271f81613f2c565b92915050565b60008151905061273481613f2c565b92915050565b600082601f83011261274f5761274e613946565b5b813561275f8482602086016125f6565b91505092915050565b60008135905061277781613f43565b92915050565b60008135905061278c81613f53565b92915050565b600082601f8301126127a7576127a6613946565b5b81356127b7848260208601612638565b91505092915050565b600082601f8301126127d5576127d4613946565b5b81516127e584826020860161267a565b91505092915050565b6000813590506127fd81613f63565b92915050565b60006020828403121561281957612818613955565b5b6000612827848285016126bc565b91505092915050565b60006020828403121561284657612845613955565b5b6000612854848285016126d1565b91505092915050565b6000806040838503121561287457612873613955565b5b6000612882858286016126bc565b9250506020612893858286016126bc565b9150509250929050565b6000806000606084860312156128b6576128b5613955565b5b60006128c4868287016126bc565b93505060206128d5868287016126bc565b92505060406128e6868287016127ee565b9150509250925092565b6000806000806080858703121561290a57612909613955565b5b6000612918878288016126bc565b9450506020612929878288016126bc565b935050604061293a878288016127ee565b925050606085013567ffffffffffffffff81111561295b5761295a613950565b5b6129678782880161273a565b91505092959194509250565b6000806040838503121561298a57612989613955565b5b6000612998858286016126bc565b92505060206129a9858286016126e6565b9150509250929050565b600080604083850312156129ca576129c9613955565b5b60006129d8858286016126bc565b925050602083013567ffffffffffffffff8111156129f9576129f8613950565b5b612a0585828601612792565b9150509250929050565b60008060408385031215612a2657612a25613955565b5b6000612a34858286016126bc565b9250506020612a45858286016127ee565b9150509250929050565b600060208284031215612a6557612a64613955565b5b6000612a7384828501612710565b91505092915050565b600060208284031215612a9257612a91613955565b5b6000612aa084828501612725565b91505092915050565b60008060008060008060c08789031215612ac657612ac5613955565b5b6000612ad489828a0161277d565b9650506020612ae589828a01612768565b9550506040612af689828a016127ee565b9450506060612b0789828a016126bc565b9350506080612b1889828a016126fb565b92505060a087013567ffffffffffffffff811115612b3957612b38613950565b5b612b4589828a0161273a565b9150509295509295509295565b600060208284031215612b6857612b67613955565b5b600082015167ffffffffffffffff811115612b8657612b85613950565b5b612b92848285016127c0565b91505092915050565b600060208284031215612bb157612bb0613955565b5b6000612bbf848285016127ee565b91505092915050565b612bd1816136d7565b82525050565b612be0816136e9565b82525050565b612bef816136f5565b82525050565b612c06612c01826136f5565b613851565b82525050565b6000612c17826135ff565b612c218185613615565b9350612c318185602086016137bb565b612c3a8161395a565b840191505092915050565b6000612c50826135ff565b612c5a8185613626565b9350612c6a8185602086016137bb565b80840191505092915050565b612c7f81613788565b82525050565b612c8e8161379a565b82525050565b6000612c9f8261360a565b612ca98185613631565b9350612cb98185602086016137bb565b612cc28161395a565b840191505092915050565b6000612cd88261360a565b612ce28185613642565b9350612cf28185602086016137bb565b80840191505092915050565b6000612d0b601883613631565b9150612d168261396b565b602082019050919050565b6000612d2e602d83613631565b9150612d3982613994565b604082019050919050565b6000612d51601f83613631565b9150612d5c826139e3565b602082019050919050565b6000612d74601c83613642565b9150612d7f82613a0c565b601c82019050919050565b6000612d97603283613631565b9150612da282613a35565b604082019050919050565b6000612dba602683613631565b9150612dc582613a84565b604082019050919050565b6000612ddd601f83613631565b9150612de882613ad3565b602082019050919050565b6000612e00602583613631565b9150612e0b82613afc565b604082019050919050565b6000612e23601c83613631565b9150612e2e82613b4b565b602082019050919050565b6000612e46601983613631565b9150612e5182613b74565b602082019050919050565b6000612e69602483613631565b9150612e7482613b9d565b604082019050919050565b6000612e8c601983613631565b9150612e9782613bec565b602082019050919050565b6000612eaf600d83613631565b9150612eba82613c15565b602082019050919050565b6000612ed2602283613631565b9150612edd82613c3e565b604082019050919050565b6000612ef5602983613631565b9150612f0082613c8d565b604082019050919050565b6000612f18602e83613631565b9150612f2382613cdc565b604082019050919050565b6000612f3b602083613631565b9150612f4682613d2b565b602082019050919050565b6000612f5e602083613631565b9150612f6982613d54565b602082019050919050565b6000612f81601383613631565b9150612f8c82613d7d565b602082019050919050565b6000612fa4601883613631565b9150612faf82613da6565b602082019050919050565b6000612fc7602183613631565b9150612fd282613dcf565b604082019050919050565b6000612fea603d83613631565b9150612ff582613e1e565b604082019050919050565b600061300d601683613631565b915061301882613e6d565b602082019050919050565b6000613030601f83613631565b915061303b82613e96565b602082019050919050565b61304f81613771565b82525050565b61305e8161377b565b82525050565b60006130708284612c45565b915081905092915050565b60006130878285612ccd565b91506130938284612ccd565b91508190509392505050565b60006130aa82612d67565b91506130b68284612bf5565b60208201915081905092915050565b60006020820190506130da6000830184612bc8565b92915050565b600060c0820190506130f56000830189612bc8565b6131026020830188612bc8565b81810360408301526131148187612c94565b90506131236060830186613046565b6131306080830185612c85565b61313d60a0830184612c76565b979650505050505050565b600060608201905061315d6000830186612bc8565b61316a6020830185612bc8565b6131776040830184613046565b949350505050565b60006080820190506131946000830187612bc8565b6131a16020830186612bc8565b6131ae6040830185613046565b81810360608301526131c08184612c0c565b905095945050505050565b60006040820190506131e06000830185612bc8565b81810360208301526131f28184612c94565b90509392505050565b60006020820190506132106000830184612bd7565b92915050565b600060808201905061322b6000830187612be6565b6132386020830186613055565b6132456040830185612be6565b6132526060830184612be6565b95945050505050565b600060208201905081810360008301526132758184612c94565b905092915050565b6000602082019050818103600083015261329681612cfe565b9050919050565b600060208201905081810360008301526132b681612d21565b9050919050565b600060208201905081810360008301526132d681612d44565b9050919050565b600060208201905081810360008301526132f681612d8a565b9050919050565b6000602082019050818103600083015261331681612dad565b9050919050565b6000602082019050818103600083015261333681612dd0565b9050919050565b6000602082019050818103600083015261335681612df3565b9050919050565b6000602082019050818103600083015261337681612e16565b9050919050565b6000602082019050818103600083015261339681612e39565b9050919050565b600060208201905081810360008301526133b681612e5c565b9050919050565b600060208201905081810360008301526133d681612e7f565b9050919050565b600060208201905081810360008301526133f681612ea2565b9050919050565b6000602082019050818103600083015261341681612ec5565b9050919050565b6000602082019050818103600083015261343681612ee8565b9050919050565b6000602082019050818103600083015261345681612f0b565b9050919050565b6000602082019050818103600083015261347681612f2e565b9050919050565b6000602082019050818103600083015261349681612f51565b9050919050565b600060208201905081810360008301526134b681612f74565b9050919050565b600060208201905081810360008301526134d681612f97565b9050919050565b600060208201905081810360008301526134f681612fba565b9050919050565b6000602082019050818103600083015261351681612fdd565b9050919050565b6000602082019050818103600083015261353681613000565b9050919050565b6000602082019050818103600083015261355681613023565b9050919050565b60006020820190506135726000830184613046565b92915050565b6000613582613593565b905061358e8282613820565b919050565b6000604051905090565b600067ffffffffffffffff8211156135b8576135b7613917565b5b6135c18261395a565b9050602081019050919050565b600067ffffffffffffffff8211156135e9576135e8613917565b5b6135f28261395a565b9050602081019050919050565b600081519050919050565b600081519050919050565b600082825260208201905092915050565b600081905092915050565b600082825260208201905092915050565b600081905092915050565b600061365882613771565b915061366383613771565b9250827fffffffffffffffffffffffffffffffffffffffffffffffffffffffffffffffff038211156136985761369761385b565b5b828201905092915050565b60006136ae82613771565b91506136b983613771565b9250828210156136cc576136cb61385b565b5b828203905092915050565b60006136e282613751565b9050919050565b60008115159050919050565b6000819050919050565b60007fffffffff0000000000000000000000000000000000000000000000000000000082169050919050565b600081905061373982613ebf565b919050565b600081905061374c82613ed3565b919050565b600073ffffffffffffffffffffffffffffffffffffffff82169050919050565b6000819050919050565b600060ff82169050919050565b60006137938261372b565b9050919050565b60006137a58261373e565b9050919050565b82818337600083830152505050565b60005b838110156137d95780820151818401526020810190506137be565b838111156137e8576000848401525b50505050565b6000600282049050600182168061380657607f821691505b6020821081141561381a576138196138e8565b5b50919050565b6138298261395a565b810181811067ffffffffffffffff8211171561384857613847613917565b5b80604052505050565b6000819050919050565b7f4e487b7100000000000000000000000000000000000000000000000000000000600052601160045260246000fd5b7f4e487b7100000000000000000000000000000000000000000000000000000000600052601260045260246000fd5b7f4e487b7100000000000000000000000000000000000000000000000000000000600052602160045260246000fd5b7f4e487b7100000000000000000000000000000000000000000000000000000000600052602260045260246000fd5b7f4e487b7100000000000000000000000000000000000000000000000000000000600052604160045260246000fd5b600080fd5b600080fd5b600080fd5b600080fd5b6000601f19601f8301169050919050565b7f45434453413a20696e76616c6964207369676e61747572650000000000000000600082015250565b7f4552433732313a2063616c6c6572206973206e6f7420746f6b656e206f776e6560008201527f72206f7220617070726f76656400000000000000000000000000000000000000602082015250565b7f45434453413a20696e76616c6964207369676e6174757265206c656e67746800600082015250565b7f19457468657265756d205369676e6564204d6573736167653a0a333200000000600082015250565b7f4552433732313a207472616e7366657220746f206e6f6e20455243373231526560008201527f63656976657220696d706c656d656e7465720000000000000000000000000000602082015250565b7f4f776e61626c653a206e6577206f776e657220697320746865207a65726f206160008201527f6464726573730000000000000000000000000000000000000000000000000000602082015250565b7f4f6e6c7920746865206f776e65722063616e206c6f636b20746865204e465400600082015250565b7f4552433732313a207472616e736665722066726f6d20696e636f72726563742060008201527f6f776e6572000000000000000000000000000000000000000000000000000000602082015250565b7f4552433732313a20746f6b656e20616c7265616479206d696e74656400000000600082015250565b7f41646472657373206973206e6f7420617574686f72697a656400000000000000600082015250565b7f4552433732313a207472616e7366657220746f20746865207a65726f2061646460008201527f7265737300000000000000000000000000000000000000000000000000000000602082015250565b7f4552433732313a20617070726f766520746f2063616c6c657200000000000000600082015250565b7f496e76616c696420636861696e00000000000000000000000000000000000000600082015250565b7f45434453413a20696e76616c6964207369676e6174757265202773272076616c60008201527f7565000000000000000000000000000000000000000000000000000000000000602082015250565b7f4552433732313a2061646472657373207a65726f206973206e6f74206120766160008201527f6c6964206f776e65720000000000000000000000000000000000000000000000602082015250565b7f45524337323155524953746f726167653a2055524920736574206f66206e6f6e60008201527f6578697374656e7420746f6b656e000000000000000000000000000000000000602082015250565b7f4552433732313a206d696e7420746f20746865207a65726f2061646472657373600082015250565b7f4f776e61626c653a2063616c6c6572206973206e6f7420746865206f776e6572600082015250565b7f416464726573732063616e6e6f74206265203000000000000000000000000000600082015250565b7f4552433732313a20696e76616c696420746f6b656e2049440000000000000000600082015250565b7f4552433732313a20617070726f76616c20746f2063757272656e74206f776e6560008201527f7200000000000000000000000000000000000000000000000000000000000000602082015250565b7f4552433732313a20617070726f76652063616c6c6572206973206e6f7420746f60008201527f6b656e206f776e6572206f7220617070726f76656420666f7220616c6c000000602082015250565b7f416c7265616479207369676e6174757265207573656400000000000000000000600082015250565b7f5265656e7472616e637947756172643a207265656e7472616e742063616c6c00600082015250565b60038110613ed057613ecf6138b9565b5b50565b60038110613ee457613ee36138b9565b5b50565b613ef0816136d7565b8114613efb57600080fd5b50565b613f07816136e9565b8114613f1257600080fd5b50565b613f1e816136f5565b8114613f2957600080fd5b50565b613f35816136ff565b8114613f4057600080fd5b50565b60038110613f5057600080fd5b50565b60038110613f6057600080fd5b50565b613f6c81613771565b8114613f7757600080fd5b5056fea26469706673582212208d4a21d80450eb7a36b70074bc93c2c001582f21cce8baec65458cdffe69971664736f6c63430008070033",
  "linkReferences": {},
  "deployedLinkReferences": {}
}