{
  "_format": "hh-sol-artifact-1",
  "contractName": "BridgePolygon",
  "sourceName": "contracts/BridgePolygon.sol",
  "abi": [
    {
      "anonymous": false,
      "inputs": [
        {
          "indexed": false,
          "internalType": "address",
          "name": "_from",
          "type": "address"
        },
        {
          "indexed": false,
          "internalType": "address",
          "name": "_to",
          "type": "address"
        },
        {
          "indexed": false,
          "internalType": "enum BridgePolygon.SourceChain",
          "name": "_sourceChain",
          "type": "uint8"
        },
        {
          "indexed": false,
          "internalType": "enum BridgePolygon.DestinationChain",
          "name": "_destinationChain",
          "type": "uint8"
        },
        {
          "indexed": false,
          "internalType": "enum BridgePolygon.SourceChainTokensAvailable",
          "name": "_tokensAvailableFromSourceChain",
          "type": "uint8"
        },
        {
          "indexed": false,
          "internalType": "enum BridgePolygon.DestinationChainTokensAvailable",
          "name": "_tokensAvailableFromDestinationChain",
          "type": "uint8"
        },
        {
          "indexed": true,
          "internalType": "uint256",
          "name": "_value",
          "type": "uint256"
        }
      ],
      "name": "LockedMatic",
      "type": "event"
    },
    {
      "anonymous": false,
      "inputs": [
        {
          "indexed": false,
          "internalType": "address",
          "name": "_token",
          "type": "address"
        },
        {
          "indexed": false,
          "internalType": "address",
          "name": "_from",
          "type": "address"
        },
        {
          "indexed": false,
          "internalType": "address",
          "name": "_to",
          "type": "address"
        },
        {
          "indexed": false,
          "internalType": "enum BridgePolygon.SourceChain",
          "name": "_sourceChain",
          "type": "uint8"
        },
        {
          "indexed": false,
          "internalType": "enum BridgePolygon.DestinationChain",
          "name": "_destinationChain",
          "type": "uint8"
        },
        {
          "indexed": false,
          "internalType": "enum BridgePolygon.SourceChainTokensAvailable",
          "name": "_tokensAvailableFromSourceChain",
          "type": "uint8"
        },
        {
          "indexed": false,
          "internalType": "enum BridgePolygon.DestinationChainTokensAvailable",
          "name": "_tokensAvailableFromDestinationChain",
          "type": "uint8"
        },
        {
          "indexed": true,
          "internalType": "uint256",
          "name": "_amount",
          "type": "uint256"
        }
      ],
      "name": "LockedToken",
      "type": "event"
    },
    {
      "anonymous": false,
      "inputs": [
        {
          "indexed": false,
          "internalType": "address",
          "name": "_from",
          "type": "address"
        },
        {
          "indexed": false,
          "internalType": "address",
          "name": "_to",
          "type": "address"
        },
        {
          "indexed": true,
          "internalType": "uint256",
          "name": "_value",
          "type": "uint256"
        }
      ],
      "name": "MaticTransferedToDestinationChain",
      "type": "event"
    },
    {
      "anonymous": false,
      "inputs": [
        {
          "indexed": true,
          "internalType": "address",
          "name": "previousOwner",
          "type": "address"
        },
        {
          "indexed": true,
          "internalType": "address",
          "name": "newOwner",
          "type": "address"
        }
      ],
      "name": "OwnershipTransferred",
      "type": "event"
    },
    {
      "anonymous": false,
      "inputs": [
        {
          "indexed": false,
          "internalType": "address",
          "name": "account",
          "type": "address"
        }
      ],
      "name": "Paused",
      "type": "event"
    },
    {
      "anonymous": false,
      "inputs": [
        {
          "indexed": false,
          "internalType": "address",
          "name": "_token",
          "type": "address"
        },
        {
          "indexed": false,
          "internalType": "address",
          "name": "_from",
          "type": "address"
        },
        {
          "indexed": false,
          "internalType": "address",
          "name": "_to",
          "type": "address"
        },
        {
          "indexed": true,
          "internalType": "uint256",
          "name": "_amount",
          "type": "uint256"
        }
      ],
      "name": "TokenTransferedToDestinationChain",
      "type": "event"
    },
    {
      "anonymous": false,
      "inputs": [
        {
          "indexed": false,
          "internalType": "address",
          "name": "account",
          "type": "address"
        }
      ],
      "name": "Unpaused",
      "type": "event"
    },
    {
      "inputs": [
        {
          "internalType": "uint256",
          "name": "newSmartContractFees",
          "type": "uint256"
        }
      ],
      "name": "changeSmartContractFees",
      "outputs": [
        {
          "internalType": "uint256",
          "name": "",
          "type": "uint256"
        }
      ],
      "stateMutability": "nonpayable",
      "type": "function"
    },
    {
      "inputs": [],
      "name": "getSmartContractFees",
      "outputs": [
        {
          "internalType": "uint256",
          "name": "",
          "type": "uint256"
        }
      ],
      "stateMutability": "view",
      "type": "function"
    },
    {
      "inputs": [
        {
          "internalType": "address",
          "name": "tokenAddress",
          "type": "address"
        },
        {
          "internalType": "address",
          "name": "recipient",
          "type": "address"
        }
      ],
      "name": "getTokenBalance",
      "outputs": [
        {
          "internalType": "uint256",
          "name": "",
          "type": "uint256"
        }
      ],
      "stateMutability": "view",
      "type": "function"
    },
    {
      "inputs": [
        {
          "internalType": "enum BridgePolygon.SourceChain",
          "name": "sourceChain",
          "type": "uint8"
        },
        {
          "internalType": "enum BridgePolygon.DestinationChain",
          "name": "destinationChain",
          "type": "uint8"
        },
        {
          "internalType": "enum BridgePolygon.SourceChainTokensAvailable",
          "name": "tokensAvailableFromSourceChain",
          "type": "uint8"
        },
        {
          "internalType": "enum BridgePolygon.DestinationChainTokensAvailable",
          "name": "tokensAvailableFromDestinationChain",
          "type": "uint8"
        },
        {
          "internalType": "uint256",
          "name": "value",
          "type": "uint256"
        },
        {
          "internalType": "bytes32",
          "name": "hash",
          "type": "bytes32"
        },
        {
          "internalType": "bytes",
          "name": "signature",
          "type": "bytes"
        }
      ],
      "name": "lockMatic",
      "outputs": [],
      "stateMutability": "payable",
      "type": "function"
    },
    {
      "inputs": [
        {
          "internalType": "uint256",
          "name": "value",
          "type": "uint256"
        }
      ],
      "name": "lockMaticToContract",
      "outputs": [],
      "stateMutability": "payable",
      "type": "function"
    },
    {
      "inputs": [
        {
          "internalType": "enum BridgePolygon.SourceChain",
          "name": "sourceChain",
          "type": "uint8"
        },
        {
          "internalType": "enum BridgePolygon.DestinationChain",
          "name": "destinationChain",
          "type": "uint8"
        },
        {
          "internalType": "enum BridgePolygon.SourceChainTokensAvailable",
          "name": "tokensAvailableFromSourceChain",
          "type": "uint8"
        },
        {
          "internalType": "enum BridgePolygon.DestinationChainTokensAvailable",
          "name": "tokensAvailableFromDestinationChain",
          "type": "uint8"
        },
        {
          "internalType": "address",
          "name": "tokenAddress",
          "type": "address"
        },
        {
          "internalType": "uint256",
          "name": "amount",
          "type": "uint256"
        },
        {
          "internalType": "bytes32",
          "name": "hash",
          "type": "bytes32"
        },
        {
          "internalType": "bytes",
          "name": "signature",
          "type": "bytes"
        }
      ],
      "name": "lockToken",
      "outputs": [],
      "stateMutability": "nonpayable",
      "type": "function"
    },
    {
      "inputs": [
        {
          "internalType": "address",
          "name": "tokenAddress",
          "type": "address"
        },
        {
          "internalType": "uint256",
          "name": "amount",
          "type": "uint256"
        }
      ],
      "name": "lockTokenToContract",
      "outputs": [],
      "stateMutability": "nonpayable",
      "type": "function"
    },
    {
      "inputs": [],
      "name": "owner",
      "outputs": [
        {
          "internalType": "address",
          "name": "",
          "type": "address"
        }
      ],
      "stateMutability": "view",
      "type": "function"
    },
    {
      "inputs": [],
      "name": "pause",
      "outputs": [],
      "stateMutability": "nonpayable",
      "type": "function"
    },
    {
      "inputs": [],
      "name": "paused",
      "outputs": [
        {
          "internalType": "bool",
          "name": "",
          "type": "bool"
        }
      ],
      "stateMutability": "view",
      "type": "function"
    },
    {
      "inputs": [],
      "name": "renounceOwnership",
      "outputs": [],
      "stateMutability": "nonpayable",
      "type": "function"
    },
    {
      "inputs": [
        {
          "internalType": "address",
          "name": "recipient",
          "type": "address"
        },
        {
          "internalType": "uint256",
          "name": "value",
          "type": "uint256"
        }
      ],
      "name": "transferMatic",
      "outputs": [],
      "stateMutability": "nonpayable",
      "type": "function"
    },
    {
      "inputs": [
        {
          "internalType": "address",
          "name": "recipient",
          "type": "address"
        },
        {
          "internalType": "uint256",
          "name": "value",
          "type": "uint256"
        }
      ],
      "name": "transferMaticBackToUser",
      "outputs": [],
      "stateMutability": "nonpayable",
      "type": "function"
    },
    {
      "inputs": [
        {
          "internalType": "address",
          "name": "newOwner",
          "type": "address"
        }
      ],
      "name": "transferOwnership",
      "outputs": [],
      "stateMutability": "nonpayable",
      "type": "function"
    },
    {
      "inputs": [
        {
          "internalType": "address",
          "name": "tokenAddress",
          "type": "address"
        },
        {
          "internalType": "address",
          "name": "recipient",
          "type": "address"
        },
        {
          "internalType": "uint256",
          "name": "amount",
          "type": "uint256"
        }
      ],
      "name": "transferToken",
      "outputs": [],
      "stateMutability": "nonpayable",
      "type": "function"
    },
    {
      "inputs": [
        {
          "internalType": "address",
          "name": "tokenAddress",
          "type": "address"
        },
        {
          "internalType": "address",
          "name": "recipient",
          "type": "address"
        },
        {
          "internalType": "uint256",
          "name": "amount",
          "type": "uint256"
        }
      ],
      "name": "transferTokenBackToUser",
      "outputs": [],
      "stateMutability": "nonpayable",
      "type": "function"
    },
    {
      "inputs": [],
      "name": "unpause",
      "outputs": [],
      "stateMutability": "nonpayable",
      "type": "function"
    },
    {
      "inputs": [
        {
          "internalType": "address payable",
          "name": "recipient",
          "type": "address"
        }
      ],
      "name": "withdraw",
      "outputs": [],
      "stateMutability": "nonpayable",
      "type": "function"
    },
    {
      "inputs": [
        {
          "internalType": "address",
          "name": "tokenAddress",
          "type": "address"
        },
        {
          "internalType": "address",
          "name": "recipient",
          "type": "address"
        }
      ],
      "name": "withdrawToken",
      "outputs": [],
      "stateMutability": "nonpayable",
      "type": "function"
    }
  ],
  "bytecode": "0x608060405260026003553480156200001657600080fd5b50620000376200002b6200005e60201b60201c565b6200006660201b60201c565b60008060146101000a81548160ff021916908315150217905550600180819055506200012a565b600033905090565b60008060009054906101000a900473ffffffffffffffffffffffffffffffffffffffff169050816000806101000a81548173ffffffffffffffffffffffffffffffffffffffff021916908373ffffffffffffffffffffffffffffffffffffffff1602179055508173ffffffffffffffffffffffffffffffffffffffff168173ffffffffffffffffffffffffffffffffffffffff167f8be0079c531659141344cd1fd0a4f28419497f9722a3daafe3b4186f6b6457e060405160405180910390a35050565b61396c806200013a6000396000f3fe6080604052600436106101145760003560e01c80639a3488b6116100a0578063f1597e7711610064578063f1597e771461032e578063f2fde38b14610357578063f5537ede14610380578063f656eece146103a9578063ffa764e6146103e657610114565b80639a3488b61461024b578063c489744b14610276578063e1828c11146102b3578063e392825b146102dc578063e81884b91461030557610114565b80635c975abb116100e75780635c975abb1461019e5780636ec14dd9146101c9578063715018a6146101f25780638456cb59146102095780638da5cb5b1461022057610114565b80630bcb2db9146101195780633aeac4e1146101355780633f4ba83a1461015e57806351cff8d914610175575b600080fd5b610133600480360381019061012e91906124ba565b610402565b005b34801561014157600080fd5b5061015c600480360381019061015791906125d6565b61076b565b005b34801561016a57600080fd5b5061017361093c565b005b34801561018157600080fd5b5061019c60048036038101906101979190612654565b61094e565b005b3480156101aa57600080fd5b506101b3610a1f565b6040516101c0919061269c565b60405180910390f35b3480156101d557600080fd5b506101f060048036038101906101eb91906126b7565b610a35565b005b3480156101fe57600080fd5b50610207610b4a565b005b34801561021557600080fd5b5061021e610b5e565b005b34801561022c57600080fd5b50610235610b70565b6040516102429190612706565b60405180910390f35b34801561025757600080fd5b50610260610b99565b60405161026d9190612730565b60405180910390f35b34801561028257600080fd5b5061029d600480360381019061029891906125d6565b610ba3565b6040516102aa9190612730565b60405180910390f35b3480156102bf57600080fd5b506102da60048036038101906102d5919061274b565b610d13565b005b3480156102e857600080fd5b5061030360048036038101906102fe919061281d565b61117c565b005b34801561031157600080fd5b5061032c600480360381019061032791906126b7565b61125c565b005b34801561033a57600080fd5b50610355600480360381019061035091906126b7565b6113a5565b005b34801561036357600080fd5b5061037e60048036038101906103799190612870565b611502565b005b34801561038c57600080fd5b506103a760048036038101906103a2919061281d565b611585565b005b3480156103b557600080fd5b506103d060048036038101906103cb919061289d565b6117c1565b6040516103dd9190612730565b60405180910390f35b61040060048036038101906103fb919061289d565b61181c565b005b61040a6118c4565b61041261190e565b60003403610455576040517f08c379a000000000000000000000000000000000000000000000000000000000815260040161044c90612927565b60405180910390fd5b60028081111561046857610467612947565b5b87600281111561047b5761047a612947565b5b1480156104ac575060028081111561049657610495612947565b5b8660028111156104a9576104a8612947565b5b14155b6104eb576040517f08c379a00000000000000000000000000000000000000000000000000000000081526004016104e2906129c2565b60405180910390fd5b600260038111156104ff576104fe612947565b5b85600381111561051257610511612947565b5b1415801561054557506001600381111561052f5761052e612947565b5b85600381111561054257610541612947565b5b14155b80156105765750600060038111156105605761055f612947565b5b84600381111561057357610572612947565b5b14155b6105b5576040517f08c379a00000000000000000000000000000000000000000000000000000000081526004016105ac90612a2e565b60405180910390fd5b8234146105f7576040517f08c379a00000000000000000000000000000000000000000000000000000000081526004016105ee90612a9a565b60405180910390fd5b6105ff610b70565b73ffffffffffffffffffffffffffffffffffffffff1661061f838361195d565b73ffffffffffffffffffffffffffffffffffffffff1614610675576040517f08c379a000000000000000000000000000000000000000000000000000000000815260040161066c90612b06565b60405180910390fd5b6004816040516106859190612b97565b908152602001604051809103902060009054906101000a900460ff16156106e1576040517f08c379a00000000000000000000000000000000000000000000000000000000081526004016106d890612bfa565b60405180910390fd5b827f4f232c8d4a44a99e7861a4574a3210b2f46e6305a42b0f3ebfb7984c82876b2533308a8a8a8a60405161071b96959493929190612d3a565b60405180910390a260016004826040516107359190612b97565b908152602001604051809103902060006101000a81548160ff02191690831515021790555061076261199c565b50505050505050565b6107736119a5565b61077b61190e565b600073ffffffffffffffffffffffffffffffffffffffff168173ffffffffffffffffffffffffffffffffffffffff16036107ea576040517f08c379a00000000000000000000000000000000000000000000000000000000081526004016107e190612de7565b60405180910390fd5b600082905060008173ffffffffffffffffffffffffffffffffffffffff166370a08231306040518263ffffffff1660e01b815260040161082a9190612706565b602060405180830381865afa158015610847573d6000803e3d6000fd5b505050506040513d601f19601f8201168201806040525081019061086b9190612e1c565b116108ab576040517f08c379a00000000000000000000000000000000000000000000000000000000081526004016108a290612e95565b60405180910390fd5b61092f81838373ffffffffffffffffffffffffffffffffffffffff166370a08231306040518263ffffffff1660e01b81526004016108e99190612706565b602060405180830381865afa158015610906573d6000803e3d6000fd5b505050506040513d601f19601f8201168201806040525081019061092a9190612e1c565b611a23565b5061093861199c565b5050565b6109446119a5565b61094c611aa9565b565b6109566119a5565b61095e61190e565b600073ffffffffffffffffffffffffffffffffffffffff168173ffffffffffffffffffffffffffffffffffffffff16036109cd576040517f08c379a00000000000000000000000000000000000000000000000000000000081526004016109c490612de7565b60405180910390fd5b8073ffffffffffffffffffffffffffffffffffffffff166108fc479081150290604051600060405180830381858888f19350505050158015610a13573d6000803e3d6000fd5b50610a1c61199c565b50565b60008060149054906101000a900460ff16905090565b610a3d6119a5565b610a4561190e565b600073ffffffffffffffffffffffffffffffffffffffff168273ffffffffffffffffffffffffffffffffffffffff1603610ab4576040517f08c379a0000000000000000000000000000000000000000000000000000000008152600401610aab90612de7565b60405180910390fd5b60008103610af7576040517f08c379a0000000000000000000000000000000000000000000000000000000008152600401610aee90612927565b60405180910390fd5b8173ffffffffffffffffffffffffffffffffffffffff166108fc829081150290604051600060405180830381858888f19350505050158015610b3d573d6000803e3d6000fd5b50610b4661199c565b5050565b610b526119a5565b610b5c6000611b0b565b565b610b666119a5565b610b6e611bcf565b565b60008060009054906101000a900473ffffffffffffffffffffffffffffffffffffffff16905090565b6000600354905090565b6000610bad6119a5565b600073ffffffffffffffffffffffffffffffffffffffff168373ffffffffffffffffffffffffffffffffffffffff1603610c1c576040517f08c379a0000000000000000000000000000000000000000000000000000000008152600401610c1390612de7565b60405180910390fd5b600073ffffffffffffffffffffffffffffffffffffffff168273ffffffffffffffffffffffffffffffffffffffff1603610c8b576040517f08c379a0000000000000000000000000000000000000000000000000000000008152600401610c8290612de7565b60405180910390fd5b60008390508073ffffffffffffffffffffffffffffffffffffffff166370a08231846040518263ffffffff1660e01b8152600401610cc99190612706565b602060405180830381865afa158015610ce6573d6000803e3d6000fd5b505050506040513d601f19601f82011682018060405250810190610d0a9190612e1c565b91505092915050565b610d1b6118c4565b610d2361190e565b60008303610d66576040517f08c379a0000000000000000000000000000000000000000000000000000000008152600401610d5d90612927565b60405180910390fd5b600280811115610d7957610d78612947565b5b886002811115610d8c57610d8b612947565b5b148015610dbd5750600280811115610da757610da6612947565b5b876002811115610dba57610db9612947565b5b14155b610dfc576040517f08c379a0000000000000000000000000000000000000000000000000000000008152600401610df3906129c2565b60405180910390fd5b60006003811115610e1057610e0f612947565b5b866003811115610e2357610e22612947565b5b14158015610e56575060016003811115610e4057610e3f612947565b5b866003811115610e5357610e52612947565b5b14155b8015610e87575060006003811115610e7157610e70612947565b5b856003811115610e8457610e83612947565b5b14155b610ec6576040517f08c379a0000000000000000000000000000000000000000000000000000000008152600401610ebd90612a2e565b60405180910390fd5b600073ffffffffffffffffffffffffffffffffffffffff168473ffffffffffffffffffffffffffffffffffffffff1603610f35576040517f08c379a0000000000000000000000000000000000000000000000000000000008152600401610f2c90612de7565b60405180910390fd5b610f3d610b70565b73ffffffffffffffffffffffffffffffffffffffff16610f5d838361195d565b73ffffffffffffffffffffffffffffffffffffffff1614610fb3576040517f08c379a0000000000000000000000000000000000000000000000000000000008152600401610faa90612b06565b60405180910390fd5b600481604051610fc39190612b97565b908152602001604051809103902060009054906101000a900460ff161561101f576040517f08c379a000000000000000000000000000000000000000000000000000000000815260040161101690612bfa565b60405180910390fd5b6000849050838173ffffffffffffffffffffffffffffffffffffffff1663dd62ed3e33306040518363ffffffff1660e01b8152600401611060929190612eb5565b602060405180830381865afa15801561107d573d6000803e3d6000fd5b505050506040513d601f19601f820116820180604052508101906110a19190612e1c565b10156110e2576040517f08c379a00000000000000000000000000000000000000000000000000000000081526004016110d990612f2a565b60405180910390fd5b837f4472c72d0bcf5053f9b751e4fab2043d10268d0bb56b8bc379a6743d297ec4bf8633308d8d8d8d60405161111e9796959493929190612f4a565b60405180910390a261113281333087611c32565b60016004836040516111449190612b97565b908152602001604051809103902060006101000a81548160ff0219169083151502179055505061117261199c565b5050505050505050565b6111846119a5565b61118c61190e565b600081036111cf576040517f08c379a00000000000000000000000000000000000000000000000000000000081526004016111c690612927565b60405180910390fd5b600073ffffffffffffffffffffffffffffffffffffffff168373ffffffffffffffffffffffffffffffffffffffff160361123e576040517f08c379a000000000000000000000000000000000000000000000000000000000815260040161123590612de7565b60405180910390fd5b600083905061124e818484611a23565b5061125761199c565b505050565b6112646119a5565b61126c6118c4565b61127461190e565b600073ffffffffffffffffffffffffffffffffffffffff168273ffffffffffffffffffffffffffffffffffffffff16036112e3576040517f08c379a00000000000000000000000000000000000000000000000000000000081526004016112da90613005565b60405180910390fd5b60006064600354836112f59190613054565b6112ff91906130c5565b9050808261130d91906130f6565b7f8f893355bade52e7d24f43764aca792f74e6c10c167ac659843ba0204db21957308560405161133e929190612eb5565b60405180910390a28273ffffffffffffffffffffffffffffffffffffffff166108fc828461136c91906130f6565b9081150290604051600060405180830381858888f19350505050158015611397573d6000803e3d6000fd5b50506113a161199c565b5050565b6113ad6119a5565b6113b56118c4565b6113bd61190e565b6000829050600073ffffffffffffffffffffffffffffffffffffffff168373ffffffffffffffffffffffffffffffffffffffff1603611431576040517f08c379a000000000000000000000000000000000000000000000000000000000815260040161142890612de7565b60405180910390fd5b60008203611474576040517f08c379a000000000000000000000000000000000000000000000000000000000815260040161146b90612927565b60405180910390fd5b8073ffffffffffffffffffffffffffffffffffffffff166323b872dd3330856040518463ffffffff1660e01b81526004016114b19392919061312a565b6020604051808303816000875af11580156114d0573d6000803e3d6000fd5b505050506040513d601f19601f820116820180604052508101906114f4919061318d565b50506114fe61199c565b5050565b61150a6119a5565b600073ffffffffffffffffffffffffffffffffffffffff168173ffffffffffffffffffffffffffffffffffffffff1603611579576040517f08c379a00000000000000000000000000000000000000000000000000000000081526004016115709061322c565b60405180910390fd5b61158281611b0b565b50565b61158d6119a5565b6115956118c4565b61159d61190e565b6000839050600073ffffffffffffffffffffffffffffffffffffffff168473ffffffffffffffffffffffffffffffffffffffff1603611611576040517f08c379a000000000000000000000000000000000000000000000000000000000815260040161160890612de7565b60405180910390fd5b600073ffffffffffffffffffffffffffffffffffffffff168373ffffffffffffffffffffffffffffffffffffffff1603611680576040517f08c379a000000000000000000000000000000000000000000000000000000000815260040161167790613005565b60405180910390fd5b600082036116c3576040517f08c379a00000000000000000000000000000000000000000000000000000000081526004016116ba90612927565b60405180910390fd5b60006064600354846116d59190613054565b6116df91906130c5565b905080836116ed91906130f6565b7f85647f12ef10ce387990d62d699fab79560d0e6165ced3af12f4ada543a2c7488630876040516117209392919061324c565b60405180910390a28173ffffffffffffffffffffffffffffffffffffffff1663a9059cbb85838661175191906130f6565b6040518363ffffffff1660e01b815260040161176e929190613283565b6020604051808303816000875af115801561178d573d6000803e3d6000fd5b505050506040513d601f19601f820116820180604052508101906117b1919061318d565b5050506117bc61199c565b505050565b60006117cb6119a5565b816003540361180f576040517f08c379a0000000000000000000000000000000000000000000000000000000008152600401611806906132f8565b60405180910390fd5b8160038190559050919050565b6118246119a5565b61182c6118c4565b61183461190e565b60003403611877576040517f08c379a000000000000000000000000000000000000000000000000000000000815260040161186e90612927565b60405180910390fd5b8034146118b9576040517f08c379a00000000000000000000000000000000000000000000000000000000081526004016118b090612a9a565b60405180910390fd5b6118c161199c565b50565b6118cc610a1f565b1561190c576040517f08c379a000000000000000000000000000000000000000000000000000000000815260040161190390613364565b60405180910390fd5b565b600260015403611953576040517f08c379a000000000000000000000000000000000000000000000000000000000815260040161194a906133d0565b60405180910390fd5b6002600181905550565b600080836040516020016119719190613468565b6040516020818303038152906040528051906020012090506119938184611cbb565b91505092915050565b60018081905550565b6119ad611ce2565b73ffffffffffffffffffffffffffffffffffffffff166119cb610b70565b73ffffffffffffffffffffffffffffffffffffffff1614611a21576040517f08c379a0000000000000000000000000000000000000000000000000000000008152600401611a18906134da565b60405180910390fd5b565b611aa48363a9059cbb60e01b8484604051602401611a42929190613283565b604051602081830303815290604052907bffffffffffffffffffffffffffffffffffffffffffffffffffffffff19166020820180517bffffffffffffffffffffffffffffffffffffffffffffffffffffffff8381831617835250505050611cea565b505050565b611ab1611db1565b60008060146101000a81548160ff0219169083151502179055507f5db9ee0a495bf2e6ff9c91a7834c1ba4fdd244a5e8aa4e537bd38aeae4b073aa611af4611ce2565b604051611b019190612706565b60405180910390a1565b60008060009054906101000a900473ffffffffffffffffffffffffffffffffffffffff169050816000806101000a81548173ffffffffffffffffffffffffffffffffffffffff021916908373ffffffffffffffffffffffffffffffffffffffff1602179055508173ffffffffffffffffffffffffffffffffffffffff168173ffffffffffffffffffffffffffffffffffffffff167f8be0079c531659141344cd1fd0a4f28419497f9722a3daafe3b4186f6b6457e060405160405180910390a35050565b611bd76118c4565b6001600060146101000a81548160ff0219169083151502179055507f62e78cea01bee320cd4e420270b5ea74000d11b0c9f74754ebdbfc544b05a258611c1b611ce2565b604051611c289190612706565b60405180910390a1565b611cb5846323b872dd60e01b858585604051602401611c539392919061312a565b604051602081830303815290604052907bffffffffffffffffffffffffffffffffffffffffffffffffffffffff19166020820180517bffffffffffffffffffffffffffffffffffffffffffffffffffffffff8381831617835250505050611cea565b50505050565b6000806000611cca8585611dfa565b91509150611cd781611e4b565b819250505092915050565b600033905090565b6000611d4c826040518060400160405280602081526020017f5361666545524332303a206c6f772d6c6576656c2063616c6c206661696c65648152508573ffffffffffffffffffffffffffffffffffffffff16611fb19092919063ffffffff16565b9050600081511115611dac5780806020019051810190611d6c919061318d565b611dab576040517f08c379a0000000000000000000000000000000000000000000000000000000008152600401611da29061356c565b60405180910390fd5b5b505050565b611db9610a1f565b611df8576040517f08c379a0000000000000000000000000000000000000000000000000000000008152600401611def906135d8565b60405180910390fd5b565b6000806041835103611e3b5760008060006020860151925060408601519150606086015160001a9050611e2f87828585611fc9565b94509450505050611e44565b60006002915091505b9250929050565b60006004811115611e5f57611e5e612947565b5b816004811115611e7257611e71612947565b5b0315611fae5760016004811115611e8c57611e8b612947565b5b816004811115611e9f57611e9e612947565b5b03611edf576040517f08c379a0000000000000000000000000000000000000000000000000000000008152600401611ed690613644565b60405180910390fd5b60026004811115611ef357611ef2612947565b5b816004811115611f0657611f05612947565b5b03611f46576040517f08c379a0000000000000000000000000000000000000000000000000000000008152600401611f3d906136b0565b60405180910390fd5b60036004811115611f5a57611f59612947565b5b816004811115611f6d57611f6c612947565b5b03611fad576040517f08c379a0000000000000000000000000000000000000000000000000000000008152600401611fa490613742565b60405180910390fd5b5b50565b6060611fc084846000856120ab565b90509392505050565b6000807f7fffffffffffffffffffffffffffffff5d576e7357a4501ddfe92f46681b20a08360001c11156120045760006003915091506120a2565b600060018787878760405160008152602001604052604051612029949392919061378d565b6020604051602081039080840390855afa15801561204b573d6000803e3d6000fd5b505050602060405103519050600073ffffffffffffffffffffffffffffffffffffffff168173ffffffffffffffffffffffffffffffffffffffff1603612099576000600192509250506120a2565b80600092509250505b94509492505050565b6060824710156120f0576040517f08c379a00000000000000000000000000000000000000000000000000000000081526004016120e790613844565b60405180910390fd5b6000808673ffffffffffffffffffffffffffffffffffffffff1685876040516121199190612b97565b60006040518083038185875af1925050503d8060008114612156576040519150601f19603f3d011682016040523d82523d6000602084013e61215b565b606091505b509150915061216c87838387612178565b92505050949350505050565b606083156121da5760008351036121d257612192856121ed565b6121d1576040517f08c379a00000000000000000000000000000000000000000000000000000000081526004016121c8906138b0565b60405180910390fd5b5b8290506121e5565b6121e48383612210565b5b949350505050565b6000808273ffffffffffffffffffffffffffffffffffffffff163b119050919050565b6000825111156122235781518083602001fd5b806040517f08c379a00000000000000000000000000000000000000000000000000000000081526004016122579190613914565b60405180910390fd5b6000604051905090565b600080fd5b600080fd5b6003811061228157600080fd5b50565b60008135905061229381612274565b92915050565b600381106122a657600080fd5b50565b6000813590506122b881612299565b92915050565b600481106122cb57600080fd5b50565b6000813590506122dd816122be565b92915050565b600481106122f057600080fd5b50565b600081359050612302816122e3565b92915050565b6000819050919050565b61231b81612308565b811461232657600080fd5b50565b60008135905061233881612312565b92915050565b6000819050919050565b6123518161233e565b811461235c57600080fd5b50565b60008135905061236e81612348565b92915050565b600080fd5b600080fd5b6000601f19601f8301169050919050565b7f4e487b7100000000000000000000000000000000000000000000000000000000600052604160045260246000fd5b6123c78261237e565b810181811067ffffffffffffffff821117156123e6576123e561238f565b5b80604052505050565b60006123f9612260565b905061240582826123be565b919050565b600067ffffffffffffffff8211156124255761242461238f565b5b61242e8261237e565b9050602081019050919050565b82818337600083830152505050565b600061245d6124588461240a565b6123ef565b90508281526020810184848401111561247957612478612379565b5b61248484828561243b565b509392505050565b600082601f8301126124a1576124a0612374565b5b81356124b184826020860161244a565b91505092915050565b600080600080600080600060e0888a0312156124d9576124d861226a565b5b60006124e78a828b01612284565b97505060206124f88a828b016122a9565b96505060406125098a828b016122ce565b955050606061251a8a828b016122f3565b945050608061252b8a828b01612329565b93505060a061253c8a828b0161235f565b92505060c088013567ffffffffffffffff81111561255d5761255c61226f565b5b6125698a828b0161248c565b91505092959891949750929550565b600073ffffffffffffffffffffffffffffffffffffffff82169050919050565b60006125a382612578565b9050919050565b6125b381612598565b81146125be57600080fd5b50565b6000813590506125d0816125aa565b92915050565b600080604083850312156125ed576125ec61226a565b5b60006125fb858286016125c1565b925050602061260c858286016125c1565b9150509250929050565b600061262182612578565b9050919050565b61263181612616565b811461263c57600080fd5b50565b60008135905061264e81612628565b92915050565b60006020828403121561266a5761266961226a565b5b60006126788482850161263f565b91505092915050565b60008115159050919050565b61269681612681565b82525050565b60006020820190506126b1600083018461268d565b92915050565b600080604083850312156126ce576126cd61226a565b5b60006126dc858286016125c1565b92505060206126ed85828601612329565b9150509250929050565b61270081612598565b82525050565b600060208201905061271b60008301846126f7565b92915050565b61272a81612308565b82525050565b60006020820190506127456000830184612721565b92915050565b600080600080600080600080610100898b03121561276c5761276b61226a565b5b600061277a8b828c01612284565b985050602061278b8b828c016122a9565b975050604061279c8b828c016122ce565b96505060606127ad8b828c016122f3565b95505060806127be8b828c016125c1565b94505060a06127cf8b828c01612329565b93505060c06127e08b828c0161235f565b92505060e089013567ffffffffffffffff8111156128015761280061226f565b5b61280d8b828c0161248c565b9150509295985092959890939650565b6000806000606084860312156128365761283561226a565b5b6000612844868287016125c1565b9350506020612855868287016125c1565b925050604061286686828701612329565b9150509250925092565b6000602082840312156128865761288561226a565b5b6000612894848285016125c1565b91505092915050565b6000602082840312156128b3576128b261226a565b5b60006128c184828501612329565b91505092915050565b600082825260208201905092915050565b7f496e73756666696369656e7420616d6f756e7400000000000000000000000000600082015250565b60006129116013836128ca565b915061291c826128db565b602082019050919050565b6000602082019050818103600083015261294081612904565b9050919050565b7f4e487b7100000000000000000000000000000000000000000000000000000000600052602160045260246000fd5b7f496e76616c696420636861696e00000000000000000000000000000000000000600082015250565b60006129ac600d836128ca565b91506129b782612976565b602082019050919050565b600060208201905081810360008301526129db8161299f565b9050919050565b7f496e76616c696420746f6b656e00000000000000000000000000000000000000600082015250565b6000612a18600d836128ca565b9150612a23826129e2565b602082019050919050565b60006020820190508181036000830152612a4781612a0b565b9050919050565b7f56616c75652073686f756c64206265206d617463680000000000000000000000600082015250565b6000612a846015836128ca565b9150612a8f82612a4e565b602082019050919050565b60006020820190508181036000830152612ab381612a77565b9050919050565b7f41646472657373206973206e6f7420617574686f72697a656400000000000000600082015250565b6000612af06019836128ca565b9150612afb82612aba565b602082019050919050565b60006020820190508181036000830152612b1f81612ae3565b9050919050565b600081519050919050565b600081905092915050565b60005b83811015612b5a578082015181840152602081019050612b3f565b60008484015250505050565b6000612b7182612b26565b612b7b8185612b31565b9350612b8b818560208601612b3c565b80840191505092915050565b6000612ba38284612b66565b915081905092915050565b7f416c7265616479207369676e6174757265207573656400000000000000000000600082015250565b6000612be46016836128ca565b9150612bef82612bae565b602082019050919050565b60006020820190508181036000830152612c1381612bd7565b9050919050565b60038110612c2b57612c2a612947565b5b50565b6000819050612c3c82612c1a565b919050565b6000612c4c82612c2e565b9050919050565b612c5c81612c41565b82525050565b60038110612c7357612c72612947565b5b50565b6000819050612c8482612c62565b919050565b6000612c9482612c76565b9050919050565b612ca481612c89565b82525050565b60048110612cbb57612cba612947565b5b50565b6000819050612ccc82612caa565b919050565b6000612cdc82612cbe565b9050919050565b612cec81612cd1565b82525050565b60048110612d0357612d02612947565b5b50565b6000819050612d1482612cf2565b919050565b6000612d2482612d06565b9050919050565b612d3481612d19565b82525050565b600060c082019050612d4f60008301896126f7565b612d5c60208301886126f7565b612d696040830187612c53565b612d766060830186612c9b565b612d836080830185612ce3565b612d9060a0830184612d2b565b979650505050505050565b7f416464726573732063616e6e6f74206265207a65726f00000000000000000000600082015250565b6000612dd16016836128ca565b9150612ddc82612d9b565b602082019050919050565b60006020820190508181036000830152612e0081612dc4565b9050919050565b600081519050612e1681612312565b92915050565b600060208284031215612e3257612e3161226a565b5b6000612e4084828501612e07565b91505092915050565b7f496e73756666696369656e742062616c616e6365000000000000000000000000600082015250565b6000612e7f6014836128ca565b9150612e8a82612e49565b602082019050919050565b60006020820190508181036000830152612eae81612e72565b9050919050565b6000604082019050612eca60008301856126f7565b612ed760208301846126f7565b9392505050565b7f436865636b2074686520746f6b656e20616c6c6f77616e636500000000000000600082015250565b6000612f146019836128ca565b9150612f1f82612ede565b602082019050919050565b60006020820190508181036000830152612f4381612f07565b9050919050565b600060e082019050612f5f600083018a6126f7565b612f6c60208301896126f7565b612f7960408301886126f7565b612f866060830187612c53565b612f936080830186612c9b565b612fa060a0830185612ce3565b612fad60c0830184612d2b565b98975050505050505050565b7f416464726573732063616e6e6f74206265203000000000000000000000000000600082015250565b6000612fef6013836128ca565b9150612ffa82612fb9565b602082019050919050565b6000602082019050818103600083015261301e81612fe2565b9050919050565b7f4e487b7100000000000000000000000000000000000000000000000000000000600052601160045260246000fd5b600061305f82612308565b915061306a83612308565b925082820261307881612308565b9150828204841483151761308f5761308e613025565b5b5092915050565b7f4e487b7100000000000000000000000000000000000000000000000000000000600052601260045260246000fd5b60006130d082612308565b91506130db83612308565b9250826130eb576130ea613096565b5b828204905092915050565b600061310182612308565b915061310c83612308565b925082820390508181111561312457613123613025565b5b92915050565b600060608201905061313f60008301866126f7565b61314c60208301856126f7565b6131596040830184612721565b949350505050565b61316a81612681565b811461317557600080fd5b50565b60008151905061318781613161565b92915050565b6000602082840312156131a3576131a261226a565b5b60006131b184828501613178565b91505092915050565b7f4f776e61626c653a206e6577206f776e657220697320746865207a65726f206160008201527f6464726573730000000000000000000000000000000000000000000000000000602082015250565b60006132166026836128ca565b9150613221826131ba565b604082019050919050565b6000602082019050818103600083015261324581613209565b9050919050565b600060608201905061326160008301866126f7565b61326e60208301856126f7565b61327b60408301846126f7565b949350505050565b600060408201905061329860008301856126f7565b6132a56020830184612721565b9392505050565b7f53616d65206665657320616c6c6f636174656400000000000000000000000000600082015250565b60006132e26013836128ca565b91506132ed826132ac565b602082019050919050565b60006020820190508181036000830152613311816132d5565b9050919050565b7f5061757361626c653a2070617573656400000000000000000000000000000000600082015250565b600061334e6010836128ca565b915061335982613318565b602082019050919050565b6000602082019050818103600083015261337d81613341565b9050919050565b7f5265656e7472616e637947756172643a207265656e7472616e742063616c6c00600082015250565b60006133ba601f836128ca565b91506133c582613384565b602082019050919050565b600060208201905081810360008301526133e9816133ad565b9050919050565b600081905092915050565b7f19457468657265756d205369676e6564204d6573736167653a0a333200000000600082015250565b6000613431601c836133f0565b915061343c826133fb565b601c82019050919050565b6000819050919050565b61346261345d8261233e565b613447565b82525050565b600061347382613424565b915061347f8284613451565b60208201915081905092915050565b7f4f776e61626c653a2063616c6c6572206973206e6f7420746865206f776e6572600082015250565b60006134c46020836128ca565b91506134cf8261348e565b602082019050919050565b600060208201905081810360008301526134f3816134b7565b9050919050565b7f5361666545524332303a204552433230206f7065726174696f6e20646964206e60008201527f6f74207375636365656400000000000000000000000000000000000000000000602082015250565b6000613556602a836128ca565b9150613561826134fa565b604082019050919050565b6000602082019050818103600083015261358581613549565b9050919050565b7f5061757361626c653a206e6f7420706175736564000000000000000000000000600082015250565b60006135c26014836128ca565b91506135cd8261358c565b602082019050919050565b600060208201905081810360008301526135f1816135b5565b9050919050565b7f45434453413a20696e76616c6964207369676e61747572650000000000000000600082015250565b600061362e6018836128ca565b9150613639826135f8565b602082019050919050565b6000602082019050818103600083015261365d81613621565b9050919050565b7f45434453413a20696e76616c6964207369676e6174757265206c656e67746800600082015250565b600061369a601f836128ca565b91506136a582613664565b602082019050919050565b600060208201905081810360008301526136c98161368d565b9050919050565b7f45434453413a20696e76616c6964207369676e6174757265202773272076616c60008201527f7565000000000000000000000000000000000000000000000000000000000000602082015250565b600061372c6022836128ca565b9150613737826136d0565b604082019050919050565b6000602082019050818103600083015261375b8161371f565b9050919050565b61376b8161233e565b82525050565b600060ff82169050919050565b61378781613771565b82525050565b60006080820190506137a26000830187613762565b6137af602083018661377e565b6137bc6040830185613762565b6137c96060830184613762565b95945050505050565b7f416464726573733a20696e73756666696369656e742062616c616e636520666f60008201527f722063616c6c0000000000000000000000000000000000000000000000000000602082015250565b600061382e6026836128ca565b9150613839826137d2565b604082019050919050565b6000602082019050818103600083015261385d81613821565b9050919050565b7f416464726573733a2063616c6c20746f206e6f6e2d636f6e7472616374000000600082015250565b600061389a601d836128ca565b91506138a582613864565b602082019050919050565b600060208201905081810360008301526138c98161388d565b9050919050565b600081519050919050565b60006138e6826138d0565b6138f081856128ca565b9350613900818560208601612b3c565b6139098161237e565b840191505092915050565b6000602082019050818103600083015261392e81846138db565b90509291505056fea2646970667358221220b1890d58d98392cc88028388aa9ea39a499be173de295d3e6e69188efe3479fb64736f6c63430008110033",
  "linkReferences": {},
  "deployedLinkReferences": {}
}