{
  "_format": "hh-sol-artifact-1",
  "contractName": "BridgePolygon",
  "sourceName": "contracts/BridgePolygon.sol",
  "abi": [
    {
      "anonymous": false,
      "inputs": [
        {
          "indexed": false,
          "internalType": "address",
          "name": "_from",
          "type": "address"
        },
        {
          "indexed": false,
          "internalType": "address",
          "name": "_to",
          "type": "address"
        },
        {
          "indexed": false,
          "internalType": "enum BridgePolygon.SourceChain",
          "name": "_sourceChain",
          "type": "uint8"
        },
        {
          "indexed": false,
          "internalType": "enum BridgePolygon.DestinationChain",
          "name": "_destinationChain",
          "type": "uint8"
        },
        {
          "indexed": false,
          "internalType": "enum BridgePolygon.SourceChainTokensAvailable",
          "name": "_tokensAvailableFromSourceChain",
          "type": "uint8"
        },
        {
          "indexed": false,
          "internalType": "enum BridgePolygon.DestinationChainTokensAvailable",
          "name": "_tokensAvailableFromDestinationChain",
          "type": "uint8"
        },
        {
          "indexed": true,
          "internalType": "uint256",
          "name": "_value",
          "type": "uint256"
        }
      ],
      "name": "LockedMatic",
      "type": "event"
    },
    {
      "anonymous": false,
      "inputs": [
        {
          "indexed": false,
          "internalType": "address",
          "name": "_token",
          "type": "address"
        },
        {
          "indexed": false,
          "internalType": "address",
          "name": "_from",
          "type": "address"
        },
        {
          "indexed": false,
          "internalType": "address",
          "name": "_to",
          "type": "address"
        },
        {
          "indexed": false,
          "internalType": "enum BridgePolygon.SourceChain",
          "name": "_sourceChain",
          "type": "uint8"
        },
        {
          "indexed": false,
          "internalType": "enum BridgePolygon.DestinationChain",
          "name": "_destinationChain",
          "type": "uint8"
        },
        {
          "indexed": false,
          "internalType": "enum BridgePolygon.SourceChainTokensAvailable",
          "name": "_tokensAvailableFromSourceChain",
          "type": "uint8"
        },
        {
          "indexed": false,
          "internalType": "enum BridgePolygon.DestinationChainTokensAvailable",
          "name": "_tokensAvailableFromDestinationChain",
          "type": "uint8"
        },
        {
          "indexed": true,
          "internalType": "uint256",
          "name": "_amount",
          "type": "uint256"
        }
      ],
      "name": "LockedToken",
      "type": "event"
    },
    {
      "anonymous": false,
      "inputs": [
        {
          "indexed": false,
          "internalType": "address",
          "name": "_from",
          "type": "address"
        },
        {
          "indexed": false,
          "internalType": "address",
          "name": "_to",
          "type": "address"
        },
        {
          "indexed": true,
          "internalType": "uint256",
          "name": "_value",
          "type": "uint256"
        }
      ],
      "name": "MaticTransferedToDestinationChain",
      "type": "event"
    },
    {
      "anonymous": false,
      "inputs": [
        {
          "indexed": true,
          "internalType": "address",
          "name": "previousOwner",
          "type": "address"
        },
        {
          "indexed": true,
          "internalType": "address",
          "name": "newOwner",
          "type": "address"
        }
      ],
      "name": "OwnershipTransferred",
      "type": "event"
    },
    {
      "anonymous": false,
      "inputs": [
        {
          "indexed": false,
          "internalType": "address",
          "name": "_token",
          "type": "address"
        },
        {
          "indexed": false,
          "internalType": "address",
          "name": "_from",
          "type": "address"
        },
        {
          "indexed": false,
          "internalType": "address",
          "name": "_to",
          "type": "address"
        },
        {
          "indexed": true,
          "internalType": "uint256",
          "name": "_amount",
          "type": "uint256"
        }
      ],
      "name": "TokenTransferedToDestinationChain",
      "type": "event"
    },
    {
      "inputs": [
        {
          "internalType": "uint256",
          "name": "newSmartContractFees",
          "type": "uint256"
        }
      ],
      "name": "changeSmartContractFees",
      "outputs": [
        {
          "internalType": "uint256",
          "name": "",
          "type": "uint256"
        }
      ],
      "stateMutability": "nonpayable",
      "type": "function"
    },
    {
      "inputs": [],
      "name": "getSmartContractFees",
      "outputs": [
        {
          "internalType": "uint256",
          "name": "",
          "type": "uint256"
        }
      ],
      "stateMutability": "view",
      "type": "function"
    },
    {
      "inputs": [
        {
          "internalType": "address",
          "name": "tokenAddress",
          "type": "address"
        },
        {
          "internalType": "address",
          "name": "recipient",
          "type": "address"
        }
      ],
      "name": "getTokenBalance",
      "outputs": [
        {
          "internalType": "uint256",
          "name": "",
          "type": "uint256"
        }
      ],
      "stateMutability": "view",
      "type": "function"
    },
    {
      "inputs": [
        {
          "internalType": "enum BridgePolygon.SourceChain",
          "name": "sourceChain",
          "type": "uint8"
        },
        {
          "internalType": "enum BridgePolygon.DestinationChain",
          "name": "destinationChain",
          "type": "uint8"
        },
        {
          "internalType": "enum BridgePolygon.SourceChainTokensAvailable",
          "name": "tokensAvailableFromSourceChain",
          "type": "uint8"
        },
        {
          "internalType": "enum BridgePolygon.DestinationChainTokensAvailable",
          "name": "tokensAvailableFromDestinationChain",
          "type": "uint8"
        },
        {
          "internalType": "uint256",
          "name": "value",
          "type": "uint256"
        },
        {
          "internalType": "bytes32",
          "name": "hash",
          "type": "bytes32"
        },
        {
          "internalType": "bytes",
          "name": "signature",
          "type": "bytes"
        }
      ],
      "name": "lockMatic",
      "outputs": [],
      "stateMutability": "payable",
      "type": "function"
    },
    {
      "inputs": [
        {
          "internalType": "uint256",
          "name": "value",
          "type": "uint256"
        }
      ],
      "name": "lockMaticToContract",
      "outputs": [],
      "stateMutability": "payable",
      "type": "function"
    },
    {
      "inputs": [
        {
          "internalType": "enum BridgePolygon.SourceChain",
          "name": "sourceChain",
          "type": "uint8"
        },
        {
          "internalType": "enum BridgePolygon.DestinationChain",
          "name": "destinationChain",
          "type": "uint8"
        },
        {
          "internalType": "enum BridgePolygon.SourceChainTokensAvailable",
          "name": "tokensAvailableFromSourceChain",
          "type": "uint8"
        },
        {
          "internalType": "enum BridgePolygon.DestinationChainTokensAvailable",
          "name": "tokensAvailableFromDestinationChain",
          "type": "uint8"
        },
        {
          "internalType": "address",
          "name": "tokenAddress",
          "type": "address"
        },
        {
          "internalType": "uint256",
          "name": "amount",
          "type": "uint256"
        },
        {
          "internalType": "bytes32",
          "name": "hash",
          "type": "bytes32"
        },
        {
          "internalType": "bytes",
          "name": "signature",
          "type": "bytes"
        }
      ],
      "name": "lockToken",
      "outputs": [],
      "stateMutability": "nonpayable",
      "type": "function"
    },
    {
      "inputs": [
        {
          "internalType": "address",
          "name": "tokenAddress",
          "type": "address"
        },
        {
          "internalType": "uint256",
          "name": "amount",
          "type": "uint256"
        }
      ],
      "name": "lockTokenToContract",
      "outputs": [],
      "stateMutability": "nonpayable",
      "type": "function"
    },
    {
      "inputs": [],
      "name": "owner",
      "outputs": [
        {
          "internalType": "address",
          "name": "",
          "type": "address"
        }
      ],
      "stateMutability": "view",
      "type": "function"
    },
    {
      "inputs": [],
      "name": "renounceOwnership",
      "outputs": [],
      "stateMutability": "nonpayable",
      "type": "function"
    },
    {
      "inputs": [
        {
          "internalType": "address",
          "name": "recipient",
          "type": "address"
        },
        {
          "internalType": "uint256",
          "name": "value",
          "type": "uint256"
        }
      ],
      "name": "transferMatic",
      "outputs": [],
      "stateMutability": "nonpayable",
      "type": "function"
    },
    {
      "inputs": [
        {
          "internalType": "address",
          "name": "newOwner",
          "type": "address"
        }
      ],
      "name": "transferOwnership",
      "outputs": [],
      "stateMutability": "nonpayable",
      "type": "function"
    },
    {
      "inputs": [
        {
          "internalType": "address",
          "name": "tokenAddress",
          "type": "address"
        },
        {
          "internalType": "address",
          "name": "recipient",
          "type": "address"
        },
        {
          "internalType": "uint256",
          "name": "amount",
          "type": "uint256"
        }
      ],
      "name": "transferToken",
      "outputs": [],
      "stateMutability": "nonpayable",
      "type": "function"
    },
    {
      "inputs": [
        {
          "internalType": "address payable",
          "name": "recipient",
          "type": "address"
        }
      ],
      "name": "withdraw",
      "outputs": [],
      "stateMutability": "nonpayable",
      "type": "function"
    },
    {
      "inputs": [
        {
          "internalType": "address",
          "name": "tokenAddress",
          "type": "address"
        },
        {
          "internalType": "address",
          "name": "recipient",
          "type": "address"
        }
      ],
      "name": "withdrawToken",
      "outputs": [],
      "stateMutability": "nonpayable",
      "type": "function"
    }
  ],
  "bytecode": "0x608060405260026003553480156200001657600080fd5b50620000376200002b6200004460201b60201c565b6200004c60201b60201c565b6001808190555062000110565b600033905090565b60008060009054906101000a900473ffffffffffffffffffffffffffffffffffffffff169050816000806101000a81548173ffffffffffffffffffffffffffffffffffffffff021916908373ffffffffffffffffffffffffffffffffffffffff1602179055508173ffffffffffffffffffffffffffffffffffffffff168173ffffffffffffffffffffffffffffffffffffffff167f8be0079c531659141344cd1fd0a4f28419497f9722a3daafe3b4186f6b6457e060405160405180910390a35050565b61338180620001206000396000f3fe6080604052600436106100dd5760003560e01c8063e1828c111161007f578063f2fde38b11610059578063f2fde38b14610275578063f5537ede1461029e578063f656eece146102c7578063ffa764e614610304576100dd565b8063e1828c11146101fa578063e81884b914610223578063f1597e771461024c576100dd565b8063715018a6116100bb578063715018a6146101505780638da5cb5b146101675780639a3488b614610192578063c489744b146101bd576100dd565b80630bcb2db9146100e25780633aeac4e1146100fe57806351cff8d914610127575b600080fd5b6100fc60048036038101906100f79190611fd1565b610320565b005b34801561010a57600080fd5b50610125600480360381019061012091906120ed565b610681565b005b34801561013357600080fd5b5061014e6004803603810190610149919061216b565b610842565b005b34801561015c57600080fd5b50610165610903565b005b34801561017357600080fd5b5061017c610917565b60405161018991906121a7565b60405180910390f35b34801561019e57600080fd5b506101a7610940565b6040516101b491906121d1565b60405180910390f35b3480156101c957600080fd5b506101e460048036038101906101df91906120ed565b61094a565b6040516101f191906121d1565b60405180910390f35b34801561020657600080fd5b50610221600480360381019061021c91906121ec565b610aba565b005b34801561022f57600080fd5b5061024a600480360381019061024591906122be565b610f0b565b005b34801561025857600080fd5b50610273600480360381019061026e91906122be565b61104c565b005b34801561028157600080fd5b5061029c600480360381019061029791906122fe565b611191565b005b3480156102aa57600080fd5b506102c560048036038101906102c0919061232b565b611214565b005b3480156102d357600080fd5b506102ee60048036038101906102e9919061237e565b611438565b6040516102fb91906121d1565b60405180910390f35b61031e6004803603810190610319919061237e565b611493565b005b610328611533565b6000340361036b576040517f08c379a000000000000000000000000000000000000000000000000000000000815260040161036290612408565b60405180910390fd5b60028081111561037e5761037d612428565b5b87600281111561039157610390612428565b5b1480156103c257506002808111156103ac576103ab612428565b5b8660028111156103bf576103be612428565b5b14155b610401576040517f08c379a00000000000000000000000000000000000000000000000000000000081526004016103f8906124a3565b60405180910390fd5b6002600381111561041557610414612428565b5b85600381111561042857610427612428565b5b1415801561045b57506001600381111561044557610444612428565b5b85600381111561045857610457612428565b5b14155b801561048c57506000600381111561047657610475612428565b5b84600381111561048957610488612428565b5b14155b6104cb576040517f08c379a00000000000000000000000000000000000000000000000000000000081526004016104c29061250f565b60405180910390fd5b82341461050d576040517f08c379a00000000000000000000000000000000000000000000000000000000081526004016105049061257b565b60405180910390fd5b610515610917565b73ffffffffffffffffffffffffffffffffffffffff166105358383611582565b73ffffffffffffffffffffffffffffffffffffffff161461058b576040517f08c379a0000000000000000000000000000000000000000000000000000000008152600401610582906125e7565b60405180910390fd5b60048160405161059b9190612678565b908152602001604051809103902060009054906101000a900460ff16156105f7576040517f08c379a00000000000000000000000000000000000000000000000000000000081526004016105ee906126db565b60405180910390fd5b827f4f232c8d4a44a99e7861a4574a3210b2f46e6305a42b0f3ebfb7984c82876b2533308a8a8a8a6040516106319695949392919061281b565b60405180910390a2600160048260405161064b9190612678565b908152602001604051809103902060006101000a81548160ff0219169083151502179055506106786115c1565b50505050505050565b6106896115ca565b600073ffffffffffffffffffffffffffffffffffffffff168173ffffffffffffffffffffffffffffffffffffffff16036106f8576040517f08c379a00000000000000000000000000000000000000000000000000000000081526004016106ef906128c8565b60405180910390fd5b600082905060008173ffffffffffffffffffffffffffffffffffffffff166370a08231306040518263ffffffff1660e01b815260040161073891906121a7565b602060405180830381865afa158015610755573d6000803e3d6000fd5b505050506040513d601f19601f8201168201806040525081019061077991906128fd565b116107b9576040517f08c379a00000000000000000000000000000000000000000000000000000000081526004016107b090612976565b60405180910390fd5b61083d81838373ffffffffffffffffffffffffffffffffffffffff166370a08231306040518263ffffffff1660e01b81526004016107f791906121a7565b602060405180830381865afa158015610814573d6000803e3d6000fd5b505050506040513d601f19601f8201168201806040525081019061083891906128fd565b611648565b505050565b61084a6115ca565b600073ffffffffffffffffffffffffffffffffffffffff168173ffffffffffffffffffffffffffffffffffffffff16036108b9576040517f08c379a00000000000000000000000000000000000000000000000000000000081526004016108b0906128c8565b60405180910390fd5b8073ffffffffffffffffffffffffffffffffffffffff166108fc479081150290604051600060405180830381858888f193505050501580156108ff573d6000803e3d6000fd5b5050565b61090b6115ca565b61091560006116ce565b565b60008060009054906101000a900473ffffffffffffffffffffffffffffffffffffffff16905090565b6000600354905090565b60006109546115ca565b600073ffffffffffffffffffffffffffffffffffffffff168373ffffffffffffffffffffffffffffffffffffffff16036109c3576040517f08c379a00000000000000000000000000000000000000000000000000000000081526004016109ba906128c8565b60405180910390fd5b600073ffffffffffffffffffffffffffffffffffffffff168273ffffffffffffffffffffffffffffffffffffffff1603610a32576040517f08c379a0000000000000000000000000000000000000000000000000000000008152600401610a29906128c8565b60405180910390fd5b60008390508073ffffffffffffffffffffffffffffffffffffffff166370a08231846040518263ffffffff1660e01b8152600401610a7091906121a7565b602060405180830381865afa158015610a8d573d6000803e3d6000fd5b505050506040513d601f19601f82011682018060405250810190610ab191906128fd565b91505092915050565b60008303610afd576040517f08c379a0000000000000000000000000000000000000000000000000000000008152600401610af490612408565b60405180910390fd5b600280811115610b1057610b0f612428565b5b886002811115610b2357610b22612428565b5b148015610b545750600280811115610b3e57610b3d612428565b5b876002811115610b5157610b50612428565b5b14155b610b93576040517f08c379a0000000000000000000000000000000000000000000000000000000008152600401610b8a906124a3565b60405180910390fd5b60006003811115610ba757610ba6612428565b5b866003811115610bba57610bb9612428565b5b14158015610bed575060016003811115610bd757610bd6612428565b5b866003811115610bea57610be9612428565b5b14155b8015610c1e575060006003811115610c0857610c07612428565b5b856003811115610c1b57610c1a612428565b5b14155b610c5d576040517f08c379a0000000000000000000000000000000000000000000000000000000008152600401610c549061250f565b60405180910390fd5b600073ffffffffffffffffffffffffffffffffffffffff168473ffffffffffffffffffffffffffffffffffffffff1603610ccc576040517f08c379a0000000000000000000000000000000000000000000000000000000008152600401610cc3906128c8565b60405180910390fd5b610cd4610917565b73ffffffffffffffffffffffffffffffffffffffff16610cf48383611582565b73ffffffffffffffffffffffffffffffffffffffff1614610d4a576040517f08c379a0000000000000000000000000000000000000000000000000000000008152600401610d41906125e7565b60405180910390fd5b600481604051610d5a9190612678565b908152602001604051809103902060009054906101000a900460ff1615610db6576040517f08c379a0000000000000000000000000000000000000000000000000000000008152600401610dad906126db565b60405180910390fd5b6000849050838173ffffffffffffffffffffffffffffffffffffffff1663dd62ed3e33306040518363ffffffff1660e01b8152600401610df7929190612996565b602060405180830381865afa158015610e14573d6000803e3d6000fd5b505050506040513d601f19601f82011682018060405250810190610e3891906128fd565b1015610e79576040517f08c379a0000000000000000000000000000000000000000000000000000000008152600401610e7090612a0b565b60405180910390fd5b837f4472c72d0bcf5053f9b751e4fab2043d10268d0bb56b8bc379a6743d297ec4bf8633308d8d8d8d604051610eb59796959493929190612a2b565b60405180910390a2610ec981333087611792565b6001600483604051610edb9190612678565b908152602001604051809103902060006101000a81548160ff021916908315150217905550505050505050505050565b610f136115ca565b610f1b611533565b600073ffffffffffffffffffffffffffffffffffffffff168273ffffffffffffffffffffffffffffffffffffffff1603610f8a576040517f08c379a0000000000000000000000000000000000000000000000000000000008152600401610f8190612ae6565b60405180910390fd5b6000606460035483610f9c9190612b35565b610fa69190612ba6565b90508082610fb49190612bd7565b7f8f893355bade52e7d24f43764aca792f74e6c10c167ac659843ba0204db219573085604051610fe5929190612996565b60405180910390a28273ffffffffffffffffffffffffffffffffffffffff166108fc82846110139190612bd7565b9081150290604051600060405180830381858888f1935050505015801561103e573d6000803e3d6000fd5b50506110486115c1565b5050565b6110546115ca565b6000829050600073ffffffffffffffffffffffffffffffffffffffff168373ffffffffffffffffffffffffffffffffffffffff16036110c8576040517f08c379a00000000000000000000000000000000000000000000000000000000081526004016110bf906128c8565b60405180910390fd5b6000820361110b576040517f08c379a000000000000000000000000000000000000000000000000000000000815260040161110290612408565b60405180910390fd5b8073ffffffffffffffffffffffffffffffffffffffff166323b872dd3330856040518463ffffffff1660e01b815260040161114893929190612c0b565b6020604051808303816000875af1158015611167573d6000803e3d6000fd5b505050506040513d601f19601f8201168201806040525081019061118b9190612c7a565b50505050565b6111996115ca565b600073ffffffffffffffffffffffffffffffffffffffff168173ffffffffffffffffffffffffffffffffffffffff1603611208576040517f08c379a00000000000000000000000000000000000000000000000000000000081526004016111ff90612d19565b60405180910390fd5b611211816116ce565b50565b61121c6115ca565b6000839050600073ffffffffffffffffffffffffffffffffffffffff168473ffffffffffffffffffffffffffffffffffffffff1603611290576040517f08c379a0000000000000000000000000000000000000000000000000000000008152600401611287906128c8565b60405180910390fd5b600073ffffffffffffffffffffffffffffffffffffffff168373ffffffffffffffffffffffffffffffffffffffff16036112ff576040517f08c379a00000000000000000000000000000000000000000000000000000000081526004016112f690612ae6565b60405180910390fd5b60008203611342576040517f08c379a000000000000000000000000000000000000000000000000000000000815260040161133990612408565b60405180910390fd5b60006064600354846113549190612b35565b61135e9190612ba6565b9050808361136c9190612bd7565b7f85647f12ef10ce387990d62d699fab79560d0e6165ced3af12f4ada543a2c74886308760405161139f93929190612d39565b60405180910390a28173ffffffffffffffffffffffffffffffffffffffff1663a9059cbb8583866113d09190612bd7565b6040518363ffffffff1660e01b81526004016113ed929190612d70565b6020604051808303816000875af115801561140c573d6000803e3d6000fd5b505050506040513d601f19601f820116820180604052508101906114309190612c7a565b505050505050565b60006114426115ca565b8160035403611486576040517f08c379a000000000000000000000000000000000000000000000000000000000815260040161147d90612de5565b60405180910390fd5b8160038190559050919050565b61149b6115ca565b6114a3611533565b600034036114e6576040517f08c379a00000000000000000000000000000000000000000000000000000000081526004016114dd90612408565b60405180910390fd5b803414611528576040517f08c379a000000000000000000000000000000000000000000000000000000000815260040161151f9061257b565b60405180910390fd5b6115306115c1565b50565b600260015403611578576040517f08c379a000000000000000000000000000000000000000000000000000000000815260040161156f90612e51565b60405180910390fd5b6002600181905550565b600080836040516020016115969190612ee9565b6040516020818303038152906040528051906020012090506115b8818461181b565b91505092915050565b60018081905550565b6115d2611842565b73ffffffffffffffffffffffffffffffffffffffff166115f0610917565b73ffffffffffffffffffffffffffffffffffffffff1614611646576040517f08c379a000000000000000000000000000000000000000000000000000000000815260040161163d90612f5b565b60405180910390fd5b565b6116c98363a9059cbb60e01b8484604051602401611667929190612d70565b604051602081830303815290604052907bffffffffffffffffffffffffffffffffffffffffffffffffffffffff19166020820180517bffffffffffffffffffffffffffffffffffffffffffffffffffffffff838183161783525050505061184a565b505050565b60008060009054906101000a900473ffffffffffffffffffffffffffffffffffffffff169050816000806101000a81548173ffffffffffffffffffffffffffffffffffffffff021916908373ffffffffffffffffffffffffffffffffffffffff1602179055508173ffffffffffffffffffffffffffffffffffffffff168173ffffffffffffffffffffffffffffffffffffffff167f8be0079c531659141344cd1fd0a4f28419497f9722a3daafe3b4186f6b6457e060405160405180910390a35050565b611815846323b872dd60e01b8585856040516024016117b393929190612c0b565b604051602081830303815290604052907bffffffffffffffffffffffffffffffffffffffffffffffffffffffff19166020820180517bffffffffffffffffffffffffffffffffffffffffffffffffffffffff838183161783525050505061184a565b50505050565b600080600061182a8585611911565b9150915061183781611962565b819250505092915050565b600033905090565b60006118ac826040518060400160405280602081526020017f5361666545524332303a206c6f772d6c6576656c2063616c6c206661696c65648152508573ffffffffffffffffffffffffffffffffffffffff16611ac89092919063ffffffff16565b905060008151111561190c57808060200190518101906118cc9190612c7a565b61190b576040517f08c379a000000000000000000000000000000000000000000000000000000000815260040161190290612fed565b60405180910390fd5b5b505050565b60008060418351036119525760008060006020860151925060408601519150606086015160001a905061194687828585611ae0565b9450945050505061195b565b60006002915091505b9250929050565b6000600481111561197657611975612428565b5b81600481111561198957611988612428565b5b0315611ac557600160048111156119a3576119a2612428565b5b8160048111156119b6576119b5612428565b5b036119f6576040517f08c379a00000000000000000000000000000000000000000000000000000000081526004016119ed90613059565b60405180910390fd5b60026004811115611a0a57611a09612428565b5b816004811115611a1d57611a1c612428565b5b03611a5d576040517f08c379a0000000000000000000000000000000000000000000000000000000008152600401611a54906130c5565b60405180910390fd5b60036004811115611a7157611a70612428565b5b816004811115611a8457611a83612428565b5b03611ac4576040517f08c379a0000000000000000000000000000000000000000000000000000000008152600401611abb90613157565b60405180910390fd5b5b50565b6060611ad78484600085611bc2565b90509392505050565b6000807f7fffffffffffffffffffffffffffffff5d576e7357a4501ddfe92f46681b20a08360001c1115611b1b576000600391509150611bb9565b600060018787878760405160008152602001604052604051611b4094939291906131a2565b6020604051602081039080840390855afa158015611b62573d6000803e3d6000fd5b505050602060405103519050600073ffffffffffffffffffffffffffffffffffffffff168173ffffffffffffffffffffffffffffffffffffffff1603611bb057600060019250925050611bb9565b80600092509250505b94509492505050565b606082471015611c07576040517f08c379a0000000000000000000000000000000000000000000000000000000008152600401611bfe90613259565b60405180910390fd5b6000808673ffffffffffffffffffffffffffffffffffffffff168587604051611c309190612678565b60006040518083038185875af1925050503d8060008114611c6d576040519150601f19603f3d011682016040523d82523d6000602084013e611c72565b606091505b5091509150611c8387838387611c8f565b92505050949350505050565b60608315611cf1576000835103611ce957611ca985611d04565b611ce8576040517f08c379a0000000000000000000000000000000000000000000000000000000008152600401611cdf906132c5565b60405180910390fd5b5b829050611cfc565b611cfb8383611d27565b5b949350505050565b6000808273ffffffffffffffffffffffffffffffffffffffff163b119050919050565b600082511115611d3a5781518083602001fd5b806040517f08c379a0000000000000000000000000000000000000000000000000000000008152600401611d6e9190613329565b60405180910390fd5b6000604051905090565b600080fd5b600080fd5b60038110611d9857600080fd5b50565b600081359050611daa81611d8b565b92915050565b60038110611dbd57600080fd5b50565b600081359050611dcf81611db0565b92915050565b60048110611de257600080fd5b50565b600081359050611df481611dd5565b92915050565b60048110611e0757600080fd5b50565b600081359050611e1981611dfa565b92915050565b6000819050919050565b611e3281611e1f565b8114611e3d57600080fd5b50565b600081359050611e4f81611e29565b92915050565b6000819050919050565b611e6881611e55565b8114611e7357600080fd5b50565b600081359050611e8581611e5f565b92915050565b600080fd5b600080fd5b6000601f19601f8301169050919050565b7f4e487b7100000000000000000000000000000000000000000000000000000000600052604160045260246000fd5b611ede82611e95565b810181811067ffffffffffffffff82111715611efd57611efc611ea6565b5b80604052505050565b6000611f10611d77565b9050611f1c8282611ed5565b919050565b600067ffffffffffffffff821115611f3c57611f3b611ea6565b5b611f4582611e95565b9050602081019050919050565b82818337600083830152505050565b6000611f74611f6f84611f21565b611f06565b905082815260208101848484011115611f9057611f8f611e90565b5b611f9b848285611f52565b509392505050565b600082601f830112611fb857611fb7611e8b565b5b8135611fc8848260208601611f61565b91505092915050565b600080600080600080600060e0888a031215611ff057611fef611d81565b5b6000611ffe8a828b01611d9b565b975050602061200f8a828b01611dc0565b96505060406120208a828b01611de5565b95505060606120318a828b01611e0a565b94505060806120428a828b01611e40565b93505060a06120538a828b01611e76565b92505060c088013567ffffffffffffffff81111561207457612073611d86565b5b6120808a828b01611fa3565b91505092959891949750929550565b600073ffffffffffffffffffffffffffffffffffffffff82169050919050565b60006120ba8261208f565b9050919050565b6120ca816120af565b81146120d557600080fd5b50565b6000813590506120e7816120c1565b92915050565b6000806040838503121561210457612103611d81565b5b6000612112858286016120d8565b9250506020612123858286016120d8565b9150509250929050565b60006121388261208f565b9050919050565b6121488161212d565b811461215357600080fd5b50565b6000813590506121658161213f565b92915050565b60006020828403121561218157612180611d81565b5b600061218f84828501612156565b91505092915050565b6121a1816120af565b82525050565b60006020820190506121bc6000830184612198565b92915050565b6121cb81611e1f565b82525050565b60006020820190506121e660008301846121c2565b92915050565b600080600080600080600080610100898b03121561220d5761220c611d81565b5b600061221b8b828c01611d9b565b985050602061222c8b828c01611dc0565b975050604061223d8b828c01611de5565b965050606061224e8b828c01611e0a565b955050608061225f8b828c016120d8565b94505060a06122708b828c01611e40565b93505060c06122818b828c01611e76565b92505060e089013567ffffffffffffffff8111156122a2576122a1611d86565b5b6122ae8b828c01611fa3565b9150509295985092959890939650565b600080604083850312156122d5576122d4611d81565b5b60006122e3858286016120d8565b92505060206122f485828601611e40565b9150509250929050565b60006020828403121561231457612313611d81565b5b6000612322848285016120d8565b91505092915050565b60008060006060848603121561234457612343611d81565b5b6000612352868287016120d8565b9350506020612363868287016120d8565b925050604061237486828701611e40565b9150509250925092565b60006020828403121561239457612393611d81565b5b60006123a284828501611e40565b91505092915050565b600082825260208201905092915050565b7f496e73756666696369656e7420616d6f756e7400000000000000000000000000600082015250565b60006123f26013836123ab565b91506123fd826123bc565b602082019050919050565b60006020820190508181036000830152612421816123e5565b9050919050565b7f4e487b7100000000000000000000000000000000000000000000000000000000600052602160045260246000fd5b7f496e76616c696420636861696e00000000000000000000000000000000000000600082015250565b600061248d600d836123ab565b915061249882612457565b602082019050919050565b600060208201905081810360008301526124bc81612480565b9050919050565b7f496e76616c696420746f6b656e00000000000000000000000000000000000000600082015250565b60006124f9600d836123ab565b9150612504826124c3565b602082019050919050565b60006020820190508181036000830152612528816124ec565b9050919050565b7f56616c75652073686f756c64206265206d617463680000000000000000000000600082015250565b60006125656015836123ab565b91506125708261252f565b602082019050919050565b6000602082019050818103600083015261259481612558565b9050919050565b7f41646472657373206973206e6f7420617574686f72697a656400000000000000600082015250565b60006125d16019836123ab565b91506125dc8261259b565b602082019050919050565b60006020820190508181036000830152612600816125c4565b9050919050565b600081519050919050565b600081905092915050565b60005b8381101561263b578082015181840152602081019050612620565b60008484015250505050565b600061265282612607565b61265c8185612612565b935061266c81856020860161261d565b80840191505092915050565b60006126848284612647565b915081905092915050565b7f416c7265616479207369676e6174757265207573656400000000000000000000600082015250565b60006126c56016836123ab565b91506126d08261268f565b602082019050919050565b600060208201905081810360008301526126f4816126b8565b9050919050565b6003811061270c5761270b612428565b5b50565b600081905061271d826126fb565b919050565b600061272d8261270f565b9050919050565b61273d81612722565b82525050565b6003811061275457612753612428565b5b50565b600081905061276582612743565b919050565b600061277582612757565b9050919050565b6127858161276a565b82525050565b6004811061279c5761279b612428565b5b50565b60008190506127ad8261278b565b919050565b60006127bd8261279f565b9050919050565b6127cd816127b2565b82525050565b600481106127e4576127e3612428565b5b50565b60008190506127f5826127d3565b919050565b6000612805826127e7565b9050919050565b612815816127fa565b82525050565b600060c0820190506128306000830189612198565b61283d6020830188612198565b61284a6040830187612734565b612857606083018661277c565b61286460808301856127c4565b61287160a083018461280c565b979650505050505050565b7f416464726573732063616e6e6f74206265207a65726f00000000000000000000600082015250565b60006128b26016836123ab565b91506128bd8261287c565b602082019050919050565b600060208201905081810360008301526128e1816128a5565b9050919050565b6000815190506128f781611e29565b92915050565b60006020828403121561291357612912611d81565b5b6000612921848285016128e8565b91505092915050565b7f496e73756666696369656e742062616c616e6365000000000000000000000000600082015250565b60006129606014836123ab565b915061296b8261292a565b602082019050919050565b6000602082019050818103600083015261298f81612953565b9050919050565b60006040820190506129ab6000830185612198565b6129b86020830184612198565b9392505050565b7f436865636b2074686520746f6b656e20616c6c6f77616e636500000000000000600082015250565b60006129f56019836123ab565b9150612a00826129bf565b602082019050919050565b60006020820190508181036000830152612a24816129e8565b9050919050565b600060e082019050612a40600083018a612198565b612a4d6020830189612198565b612a5a6040830188612198565b612a676060830187612734565b612a74608083018661277c565b612a8160a08301856127c4565b612a8e60c083018461280c565b98975050505050505050565b7f416464726573732063616e6e6f74206265203000000000000000000000000000600082015250565b6000612ad06013836123ab565b9150612adb82612a9a565b602082019050919050565b60006020820190508181036000830152612aff81612ac3565b9050919050565b7f4e487b7100000000000000000000000000000000000000000000000000000000600052601160045260246000fd5b6000612b4082611e1f565b9150612b4b83611e1f565b9250828202612b5981611e1f565b91508282048414831517612b7057612b6f612b06565b5b5092915050565b7f4e487b7100000000000000000000000000000000000000000000000000000000600052601260045260246000fd5b6000612bb182611e1f565b9150612bbc83611e1f565b925082612bcc57612bcb612b77565b5b828204905092915050565b6000612be282611e1f565b9150612bed83611e1f565b9250828203905081811115612c0557612c04612b06565b5b92915050565b6000606082019050612c206000830186612198565b612c2d6020830185612198565b612c3a60408301846121c2565b949350505050565b60008115159050919050565b612c5781612c42565b8114612c6257600080fd5b50565b600081519050612c7481612c4e565b92915050565b600060208284031215612c9057612c8f611d81565b5b6000612c9e84828501612c65565b91505092915050565b7f4f776e61626c653a206e6577206f776e657220697320746865207a65726f206160008201527f6464726573730000000000000000000000000000000000000000000000000000602082015250565b6000612d036026836123ab565b9150612d0e82612ca7565b604082019050919050565b60006020820190508181036000830152612d3281612cf6565b9050919050565b6000606082019050612d4e6000830186612198565b612d5b6020830185612198565b612d686040830184612198565b949350505050565b6000604082019050612d856000830185612198565b612d9260208301846121c2565b9392505050565b7f53616d65206665657320616c6c6f636174656400000000000000000000000000600082015250565b6000612dcf6013836123ab565b9150612dda82612d99565b602082019050919050565b60006020820190508181036000830152612dfe81612dc2565b9050919050565b7f5265656e7472616e637947756172643a207265656e7472616e742063616c6c00600082015250565b6000612e3b601f836123ab565b9150612e4682612e05565b602082019050919050565b60006020820190508181036000830152612e6a81612e2e565b9050919050565b600081905092915050565b7f19457468657265756d205369676e6564204d6573736167653a0a333200000000600082015250565b6000612eb2601c83612e71565b9150612ebd82612e7c565b601c82019050919050565b6000819050919050565b612ee3612ede82611e55565b612ec8565b82525050565b6000612ef482612ea5565b9150612f008284612ed2565b60208201915081905092915050565b7f4f776e61626c653a2063616c6c6572206973206e6f7420746865206f776e6572600082015250565b6000612f456020836123ab565b9150612f5082612f0f565b602082019050919050565b60006020820190508181036000830152612f7481612f38565b9050919050565b7f5361666545524332303a204552433230206f7065726174696f6e20646964206e60008201527f6f74207375636365656400000000000000000000000000000000000000000000602082015250565b6000612fd7602a836123ab565b9150612fe282612f7b565b604082019050919050565b6000602082019050818103600083015261300681612fca565b9050919050565b7f45434453413a20696e76616c6964207369676e61747572650000000000000000600082015250565b60006130436018836123ab565b915061304e8261300d565b602082019050919050565b6000602082019050818103600083015261307281613036565b9050919050565b7f45434453413a20696e76616c6964207369676e6174757265206c656e67746800600082015250565b60006130af601f836123ab565b91506130ba82613079565b602082019050919050565b600060208201905081810360008301526130de816130a2565b9050919050565b7f45434453413a20696e76616c6964207369676e6174757265202773272076616c60008201527f7565000000000000000000000000000000000000000000000000000000000000602082015250565b60006131416022836123ab565b915061314c826130e5565b604082019050919050565b6000602082019050818103600083015261317081613134565b9050919050565b61318081611e55565b82525050565b600060ff82169050919050565b61319c81613186565b82525050565b60006080820190506131b76000830187613177565b6131c46020830186613193565b6131d16040830185613177565b6131de6060830184613177565b95945050505050565b7f416464726573733a20696e73756666696369656e742062616c616e636520666f60008201527f722063616c6c0000000000000000000000000000000000000000000000000000602082015250565b60006132436026836123ab565b915061324e826131e7565b604082019050919050565b6000602082019050818103600083015261327281613236565b9050919050565b7f416464726573733a2063616c6c20746f206e6f6e2d636f6e7472616374000000600082015250565b60006132af601d836123ab565b91506132ba82613279565b602082019050919050565b600060208201905081810360008301526132de816132a2565b9050919050565b600081519050919050565b60006132fb826132e5565b61330581856123ab565b935061331581856020860161261d565b61331e81611e95565b840191505092915050565b6000602082019050818103600083015261334381846132f0565b90509291505056fea264697066735822122018178de3c11a2284091d2181cd3682e24938bb78aeb0d3b5204c0b0fde8f21ce64736f6c63430008110033",
  "linkReferences": {},
  "deployedLinkReferences": {}
}