{
  "_format": "hh-sol-artifact-1",
  "contractName": "Token",
  "sourceName": "contracts/token.sol",
  "abi": [
    {
      "inputs": [],
      "stateMutability": "nonpayable",
      "type": "constructor"
    },
    {
      "anonymous": false,
      "inputs": [
        {
          "indexed": true,
          "internalType": "address",
          "name": "owner",
          "type": "address"
        },
        {
          "indexed": true,
          "internalType": "address",
          "name": "approved",
          "type": "address"
        },
        {
          "indexed": true,
          "internalType": "uint256",
          "name": "tokenId",
          "type": "uint256"
        }
      ],
      "name": "Approval",
      "type": "event"
    },
    {
      "anonymous": false,
      "inputs": [
        {
          "indexed": true,
          "internalType": "address",
          "name": "owner",
          "type": "address"
        },
        {
          "indexed": true,
          "internalType": "address",
          "name": "operator",
          "type": "address"
        },
        {
          "indexed": false,
          "internalType": "bool",
          "name": "approved",
          "type": "bool"
        }
      ],
      "name": "ApprovalForAll",
      "type": "event"
    },
    {
      "anonymous": false,
      "inputs": [
        {
          "indexed": true,
          "internalType": "address",
          "name": "previousOwner",
          "type": "address"
        },
        {
          "indexed": true,
          "internalType": "address",
          "name": "newOwner",
          "type": "address"
        }
      ],
      "name": "OwnershipTransferred",
      "type": "event"
    },
    {
      "anonymous": false,
      "inputs": [
        {
          "indexed": true,
          "internalType": "address",
          "name": "from",
          "type": "address"
        },
        {
          "indexed": true,
          "internalType": "address",
          "name": "to",
          "type": "address"
        },
        {
          "indexed": true,
          "internalType": "uint256",
          "name": "tokenId",
          "type": "uint256"
        }
      ],
      "name": "Transfer",
      "type": "event"
    },
    {
      "inputs": [
        {
          "internalType": "address",
          "name": "to",
          "type": "address"
        },
        {
          "internalType": "uint256",
          "name": "tokenId",
          "type": "uint256"
        }
      ],
      "name": "approve",
      "outputs": [],
      "stateMutability": "nonpayable",
      "type": "function"
    },
    {
      "inputs": [
        {
          "internalType": "address",
          "name": "owner",
          "type": "address"
        }
      ],
      "name": "balanceOf",
      "outputs": [
        {
          "internalType": "uint256",
          "name": "",
          "type": "uint256"
        }
      ],
      "stateMutability": "view",
      "type": "function"
    },
    {
      "inputs": [
        {
          "internalType": "uint256",
          "name": "tokenId",
          "type": "uint256"
        }
      ],
      "name": "getApproved",
      "outputs": [
        {
          "internalType": "address",
          "name": "",
          "type": "address"
        }
      ],
      "stateMutability": "view",
      "type": "function"
    },
    {
      "inputs": [
        {
          "internalType": "address",
          "name": "owner",
          "type": "address"
        },
        {
          "internalType": "address",
          "name": "operator",
          "type": "address"
        }
      ],
      "name": "isApprovedForAll",
      "outputs": [
        {
          "internalType": "bool",
          "name": "",
          "type": "bool"
        }
      ],
      "stateMutability": "view",
      "type": "function"
    },
    {
      "inputs": [],
      "name": "name",
      "outputs": [
        {
          "internalType": "string",
          "name": "",
          "type": "string"
        }
      ],
      "stateMutability": "view",
      "type": "function"
    },
    {
      "inputs": [],
      "name": "owner",
      "outputs": [
        {
          "internalType": "address",
          "name": "",
          "type": "address"
        }
      ],
      "stateMutability": "view",
      "type": "function"
    },
    {
      "inputs": [
        {
          "internalType": "uint256",
          "name": "tokenId",
          "type": "uint256"
        }
      ],
      "name": "ownerOf",
      "outputs": [
        {
          "internalType": "address",
          "name": "",
          "type": "address"
        }
      ],
      "stateMutability": "view",
      "type": "function"
    },
    {
      "inputs": [],
      "name": "renounceOwnership",
      "outputs": [],
      "stateMutability": "nonpayable",
      "type": "function"
    },
    {
      "inputs": [
        {
          "internalType": "address",
          "name": "to",
          "type": "address"
        },
        {
          "internalType": "uint256",
          "name": "tokenId",
          "type": "uint256"
        }
      ],
      "name": "safeMint",
      "outputs": [],
      "stateMutability": "nonpayable",
      "type": "function"
    },
    {
      "inputs": [
        {
          "internalType": "address",
          "name": "from",
          "type": "address"
        },
        {
          "internalType": "address",
          "name": "to",
          "type": "address"
        },
        {
          "internalType": "uint256",
          "name": "tokenId",
          "type": "uint256"
        }
      ],
      "name": "safeTransferFrom",
      "outputs": [],
      "stateMutability": "nonpayable",
      "type": "function"
    },
    {
      "inputs": [
        {
          "internalType": "address",
          "name": "from",
          "type": "address"
        },
        {
          "internalType": "address",
          "name": "to",
          "type": "address"
        },
        {
          "internalType": "uint256",
          "name": "tokenId",
          "type": "uint256"
        },
        {
          "internalType": "bytes",
          "name": "data",
          "type": "bytes"
        }
      ],
      "name": "safeTransferFrom",
      "outputs": [],
      "stateMutability": "nonpayable",
      "type": "function"
    },
    {
      "inputs": [
        {
          "internalType": "address",
          "name": "operator",
          "type": "address"
        },
        {
          "internalType": "bool",
          "name": "approved",
          "type": "bool"
        }
      ],
      "name": "setApprovalForAll",
      "outputs": [],
      "stateMutability": "nonpayable",
      "type": "function"
    },
    {
      "inputs": [
        {
          "internalType": "bytes4",
          "name": "interfaceId",
          "type": "bytes4"
        }
      ],
      "name": "supportsInterface",
      "outputs": [
        {
          "internalType": "bool",
          "name": "",
          "type": "bool"
        }
      ],
      "stateMutability": "view",
      "type": "function"
    },
    {
      "inputs": [],
      "name": "symbol",
      "outputs": [
        {
          "internalType": "string",
          "name": "",
          "type": "string"
        }
      ],
      "stateMutability": "view",
      "type": "function"
    },
    {
      "inputs": [
        {
          "internalType": "uint256",
          "name": "tokenId",
          "type": "uint256"
        }
      ],
      "name": "tokenURI",
      "outputs": [
        {
          "internalType": "string",
          "name": "",
          "type": "string"
        }
      ],
      "stateMutability": "view",
      "type": "function"
    },
    {
      "inputs": [
        {
          "internalType": "address",
          "name": "from",
          "type": "address"
        },
        {
          "internalType": "address",
          "name": "to",
          "type": "address"
        },
        {
          "internalType": "uint256",
          "name": "tokenId",
          "type": "uint256"
        }
      ],
      "name": "transferFrom",
      "outputs": [],
      "stateMutability": "nonpayable",
      "type": "function"
    },
    {
      "inputs": [
        {
          "internalType": "address",
          "name": "newOwner",
          "type": "address"
        }
      ],
      "name": "transferOwnership",
      "outputs": [],
      "stateMutability": "nonpayable",
      "type": "function"
    }
  ],
  "bytecode": "0x60806040523480156200001157600080fd5b506040518060400160405280600781526020017f4d79546f6b656e000000000000000000000000000000000000000000000000008152506040518060400160405280600381526020017f4d544b0000000000000000000000000000000000000000000000000000000000815250816000908051906020019062000096929190620001a6565b508060019080519060200190620000af929190620001a6565b505050620000d2620000c6620000d860201b60201c565b620000e060201b60201c565b620002bb565b600033905090565b6000600660009054906101000a900473ffffffffffffffffffffffffffffffffffffffff16905081600660006101000a81548173ffffffffffffffffffffffffffffffffffffffff021916908373ffffffffffffffffffffffffffffffffffffffff1602179055508173ffffffffffffffffffffffffffffffffffffffff168173ffffffffffffffffffffffffffffffffffffffff167f8be0079c531659141344cd1fd0a4f28419497f9722a3daafe3b4186f6b6457e060405160405180910390a35050565b828054620001b49062000256565b90600052602060002090601f016020900481019282620001d8576000855562000224565b82601f10620001f357805160ff191683800117855562000224565b8280016001018555821562000224579182015b828111156200022357825182559160200191906001019062000206565b5b50905062000233919062000237565b5090565b5b808211156200025257600081600090555060010162000238565b5090565b600060028204905060018216806200026f57607f821691505b602082108114156200028657620002856200028c565b5b50919050565b7f4e487b7100000000000000000000000000000000000000000000000000000000600052602260045260246000fd5b612a4780620002cb6000396000f3fe608060405234801561001057600080fd5b506004361061010b5760003560e01c8063715018a6116100a2578063a22cb46511610071578063a22cb465146102a4578063b88d4fde146102c0578063c87b56dd146102dc578063e985e9c51461030c578063f2fde38b1461033c5761010b565b8063715018a6146102425780638da5cb5b1461024c57806395d89b411461026a578063a1448194146102885761010b565b806323b872dd116100de57806323b872dd146101aa57806342842e0e146101c65780636352211e146101e257806370a08231146102125761010b565b806301ffc9a71461011057806306fdde0314610140578063081812fc1461015e578063095ea7b31461018e575b600080fd5b61012a60048036038101906101259190611db2565b610358565b604051610137919061215b565b60405180910390f35b61014861043a565b6040516101559190612176565b60405180910390f35b61017860048036038101906101739190611e0c565b6104cc565b60405161018591906120f4565b60405180910390f35b6101a860048036038101906101a39190611d72565b610512565b005b6101c460048036038101906101bf9190611c5c565b61062a565b005b6101e060048036038101906101db9190611c5c565b61068a565b005b6101fc60048036038101906101f79190611e0c565b6106aa565b60405161020991906120f4565b60405180910390f35b61022c60048036038101906102279190611bef565b610731565b6040516102399190612338565b60405180910390f35b61024a6107e9565b005b6102546107fd565b60405161026191906120f4565b60405180910390f35b610272610827565b60405161027f9190612176565b60405180910390f35b6102a2600480360381019061029d9190611d72565b6108b9565b005b6102be60048036038101906102b99190611d32565b6108cf565b005b6102da60048036038101906102d59190611caf565b6108e5565b005b6102f660048036038101906102f19190611e0c565b610947565b6040516103039190612176565b60405180910390f35b61032660048036038101906103219190611c1c565b6109af565b604051610333919061215b565b60405180910390f35b61035660048036038101906103519190611bef565b610a43565b005b60007f80ac58cd000000000000000000000000000000000000000000000000000000007bffffffffffffffffffffffffffffffffffffffffffffffffffffffff1916827bffffffffffffffffffffffffffffffffffffffffffffffffffffffff1916148061042357507f5b5e139f000000000000000000000000000000000000000000000000000000007bffffffffffffffffffffffffffffffffffffffffffffffffffffffff1916827bffffffffffffffffffffffffffffffffffffffffffffffffffffffff1916145b80610433575061043282610ac7565b5b9050919050565b6060600080546104499061252c565b80601f01602080910402602001604051908101604052809291908181526020018280546104759061252c565b80156104c25780601f10610497576101008083540402835291602001916104c2565b820191906000526020600020905b8154815290600101906020018083116104a557829003601f168201915b5050505050905090565b60006104d782610b31565b6004600083815260200190815260200160002060009054906101000a900473ffffffffffffffffffffffffffffffffffffffff169050919050565b600061051d826106aa565b90508073ffffffffffffffffffffffffffffffffffffffff168373ffffffffffffffffffffffffffffffffffffffff16141561058e576040517f08c379a0000000000000000000000000000000000000000000000000000000008152600401610585906122f8565b60405180910390fd5b8073ffffffffffffffffffffffffffffffffffffffff166105ad610b7c565b73ffffffffffffffffffffffffffffffffffffffff1614806105dc57506105db816105d6610b7c565b6109af565b5b61061b576040517f08c379a000000000000000000000000000000000000000000000000000000000815260040161061290612318565b60405180910390fd5b6106258383610b84565b505050565b61063b610635610b7c565b82610c3d565b61067a576040517f08c379a000000000000000000000000000000000000000000000000000000000815260040161067190612198565b60405180910390fd5b610685838383610cd2565b505050565b6106a5838383604051806020016040528060008152506108e5565b505050565b6000806106b683610fcc565b9050600073ffffffffffffffffffffffffffffffffffffffff168173ffffffffffffffffffffffffffffffffffffffff161415610728576040517f08c379a000000000000000000000000000000000000000000000000000000000815260040161071f906122d8565b60405180910390fd5b80915050919050565b60008073ffffffffffffffffffffffffffffffffffffffff168273ffffffffffffffffffffffffffffffffffffffff1614156107a2576040517f08c379a000000000000000000000000000000000000000000000000000000000815260040161079990612278565b60405180910390fd5b600360008373ffffffffffffffffffffffffffffffffffffffff1673ffffffffffffffffffffffffffffffffffffffff168152602001908152602001600020549050919050565b6107f1611009565b6107fb6000611087565b565b6000600660009054906101000a900473ffffffffffffffffffffffffffffffffffffffff16905090565b6060600180546108369061252c565b80601f01602080910402602001604051908101604052809291908181526020018280546108629061252c565b80156108af5780601f10610884576101008083540402835291602001916108af565b820191906000526020600020905b81548152906001019060200180831161089257829003601f168201915b5050505050905090565b6108c1611009565b6108cb828261114d565b5050565b6108e16108da610b7c565b838361116b565b5050565b6108f66108f0610b7c565b83610c3d565b610935576040517f08c379a000000000000000000000000000000000000000000000000000000000815260040161092c90612198565b60405180910390fd5b610941848484846112d8565b50505050565b606061095282610b31565b600061095c611334565b9050600081511161097c57604051806020016040528060008152506109a7565b806109868461134b565b6040516020016109979291906120d0565b6040516020818303038152906040525b915050919050565b6000600560008473ffffffffffffffffffffffffffffffffffffffff1673ffffffffffffffffffffffffffffffffffffffff16815260200190815260200160002060008373ffffffffffffffffffffffffffffffffffffffff1673ffffffffffffffffffffffffffffffffffffffff16815260200190815260200160002060009054906101000a900460ff16905092915050565b610a4b611009565b600073ffffffffffffffffffffffffffffffffffffffff168173ffffffffffffffffffffffffffffffffffffffff161415610abb576040517f08c379a0000000000000000000000000000000000000000000000000000000008152600401610ab2906121d8565b60405180910390fd5b610ac481611087565b50565b60007f01ffc9a7000000000000000000000000000000000000000000000000000000007bffffffffffffffffffffffffffffffffffffffffffffffffffffffff1916827bffffffffffffffffffffffffffffffffffffffffffffffffffffffff1916149050919050565b610b3a81611423565b610b79576040517f08c379a0000000000000000000000000000000000000000000000000000000008152600401610b70906122d8565b60405180910390fd5b50565b600033905090565b816004600083815260200190815260200160002060006101000a81548173ffffffffffffffffffffffffffffffffffffffff021916908373ffffffffffffffffffffffffffffffffffffffff160217905550808273ffffffffffffffffffffffffffffffffffffffff16610bf7836106aa565b73ffffffffffffffffffffffffffffffffffffffff167f8c5be1e5ebec7d5bd14f71427d1e84f3dd0314c0f7b2291e5b200ac8c7c3b92560405160405180910390a45050565b600080610c49836106aa565b90508073ffffffffffffffffffffffffffffffffffffffff168473ffffffffffffffffffffffffffffffffffffffff161480610c8b5750610c8a81856109af565b5b80610cc957508373ffffffffffffffffffffffffffffffffffffffff16610cb1846104cc565b73ffffffffffffffffffffffffffffffffffffffff16145b91505092915050565b8273ffffffffffffffffffffffffffffffffffffffff16610cf2826106aa565b73ffffffffffffffffffffffffffffffffffffffff1614610d48576040517f08c379a0000000000000000000000000000000000000000000000000000000008152600401610d3f906121f8565b60405180910390fd5b600073ffffffffffffffffffffffffffffffffffffffff168273ffffffffffffffffffffffffffffffffffffffff161415610db8576040517f08c379a0000000000000000000000000000000000000000000000000000000008152600401610daf90612238565b60405180910390fd5b610dc58383836001611464565b8273ffffffffffffffffffffffffffffffffffffffff16610de5826106aa565b73ffffffffffffffffffffffffffffffffffffffff1614610e3b576040517f08c379a0000000000000000000000000000000000000000000000000000000008152600401610e32906121f8565b60405180910390fd5b6004600082815260200190815260200160002060006101000a81549073ffffffffffffffffffffffffffffffffffffffff02191690556001600360008573ffffffffffffffffffffffffffffffffffffffff1673ffffffffffffffffffffffffffffffffffffffff168152602001908152602001600020600082825403925050819055506001600360008473ffffffffffffffffffffffffffffffffffffffff1673ffffffffffffffffffffffffffffffffffffffff16815260200190815260200160002060008282540192505081905550816002600083815260200190815260200160002060006101000a81548173ffffffffffffffffffffffffffffffffffffffff021916908373ffffffffffffffffffffffffffffffffffffffff160217905550808273ffffffffffffffffffffffffffffffffffffffff168473ffffffffffffffffffffffffffffffffffffffff167fddf252ad1be2c89b69c2b068fc378daa952ba7f163c4a11628f55a4df523b3ef60405160405180910390a4610fc7838383600161158a565b505050565b60006002600083815260200190815260200160002060009054906101000a900473ffffffffffffffffffffffffffffffffffffffff169050919050565b611011610b7c565b73ffffffffffffffffffffffffffffffffffffffff1661102f6107fd565b73ffffffffffffffffffffffffffffffffffffffff1614611085576040517f08c379a000000000000000000000000000000000000000000000000000000000815260040161107c906122b8565b60405180910390fd5b565b6000600660009054906101000a900473ffffffffffffffffffffffffffffffffffffffff16905081600660006101000a81548173ffffffffffffffffffffffffffffffffffffffff021916908373ffffffffffffffffffffffffffffffffffffffff1602179055508173ffffffffffffffffffffffffffffffffffffffff168173ffffffffffffffffffffffffffffffffffffffff167f8be0079c531659141344cd1fd0a4f28419497f9722a3daafe3b4186f6b6457e060405160405180910390a35050565b611167828260405180602001604052806000815250611590565b5050565b8173ffffffffffffffffffffffffffffffffffffffff168373ffffffffffffffffffffffffffffffffffffffff1614156111da576040517f08c379a00000000000000000000000000000000000000000000000000000000081526004016111d190612258565b60405180910390fd5b80600560008573ffffffffffffffffffffffffffffffffffffffff1673ffffffffffffffffffffffffffffffffffffffff16815260200190815260200160002060008473ffffffffffffffffffffffffffffffffffffffff1673ffffffffffffffffffffffffffffffffffffffff16815260200190815260200160002060006101000a81548160ff0219169083151502179055508173ffffffffffffffffffffffffffffffffffffffff168373ffffffffffffffffffffffffffffffffffffffff167f17307eab39ab6107e8899845ad3d59bd9653f200f220920489ca2b5937696c31836040516112cb919061215b565b60405180910390a3505050565b6112e3848484610cd2565b6112ef848484846115eb565b61132e576040517f08c379a0000000000000000000000000000000000000000000000000000000008152600401611325906121b8565b60405180910390fd5b50505050565b606060405180602001604052806000815250905090565b60606000600161135a84611782565b01905060008167ffffffffffffffff8111156113795761137861261c565b5b6040519080825280601f01601f1916602001820160405280156113ab5781602001600182028036833780820191505090505b509050600082602001820190505b600115611418578080600190039150507f3031323334353637383961626364656600000000000000000000000000000000600a86061a8153600a8581611402576114016125be565b5b049450600085141561141357611418565b6113b9565b819350505050919050565b60008073ffffffffffffffffffffffffffffffffffffffff1661144583610fcc565b73ffffffffffffffffffffffffffffffffffffffff1614159050919050565b600181111561158457600073ffffffffffffffffffffffffffffffffffffffff168473ffffffffffffffffffffffffffffffffffffffff16146114f85780600360008673ffffffffffffffffffffffffffffffffffffffff1673ffffffffffffffffffffffffffffffffffffffff16815260200190815260200160002060008282546114f09190612442565b925050819055505b600073ffffffffffffffffffffffffffffffffffffffff168373ffffffffffffffffffffffffffffffffffffffff16146115835780600360008573ffffffffffffffffffffffffffffffffffffffff1673ffffffffffffffffffffffffffffffffffffffff168152602001908152602001600020600082825461157b91906123ec565b925050819055505b5b50505050565b50505050565b61159a83836118d5565b6115a760008484846115eb565b6115e6576040517f08c379a00000000000000000000000000000000000000000000000000000000081526004016115dd906121b8565b60405180910390fd5b505050565b600061160c8473ffffffffffffffffffffffffffffffffffffffff16611af3565b15611775578373ffffffffffffffffffffffffffffffffffffffff1663150b7a02611635610b7c565b8786866040518563ffffffff1660e01b8152600401611657949392919061210f565b602060405180830381600087803b15801561167157600080fd5b505af19250505080156116a257506040513d601f19601f8201168201806040525081019061169f9190611ddf565b60015b611725573d80600081146116d2576040519150601f19603f3d011682016040523d82523d6000602084013e6116d7565b606091505b5060008151141561171d576040517f08c379a0000000000000000000000000000000000000000000000000000000008152600401611714906121b8565b60405180910390fd5b805181602001fd5b63150b7a0260e01b7bffffffffffffffffffffffffffffffffffffffffffffffffffffffff1916817bffffffffffffffffffffffffffffffffffffffffffffffffffffffff19161491505061177a565b600190505b949350505050565b600080600090507a184f03e93ff9f4daa797ed6e38ed64bf6a1f01000000000000000083106117e0577a184f03e93ff9f4daa797ed6e38ed64bf6a1f01000000000000000083816117d6576117d56125be565b5b0492506040810190505b6d04ee2d6d415b85acef8100000000831061181d576d04ee2d6d415b85acef81000000008381611813576118126125be565b5b0492506020810190505b662386f26fc10000831061184c57662386f26fc100008381611842576118416125be565b5b0492506010810190505b6305f5e1008310611875576305f5e100838161186b5761186a6125be565b5b0492506008810190505b612710831061189a5761271083816118905761188f6125be565b5b0492506004810190505b606483106118bd57606483816118b3576118b26125be565b5b0492506002810190505b600a83106118cc576001810190505b80915050919050565b600073ffffffffffffffffffffffffffffffffffffffff168273ffffffffffffffffffffffffffffffffffffffff161415611945576040517f08c379a000000000000000000000000000000000000000000000000000000000815260040161193c90612298565b60405180910390fd5b61194e81611423565b1561198e576040517f08c379a000000000000000000000000000000000000000000000000000000000815260040161198590612218565b60405180910390fd5b61199c600083836001611464565b6119a581611423565b156119e5576040517f08c379a00000000000000000000000000000000000000000000000000000000081526004016119dc90612218565b60405180910390fd5b6001600360008473ffffffffffffffffffffffffffffffffffffffff1673ffffffffffffffffffffffffffffffffffffffff16815260200190815260200160002060008282540192505081905550816002600083815260200190815260200160002060006101000a81548173ffffffffffffffffffffffffffffffffffffffff021916908373ffffffffffffffffffffffffffffffffffffffff160217905550808273ffffffffffffffffffffffffffffffffffffffff16600073ffffffffffffffffffffffffffffffffffffffff167fddf252ad1be2c89b69c2b068fc378daa952ba7f163c4a11628f55a4df523b3ef60405160405180910390a4611aef60008383600161158a565b5050565b6000808273ffffffffffffffffffffffffffffffffffffffff163b119050919050565b6000611b29611b2484612378565b612353565b905082815260208101848484011115611b4557611b44612650565b5b611b508482856124ea565b509392505050565b600081359050611b67816129b5565b92915050565b600081359050611b7c816129cc565b92915050565b600081359050611b91816129e3565b92915050565b600081519050611ba6816129e3565b92915050565b600082601f830112611bc157611bc061264b565b5b8135611bd1848260208601611b16565b91505092915050565b600081359050611be9816129fa565b92915050565b600060208284031215611c0557611c0461265a565b5b6000611c1384828501611b58565b91505092915050565b60008060408385031215611c3357611c3261265a565b5b6000611c4185828601611b58565b9250506020611c5285828601611b58565b9150509250929050565b600080600060608486031215611c7557611c7461265a565b5b6000611c8386828701611b58565b9350506020611c9486828701611b58565b9250506040611ca586828701611bda565b9150509250925092565b60008060008060808587031215611cc957611cc861265a565b5b6000611cd787828801611b58565b9450506020611ce887828801611b58565b9350506040611cf987828801611bda565b925050606085013567ffffffffffffffff811115611d1a57611d19612655565b5b611d2687828801611bac565b91505092959194509250565b60008060408385031215611d4957611d4861265a565b5b6000611d5785828601611b58565b9250506020611d6885828601611b6d565b9150509250929050565b60008060408385031215611d8957611d8861265a565b5b6000611d9785828601611b58565b9250506020611da885828601611bda565b9150509250929050565b600060208284031215611dc857611dc761265a565b5b6000611dd684828501611b82565b91505092915050565b600060208284031215611df557611df461265a565b5b6000611e0384828501611b97565b91505092915050565b600060208284031215611e2257611e2161265a565b5b6000611e3084828501611bda565b91505092915050565b611e4281612476565b82525050565b611e5181612488565b82525050565b6000611e62826123a9565b611e6c81856123bf565b9350611e7c8185602086016124f9565b611e858161265f565b840191505092915050565b6000611e9b826123b4565b611ea581856123d0565b9350611eb58185602086016124f9565b611ebe8161265f565b840191505092915050565b6000611ed4826123b4565b611ede81856123e1565b9350611eee8185602086016124f9565b80840191505092915050565b6000611f07602d836123d0565b9150611f1282612670565b604082019050919050565b6000611f2a6032836123d0565b9150611f35826126bf565b604082019050919050565b6000611f4d6026836123d0565b9150611f588261270e565b604082019050919050565b6000611f706025836123d0565b9150611f7b8261275d565b604082019050919050565b6000611f93601c836123d0565b9150611f9e826127ac565b602082019050919050565b6000611fb66024836123d0565b9150611fc1826127d5565b604082019050919050565b6000611fd96019836123d0565b9150611fe482612824565b602082019050919050565b6000611ffc6029836123d0565b91506120078261284d565b604082019050919050565b600061201f6020836123d0565b915061202a8261289c565b602082019050919050565b60006120426020836123d0565b915061204d826128c5565b602082019050919050565b60006120656018836123d0565b9150612070826128ee565b602082019050919050565b60006120886021836123d0565b915061209382612917565b604082019050919050565b60006120ab603d836123d0565b91506120b682612966565b604082019050919050565b6120ca816124e0565b82525050565b60006120dc8285611ec9565b91506120e88284611ec9565b91508190509392505050565b60006020820190506121096000830184611e39565b92915050565b60006080820190506121246000830187611e39565b6121316020830186611e39565b61213e60408301856120c1565b81810360608301526121508184611e57565b905095945050505050565b60006020820190506121706000830184611e48565b92915050565b600060208201905081810360008301526121908184611e90565b905092915050565b600060208201905081810360008301526121b181611efa565b9050919050565b600060208201905081810360008301526121d181611f1d565b9050919050565b600060208201905081810360008301526121f181611f40565b9050919050565b6000602082019050818103600083015261221181611f63565b9050919050565b6000602082019050818103600083015261223181611f86565b9050919050565b6000602082019050818103600083015261225181611fa9565b9050919050565b6000602082019050818103600083015261227181611fcc565b9050919050565b6000602082019050818103600083015261229181611fef565b9050919050565b600060208201905081810360008301526122b181612012565b9050919050565b600060208201905081810360008301526122d181612035565b9050919050565b600060208201905081810360008301526122f181612058565b9050919050565b600060208201905081810360008301526123118161207b565b9050919050565b600060208201905081810360008301526123318161209e565b9050919050565b600060208201905061234d60008301846120c1565b92915050565b600061235d61236e565b9050612369828261255e565b919050565b6000604051905090565b600067ffffffffffffffff8211156123935761239261261c565b5b61239c8261265f565b9050602081019050919050565b600081519050919050565b600081519050919050565b600082825260208201905092915050565b600082825260208201905092915050565b600081905092915050565b60006123f7826124e0565b9150612402836124e0565b9250827fffffffffffffffffffffffffffffffffffffffffffffffffffffffffffffffff038211156124375761243661258f565b5b828201905092915050565b600061244d826124e0565b9150612458836124e0565b92508282101561246b5761246a61258f565b5b828203905092915050565b6000612481826124c0565b9050919050565b60008115159050919050565b60007fffffffff0000000000000000000000000000000000000000000000000000000082169050919050565b600073ffffffffffffffffffffffffffffffffffffffff82169050919050565b6000819050919050565b82818337600083830152505050565b60005b838110156125175780820151818401526020810190506124fc565b83811115612526576000848401525b50505050565b6000600282049050600182168061254457607f821691505b60208210811415612558576125576125ed565b5b50919050565b6125678261265f565b810181811067ffffffffffffffff821117156125865761258561261c565b5b80604052505050565b7f4e487b7100000000000000000000000000000000000000000000000000000000600052601160045260246000fd5b7f4e487b7100000000000000000000000000000000000000000000000000000000600052601260045260246000fd5b7f4e487b7100000000000000000000000000000000000000000000000000000000600052602260045260246000fd5b7f4e487b7100000000000000000000000000000000000000000000000000000000600052604160045260246000fd5b600080fd5b600080fd5b600080fd5b600080fd5b6000601f19601f8301169050919050565b7f4552433732313a2063616c6c6572206973206e6f7420746f6b656e206f776e6560008201527f72206f7220617070726f76656400000000000000000000000000000000000000602082015250565b7f4552433732313a207472616e7366657220746f206e6f6e20455243373231526560008201527f63656976657220696d706c656d656e7465720000000000000000000000000000602082015250565b7f4f776e61626c653a206e6577206f776e657220697320746865207a65726f206160008201527f6464726573730000000000000000000000000000000000000000000000000000602082015250565b7f4552433732313a207472616e736665722066726f6d20696e636f72726563742060008201527f6f776e6572000000000000000000000000000000000000000000000000000000602082015250565b7f4552433732313a20746f6b656e20616c7265616479206d696e74656400000000600082015250565b7f4552433732313a207472616e7366657220746f20746865207a65726f2061646460008201527f7265737300000000000000000000000000000000000000000000000000000000602082015250565b7f4552433732313a20617070726f766520746f2063616c6c657200000000000000600082015250565b7f4552433732313a2061646472657373207a65726f206973206e6f74206120766160008201527f6c6964206f776e65720000000000000000000000000000000000000000000000602082015250565b7f4552433732313a206d696e7420746f20746865207a65726f2061646472657373600082015250565b7f4f776e61626c653a2063616c6c6572206973206e6f7420746865206f776e6572600082015250565b7f4552433732313a20696e76616c696420746f6b656e2049440000000000000000600082015250565b7f4552433732313a20617070726f76616c20746f2063757272656e74206f776e6560008201527f7200000000000000000000000000000000000000000000000000000000000000602082015250565b7f4552433732313a20617070726f76652063616c6c6572206973206e6f7420746f60008201527f6b656e206f776e6572206f7220617070726f76656420666f7220616c6c000000602082015250565b6129be81612476565b81146129c957600080fd5b50565b6129d581612488565b81146129e057600080fd5b50565b6129ec81612494565b81146129f757600080fd5b50565b612a03816124e0565b8114612a0e57600080fd5b5056fea264697066735822122047e92bce1b07b84d0b0cd5ea12f6eb4a8450227d045615c095f78be5674f34f064736f6c63430008070033",
  "linkReferences": {},
  "deployedLinkReferences": {}
}