{
  "_format": "hh-sol-artifact-1",
  "contractName": "BridgeEth",
  "sourceName": "contracts/BridgeEth.sol",
  "abi": [
    {
      "anonymous": false,
      "inputs": [
        {
          "indexed": false,
          "internalType": "address",
          "name": "_from",
          "type": "address"
        },
        {
          "indexed": false,
          "internalType": "address",
          "name": "_to",
          "type": "address"
        },
        {
          "indexed": true,
          "internalType": "uint256",
          "name": "_value",
          "type": "uint256"
        }
      ],
      "name": "EtherTransferedToDestinationChain",
      "type": "event"
    },
    {
      "anonymous": false,
      "inputs": [
        {
          "indexed": false,
          "internalType": "address",
          "name": "_from",
          "type": "address"
        },
        {
          "indexed": false,
          "internalType": "address",
          "name": "_to",
          "type": "address"
        },
        {
          "indexed": false,
          "internalType": "enum BridgeEth.SourceChain",
          "name": "_sourceChain",
          "type": "uint8"
        },
        {
          "indexed": false,
          "internalType": "enum BridgeEth.DestinationChain",
          "name": "_destinationChain",
          "type": "uint8"
        },
        {
          "indexed": false,
          "internalType": "enum BridgeEth.SourceChainTokensAvailable",
          "name": "_tokensAvailableFromSourceChain",
          "type": "uint8"
        },
        {
          "indexed": false,
          "internalType": "enum BridgeEth.DestinationChainTokensAvailable",
          "name": "_tokensAvailableFromDestinationChain",
          "type": "uint8"
        },
        {
          "indexed": true,
          "internalType": "uint256",
          "name": "_value",
          "type": "uint256"
        }
      ],
      "name": "LockedEther",
      "type": "event"
    },
    {
      "anonymous": false,
      "inputs": [
        {
          "indexed": false,
          "internalType": "address",
          "name": "_token",
          "type": "address"
        },
        {
          "indexed": false,
          "internalType": "address",
          "name": "_from",
          "type": "address"
        },
        {
          "indexed": false,
          "internalType": "address",
          "name": "_to",
          "type": "address"
        },
        {
          "indexed": false,
          "internalType": "enum BridgeEth.SourceChain",
          "name": "_sourceChain",
          "type": "uint8"
        },
        {
          "indexed": false,
          "internalType": "enum BridgeEth.DestinationChain",
          "name": "_destinationChain",
          "type": "uint8"
        },
        {
          "indexed": false,
          "internalType": "enum BridgeEth.SourceChainTokensAvailable",
          "name": "_tokensAvailableFromSourceChain",
          "type": "uint8"
        },
        {
          "indexed": false,
          "internalType": "enum BridgeEth.DestinationChainTokensAvailable",
          "name": "_tokensAvailableFromDestinationChain",
          "type": "uint8"
        },
        {
          "indexed": true,
          "internalType": "uint256",
          "name": "_amount",
          "type": "uint256"
        }
      ],
      "name": "LockedToken",
      "type": "event"
    },
    {
      "anonymous": false,
      "inputs": [
        {
          "indexed": true,
          "internalType": "address",
          "name": "previousOwner",
          "type": "address"
        },
        {
          "indexed": true,
          "internalType": "address",
          "name": "newOwner",
          "type": "address"
        }
      ],
      "name": "OwnershipTransferred",
      "type": "event"
    },
    {
      "anonymous": false,
      "inputs": [
        {
          "indexed": false,
          "internalType": "address",
          "name": "account",
          "type": "address"
        }
      ],
      "name": "Paused",
      "type": "event"
    },
    {
      "anonymous": false,
      "inputs": [
        {
          "indexed": false,
          "internalType": "address",
          "name": "_token",
          "type": "address"
        },
        {
          "indexed": false,
          "internalType": "address",
          "name": "_from",
          "type": "address"
        },
        {
          "indexed": false,
          "internalType": "address",
          "name": "_to",
          "type": "address"
        },
        {
          "indexed": true,
          "internalType": "uint256",
          "name": "_amount",
          "type": "uint256"
        }
      ],
      "name": "TokenTransferedToDestinationChain",
      "type": "event"
    },
    {
      "anonymous": false,
      "inputs": [
        {
          "indexed": false,
          "internalType": "address",
          "name": "account",
          "type": "address"
        }
      ],
      "name": "Unpaused",
      "type": "event"
    },
    {
      "inputs": [
        {
          "internalType": "uint256",
          "name": "newSmartContractFees",
          "type": "uint256"
        }
      ],
      "name": "changeSmartContractFees",
      "outputs": [
        {
          "internalType": "uint256",
          "name": "",
          "type": "uint256"
        }
      ],
      "stateMutability": "nonpayable",
      "type": "function"
    },
    {
      "inputs": [],
      "name": "getSmartContractFees",
      "outputs": [
        {
          "internalType": "uint256",
          "name": "",
          "type": "uint256"
        }
      ],
      "stateMutability": "view",
      "type": "function"
    },
    {
      "inputs": [
        {
          "internalType": "address",
          "name": "tokenAddress",
          "type": "address"
        },
        {
          "internalType": "address",
          "name": "recipient",
          "type": "address"
        }
      ],
      "name": "getTokenBalance",
      "outputs": [
        {
          "internalType": "uint256",
          "name": "",
          "type": "uint256"
        }
      ],
      "stateMutability": "view",
      "type": "function"
    },
    {
      "inputs": [
        {
          "internalType": "uint256",
          "name": "value",
          "type": "uint256"
        }
      ],
      "name": "lockEthToContract",
      "outputs": [],
      "stateMutability": "payable",
      "type": "function"
    },
    {
      "inputs": [
        {
          "internalType": "enum BridgeEth.SourceChain",
          "name": "sourceChain",
          "type": "uint8"
        },
        {
          "internalType": "enum BridgeEth.DestinationChain",
          "name": "destinationChain",
          "type": "uint8"
        },
        {
          "internalType": "enum BridgeEth.SourceChainTokensAvailable",
          "name": "tokensAvailableFromSourceChain",
          "type": "uint8"
        },
        {
          "internalType": "enum BridgeEth.DestinationChainTokensAvailable",
          "name": "tokensAvailableFromDestinationChain",
          "type": "uint8"
        },
        {
          "internalType": "uint256",
          "name": "value",
          "type": "uint256"
        },
        {
          "internalType": "bytes32",
          "name": "hash",
          "type": "bytes32"
        },
        {
          "internalType": "bytes",
          "name": "signature",
          "type": "bytes"
        }
      ],
      "name": "lockEther",
      "outputs": [],
      "stateMutability": "payable",
      "type": "function"
    },
    {
      "inputs": [
        {
          "internalType": "enum BridgeEth.SourceChain",
          "name": "sourceChain",
          "type": "uint8"
        },
        {
          "internalType": "enum BridgeEth.DestinationChain",
          "name": "destinationChain",
          "type": "uint8"
        },
        {
          "internalType": "enum BridgeEth.SourceChainTokensAvailable",
          "name": "tokensAvailableFromSourceChain",
          "type": "uint8"
        },
        {
          "internalType": "enum BridgeEth.DestinationChainTokensAvailable",
          "name": "tokensAvailableFromDestinationChain",
          "type": "uint8"
        },
        {
          "internalType": "address",
          "name": "tokenAddress",
          "type": "address"
        },
        {
          "internalType": "uint256",
          "name": "amount",
          "type": "uint256"
        },
        {
          "internalType": "bytes32",
          "name": "hash",
          "type": "bytes32"
        },
        {
          "internalType": "bytes",
          "name": "signature",
          "type": "bytes"
        }
      ],
      "name": "lockToken",
      "outputs": [],
      "stateMutability": "nonpayable",
      "type": "function"
    },
    {
      "inputs": [
        {
          "internalType": "address",
          "name": "tokenAddress",
          "type": "address"
        },
        {
          "internalType": "uint256",
          "name": "amount",
          "type": "uint256"
        }
      ],
      "name": "lockTokenToContract",
      "outputs": [],
      "stateMutability": "nonpayable",
      "type": "function"
    },
    {
      "inputs": [],
      "name": "owner",
      "outputs": [
        {
          "internalType": "address",
          "name": "",
          "type": "address"
        }
      ],
      "stateMutability": "view",
      "type": "function"
    },
    {
      "inputs": [],
      "name": "pause",
      "outputs": [],
      "stateMutability": "nonpayable",
      "type": "function"
    },
    {
      "inputs": [],
      "name": "paused",
      "outputs": [
        {
          "internalType": "bool",
          "name": "",
          "type": "bool"
        }
      ],
      "stateMutability": "view",
      "type": "function"
    },
    {
      "inputs": [],
      "name": "renounceOwnership",
      "outputs": [],
      "stateMutability": "nonpayable",
      "type": "function"
    },
    {
      "inputs": [
        {
          "internalType": "address",
          "name": "recipient",
          "type": "address"
        },
        {
          "internalType": "uint256",
          "name": "value",
          "type": "uint256"
        }
      ],
      "name": "transferEth",
      "outputs": [],
      "stateMutability": "nonpayable",
      "type": "function"
    },
    {
      "inputs": [
        {
          "internalType": "address",
          "name": "recipient",
          "type": "address"
        },
        {
          "internalType": "uint256",
          "name": "value",
          "type": "uint256"
        }
      ],
      "name": "transferEthBackToUser",
      "outputs": [],
      "stateMutability": "nonpayable",
      "type": "function"
    },
    {
      "inputs": [
        {
          "internalType": "address",
          "name": "newOwner",
          "type": "address"
        }
      ],
      "name": "transferOwnership",
      "outputs": [],
      "stateMutability": "nonpayable",
      "type": "function"
    },
    {
      "inputs": [
        {
          "internalType": "address",
          "name": "tokenAddress",
          "type": "address"
        },
        {
          "internalType": "address",
          "name": "recipient",
          "type": "address"
        },
        {
          "internalType": "uint256",
          "name": "amount",
          "type": "uint256"
        }
      ],
      "name": "transferToken",
      "outputs": [],
      "stateMutability": "nonpayable",
      "type": "function"
    },
    {
      "inputs": [
        {
          "internalType": "address",
          "name": "tokenAddress",
          "type": "address"
        },
        {
          "internalType": "address",
          "name": "recipient",
          "type": "address"
        },
        {
          "internalType": "uint256",
          "name": "amount",
          "type": "uint256"
        }
      ],
      "name": "transferTokenBackToUser",
      "outputs": [],
      "stateMutability": "nonpayable",
      "type": "function"
    },
    {
      "inputs": [],
      "name": "unpause",
      "outputs": [],
      "stateMutability": "nonpayable",
      "type": "function"
    },
    {
      "inputs": [
        {
          "internalType": "address payable",
          "name": "recipient",
          "type": "address"
        }
      ],
      "name": "withdraw",
      "outputs": [],
      "stateMutability": "nonpayable",
      "type": "function"
    },
    {
      "inputs": [
        {
          "internalType": "address",
          "name": "tokenAddress",
          "type": "address"
        },
        {
          "internalType": "address",
          "name": "recipient",
          "type": "address"
        }
      ],
      "name": "withdrawToken",
      "outputs": [],
      "stateMutability": "nonpayable",
      "type": "function"
    }
  ],
  "bytecode": "0x608060405260026003553480156200001657600080fd5b50620000376200002b6200005e60201b60201c565b6200006660201b60201c565b60008060146101000a81548160ff021916908315150217905550600180819055506200012a565b600033905090565b60008060009054906101000a900473ffffffffffffffffffffffffffffffffffffffff169050816000806101000a81548173ffffffffffffffffffffffffffffffffffffffff021916908373ffffffffffffffffffffffffffffffffffffffff1602179055508173ffffffffffffffffffffffffffffffffffffffff168173ffffffffffffffffffffffffffffffffffffffff167f8be0079c531659141344cd1fd0a4f28419497f9722a3daafe3b4186f6b6457e060405160405180910390a35050565b613970806200013a6000396000f3fe6080604052600436106101145760003560e01c8063e0918062116100a0578063e9bb84c211610064578063e9bb84c214610321578063f1597e771461034a578063f2fde38b14610373578063f5537ede1461039c578063f656eece146103c557610114565b8063e09180621461026e578063e1828c1114610297578063e392825b146102c0578063e9551586146102e9578063e981295d1461030557610114565b8063715018a6116100e7578063715018a6146101ad5780638456cb59146101c45780638da5cb5b146101db5780639a3488b614610206578063c489744b1461023157610114565b80633aeac4e1146101195780633f4ba83a1461014257806351cff8d9146101595780635c975abb14610182575b600080fd5b34801561012557600080fd5b50610140600480360381019061013b91906122d6565b610402565b005b34801561014e57600080fd5b506101576105d3565b005b34801561016557600080fd5b50610180600480360381019061017b9190612354565b6105e5565b005b34801561018e57600080fd5b506101976106b6565b6040516101a4919061239c565b60405180910390f35b3480156101b957600080fd5b506101c26106cc565b005b3480156101d057600080fd5b506101d96106e0565b005b3480156101e757600080fd5b506101f06106f2565b6040516101fd91906123c6565b60405180910390f35b34801561021257600080fd5b5061021b61071b565b60405161022891906123fa565b60405180910390f35b34801561023d57600080fd5b50610258600480360381019061025391906122d6565b610725565b60405161026591906123fa565b60405180910390f35b34801561027a57600080fd5b5061029560048036038101906102909190612441565b610895565b005b3480156102a357600080fd5b506102be60048036038101906102b99190612691565b6109aa565b005b3480156102cc57600080fd5b506102e760048036038101906102e29190612763565b610e15565b005b61030360048036038101906102fe91906127b6565b610ef5565b005b61031f600480360381019061031a9190612874565b611260565b005b34801561032d57600080fd5b5061034860048036038101906103439190612441565b611308565b005b34801561035657600080fd5b50610371600480360381019061036c9190612441565b611451565b005b34801561037f57600080fd5b5061039a600480360381019061039591906128a1565b6115ae565b005b3480156103a857600080fd5b506103c360048036038101906103be9190612763565b611631565b005b3480156103d157600080fd5b506103ec60048036038101906103e79190612874565b61186d565b6040516103f991906123fa565b60405180910390f35b61040a6118c8565b610412611946565b600073ffffffffffffffffffffffffffffffffffffffff168173ffffffffffffffffffffffffffffffffffffffff1603610481576040517f08c379a00000000000000000000000000000000000000000000000000000000081526004016104789061292b565b60405180910390fd5b600082905060008173ffffffffffffffffffffffffffffffffffffffff166370a08231306040518263ffffffff1660e01b81526004016104c191906123c6565b602060405180830381865afa1580156104de573d6000803e3d6000fd5b505050506040513d601f19601f820116820180604052508101906105029190612960565b11610542576040517f08c379a0000000000000000000000000000000000000000000000000000000008152600401610539906129d9565b60405180910390fd5b6105c681838373ffffffffffffffffffffffffffffffffffffffff166370a08231306040518263ffffffff1660e01b815260040161058091906123c6565b602060405180830381865afa15801561059d573d6000803e3d6000fd5b505050506040513d601f19601f820116820180604052508101906105c19190612960565b611995565b506105cf611a1b565b5050565b6105db6118c8565b6105e3611a24565b565b6105ed6118c8565b6105f5611946565b600073ffffffffffffffffffffffffffffffffffffffff168173ffffffffffffffffffffffffffffffffffffffff1603610664576040517f08c379a000000000000000000000000000000000000000000000000000000000815260040161065b9061292b565b60405180910390fd5b8073ffffffffffffffffffffffffffffffffffffffff166108fc479081150290604051600060405180830381858888f193505050501580156106aa573d6000803e3d6000fd5b506106b3611a1b565b50565b60008060149054906101000a900460ff16905090565b6106d46118c8565b6106de6000611a86565b565b6106e86118c8565b6106f0611b4a565b565b60008060009054906101000a900473ffffffffffffffffffffffffffffffffffffffff16905090565b6000600354905090565b600061072f6118c8565b600073ffffffffffffffffffffffffffffffffffffffff168373ffffffffffffffffffffffffffffffffffffffff160361079e576040517f08c379a00000000000000000000000000000000000000000000000000000000081526004016107959061292b565b60405180910390fd5b600073ffffffffffffffffffffffffffffffffffffffff168273ffffffffffffffffffffffffffffffffffffffff160361080d576040517f08c379a00000000000000000000000000000000000000000000000000000000081526004016108049061292b565b60405180910390fd5b60008390508073ffffffffffffffffffffffffffffffffffffffff166370a08231846040518263ffffffff1660e01b815260040161084b91906123c6565b602060405180830381865afa158015610868573d6000803e3d6000fd5b505050506040513d601f19601f8201168201806040525081019061088c9190612960565b91505092915050565b61089d6118c8565b6108a5611946565b600073ffffffffffffffffffffffffffffffffffffffff168273ffffffffffffffffffffffffffffffffffffffff1603610914576040517f08c379a000000000000000000000000000000000000000000000000000000000815260040161090b9061292b565b60405180910390fd5b60008103610957576040517f08c379a000000000000000000000000000000000000000000000000000000000815260040161094e90612a45565b60405180910390fd5b8173ffffffffffffffffffffffffffffffffffffffff166108fc829081150290604051600060405180830381858888f1935050505015801561099d573d6000803e3d6000fd5b506109a6611a1b565b5050565b6109b2611bad565b6109ba611946565b600083036109fd576040517f08c379a00000000000000000000000000000000000000000000000000000000081526004016109f490612a45565b60405180910390fd5b60006002811115610a1157610a10612a65565b5b886002811115610a2457610a23612a65565b5b148015610a56575060006002811115610a4057610a3f612a65565b5b876002811115610a5357610a52612a65565b5b14155b610a95576040517f08c379a0000000000000000000000000000000000000000000000000000000008152600401610a8c90612ae0565b60405180910390fd5b60006003811115610aa957610aa8612a65565b5b866003811115610abc57610abb612a65565b5b14158015610aef575060016003811115610ad957610ad8612a65565b5b866003811115610aec57610aeb612a65565b5b14155b8015610b20575060006003811115610b0a57610b09612a65565b5b856003811115610b1d57610b1c612a65565b5b14155b610b5f576040517f08c379a0000000000000000000000000000000000000000000000000000000008152600401610b5690612b4c565b60405180910390fd5b600073ffffffffffffffffffffffffffffffffffffffff168473ffffffffffffffffffffffffffffffffffffffff1603610bce576040517f08c379a0000000000000000000000000000000000000000000000000000000008152600401610bc59061292b565b60405180910390fd5b610bd66106f2565b73ffffffffffffffffffffffffffffffffffffffff16610bf68383611bf7565b73ffffffffffffffffffffffffffffffffffffffff1614610c4c576040517f08c379a0000000000000000000000000000000000000000000000000000000008152600401610c4390612bb8565b60405180910390fd5b600481604051610c5c9190612c49565b908152602001604051809103902060009054906101000a900460ff1615610cb8576040517f08c379a0000000000000000000000000000000000000000000000000000000008152600401610caf90612cac565b60405180910390fd5b6000849050838173ffffffffffffffffffffffffffffffffffffffff1663dd62ed3e33306040518363ffffffff1660e01b8152600401610cf9929190612ccc565b602060405180830381865afa158015610d16573d6000803e3d6000fd5b505050506040513d601f19601f82011682018060405250810190610d3a9190612960565b1015610d7b576040517f08c379a0000000000000000000000000000000000000000000000000000000008152600401610d7290612d41565b60405180910390fd5b837f4472c72d0bcf5053f9b751e4fab2043d10268d0bb56b8bc379a6743d297ec4bf8633308d8d8d8d604051610db79796959493929190612e81565b60405180910390a2610dcb81333087611c36565b6001600483604051610ddd9190612c49565b908152602001604051809103902060006101000a81548160ff02191690831515021790555050610e0b611a1b565b5050505050505050565b610e1d6118c8565b610e25611946565b60008103610e68576040517f08c379a0000000000000000000000000000000000000000000000000000000008152600401610e5f90612a45565b60405180910390fd5b600073ffffffffffffffffffffffffffffffffffffffff168373ffffffffffffffffffffffffffffffffffffffff1603610ed7576040517f08c379a0000000000000000000000000000000000000000000000000000000008152600401610ece9061292b565b60405180910390fd5b6000839050610ee7818484611995565b50610ef0611a1b565b505050565b610efd611bad565b610f05611946565b60003403610f48576040517f08c379a0000000000000000000000000000000000000000000000000000000008152600401610f3f90612a45565b60405180910390fd5b60006002811115610f5c57610f5b612a65565b5b876002811115610f6f57610f6e612a65565b5b148015610fa1575060006002811115610f8b57610f8a612a65565b5b866002811115610f9e57610f9d612a65565b5b14155b610fe0576040517f08c379a0000000000000000000000000000000000000000000000000000000008152600401610fd790612ae0565b60405180910390fd5b60026003811115610ff457610ff3612a65565b5b85600381111561100757611006612a65565b5b1415801561103a57506001600381111561102457611023612a65565b5b85600381111561103757611036612a65565b5b14155b801561106b57506000600381111561105557611054612a65565b5b84600381111561106857611067612a65565b5b14155b6110aa576040517f08c379a00000000000000000000000000000000000000000000000000000000081526004016110a190612b4c565b60405180910390fd5b8234146110ec576040517f08c379a00000000000000000000000000000000000000000000000000000000081526004016110e390612f3c565b60405180910390fd5b6110f46106f2565b73ffffffffffffffffffffffffffffffffffffffff166111148383611bf7565b73ffffffffffffffffffffffffffffffffffffffff161461116a576040517f08c379a000000000000000000000000000000000000000000000000000000000815260040161116190612bb8565b60405180910390fd5b60048160405161117a9190612c49565b908152602001604051809103902060009054906101000a900460ff16156111d6576040517f08c379a00000000000000000000000000000000000000000000000000000000081526004016111cd90612cac565b60405180910390fd5b827f88e7a56b4cb7b47654051d0b015c35546fc752eecd6990f1a48b71496a7689de33308a8a8a8a60405161121096959493929190612f5c565b60405180910390a2600160048260405161122a9190612c49565b908152602001604051809103902060006101000a81548160ff021916908315150217905550611257611a1b565b50505050505050565b6112686118c8565b611270611bad565b611278611946565b600034036112bb576040517f08c379a00000000000000000000000000000000000000000000000000000000081526004016112b290612a45565b60405180910390fd5b8034146112fd576040517f08c379a00000000000000000000000000000000000000000000000000000000081526004016112f490612f3c565b60405180910390fd5b611305611a1b565b50565b6113106118c8565b611318611bad565b611320611946565b600073ffffffffffffffffffffffffffffffffffffffff168273ffffffffffffffffffffffffffffffffffffffff160361138f576040517f08c379a000000000000000000000000000000000000000000000000000000000815260040161138690613009565b60405180910390fd5b60006064600354836113a19190613058565b6113ab91906130c9565b905080826113b991906130fa565b7f05bb26d01a3db5ef7024bc3fd2338148473779b8444b8fdc959198c8c26f76d830856040516113ea929190612ccc565b60405180910390a28273ffffffffffffffffffffffffffffffffffffffff166108fc828461141891906130fa565b9081150290604051600060405180830381858888f19350505050158015611443573d6000803e3d6000fd5b505061144d611a1b565b5050565b6114596118c8565b611461611bad565b611469611946565b6000829050600073ffffffffffffffffffffffffffffffffffffffff168373ffffffffffffffffffffffffffffffffffffffff16036114dd576040517f08c379a00000000000000000000000000000000000000000000000000000000081526004016114d49061292b565b60405180910390fd5b60008203611520576040517f08c379a000000000000000000000000000000000000000000000000000000000815260040161151790612a45565b60405180910390fd5b8073ffffffffffffffffffffffffffffffffffffffff166323b872dd3330856040518463ffffffff1660e01b815260040161155d9392919061312e565b6020604051808303816000875af115801561157c573d6000803e3d6000fd5b505050506040513d601f19601f820116820180604052508101906115a09190613191565b50506115aa611a1b565b5050565b6115b66118c8565b600073ffffffffffffffffffffffffffffffffffffffff168173ffffffffffffffffffffffffffffffffffffffff1603611625576040517f08c379a000000000000000000000000000000000000000000000000000000000815260040161161c90613230565b60405180910390fd5b61162e81611a86565b50565b6116396118c8565b611641611bad565b611649611946565b6000839050600073ffffffffffffffffffffffffffffffffffffffff168473ffffffffffffffffffffffffffffffffffffffff16036116bd576040517f08c379a00000000000000000000000000000000000000000000000000000000081526004016116b49061292b565b60405180910390fd5b600073ffffffffffffffffffffffffffffffffffffffff168373ffffffffffffffffffffffffffffffffffffffff160361172c576040517f08c379a000000000000000000000000000000000000000000000000000000000815260040161172390613009565b60405180910390fd5b6000820361176f576040517f08c379a000000000000000000000000000000000000000000000000000000000815260040161176690612a45565b60405180910390fd5b60006064600354846117819190613058565b61178b91906130c9565b9050808361179991906130fa565b7f85647f12ef10ce387990d62d699fab79560d0e6165ced3af12f4ada543a2c7488630876040516117cc93929190613250565b60405180910390a28173ffffffffffffffffffffffffffffffffffffffff1663a9059cbb8583866117fd91906130fa565b6040518363ffffffff1660e01b815260040161181a929190613287565b6020604051808303816000875af1158015611839573d6000803e3d6000fd5b505050506040513d601f19601f8201168201806040525081019061185d9190613191565b505050611868611a1b565b505050565b60006118776118c8565b81600354036118bb576040517f08c379a00000000000000000000000000000000000000000000000000000000081526004016118b2906132fc565b60405180910390fd5b8160038190559050919050565b6118d0611cbf565b73ffffffffffffffffffffffffffffffffffffffff166118ee6106f2565b73ffffffffffffffffffffffffffffffffffffffff1614611944576040517f08c379a000000000000000000000000000000000000000000000000000000000815260040161193b90613368565b60405180910390fd5b565b60026001540361198b576040517f08c379a0000000000000000000000000000000000000000000000000000000008152600401611982906133d4565b60405180910390fd5b6002600181905550565b611a168363a9059cbb60e01b84846040516024016119b4929190613287565b604051602081830303815290604052907bffffffffffffffffffffffffffffffffffffffffffffffffffffffff19166020820180517bffffffffffffffffffffffffffffffffffffffffffffffffffffffff8381831617835250505050611cc7565b505050565b60018081905550565b611a2c611d8e565b60008060146101000a81548160ff0219169083151502179055507f5db9ee0a495bf2e6ff9c91a7834c1ba4fdd244a5e8aa4e537bd38aeae4b073aa611a6f611cbf565b604051611a7c91906123c6565b60405180910390a1565b60008060009054906101000a900473ffffffffffffffffffffffffffffffffffffffff169050816000806101000a81548173ffffffffffffffffffffffffffffffffffffffff021916908373ffffffffffffffffffffffffffffffffffffffff1602179055508173ffffffffffffffffffffffffffffffffffffffff168173ffffffffffffffffffffffffffffffffffffffff167f8be0079c531659141344cd1fd0a4f28419497f9722a3daafe3b4186f6b6457e060405160405180910390a35050565b611b52611bad565b6001600060146101000a81548160ff0219169083151502179055507f62e78cea01bee320cd4e420270b5ea74000d11b0c9f74754ebdbfc544b05a258611b96611cbf565b604051611ba391906123c6565b60405180910390a1565b611bb56106b6565b15611bf5576040517f08c379a0000000000000000000000000000000000000000000000000000000008152600401611bec90613440565b60405180910390fd5b565b60008083604051602001611c0b91906134d8565b604051602081830303815290604052805190602001209050611c2d8184611dd7565b91505092915050565b611cb9846323b872dd60e01b858585604051602401611c579392919061312e565b604051602081830303815290604052907bffffffffffffffffffffffffffffffffffffffffffffffffffffffff19166020820180517bffffffffffffffffffffffffffffffffffffffffffffffffffffffff8381831617835250505050611cc7565b50505050565b600033905090565b6000611d29826040518060400160405280602081526020017f5361666545524332303a206c6f772d6c6576656c2063616c6c206661696c65648152508573ffffffffffffffffffffffffffffffffffffffff16611dfe9092919063ffffffff16565b9050600081511115611d895780806020019051810190611d499190613191565b611d88576040517f08c379a0000000000000000000000000000000000000000000000000000000008152600401611d7f90613570565b60405180910390fd5b5b505050565b611d966106b6565b611dd5576040517f08c379a0000000000000000000000000000000000000000000000000000000008152600401611dcc906135dc565b60405180910390fd5b565b6000806000611de68585611e16565b91509150611df381611e67565b819250505092915050565b6060611e0d8484600085611fcd565b90509392505050565b6000806041835103611e575760008060006020860151925060408601519150606086015160001a9050611e4b8782858561209a565b94509450505050611e60565b60006002915091505b9250929050565b60006004811115611e7b57611e7a612a65565b5b816004811115611e8e57611e8d612a65565b5b0315611fca5760016004811115611ea857611ea7612a65565b5b816004811115611ebb57611eba612a65565b5b03611efb576040517f08c379a0000000000000000000000000000000000000000000000000000000008152600401611ef290613648565b60405180910390fd5b60026004811115611f0f57611f0e612a65565b5b816004811115611f2257611f21612a65565b5b03611f62576040517f08c379a0000000000000000000000000000000000000000000000000000000008152600401611f59906136b4565b60405180910390fd5b60036004811115611f7657611f75612a65565b5b816004811115611f8957611f88612a65565b5b03611fc9576040517f08c379a0000000000000000000000000000000000000000000000000000000008152600401611fc090613746565b60405180910390fd5b5b50565b606082471015612012576040517f08c379a0000000000000000000000000000000000000000000000000000000008152600401612009906137d8565b60405180910390fd5b6000808673ffffffffffffffffffffffffffffffffffffffff16858760405161203b9190612c49565b60006040518083038185875af1925050503d8060008114612078576040519150601f19603f3d011682016040523d82523d6000602084013e61207d565b606091505b509150915061208e8783838761217c565b92505050949350505050565b6000807f7fffffffffffffffffffffffffffffff5d576e7357a4501ddfe92f46681b20a08360001c11156120d5576000600391509150612173565b6000600187878787604051600081526020016040526040516120fa9493929190613823565b6020604051602081039080840390855afa15801561211c573d6000803e3d6000fd5b505050602060405103519050600073ffffffffffffffffffffffffffffffffffffffff168173ffffffffffffffffffffffffffffffffffffffff160361216a57600060019250925050612173565b80600092509250505b94509492505050565b606083156121de5760008351036121d657612196856121f1565b6121d5576040517f08c379a00000000000000000000000000000000000000000000000000000000081526004016121cc906138b4565b60405180910390fd5b5b8290506121e9565b6121e88383612214565b5b949350505050565b6000808273ffffffffffffffffffffffffffffffffffffffff163b119050919050565b6000825111156122275781518083602001fd5b806040517f08c379a000000000000000000000000000000000000000000000000000000000815260040161225b9190613918565b60405180910390fd5b6000604051905090565b600080fd5b600080fd5b600073ffffffffffffffffffffffffffffffffffffffff82169050919050565b60006122a382612278565b9050919050565b6122b381612298565b81146122be57600080fd5b50565b6000813590506122d0816122aa565b92915050565b600080604083850312156122ed576122ec61226e565b5b60006122fb858286016122c1565b925050602061230c858286016122c1565b9150509250929050565b600061232182612278565b9050919050565b61233181612316565b811461233c57600080fd5b50565b60008135905061234e81612328565b92915050565b60006020828403121561236a5761236961226e565b5b60006123788482850161233f565b91505092915050565b60008115159050919050565b61239681612381565b82525050565b60006020820190506123b1600083018461238d565b92915050565b6123c081612298565b82525050565b60006020820190506123db60008301846123b7565b92915050565b6000819050919050565b6123f4816123e1565b82525050565b600060208201905061240f60008301846123eb565b92915050565b61241e816123e1565b811461242957600080fd5b50565b60008135905061243b81612415565b92915050565b600080604083850312156124585761245761226e565b5b6000612466858286016122c1565b92505060206124778582860161242c565b9150509250929050565b6003811061248e57600080fd5b50565b6000813590506124a081612481565b92915050565b600381106124b357600080fd5b50565b6000813590506124c5816124a6565b92915050565b600481106124d857600080fd5b50565b6000813590506124ea816124cb565b92915050565b600481106124fd57600080fd5b50565b60008135905061250f816124f0565b92915050565b6000819050919050565b61252881612515565b811461253357600080fd5b50565b6000813590506125458161251f565b92915050565b600080fd5b600080fd5b6000601f19601f8301169050919050565b7f4e487b7100000000000000000000000000000000000000000000000000000000600052604160045260246000fd5b61259e82612555565b810181811067ffffffffffffffff821117156125bd576125bc612566565b5b80604052505050565b60006125d0612264565b90506125dc8282612595565b919050565b600067ffffffffffffffff8211156125fc576125fb612566565b5b61260582612555565b9050602081019050919050565b82818337600083830152505050565b600061263461262f846125e1565b6125c6565b9050828152602081018484840111156126505761264f612550565b5b61265b848285612612565b509392505050565b600082601f8301126126785761267761254b565b5b8135612688848260208601612621565b91505092915050565b600080600080600080600080610100898b0312156126b2576126b161226e565b5b60006126c08b828c01612491565b98505060206126d18b828c016124b6565b97505060406126e28b828c016124db565b96505060606126f38b828c01612500565b95505060806127048b828c016122c1565b94505060a06127158b828c0161242c565b93505060c06127268b828c01612536565b92505060e089013567ffffffffffffffff81111561274757612746612273565b5b6127538b828c01612663565b9150509295985092959890939650565b60008060006060848603121561277c5761277b61226e565b5b600061278a868287016122c1565b935050602061279b868287016122c1565b92505060406127ac8682870161242c565b9150509250925092565b600080600080600080600060e0888a0312156127d5576127d461226e565b5b60006127e38a828b01612491565b97505060206127f48a828b016124b6565b96505060406128058a828b016124db565b95505060606128168a828b01612500565b94505060806128278a828b0161242c565b93505060a06128388a828b01612536565b92505060c088013567ffffffffffffffff81111561285957612858612273565b5b6128658a828b01612663565b91505092959891949750929550565b60006020828403121561288a5761288961226e565b5b60006128988482850161242c565b91505092915050565b6000602082840312156128b7576128b661226e565b5b60006128c5848285016122c1565b91505092915050565b600082825260208201905092915050565b7f416464726573732063616e6e6f74206265207a65726f00000000000000000000600082015250565b60006129156016836128ce565b9150612920826128df565b602082019050919050565b6000602082019050818103600083015261294481612908565b9050919050565b60008151905061295a81612415565b92915050565b6000602082840312156129765761297561226e565b5b60006129848482850161294b565b91505092915050565b7f496e73756666696369656e742062616c616e6365000000000000000000000000600082015250565b60006129c36014836128ce565b91506129ce8261298d565b602082019050919050565b600060208201905081810360008301526129f2816129b6565b9050919050565b7f496e73756666696369656e7420616d6f756e7400000000000000000000000000600082015250565b6000612a2f6013836128ce565b9150612a3a826129f9565b602082019050919050565b60006020820190508181036000830152612a5e81612a22565b9050919050565b7f4e487b7100000000000000000000000000000000000000000000000000000000600052602160045260246000fd5b7f496e76616c696420636861696e00000000000000000000000000000000000000600082015250565b6000612aca600d836128ce565b9150612ad582612a94565b602082019050919050565b60006020820190508181036000830152612af981612abd565b9050919050565b7f496e76616c696420746f6b656e00000000000000000000000000000000000000600082015250565b6000612b36600d836128ce565b9150612b4182612b00565b602082019050919050565b60006020820190508181036000830152612b6581612b29565b9050919050565b7f41646472657373206973206e6f7420617574686f72697a656400000000000000600082015250565b6000612ba26019836128ce565b9150612bad82612b6c565b602082019050919050565b60006020820190508181036000830152612bd181612b95565b9050919050565b600081519050919050565b600081905092915050565b60005b83811015612c0c578082015181840152602081019050612bf1565b60008484015250505050565b6000612c2382612bd8565b612c2d8185612be3565b9350612c3d818560208601612bee565b80840191505092915050565b6000612c558284612c18565b915081905092915050565b7f416c7265616479207369676e6174757265207573656400000000000000000000600082015250565b6000612c966016836128ce565b9150612ca182612c60565b602082019050919050565b60006020820190508181036000830152612cc581612c89565b9050919050565b6000604082019050612ce160008301856123b7565b612cee60208301846123b7565b9392505050565b7f436865636b2074686520746f6b656e20616c6c6f77616e636500000000000000600082015250565b6000612d2b6019836128ce565b9150612d3682612cf5565b602082019050919050565b60006020820190508181036000830152612d5a81612d1e565b9050919050565b60038110612d7257612d71612a65565b5b50565b6000819050612d8382612d61565b919050565b6000612d9382612d75565b9050919050565b612da381612d88565b82525050565b60038110612dba57612db9612a65565b5b50565b6000819050612dcb82612da9565b919050565b6000612ddb82612dbd565b9050919050565b612deb81612dd0565b82525050565b60048110612e0257612e01612a65565b5b50565b6000819050612e1382612df1565b919050565b6000612e2382612e05565b9050919050565b612e3381612e18565b82525050565b60048110612e4a57612e49612a65565b5b50565b6000819050612e5b82612e39565b919050565b6000612e6b82612e4d565b9050919050565b612e7b81612e60565b82525050565b600060e082019050612e96600083018a6123b7565b612ea360208301896123b7565b612eb060408301886123b7565b612ebd6060830187612d9a565b612eca6080830186612de2565b612ed760a0830185612e2a565b612ee460c0830184612e72565b98975050505050505050565b7f56616c75652073686f756c64206265206d617463680000000000000000000000600082015250565b6000612f266015836128ce565b9150612f3182612ef0565b602082019050919050565b60006020820190508181036000830152612f5581612f19565b9050919050565b600060c082019050612f7160008301896123b7565b612f7e60208301886123b7565b612f8b6040830187612d9a565b612f986060830186612de2565b612fa56080830185612e2a565b612fb260a0830184612e72565b979650505050505050565b7f416464726573732063616e6e6f74206265203000000000000000000000000000600082015250565b6000612ff36013836128ce565b9150612ffe82612fbd565b602082019050919050565b6000602082019050818103600083015261302281612fe6565b9050919050565b7f4e487b7100000000000000000000000000000000000000000000000000000000600052601160045260246000fd5b6000613063826123e1565b915061306e836123e1565b925082820261307c816123e1565b9150828204841483151761309357613092613029565b5b5092915050565b7f4e487b7100000000000000000000000000000000000000000000000000000000600052601260045260246000fd5b60006130d4826123e1565b91506130df836123e1565b9250826130ef576130ee61309a565b5b828204905092915050565b6000613105826123e1565b9150613110836123e1565b925082820390508181111561312857613127613029565b5b92915050565b600060608201905061314360008301866123b7565b61315060208301856123b7565b61315d60408301846123eb565b949350505050565b61316e81612381565b811461317957600080fd5b50565b60008151905061318b81613165565b92915050565b6000602082840312156131a7576131a661226e565b5b60006131b58482850161317c565b91505092915050565b7f4f776e61626c653a206e6577206f776e657220697320746865207a65726f206160008201527f6464726573730000000000000000000000000000000000000000000000000000602082015250565b600061321a6026836128ce565b9150613225826131be565b604082019050919050565b600060208201905081810360008301526132498161320d565b9050919050565b600060608201905061326560008301866123b7565b61327260208301856123b7565b61327f60408301846123b7565b949350505050565b600060408201905061329c60008301856123b7565b6132a960208301846123eb565b9392505050565b7f53616d65206665657320616c6c6f636174656400000000000000000000000000600082015250565b60006132e66013836128ce565b91506132f1826132b0565b602082019050919050565b60006020820190508181036000830152613315816132d9565b9050919050565b7f4f776e61626c653a2063616c6c6572206973206e6f7420746865206f776e6572600082015250565b60006133526020836128ce565b915061335d8261331c565b602082019050919050565b6000602082019050818103600083015261338181613345565b9050919050565b7f5265656e7472616e637947756172643a207265656e7472616e742063616c6c00600082015250565b60006133be601f836128ce565b91506133c982613388565b602082019050919050565b600060208201905081810360008301526133ed816133b1565b9050919050565b7f5061757361626c653a2070617573656400000000000000000000000000000000600082015250565b600061342a6010836128ce565b9150613435826133f4565b602082019050919050565b600060208201905081810360008301526134598161341d565b9050919050565b600081905092915050565b7f19457468657265756d205369676e6564204d6573736167653a0a333200000000600082015250565b60006134a1601c83613460565b91506134ac8261346b565b601c82019050919050565b6000819050919050565b6134d26134cd82612515565b6134b7565b82525050565b60006134e382613494565b91506134ef82846134c1565b60208201915081905092915050565b7f5361666545524332303a204552433230206f7065726174696f6e20646964206e60008201527f6f74207375636365656400000000000000000000000000000000000000000000602082015250565b600061355a602a836128ce565b9150613565826134fe565b604082019050919050565b600060208201905081810360008301526135898161354d565b9050919050565b7f5061757361626c653a206e6f7420706175736564000000000000000000000000600082015250565b60006135c66014836128ce565b91506135d182613590565b602082019050919050565b600060208201905081810360008301526135f5816135b9565b9050919050565b7f45434453413a20696e76616c6964207369676e61747572650000000000000000600082015250565b60006136326018836128ce565b915061363d826135fc565b602082019050919050565b6000602082019050818103600083015261366181613625565b9050919050565b7f45434453413a20696e76616c6964207369676e6174757265206c656e67746800600082015250565b600061369e601f836128ce565b91506136a982613668565b602082019050919050565b600060208201905081810360008301526136cd81613691565b9050919050565b7f45434453413a20696e76616c6964207369676e6174757265202773272076616c60008201527f7565000000000000000000000000000000000000000000000000000000000000602082015250565b60006137306022836128ce565b915061373b826136d4565b604082019050919050565b6000602082019050818103600083015261375f81613723565b9050919050565b7f416464726573733a20696e73756666696369656e742062616c616e636520666f60008201527f722063616c6c0000000000000000000000000000000000000000000000000000602082015250565b60006137c26026836128ce565b91506137cd82613766565b604082019050919050565b600060208201905081810360008301526137f1816137b5565b9050919050565b61380181612515565b82525050565b600060ff82169050919050565b61381d81613807565b82525050565b600060808201905061383860008301876137f8565b6138456020830186613814565b61385260408301856137f8565b61385f60608301846137f8565b95945050505050565b7f416464726573733a2063616c6c20746f206e6f6e2d636f6e7472616374000000600082015250565b600061389e601d836128ce565b91506138a982613868565b602082019050919050565b600060208201905081810360008301526138cd81613891565b9050919050565b600081519050919050565b60006138ea826138d4565b6138f481856128ce565b9350613904818560208601612bee565b61390d81612555565b840191505092915050565b6000602082019050818103600083015261393281846138df565b90509291505056fea264697066735822122056a16022d3db2535c8ab0fa5efc698af110e63ba9532c1e024196779b7b1a7e564736f6c63430008110033",
  "linkReferences": {},
  "deployedLinkReferences": {}
}