{
  "_format": "hh-sol-artifact-1",
  "contractName": "BridgeEth",
  "sourceName": "contracts/BridgeEth.sol",
  "abi": [
    {
      "anonymous": false,
      "inputs": [
        {
          "indexed": false,
          "internalType": "address",
          "name": "_from",
          "type": "address"
        },
        {
          "indexed": false,
          "internalType": "address",
          "name": "_to",
          "type": "address"
        },
        {
          "indexed": true,
          "internalType": "uint256",
          "name": "_value",
          "type": "uint256"
        }
      ],
      "name": "EtherTransferedToDestinationChain",
      "type": "event"
    },
    {
      "anonymous": false,
      "inputs": [
        {
          "indexed": false,
          "internalType": "address",
          "name": "_from",
          "type": "address"
        },
        {
          "indexed": false,
          "internalType": "address",
          "name": "_to",
          "type": "address"
        },
        {
          "indexed": false,
          "internalType": "enum BridgeEth.SourceChain",
          "name": "_sourceChain",
          "type": "uint8"
        },
        {
          "indexed": false,
          "internalType": "enum BridgeEth.DestinationChain",
          "name": "_destinationChain",
          "type": "uint8"
        },
        {
          "indexed": false,
          "internalType": "enum BridgeEth.SourceChainTokensAvailable",
          "name": "_tokensAvailableFromSourceChain",
          "type": "uint8"
        },
        {
          "indexed": false,
          "internalType": "enum BridgeEth.DestinationChainTokensAvailable",
          "name": "_tokensAvailableFromDestinationChain",
          "type": "uint8"
        },
        {
          "indexed": true,
          "internalType": "uint256",
          "name": "_value",
          "type": "uint256"
        }
      ],
      "name": "LockedEther",
      "type": "event"
    },
    {
      "anonymous": false,
      "inputs": [
        {
          "indexed": false,
          "internalType": "address",
          "name": "_token",
          "type": "address"
        },
        {
          "indexed": false,
          "internalType": "address",
          "name": "_from",
          "type": "address"
        },
        {
          "indexed": false,
          "internalType": "address",
          "name": "_to",
          "type": "address"
        },
        {
          "indexed": false,
          "internalType": "enum BridgeEth.SourceChain",
          "name": "_sourceChain",
          "type": "uint8"
        },
        {
          "indexed": false,
          "internalType": "enum BridgeEth.DestinationChain",
          "name": "_destinationChain",
          "type": "uint8"
        },
        {
          "indexed": false,
          "internalType": "enum BridgeEth.SourceChainTokensAvailable",
          "name": "_tokensAvailableFromSourceChain",
          "type": "uint8"
        },
        {
          "indexed": false,
          "internalType": "enum BridgeEth.DestinationChainTokensAvailable",
          "name": "_tokensAvailableFromDestinationChain",
          "type": "uint8"
        },
        {
          "indexed": true,
          "internalType": "uint256",
          "name": "_amount",
          "type": "uint256"
        }
      ],
      "name": "LockedToken",
      "type": "event"
    },
    {
      "anonymous": false,
      "inputs": [
        {
          "indexed": true,
          "internalType": "address",
          "name": "previousOwner",
          "type": "address"
        },
        {
          "indexed": true,
          "internalType": "address",
          "name": "newOwner",
          "type": "address"
        }
      ],
      "name": "OwnershipTransferred",
      "type": "event"
    },
    {
      "anonymous": false,
      "inputs": [
        {
          "indexed": false,
          "internalType": "address",
          "name": "_token",
          "type": "address"
        },
        {
          "indexed": false,
          "internalType": "address",
          "name": "_from",
          "type": "address"
        },
        {
          "indexed": false,
          "internalType": "address",
          "name": "_to",
          "type": "address"
        },
        {
          "indexed": true,
          "internalType": "uint256",
          "name": "_amount",
          "type": "uint256"
        }
      ],
      "name": "TokenTransferedToDestinationChain",
      "type": "event"
    },
    {
      "inputs": [
        {
          "internalType": "uint256",
          "name": "newSmartContractFees",
          "type": "uint256"
        }
      ],
      "name": "changeSmartContractFees",
      "outputs": [
        {
          "internalType": "uint256",
          "name": "",
          "type": "uint256"
        }
      ],
      "stateMutability": "nonpayable",
      "type": "function"
    },
    {
      "inputs": [],
      "name": "getSmartContractFees",
      "outputs": [
        {
          "internalType": "uint256",
          "name": "",
          "type": "uint256"
        }
      ],
      "stateMutability": "view",
      "type": "function"
    },
    {
      "inputs": [
        {
          "internalType": "address",
          "name": "tokenAddress",
          "type": "address"
        },
        {
          "internalType": "address",
          "name": "recipient",
          "type": "address"
        }
      ],
      "name": "getTokenBalance",
      "outputs": [
        {
          "internalType": "uint256",
          "name": "",
          "type": "uint256"
        }
      ],
      "stateMutability": "view",
      "type": "function"
    },
    {
      "inputs": [
        {
          "internalType": "uint256",
          "name": "value",
          "type": "uint256"
        }
      ],
      "name": "lockEthToContract",
      "outputs": [],
      "stateMutability": "payable",
      "type": "function"
    },
    {
      "inputs": [
        {
          "internalType": "enum BridgeEth.SourceChain",
          "name": "sourceChain",
          "type": "uint8"
        },
        {
          "internalType": "enum BridgeEth.DestinationChain",
          "name": "destinationChain",
          "type": "uint8"
        },
        {
          "internalType": "enum BridgeEth.SourceChainTokensAvailable",
          "name": "tokensAvailableFromSourceChain",
          "type": "uint8"
        },
        {
          "internalType": "enum BridgeEth.DestinationChainTokensAvailable",
          "name": "tokensAvailableFromDestinationChain",
          "type": "uint8"
        },
        {
          "internalType": "uint256",
          "name": "value",
          "type": "uint256"
        },
        {
          "internalType": "bytes32",
          "name": "hash",
          "type": "bytes32"
        },
        {
          "internalType": "bytes",
          "name": "signature",
          "type": "bytes"
        }
      ],
      "name": "lockEther",
      "outputs": [],
      "stateMutability": "payable",
      "type": "function"
    },
    {
      "inputs": [
        {
          "internalType": "enum BridgeEth.SourceChain",
          "name": "sourceChain",
          "type": "uint8"
        },
        {
          "internalType": "enum BridgeEth.DestinationChain",
          "name": "destinationChain",
          "type": "uint8"
        },
        {
          "internalType": "enum BridgeEth.SourceChainTokensAvailable",
          "name": "tokensAvailableFromSourceChain",
          "type": "uint8"
        },
        {
          "internalType": "enum BridgeEth.DestinationChainTokensAvailable",
          "name": "tokensAvailableFromDestinationChain",
          "type": "uint8"
        },
        {
          "internalType": "address",
          "name": "tokenAddress",
          "type": "address"
        },
        {
          "internalType": "uint256",
          "name": "amount",
          "type": "uint256"
        },
        {
          "internalType": "bytes32",
          "name": "hash",
          "type": "bytes32"
        },
        {
          "internalType": "bytes",
          "name": "signature",
          "type": "bytes"
        }
      ],
      "name": "lockToken",
      "outputs": [],
      "stateMutability": "nonpayable",
      "type": "function"
    },
    {
      "inputs": [
        {
          "internalType": "address",
          "name": "tokenAddress",
          "type": "address"
        },
        {
          "internalType": "uint256",
          "name": "amount",
          "type": "uint256"
        }
      ],
      "name": "lockTokenToContract",
      "outputs": [],
      "stateMutability": "nonpayable",
      "type": "function"
    },
    {
      "inputs": [],
      "name": "owner",
      "outputs": [
        {
          "internalType": "address",
          "name": "",
          "type": "address"
        }
      ],
      "stateMutability": "view",
      "type": "function"
    },
    {
      "inputs": [],
      "name": "renounceOwnership",
      "outputs": [],
      "stateMutability": "nonpayable",
      "type": "function"
    },
    {
      "inputs": [
        {
          "internalType": "address",
          "name": "recipient",
          "type": "address"
        },
        {
          "internalType": "uint256",
          "name": "value",
          "type": "uint256"
        }
      ],
      "name": "transferEth",
      "outputs": [],
      "stateMutability": "nonpayable",
      "type": "function"
    },
    {
      "inputs": [
        {
          "internalType": "address",
          "name": "newOwner",
          "type": "address"
        }
      ],
      "name": "transferOwnership",
      "outputs": [],
      "stateMutability": "nonpayable",
      "type": "function"
    },
    {
      "inputs": [
        {
          "internalType": "address",
          "name": "tokenAddress",
          "type": "address"
        },
        {
          "internalType": "address",
          "name": "recipient",
          "type": "address"
        },
        {
          "internalType": "uint256",
          "name": "amount",
          "type": "uint256"
        }
      ],
      "name": "transferToken",
      "outputs": [],
      "stateMutability": "nonpayable",
      "type": "function"
    },
    {
      "inputs": [
        {
          "internalType": "address payable",
          "name": "recipient",
          "type": "address"
        }
      ],
      "name": "withdraw",
      "outputs": [],
      "stateMutability": "nonpayable",
      "type": "function"
    },
    {
      "inputs": [
        {
          "internalType": "address",
          "name": "tokenAddress",
          "type": "address"
        },
        {
          "internalType": "address",
          "name": "recipient",
          "type": "address"
        }
      ],
      "name": "withdrawToken",
      "outputs": [],
      "stateMutability": "nonpayable",
      "type": "function"
    }
  ],
  "bytecode": "0x608060405260026003553480156200001657600080fd5b50620000376200002b6200004460201b60201c565b6200004c60201b60201c565b6001808190555062000110565b600033905090565b60008060009054906101000a900473ffffffffffffffffffffffffffffffffffffffff169050816000806101000a81548173ffffffffffffffffffffffffffffffffffffffff021916908373ffffffffffffffffffffffffffffffffffffffff1602179055508173ffffffffffffffffffffffffffffffffffffffff168173ffffffffffffffffffffffffffffffffffffffff167f8be0079c531659141344cd1fd0a4f28419497f9722a3daafe3b4186f6b6457e060405160405180910390a35050565b61338580620001206000396000f3fe6080604052600436106100dd5760003560e01c8063e95515861161007f578063f1597e7711610059578063f1597e7714610268578063f2fde38b14610291578063f5537ede146102ba578063f656eece146102e3576100dd565b8063e955158614610207578063e981295d14610223578063e9bb84c21461023f576100dd565b80638da5cb5b116100bb5780638da5cb5b1461014b5780639a3488b614610176578063c489744b146101a1578063e1828c11146101de576100dd565b80633aeac4e1146100e257806351cff8d91461010b578063715018a614610134575b600080fd5b3480156100ee57600080fd5b5061010960048036038101906101049190611ded565b610320565b005b34801561011757600080fd5b50610132600480360381019061012d9190611e6b565b6104e1565b005b34801561014057600080fd5b506101496105a2565b005b34801561015757600080fd5b506101606105b6565b60405161016d9190611ea7565b60405180910390f35b34801561018257600080fd5b5061018b6105df565b6040516101989190611edb565b60405180910390f35b3480156101ad57600080fd5b506101c860048036038101906101c39190611ded565b6105e9565b6040516101d59190611edb565b60405180910390f35b3480156101ea57600080fd5b5061020560048036038101906102009190612132565b610759565b005b610221600480360381019061021c9190612204565b610bac565b005b61023d600480360381019061023891906122c2565b610f0f565b005b34801561024b57600080fd5b50610266600480360381019061026191906122ef565b610faf565b005b34801561027457600080fd5b5061028f600480360381019061028a91906122ef565b6110f0565b005b34801561029d57600080fd5b506102b860048036038101906102b3919061232f565b611235565b005b3480156102c657600080fd5b506102e160048036038101906102dc919061235c565b6112b8565b005b3480156102ef57600080fd5b5061030a600480360381019061030591906122c2565b6114dc565b6040516103179190611edb565b60405180910390f35b610328611537565b600073ffffffffffffffffffffffffffffffffffffffff168173ffffffffffffffffffffffffffffffffffffffff1603610397576040517f08c379a000000000000000000000000000000000000000000000000000000000815260040161038e9061240c565b60405180910390fd5b600082905060008173ffffffffffffffffffffffffffffffffffffffff166370a08231306040518263ffffffff1660e01b81526004016103d79190611ea7565b602060405180830381865afa1580156103f4573d6000803e3d6000fd5b505050506040513d601f19601f820116820180604052508101906104189190612441565b11610458576040517f08c379a000000000000000000000000000000000000000000000000000000000815260040161044f906124ba565b60405180910390fd5b6104dc81838373ffffffffffffffffffffffffffffffffffffffff166370a08231306040518263ffffffff1660e01b81526004016104969190611ea7565b602060405180830381865afa1580156104b3573d6000803e3d6000fd5b505050506040513d601f19601f820116820180604052508101906104d79190612441565b6115b5565b505050565b6104e9611537565b600073ffffffffffffffffffffffffffffffffffffffff168173ffffffffffffffffffffffffffffffffffffffff1603610558576040517f08c379a000000000000000000000000000000000000000000000000000000000815260040161054f9061240c565b60405180910390fd5b8073ffffffffffffffffffffffffffffffffffffffff166108fc479081150290604051600060405180830381858888f1935050505015801561059e573d6000803e3d6000fd5b5050565b6105aa611537565b6105b4600061163b565b565b60008060009054906101000a900473ffffffffffffffffffffffffffffffffffffffff16905090565b6000600354905090565b60006105f3611537565b600073ffffffffffffffffffffffffffffffffffffffff168373ffffffffffffffffffffffffffffffffffffffff1603610662576040517f08c379a00000000000000000000000000000000000000000000000000000000081526004016106599061240c565b60405180910390fd5b600073ffffffffffffffffffffffffffffffffffffffff168273ffffffffffffffffffffffffffffffffffffffff16036106d1576040517f08c379a00000000000000000000000000000000000000000000000000000000081526004016106c89061240c565b60405180910390fd5b60008390508073ffffffffffffffffffffffffffffffffffffffff166370a08231846040518263ffffffff1660e01b815260040161070f9190611ea7565b602060405180830381865afa15801561072c573d6000803e3d6000fd5b505050506040513d601f19601f820116820180604052508101906107509190612441565b91505092915050565b6000830361079c576040517f08c379a000000000000000000000000000000000000000000000000000000000815260040161079390612526565b60405180910390fd5b600060028111156107b0576107af612546565b5b8860028111156107c3576107c2612546565b5b1480156107f55750600060028111156107df576107de612546565b5b8760028111156107f2576107f1612546565b5b14155b610834576040517f08c379a000000000000000000000000000000000000000000000000000000000815260040161082b906125c1565b60405180910390fd5b6000600381111561084857610847612546565b5b86600381111561085b5761085a612546565b5b1415801561088e57506001600381111561087857610877612546565b5b86600381111561088b5761088a612546565b5b14155b80156108bf5750600060038111156108a9576108a8612546565b5b8560038111156108bc576108bb612546565b5b14155b6108fe576040517f08c379a00000000000000000000000000000000000000000000000000000000081526004016108f59061262d565b60405180910390fd5b600073ffffffffffffffffffffffffffffffffffffffff168473ffffffffffffffffffffffffffffffffffffffff160361096d576040517f08c379a00000000000000000000000000000000000000000000000000000000081526004016109649061240c565b60405180910390fd5b6109756105b6565b73ffffffffffffffffffffffffffffffffffffffff1661099583836116ff565b73ffffffffffffffffffffffffffffffffffffffff16146109eb576040517f08c379a00000000000000000000000000000000000000000000000000000000081526004016109e290612699565b60405180910390fd5b6004816040516109fb919061272a565b908152602001604051809103902060009054906101000a900460ff1615610a57576040517f08c379a0000000000000000000000000000000000000000000000000000000008152600401610a4e9061278d565b60405180910390fd5b6000849050838173ffffffffffffffffffffffffffffffffffffffff1663dd62ed3e33306040518363ffffffff1660e01b8152600401610a989291906127ad565b602060405180830381865afa158015610ab5573d6000803e3d6000fd5b505050506040513d601f19601f82011682018060405250810190610ad99190612441565b1015610b1a576040517f08c379a0000000000000000000000000000000000000000000000000000000008152600401610b1190612822565b60405180910390fd5b837f4472c72d0bcf5053f9b751e4fab2043d10268d0bb56b8bc379a6743d297ec4bf8633308d8d8d8d604051610b569796959493929190612962565b60405180910390a2610b6a8133308761173e565b6001600483604051610b7c919061272a565b908152602001604051809103902060006101000a81548160ff021916908315150217905550505050505050505050565b610bb46117c7565b60003403610bf7576040517f08c379a0000000000000000000000000000000000000000000000000000000008152600401610bee90612526565b60405180910390fd5b60006002811115610c0b57610c0a612546565b5b876002811115610c1e57610c1d612546565b5b148015610c50575060006002811115610c3a57610c39612546565b5b866002811115610c4d57610c4c612546565b5b14155b610c8f576040517f08c379a0000000000000000000000000000000000000000000000000000000008152600401610c86906125c1565b60405180910390fd5b60026003811115610ca357610ca2612546565b5b856003811115610cb657610cb5612546565b5b14158015610ce9575060016003811115610cd357610cd2612546565b5b856003811115610ce657610ce5612546565b5b14155b8015610d1a575060006003811115610d0457610d03612546565b5b846003811115610d1757610d16612546565b5b14155b610d59576040517f08c379a0000000000000000000000000000000000000000000000000000000008152600401610d509061262d565b60405180910390fd5b823414610d9b576040517f08c379a0000000000000000000000000000000000000000000000000000000008152600401610d9290612a1d565b60405180910390fd5b610da36105b6565b73ffffffffffffffffffffffffffffffffffffffff16610dc383836116ff565b73ffffffffffffffffffffffffffffffffffffffff1614610e19576040517f08c379a0000000000000000000000000000000000000000000000000000000008152600401610e1090612699565b60405180910390fd5b600481604051610e29919061272a565b908152602001604051809103902060009054906101000a900460ff1615610e85576040517f08c379a0000000000000000000000000000000000000000000000000000000008152600401610e7c9061278d565b60405180910390fd5b827f88e7a56b4cb7b47654051d0b015c35546fc752eecd6990f1a48b71496a7689de33308a8a8a8a604051610ebf96959493929190612a3d565b60405180910390a26001600482604051610ed9919061272a565b908152602001604051809103902060006101000a81548160ff021916908315150217905550610f06611816565b50505050505050565b610f17611537565b610f1f6117c7565b60003403610f62576040517f08c379a0000000000000000000000000000000000000000000000000000000008152600401610f5990612526565b60405180910390fd5b803414610fa4576040517f08c379a0000000000000000000000000000000000000000000000000000000008152600401610f9b90612a1d565b60405180910390fd5b610fac611816565b50565b610fb7611537565b610fbf6117c7565b600073ffffffffffffffffffffffffffffffffffffffff168273ffffffffffffffffffffffffffffffffffffffff160361102e576040517f08c379a000000000000000000000000000000000000000000000000000000000815260040161102590612aea565b60405180910390fd5b60006064600354836110409190612b39565b61104a9190612baa565b905080826110589190612bdb565b7f05bb26d01a3db5ef7024bc3fd2338148473779b8444b8fdc959198c8c26f76d830856040516110899291906127ad565b60405180910390a28273ffffffffffffffffffffffffffffffffffffffff166108fc82846110b79190612bdb565b9081150290604051600060405180830381858888f193505050501580156110e2573d6000803e3d6000fd5b50506110ec611816565b5050565b6110f8611537565b6000829050600073ffffffffffffffffffffffffffffffffffffffff168373ffffffffffffffffffffffffffffffffffffffff160361116c576040517f08c379a00000000000000000000000000000000000000000000000000000000081526004016111639061240c565b60405180910390fd5b600082036111af576040517f08c379a00000000000000000000000000000000000000000000000000000000081526004016111a690612526565b60405180910390fd5b8073ffffffffffffffffffffffffffffffffffffffff166323b872dd3330856040518463ffffffff1660e01b81526004016111ec93929190612c0f565b6020604051808303816000875af115801561120b573d6000803e3d6000fd5b505050506040513d601f19601f8201168201806040525081019061122f9190612c7e565b50505050565b61123d611537565b600073ffffffffffffffffffffffffffffffffffffffff168173ffffffffffffffffffffffffffffffffffffffff16036112ac576040517f08c379a00000000000000000000000000000000000000000000000000000000081526004016112a390612d1d565b60405180910390fd5b6112b58161163b565b50565b6112c0611537565b6000839050600073ffffffffffffffffffffffffffffffffffffffff168473ffffffffffffffffffffffffffffffffffffffff1603611334576040517f08c379a000000000000000000000000000000000000000000000000000000000815260040161132b9061240c565b60405180910390fd5b600073ffffffffffffffffffffffffffffffffffffffff168373ffffffffffffffffffffffffffffffffffffffff16036113a3576040517f08c379a000000000000000000000000000000000000000000000000000000000815260040161139a90612aea565b60405180910390fd5b600082036113e6576040517f08c379a00000000000000000000000000000000000000000000000000000000081526004016113dd90612526565b60405180910390fd5b60006064600354846113f89190612b39565b6114029190612baa565b905080836114109190612bdb565b7f85647f12ef10ce387990d62d699fab79560d0e6165ced3af12f4ada543a2c74886308760405161144393929190612d3d565b60405180910390a28173ffffffffffffffffffffffffffffffffffffffff1663a9059cbb8583866114749190612bdb565b6040518363ffffffff1660e01b8152600401611491929190612d74565b6020604051808303816000875af11580156114b0573d6000803e3d6000fd5b505050506040513d601f19601f820116820180604052508101906114d49190612c7e565b505050505050565b60006114e6611537565b816003540361152a576040517f08c379a000000000000000000000000000000000000000000000000000000000815260040161152190612de9565b60405180910390fd5b8160038190559050919050565b61153f61181f565b73ffffffffffffffffffffffffffffffffffffffff1661155d6105b6565b73ffffffffffffffffffffffffffffffffffffffff16146115b3576040517f08c379a00000000000000000000000000000000000000000000000000000000081526004016115aa90612e55565b60405180910390fd5b565b6116368363a9059cbb60e01b84846040516024016115d4929190612d74565b604051602081830303815290604052907bffffffffffffffffffffffffffffffffffffffffffffffffffffffff19166020820180517bffffffffffffffffffffffffffffffffffffffffffffffffffffffff8381831617835250505050611827565b505050565b60008060009054906101000a900473ffffffffffffffffffffffffffffffffffffffff169050816000806101000a81548173ffffffffffffffffffffffffffffffffffffffff021916908373ffffffffffffffffffffffffffffffffffffffff1602179055508173ffffffffffffffffffffffffffffffffffffffff168173ffffffffffffffffffffffffffffffffffffffff167f8be0079c531659141344cd1fd0a4f28419497f9722a3daafe3b4186f6b6457e060405160405180910390a35050565b600080836040516020016117139190612eed565b60405160208183030381529060405280519060200120905061173581846118ee565b91505092915050565b6117c1846323b872dd60e01b85858560405160240161175f93929190612c0f565b604051602081830303815290604052907bffffffffffffffffffffffffffffffffffffffffffffffffffffffff19166020820180517bffffffffffffffffffffffffffffffffffffffffffffffffffffffff8381831617835250505050611827565b50505050565b60026001540361180c576040517f08c379a000000000000000000000000000000000000000000000000000000000815260040161180390612f5f565b60405180910390fd5b6002600181905550565b60018081905550565b600033905090565b6000611889826040518060400160405280602081526020017f5361666545524332303a206c6f772d6c6576656c2063616c6c206661696c65648152508573ffffffffffffffffffffffffffffffffffffffff166119159092919063ffffffff16565b90506000815111156118e957808060200190518101906118a99190612c7e565b6118e8576040517f08c379a00000000000000000000000000000000000000000000000000000000081526004016118df90612ff1565b60405180910390fd5b5b505050565b60008060006118fd858561192d565b9150915061190a8161197e565b819250505092915050565b60606119248484600085611ae4565b90509392505050565b600080604183510361196e5760008060006020860151925060408601519150606086015160001a905061196287828585611bb1565b94509450505050611977565b60006002915091505b9250929050565b6000600481111561199257611991612546565b5b8160048111156119a5576119a4612546565b5b0315611ae157600160048111156119bf576119be612546565b5b8160048111156119d2576119d1612546565b5b03611a12576040517f08c379a0000000000000000000000000000000000000000000000000000000008152600401611a099061305d565b60405180910390fd5b60026004811115611a2657611a25612546565b5b816004811115611a3957611a38612546565b5b03611a79576040517f08c379a0000000000000000000000000000000000000000000000000000000008152600401611a70906130c9565b60405180910390fd5b60036004811115611a8d57611a8c612546565b5b816004811115611aa057611a9f612546565b5b03611ae0576040517f08c379a0000000000000000000000000000000000000000000000000000000008152600401611ad79061315b565b60405180910390fd5b5b50565b606082471015611b29576040517f08c379a0000000000000000000000000000000000000000000000000000000008152600401611b20906131ed565b60405180910390fd5b6000808673ffffffffffffffffffffffffffffffffffffffff168587604051611b52919061272a565b60006040518083038185875af1925050503d8060008114611b8f576040519150601f19603f3d011682016040523d82523d6000602084013e611b94565b606091505b5091509150611ba587838387611c93565b92505050949350505050565b6000807f7fffffffffffffffffffffffffffffff5d576e7357a4501ddfe92f46681b20a08360001c1115611bec576000600391509150611c8a565b600060018787878760405160008152602001604052604051611c119493929190613238565b6020604051602081039080840390855afa158015611c33573d6000803e3d6000fd5b505050602060405103519050600073ffffffffffffffffffffffffffffffffffffffff168173ffffffffffffffffffffffffffffffffffffffff1603611c8157600060019250925050611c8a565b80600092509250505b94509492505050565b60608315611cf5576000835103611ced57611cad85611d08565b611cec576040517f08c379a0000000000000000000000000000000000000000000000000000000008152600401611ce3906132c9565b60405180910390fd5b5b829050611d00565b611cff8383611d2b565b5b949350505050565b6000808273ffffffffffffffffffffffffffffffffffffffff163b119050919050565b600082511115611d3e5781518083602001fd5b806040517f08c379a0000000000000000000000000000000000000000000000000000000008152600401611d72919061332d565b60405180910390fd5b6000604051905090565b600080fd5b600080fd5b600073ffffffffffffffffffffffffffffffffffffffff82169050919050565b6000611dba82611d8f565b9050919050565b611dca81611daf565b8114611dd557600080fd5b50565b600081359050611de781611dc1565b92915050565b60008060408385031215611e0457611e03611d85565b5b6000611e1285828601611dd8565b9250506020611e2385828601611dd8565b9150509250929050565b6000611e3882611d8f565b9050919050565b611e4881611e2d565b8114611e5357600080fd5b50565b600081359050611e6581611e3f565b92915050565b600060208284031215611e8157611e80611d85565b5b6000611e8f84828501611e56565b91505092915050565b611ea181611daf565b82525050565b6000602082019050611ebc6000830184611e98565b92915050565b6000819050919050565b611ed581611ec2565b82525050565b6000602082019050611ef06000830184611ecc565b92915050565b60038110611f0357600080fd5b50565b600081359050611f1581611ef6565b92915050565b60038110611f2857600080fd5b50565b600081359050611f3a81611f1b565b92915050565b60048110611f4d57600080fd5b50565b600081359050611f5f81611f40565b92915050565b60048110611f7257600080fd5b50565b600081359050611f8481611f65565b92915050565b611f9381611ec2565b8114611f9e57600080fd5b50565b600081359050611fb081611f8a565b92915050565b6000819050919050565b611fc981611fb6565b8114611fd457600080fd5b50565b600081359050611fe681611fc0565b92915050565b600080fd5b600080fd5b6000601f19601f8301169050919050565b7f4e487b7100000000000000000000000000000000000000000000000000000000600052604160045260246000fd5b61203f82611ff6565b810181811067ffffffffffffffff8211171561205e5761205d612007565b5b80604052505050565b6000612071611d7b565b905061207d8282612036565b919050565b600067ffffffffffffffff82111561209d5761209c612007565b5b6120a682611ff6565b9050602081019050919050565b82818337600083830152505050565b60006120d56120d084612082565b612067565b9050828152602081018484840111156120f1576120f0611ff1565b5b6120fc8482856120b3565b509392505050565b600082601f83011261211957612118611fec565b5b81356121298482602086016120c2565b91505092915050565b600080600080600080600080610100898b03121561215357612152611d85565b5b60006121618b828c01611f06565b98505060206121728b828c01611f2b565b97505060406121838b828c01611f50565b96505060606121948b828c01611f75565b95505060806121a58b828c01611dd8565b94505060a06121b68b828c01611fa1565b93505060c06121c78b828c01611fd7565b92505060e089013567ffffffffffffffff8111156121e8576121e7611d8a565b5b6121f48b828c01612104565b9150509295985092959890939650565b600080600080600080600060e0888a03121561222357612222611d85565b5b60006122318a828b01611f06565b97505060206122428a828b01611f2b565b96505060406122538a828b01611f50565b95505060606122648a828b01611f75565b94505060806122758a828b01611fa1565b93505060a06122868a828b01611fd7565b92505060c088013567ffffffffffffffff8111156122a7576122a6611d8a565b5b6122b38a828b01612104565b91505092959891949750929550565b6000602082840312156122d8576122d7611d85565b5b60006122e684828501611fa1565b91505092915050565b6000806040838503121561230657612305611d85565b5b600061231485828601611dd8565b925050602061232585828601611fa1565b9150509250929050565b60006020828403121561234557612344611d85565b5b600061235384828501611dd8565b91505092915050565b60008060006060848603121561237557612374611d85565b5b600061238386828701611dd8565b935050602061239486828701611dd8565b92505060406123a586828701611fa1565b9150509250925092565b600082825260208201905092915050565b7f416464726573732063616e6e6f74206265207a65726f00000000000000000000600082015250565b60006123f66016836123af565b9150612401826123c0565b602082019050919050565b60006020820190508181036000830152612425816123e9565b9050919050565b60008151905061243b81611f8a565b92915050565b60006020828403121561245757612456611d85565b5b60006124658482850161242c565b91505092915050565b7f496e73756666696369656e742062616c616e6365000000000000000000000000600082015250565b60006124a46014836123af565b91506124af8261246e565b602082019050919050565b600060208201905081810360008301526124d381612497565b9050919050565b7f496e73756666696369656e7420616d6f756e7400000000000000000000000000600082015250565b60006125106013836123af565b915061251b826124da565b602082019050919050565b6000602082019050818103600083015261253f81612503565b9050919050565b7f4e487b7100000000000000000000000000000000000000000000000000000000600052602160045260246000fd5b7f496e76616c696420636861696e00000000000000000000000000000000000000600082015250565b60006125ab600d836123af565b91506125b682612575565b602082019050919050565b600060208201905081810360008301526125da8161259e565b9050919050565b7f496e76616c696420746f6b656e00000000000000000000000000000000000000600082015250565b6000612617600d836123af565b9150612622826125e1565b602082019050919050565b600060208201905081810360008301526126468161260a565b9050919050565b7f41646472657373206973206e6f7420617574686f72697a656400000000000000600082015250565b60006126836019836123af565b915061268e8261264d565b602082019050919050565b600060208201905081810360008301526126b281612676565b9050919050565b600081519050919050565b600081905092915050565b60005b838110156126ed5780820151818401526020810190506126d2565b60008484015250505050565b6000612704826126b9565b61270e81856126c4565b935061271e8185602086016126cf565b80840191505092915050565b600061273682846126f9565b915081905092915050565b7f416c7265616479207369676e6174757265207573656400000000000000000000600082015250565b60006127776016836123af565b915061278282612741565b602082019050919050565b600060208201905081810360008301526127a68161276a565b9050919050565b60006040820190506127c26000830185611e98565b6127cf6020830184611e98565b9392505050565b7f436865636b2074686520746f6b656e20616c6c6f77616e636500000000000000600082015250565b600061280c6019836123af565b9150612817826127d6565b602082019050919050565b6000602082019050818103600083015261283b816127ff565b9050919050565b6003811061285357612852612546565b5b50565b600081905061286482612842565b919050565b600061287482612856565b9050919050565b61288481612869565b82525050565b6003811061289b5761289a612546565b5b50565b60008190506128ac8261288a565b919050565b60006128bc8261289e565b9050919050565b6128cc816128b1565b82525050565b600481106128e3576128e2612546565b5b50565b60008190506128f4826128d2565b919050565b6000612904826128e6565b9050919050565b612914816128f9565b82525050565b6004811061292b5761292a612546565b5b50565b600081905061293c8261291a565b919050565b600061294c8261292e565b9050919050565b61295c81612941565b82525050565b600060e082019050612977600083018a611e98565b6129846020830189611e98565b6129916040830188611e98565b61299e606083018761287b565b6129ab60808301866128c3565b6129b860a083018561290b565b6129c560c0830184612953565b98975050505050505050565b7f56616c75652073686f756c64206265206d617463680000000000000000000000600082015250565b6000612a076015836123af565b9150612a12826129d1565b602082019050919050565b60006020820190508181036000830152612a36816129fa565b9050919050565b600060c082019050612a526000830189611e98565b612a5f6020830188611e98565b612a6c604083018761287b565b612a7960608301866128c3565b612a86608083018561290b565b612a9360a0830184612953565b979650505050505050565b7f416464726573732063616e6e6f74206265203000000000000000000000000000600082015250565b6000612ad46013836123af565b9150612adf82612a9e565b602082019050919050565b60006020820190508181036000830152612b0381612ac7565b9050919050565b7f4e487b7100000000000000000000000000000000000000000000000000000000600052601160045260246000fd5b6000612b4482611ec2565b9150612b4f83611ec2565b9250828202612b5d81611ec2565b91508282048414831517612b7457612b73612b0a565b5b5092915050565b7f4e487b7100000000000000000000000000000000000000000000000000000000600052601260045260246000fd5b6000612bb582611ec2565b9150612bc083611ec2565b925082612bd057612bcf612b7b565b5b828204905092915050565b6000612be682611ec2565b9150612bf183611ec2565b9250828203905081811115612c0957612c08612b0a565b5b92915050565b6000606082019050612c246000830186611e98565b612c316020830185611e98565b612c3e6040830184611ecc565b949350505050565b60008115159050919050565b612c5b81612c46565b8114612c6657600080fd5b50565b600081519050612c7881612c52565b92915050565b600060208284031215612c9457612c93611d85565b5b6000612ca284828501612c69565b91505092915050565b7f4f776e61626c653a206e6577206f776e657220697320746865207a65726f206160008201527f6464726573730000000000000000000000000000000000000000000000000000602082015250565b6000612d076026836123af565b9150612d1282612cab565b604082019050919050565b60006020820190508181036000830152612d3681612cfa565b9050919050565b6000606082019050612d526000830186611e98565b612d5f6020830185611e98565b612d6c6040830184611e98565b949350505050565b6000604082019050612d896000830185611e98565b612d966020830184611ecc565b9392505050565b7f53616d65206665657320616c6c6f636174656400000000000000000000000000600082015250565b6000612dd36013836123af565b9150612dde82612d9d565b602082019050919050565b60006020820190508181036000830152612e0281612dc6565b9050919050565b7f4f776e61626c653a2063616c6c6572206973206e6f7420746865206f776e6572600082015250565b6000612e3f6020836123af565b9150612e4a82612e09565b602082019050919050565b60006020820190508181036000830152612e6e81612e32565b9050919050565b600081905092915050565b7f19457468657265756d205369676e6564204d6573736167653a0a333200000000600082015250565b6000612eb6601c83612e75565b9150612ec182612e80565b601c82019050919050565b6000819050919050565b612ee7612ee282611fb6565b612ecc565b82525050565b6000612ef882612ea9565b9150612f048284612ed6565b60208201915081905092915050565b7f5265656e7472616e637947756172643a207265656e7472616e742063616c6c00600082015250565b6000612f49601f836123af565b9150612f5482612f13565b602082019050919050565b60006020820190508181036000830152612f7881612f3c565b9050919050565b7f5361666545524332303a204552433230206f7065726174696f6e20646964206e60008201527f6f74207375636365656400000000000000000000000000000000000000000000602082015250565b6000612fdb602a836123af565b9150612fe682612f7f565b604082019050919050565b6000602082019050818103600083015261300a81612fce565b9050919050565b7f45434453413a20696e76616c6964207369676e61747572650000000000000000600082015250565b60006130476018836123af565b915061305282613011565b602082019050919050565b600060208201905081810360008301526130768161303a565b9050919050565b7f45434453413a20696e76616c6964207369676e6174757265206c656e67746800600082015250565b60006130b3601f836123af565b91506130be8261307d565b602082019050919050565b600060208201905081810360008301526130e2816130a6565b9050919050565b7f45434453413a20696e76616c6964207369676e6174757265202773272076616c60008201527f7565000000000000000000000000000000000000000000000000000000000000602082015250565b60006131456022836123af565b9150613150826130e9565b604082019050919050565b6000602082019050818103600083015261317481613138565b9050919050565b7f416464726573733a20696e73756666696369656e742062616c616e636520666f60008201527f722063616c6c0000000000000000000000000000000000000000000000000000602082015250565b60006131d76026836123af565b91506131e28261317b565b604082019050919050565b60006020820190508181036000830152613206816131ca565b9050919050565b61321681611fb6565b82525050565b600060ff82169050919050565b6132328161321c565b82525050565b600060808201905061324d600083018761320d565b61325a6020830186613229565b613267604083018561320d565b613274606083018461320d565b95945050505050565b7f416464726573733a2063616c6c20746f206e6f6e2d636f6e7472616374000000600082015250565b60006132b3601d836123af565b91506132be8261327d565b602082019050919050565b600060208201905081810360008301526132e2816132a6565b9050919050565b600081519050919050565b60006132ff826132e9565b61330981856123af565b93506133198185602086016126cf565b61332281611ff6565b840191505092915050565b6000602082019050818103600083015261334781846132f4565b90509291505056fea26469706673582212202c5dccf60871626718fc09b33f133854b6605728a4b65473af39f98eb3e2acdc64736f6c63430008110033",
  "linkReferences": {},
  "deployedLinkReferences": {}
}